{
  "contractName": "ChiToken",
  "abi": [
    {
      "anonymous": false,
      "inputs": [
        {
          "indexed": true,
          "internalType": "address",
          "name": "owner",
          "type": "address"
        },
        {
          "indexed": true,
          "internalType": "address",
          "name": "spender",
          "type": "address"
        },
        {
          "indexed": false,
          "internalType": "uint256",
          "name": "value",
          "type": "uint256"
        }
      ],
      "name": "Approval",
      "type": "event"
    },
    {
      "anonymous": false,
      "inputs": [
        {
          "indexed": true,
          "internalType": "address",
          "name": "from",
          "type": "address"
        },
        {
          "indexed": true,
          "internalType": "address",
          "name": "to",
          "type": "address"
        },
        {
          "indexed": false,
          "internalType": "uint256",
          "name": "value",
          "type": "uint256"
        }
      ],
      "name": "Transfer",
      "type": "event"
    },
    {
      "inputs": [
        {
          "internalType": "address",
          "name": "owner",
          "type": "address"
        },
        {
          "internalType": "address",
          "name": "spender",
          "type": "address"
        }
      ],
      "name": "allowance",
      "outputs": [
        {
          "internalType": "uint256",
          "name": "",
          "type": "uint256"
        }
      ],
      "stateMutability": "view",
      "type": "function"
    },
    {
      "inputs": [
        {
          "internalType": "address",
          "name": "spender",
          "type": "address"
        },
        {
          "internalType": "uint256",
          "name": "amount",
          "type": "uint256"
        }
      ],
      "name": "approve",
      "outputs": [
        {
          "internalType": "bool",
          "name": "",
          "type": "bool"
        }
      ],
      "stateMutability": "nonpayable",
      "type": "function"
    },
    {
      "inputs": [
        {
          "internalType": "address",
          "name": "account",
          "type": "address"
        }
      ],
      "name": "balanceOf",
      "outputs": [
        {
          "internalType": "uint256",
          "name": "",
          "type": "uint256"
        }
      ],
      "stateMutability": "view",
      "type": "function"
    },
    {
      "inputs": [],
      "name": "decimals",
      "outputs": [
        {
          "internalType": "uint8",
          "name": "",
          "type": "uint8"
        }
      ],
      "stateMutability": "view",
      "type": "function"
    },
    {
      "inputs": [],
      "name": "name",
      "outputs": [
        {
          "internalType": "string",
          "name": "",
          "type": "string"
        }
      ],
      "stateMutability": "view",
      "type": "function"
    },
    {
      "inputs": [],
      "name": "symbol",
      "outputs": [
        {
          "internalType": "string",
          "name": "",
          "type": "string"
        }
      ],
      "stateMutability": "view",
      "type": "function"
    },
    {
      "inputs": [],
      "name": "totalBurned",
      "outputs": [
        {
          "internalType": "uint256",
          "name": "",
          "type": "uint256"
        }
      ],
      "stateMutability": "view",
      "type": "function"
    },
    {
      "inputs": [],
      "name": "totalMinted",
      "outputs": [
        {
          "internalType": "uint256",
          "name": "",
          "type": "uint256"
        }
      ],
      "stateMutability": "view",
      "type": "function"
    },
    {
      "inputs": [
        {
          "internalType": "address",
          "name": "recipient",
          "type": "address"
        },
        {
          "internalType": "uint256",
          "name": "amount",
          "type": "uint256"
        }
      ],
      "name": "transfer",
      "outputs": [
        {
          "internalType": "bool",
          "name": "",
          "type": "bool"
        }
      ],
      "stateMutability": "nonpayable",
      "type": "function"
    },
    {
      "inputs": [
        {
          "internalType": "address",
          "name": "sender",
          "type": "address"
        },
        {
          "internalType": "address",
          "name": "recipient",
          "type": "address"
        },
        {
          "internalType": "uint256",
          "name": "amount",
          "type": "uint256"
        }
      ],
      "name": "transferFrom",
      "outputs": [
        {
          "internalType": "bool",
          "name": "",
          "type": "bool"
        }
      ],
      "stateMutability": "nonpayable",
      "type": "function"
    },
    {
      "inputs": [],
      "name": "totalSupply",
      "outputs": [
        {
          "internalType": "uint256",
          "name": "",
          "type": "uint256"
        }
      ],
      "stateMutability": "view",
      "type": "function"
    },
    {
      "inputs": [
        {
          "internalType": "uint256",
          "name": "value",
          "type": "uint256"
        }
      ],
      "name": "mint",
      "outputs": [],
      "stateMutability": "nonpayable",
      "type": "function"
    },
    {
      "inputs": [
        {
          "internalType": "uint256",
          "name": "salt",
          "type": "uint256"
        }
      ],
      "name": "computeAddress2",
      "outputs": [
        {
          "internalType": "address",
          "name": "child",
          "type": "address"
        }
      ],
      "stateMutability": "pure",
      "type": "function"
    },
    {
      "inputs": [
        {
          "internalType": "uint256",
          "name": "value",
          "type": "uint256"
        }
      ],
      "name": "free",
      "outputs": [
        {
          "internalType": "uint256",
          "name": "",
          "type": "uint256"
        }
      ],
      "stateMutability": "nonpayable",
      "type": "function"
    },
    {
      "inputs": [
        {
          "internalType": "uint256",
          "name": "value",
          "type": "uint256"
        }
      ],
      "name": "freeUpTo",
      "outputs": [
        {
          "internalType": "uint256",
          "name": "",
          "type": "uint256"
        }
      ],
      "stateMutability": "nonpayable",
      "type": "function"
    },
    {
      "inputs": [
        {
          "internalType": "address",
          "name": "from",
          "type": "address"
        },
        {
          "internalType": "uint256",
          "name": "value",
          "type": "uint256"
        }
      ],
      "name": "freeFrom",
      "outputs": [
        {
          "internalType": "uint256",
          "name": "",
          "type": "uint256"
        }
      ],
      "stateMutability": "nonpayable",
      "type": "function"
    },
    {
      "inputs": [
        {
          "internalType": "address",
          "name": "from",
          "type": "address"
        },
        {
          "internalType": "uint256",
          "name": "value",
          "type": "uint256"
        }
      ],
      "name": "freeFromUpTo",
      "outputs": [
        {
          "internalType": "uint256",
          "name": "",
          "type": "uint256"
        }
      ],
      "stateMutability": "nonpayable",
      "type": "function"
    }
  ],
  "bytecode": "0x608060405234801561001057600080fd5b5061146a806100206000396000f3fe608060405234801561001057600080fd5b506004361061010b5760003560e01c806370a08231116100a2578063a9059cbb11610071578063a9059cbb146102e2578063b0ac19a014610312578063d89135cd14610342578063d8ccd0f314610360578063dd62ed3e146103905761010b565b806370a082311461025a57806395d89b411461028a578063a0712d68146102a8578063a2309ff8146102c45761010b565b806323b872dd116100de57806323b872dd146101ac578063313ce567146101dc5780635f2e2b45146101fa5780636366b9361461022a5761010b565b806306fdde0314610110578063079d229f1461012e578063095ea7b31461015e57806318160ddd1461018e575b600080fd5b6101186103c0565b60405161012591906111ac565b60405180910390f35b6101486004803603810190610143919061109c565b6103f9565b60405161015591906111ce565b60405180910390f35b6101786004803603810190610173919061109c565b610430565b6040516101859190611191565b60405180910390f35b610196610447565b6040516101a391906111ce565b60405180910390f35b6101c660048036038101906101c1919061104d565b61045e565b6040516101d39190611191565b60405180910390f35b6101e461053d565b6040516101f191906111e9565b60405180910390f35b610214600480360381019061020f919061109c565b610542565b60405161022191906111ce565b60405180910390f35b610244600480360381019061023f91906110d8565b610569565b60405161025191906111ce565b60405180910390f35b610274600480360381019061026f9190610fe8565b61058c565b60405161028191906111ce565b60405180910390f35b6102926105d4565b60405161029f91906111ac565b60405180910390f35b6102c260048036038101906102bd91906110d8565b61060d565b005b6102cc6107ef565b6040516102d991906111ce565b60405180910390f35b6102fc60048036038101906102f7919061109c565b6107f5565b6040516103099190611191565b60405180910390f35b61032c600480360381019061032791906110d8565b61080c565b6040516103399190611176565b60405180910390f35b61034a610882565b60405161035791906111ce565b60405180910390f35b61037a600480360381019061037591906110d8565b610888565b60405161038791906111ce565b60405180910390f35b6103aa60048036038101906103a59190611011565b6108ae565b6040516103b791906111ce565b60405180910390f35b6040518060400160405280601281526020017f43686920546f6b656e2062792031696e6368000000000000000000000000000081525081565b6000610428836104236104148561040f8861058c565b610935565b61041e87336108ae565b610935565b610542565b905092915050565b600061043d33848461094e565b6001905092915050565b60006003546002546104599190611276565b905090565b600061046b848484610a39565b6000600160008673ffffffffffffffffffffffffffffffffffffffff1673ffffffffffffffffffffffffffffffffffffffff16815260200190815260200160002060003373ffffffffffffffffffffffffffffffffffffffff1673ffffffffffffffffffffffffffffffffffffffff168152602001908152602001600020549050600060ff82901c141561053157610530853361052b866040518060600160405280602881526020016113e96028913986610be39092919063ffffffff16565b61094e565b5b60019150509392505050565b600081565b600080821115610560576105568383610c38565b61055f82610d0d565b5b81905092915050565b60006105856105808361057b3361058c565b610935565b610888565b9050919050565b60008060008373ffffffffffffffffffffffffffffffffffffffff1673ffffffffffffffffffffffffffffffffffffffff168152602001908152602001600020549050919050565b6040518060400160405280600381526020017f434849000000000000000000000000000000000000000000000000000000000081525081565b600060025490507f746d4946c0e9f43f4dee607b0ef1fa1c3318585733ff6000526015600bf30000600052602082045b80156107b45760008201601e600080f55060018201601e600080f55060028201601e600080f55060038201601e600080f55060048201601e600080f55060058201601e600080f55060068201601e600080f55060078201601e600080f55060088201601e600080f55060098201601e600080f550600a8201601e600080f550600b8201601e600080f550600c8201601e600080f550600d8201601e600080f550600e8201601e600080f550600f8201601e600080f55060108201601e600080f55060118201601e600080f55060128201601e600080f55060138201601e600080f55060148201601e600080f55060158201601e600080f55060168201601e600080f55060178201601e600080f55060188201601e600080f55060198201601e600080f550601a8201601e600080f550601b8201601e600080f550601c8201601e600080f550601d8201601e600080f550601e8201601e600080f550601f8201601e600080f55060208201915060018103905061063d565b50601f82165b80156107d95781601e600080f5506001820191506001810390506107ba565b506107e43383610d94565b806002819055505050565b60025481565b6000610802338484610a39565b6001905092915050565b60006040517fff0000000000004946c0e9f43f4dee607b0ef1fa1c000000000000000000000081528260158201527f3c1644c68e5d6cb380c36d1bf847fdbc0c7ac28030025a2fc5e63cce23c16348603582015273ffffffffffffffffffffffffffffffffffffffff6055822016915050919050565b60035481565b6000808211156108a65761089c3383610e91565b6108a582610d0d565b5b819050919050565b6000600160008473ffffffffffffffffffffffffffffffffffffffff1673ffffffffffffffffffffffffffffffffffffffff16815260200190815260200160002060008373ffffffffffffffffffffffffffffffffffffffff1673ffffffffffffffffffffffffffffffffffffffff16815260200190815260200160002054905092915050565b60008183106109445781610946565b825b905092915050565b80600160008573ffffffffffffffffffffffffffffffffffffffff1673ffffffffffffffffffffffffffffffffffffffff16815260200190815260200160002060008473ffffffffffffffffffffffffffffffffffffffff1673ffffffffffffffffffffffffffffffffffffffff168152602001908152602001600020819055508173ffffffffffffffffffffffffffffffffffffffff168373ffffffffffffffffffffffffffffffffffffffff167f8c5be1e5ebec7d5bd14f71427d1e84f3dd0314c0f7b2291e5b200ac8c7c3b92583604051610a2c91906111ce565b60405180910390a3505050565b610aa4816040518060600160405280602681526020016113c3602691396000808773ffffffffffffffffffffffffffffffffffffffff1673ffffffffffffffffffffffffffffffffffffffff16815260200190815260200160002054610be39092919063ffffffff16565b6000808573ffffffffffffffffffffffffffffffffffffffff1673ffffffffffffffffffffffffffffffffffffffff16815260200190815260200160002081905550610b37816000808573ffffffffffffffffffffffffffffffffffffffff1673ffffffffffffffffffffffffffffffffffffffff16815260200190815260200160002054610fa890919063ffffffff16565b6000808473ffffffffffffffffffffffffffffffffffffffff1673ffffffffffffffffffffffffffffffffffffffff168152602001908152602001600020819055508173ffffffffffffffffffffffffffffffffffffffff168373ffffffffffffffffffffffffffffffffffffffff167fddf252ad1be2c89b69c2b068fc378daa952ba7f163c4a11628f55a4df523b3ef83604051610bd691906111ce565b60405180910390a3505050565b6000838311158290610c2b576040517f08c379a0000000000000000000000000000000000000000000000000000000008152600401610c2291906111ac565b60405180910390fd5b5082840390509392505050565b610c428282610e91565b6000600160008473ffffffffffffffffffffffffffffffffffffffff1673ffffffffffffffffffffffffffffffffffffffff16815260200190815260200160002060003373ffffffffffffffffffffffffffffffffffffffff1673ffffffffffffffffffffffffffffffffffffffff168152602001908152602001600020549050600060ff82901c1415610d0857610d078333610d02856040518060600160405280602481526020016114116024913986610be39092919063ffffffff16565b61094e565b5b505050565b600354818101806003556040517fff0000000000004946c0e9f43f4dee607b0ef1fa1c000000000000000000000081527f3c1644c68e5d6cb380c36d1bf847fdbc0c7ac28030025a2fc5e63cce23c163486035820152601581015b82841015610d8d578381526000806000806000605587205af150600184019350610d68565b5050505050565b610de5816000808573ffffffffffffffffffffffffffffffffffffffff1673ffffffffffffffffffffffffffffffffffffffff16815260200190815260200160002054610fa890919063ffffffff16565b6000808473ffffffffffffffffffffffffffffffffffffffff1673ffffffffffffffffffffffffffffffffffffffff168152602001908152602001600020819055508173ffffffffffffffffffffffffffffffffffffffff16600073ffffffffffffffffffffffffffffffffffffffff167fddf252ad1be2c89b69c2b068fc378daa952ba7f163c4a11628f55a4df523b3ef83604051610e8591906111ce565b60405180910390a35050565b610efc816040518060600160405280602281526020016113a1602291396000808673ffffffffffffffffffffffffffffffffffffffff1673ffffffffffffffffffffffffffffffffffffffff16815260200190815260200160002054610be39092919063ffffffff16565b6000808473ffffffffffffffffffffffffffffffffffffffff1673ffffffffffffffffffffffffffffffffffffffff16815260200190815260200160002081905550600073ffffffffffffffffffffffffffffffffffffffff168273ffffffffffffffffffffffffffffffffffffffff167fddf252ad1be2c89b69c2b068fc378daa952ba7f163c4a11628f55a4df523b3ef83604051610f9c91906111ce565b60405180910390a35050565b60008183610fb69190611220565b905092915050565b600081359050610fcd81611372565b92915050565b600081359050610fe281611389565b92915050565b600060208284031215610ffa57600080fd5b600061100884828501610fbe565b91505092915050565b6000806040838503121561102457600080fd5b600061103285828601610fbe565b925050602061104385828601610fbe565b9150509250929050565b60008060006060848603121561106257600080fd5b600061107086828701610fbe565b935050602061108186828701610fbe565b925050604061109286828701610fd3565b9150509250925092565b600080604083850312156110af57600080fd5b60006110bd85828601610fbe565b92505060206110ce85828601610fd3565b9150509250929050565b6000602082840312156110ea57600080fd5b60006110f884828501610fd3565b91505092915050565b61110a816112aa565b82525050565b611119816112bc565b82525050565b600061112a82611204565b611134818561120f565b93506111448185602086016112ff565b61114d81611361565b840191505092915050565b611161816112e8565b82525050565b611170816112f2565b82525050565b600060208201905061118b6000830184611101565b92915050565b60006020820190506111a66000830184611110565b92915050565b600060208201905081810360008301526111c6818461111f565b905092915050565b60006020820190506111e36000830184611158565b92915050565b60006020820190506111fe6000830184611167565b92915050565b600081519050919050565b600082825260208201905092915050565b600061122b826112e8565b9150611236836112e8565b9250827fffffffffffffffffffffffffffffffffffffffffffffffffffffffffffffffff0382111561126b5761126a611332565b5b828201905092915050565b6000611281826112e8565b915061128c836112e8565b92508282101561129f5761129e611332565b5b828203905092915050565b60006112b5826112c8565b9050919050565b60008115159050919050565b600073ffffffffffffffffffffffffffffffffffffffff82169050919050565b6000819050919050565b600060ff82169050919050565b60005b8381101561131d578082015181840152602081019050611302565b8381111561132c576000848401525b50505050565b7f4e487b7100000000000000000000000000000000000000000000000000000000600052601160045260246000fd5b6000601f19601f8301169050919050565b61137b816112aa565b811461138657600080fd5b50565b611392816112e8565b811461139d57600080fd5b5056fe45524332303a206275726e20616d6f756e7420657863656564732062616c616e636545524332303a207472616e7366657220616d6f756e7420657863656564732062616c616e636545524332303a207472616e7366657220616d6f756e74206578636565647320616c6c6f77616e636545524332303a206275726e20616d6f756e74206578636565647320616c6c6f77616e6365a26469706673582212209fdf5ddbc15bfe488fedcc2c1baaed4900aa9cac53ed5122c70839998b62767764736f6c63430008040033",
  "immutableReferences": {},
  "source": "// SPDX-License-Identifier: MIT\r\npragma solidity ^0.8.0;\r\n\r\nimport \"../../ERC20WithoutTotalSupply.sol\";\r\n\r\ncontract ChiToken is IERC20, ERC20WithoutTotalSupply {\r\n    string constant public name = \"Chi Token by 1inch\";\r\n    string constant public symbol = \"CHI\";\r\n    uint8 constant public decimals = 0;\r\n\r\n    uint256 public totalMinted;\r\n    uint256 public totalBurned;\r\n\r\n    function totalSupply() public view override returns(uint256) {\r\n        return totalMinted - totalBurned;\r\n    }\r\n\r\n    function mint(uint256 value) public {\r\n        uint256 offset = totalMinted;\r\n        assembly {\r\n            mstore(0, 0x746d4946c0e9F43F4Dee607b0eF1fA1c3318585733ff6000526015600bf30000)\r\n\r\n            for {let i := div(value, 32)} i {i := sub(i, 1)} {\r\n                pop(create2(0, 0, 30, add(offset, 0))) pop(create2(0, 0, 30, add(offset, 1)))\r\n                pop(create2(0, 0, 30, add(offset, 2))) pop(create2(0, 0, 30, add(offset, 3)))\r\n                pop(create2(0, 0, 30, add(offset, 4))) pop(create2(0, 0, 30, add(offset, 5)))\r\n                pop(create2(0, 0, 30, add(offset, 6))) pop(create2(0, 0, 30, add(offset, 7)))\r\n                pop(create2(0, 0, 30, add(offset, 8))) pop(create2(0, 0, 30, add(offset, 9)))\r\n                pop(create2(0, 0, 30, add(offset, 10))) pop(create2(0, 0, 30, add(offset, 11)))\r\n                pop(create2(0, 0, 30, add(offset, 12))) pop(create2(0, 0, 30, add(offset, 13)))\r\n                pop(create2(0, 0, 30, add(offset, 14))) pop(create2(0, 0, 30, add(offset, 15)))\r\n                pop(create2(0, 0, 30, add(offset, 16))) pop(create2(0, 0, 30, add(offset, 17)))\r\n                pop(create2(0, 0, 30, add(offset, 18))) pop(create2(0, 0, 30, add(offset, 19)))\r\n                pop(create2(0, 0, 30, add(offset, 20))) pop(create2(0, 0, 30, add(offset, 21)))\r\n                pop(create2(0, 0, 30, add(offset, 22))) pop(create2(0, 0, 30, add(offset, 23)))\r\n                pop(create2(0, 0, 30, add(offset, 24))) pop(create2(0, 0, 30, add(offset, 25)))\r\n                pop(create2(0, 0, 30, add(offset, 26))) pop(create2(0, 0, 30, add(offset, 27)))\r\n                pop(create2(0, 0, 30, add(offset, 28))) pop(create2(0, 0, 30, add(offset, 29)))\r\n                pop(create2(0, 0, 30, add(offset, 30))) pop(create2(0, 0, 30, add(offset, 31)))\r\n                offset := add(offset, 32)\r\n            }\r\n\r\n            for {let i := and(value, 0x1F)} i {i := sub(i, 1)} {\r\n                pop(create2(0, 0, 30, offset))\r\n                offset := add(offset, 1)\r\n            }\r\n        }\r\n\r\n        _mint(msg.sender, value);\r\n        totalMinted = offset;\r\n    }\r\n\r\n    function computeAddress2(uint256 salt) public pure returns (address child) {\r\n        assembly {\r\n            let data := mload(0x40)\r\n            mstore(data, 0xff0000000000004946c0e9F43F4Dee607b0eF1fA1c0000000000000000000000)\r\n            mstore(add(data, 21), salt)\r\n            mstore(add(data, 53), 0x3c1644c68e5d6cb380c36d1bf847fdbc0c7ac28030025a2fc5e63cce23c16348)\r\n            child := and(keccak256(data, 85), 0xFFFFFFFFFFFFFFFFFFFFFFFFFFFFFFFFFFFFFFFF)\r\n        }\r\n    }\r\n\r\n    function _destroyChildren(uint256 value) internal {\r\n        assembly {\r\n            let i := sload(totalBurned.slot)\r\n            let end := add(i, value)\r\n            sstore(totalBurned.slot, end)\r\n\r\n            let data := mload(0x40)\r\n            mstore(data, 0xff0000000000004946c0e9F43F4Dee607b0eF1fA1c0000000000000000000000)\r\n            mstore(add(data, 53), 0x3c1644c68e5d6cb380c36d1bf847fdbc0c7ac28030025a2fc5e63cce23c16348)\r\n            let ptr := add(data, 21)\r\n            for { } lt(i, end) { i := add(i, 1) } {\r\n                mstore(ptr, i)\r\n                pop(call(gas(), keccak256(data, 85), 0, 0, 0, 0, 0))\r\n            }\r\n        }\r\n    }\r\n\r\n    function free(uint256 value) public returns (uint256)  {\r\n        if (value > 0) {\r\n            _burn(msg.sender, value);\r\n            _destroyChildren(value);\r\n        }\r\n        return value;\r\n    }\r\n\r\n    function freeUpTo(uint256 value) public returns (uint256) {\r\n        return free(Math.min(value, balanceOf(msg.sender)));\r\n    }\r\n\r\n    function freeFrom(address from, uint256 value) public returns (uint256) {\r\n        if (value > 0) {\r\n            _burnFrom(from, value);\r\n            _destroyChildren(value);\r\n        }\r\n        return value;\r\n    }\r\n\r\n    function freeFromUpTo(address from, uint256 value) public returns (uint256) {\r\n        return freeFrom(from, Math.min(Math.min(value, balanceOf(from)), allowance(from, msg.sender)));\r\n    }\r\n}\r\n",
  "sourcePath": "C:/Users/khera/Documents/GitHub/GasSwapTokens/contracts/existing_gas_tokens/Chi/ChiToken.sol",
  "compiler": {
    "name": "solc",
    "version": "0.8.4+commit.c7e474f2.Emscripten.clang"
  },
  "schemaVersion": "3.3.4",
  "updatedAt": "2021-05-02T13:18:48.305Z",
  "devdoc": {
    "kind": "dev",
    "methods": {
      "allowance(address,address)": {
        "details": "Returns the remaining number of tokens that `spender` will be allowed to spend on behalf of `owner` through {transferFrom}. This is zero by default. This value changes when {approve} or {transferFrom} are called."
      },
      "approve(address,uint256)": {
        "details": "Sets `amount` as the allowance of `spender` over the caller's tokens. Returns a boolean value indicating whether the operation succeeded. IMPORTANT: Beware that changing an allowance with this method brings the risk that someone may use both the old and the new allowance by unfortunate transaction ordering. One possible solution to mitigate this race condition is to first reduce the spender's allowance to 0 and set the desired value afterwards: https://github.com/ethereum/EIPs/issues/20#issuecomment-263524729 Emits an {Approval} event."
      },
      "balanceOf(address)": {
        "details": "Returns the amount of tokens owned by `account`."
      },
      "totalSupply()": {
        "details": "Returns the amount of tokens in existence."
      },
      "transfer(address,uint256)": {
        "details": "Moves `amount` tokens from the caller's account to `recipient`. Returns a boolean value indicating whether the operation succeeded. Emits a {Transfer} event."
      },
      "transferFrom(address,address,uint256)": {
        "details": "Moves `amount` tokens from `sender` to `recipient` using the allowance mechanism. `amount` is then deducted from the caller's allowance. Returns a boolean value indicating whether the operation succeeded. Emits a {Transfer} event."
      }
    },
    "version": 1
  },
  "userdoc": {
    "kind": "user",
    "methods": {},
    "version": 1
  }
}