{
  "contractName": "GasSwapWrapper",
  "abi": [
    {
      "anonymous": false,
      "inputs": [
        {
          "indexed": true,
          "internalType": "address",
          "name": "previousOwner",
          "type": "address"
        },
        {
          "indexed": true,
          "internalType": "address",
          "name": "newOwner",
          "type": "address"
        }
      ],
      "name": "OwnershipTransferred",
      "type": "event"
    },
    {
      "inputs": [],
      "name": "owner",
      "outputs": [
        {
          "internalType": "address",
          "name": "",
          "type": "address"
        }
      ],
      "stateMutability": "view",
      "type": "function"
    },
    {
      "inputs": [],
      "name": "renounceOwnership",
      "outputs": [],
      "stateMutability": "nonpayable",
      "type": "function"
    },
    {
      "inputs": [
        {
          "internalType": "address",
          "name": "newOwner",
          "type": "address"
        }
      ],
      "name": "transferOwnership",
      "outputs": [],
      "stateMutability": "nonpayable",
      "type": "function"
    },
    {
      "inputs": [
        {
          "internalType": "bytes",
          "name": "data",
          "type": "bytes"
        },
        {
          "internalType": "address",
          "name": "contractAddress",
          "type": "address"
        },
        {
          "internalType": "address",
          "name": "gas_token",
          "type": "address"
        },
        {
          "internalType": "uint256",
          "name": "tokensToBurn",
          "type": "uint256"
        }
      ],
      "name": "gasSwapCall",
      "outputs": [],
      "stateMutability": "payable",
      "type": "function"
    }
  ],
  "bytecode": "0x608060405234801561001057600080fd5b5060006100216100c460201b60201c565b9050806000806101000a81548173ffffffffffffffffffffffffffffffffffffffff021916908373ffffffffffffffffffffffffffffffffffffffff1602179055508073ffffffffffffffffffffffffffffffffffffffff16600073ffffffffffffffffffffffffffffffffffffffff167f8be0079c531659141344cd1fd0a4f28419497f9722a3daafe3b4186f6b6457e060405160405180910390a3506100cc565b600033905090565b610d8c806100db6000396000f3fe60806040526004361061003f5760003560e01c80631a7f73f714610044578063715018a6146100605780638da5cb5b14610077578063f2fde38b146100a2575b600080fd5b61005e600480360381019061005991906108cc565b6100cb565b005b34801561006c57600080fd5b50610075610360565b005b34801561008357600080fd5b5061008c61049a565b6040516100999190610aa0565b60405180910390f35b3480156100ae57600080fd5b506100c960048036038101906100c491906108a3565b6104c3565b005b6100d361066c565b73ffffffffffffffffffffffffffffffffffffffff166100f161049a565b73ffffffffffffffffffffffffffffffffffffffff1614610147576040517f08c379a000000000000000000000000000000000000000000000000000000000815260040161013e90610b46565b60405180910390fd5b6101668373ffffffffffffffffffffffffffffffffffffffff16610674565b61016f57610359565b60003411156102245761021e85858080601f016020809104026020016040519081016040528093929190818152602001838380828437600081840152601f19601f82011690508083019250505050505050346040518060400160405280602081526020017f47533a204572726f7220666f7277617264696e67207472616e73616374696f6e8152508673ffffffffffffffffffffffffffffffffffffffff16610687909392919063ffffffff16565b506102ca565b6102c885858080601f016020809104026020016040519081016040528093929190818152602001838380828437600081840152601f19601f820116905080830192505050505050506040518060400160405280602081526020017f47533a204572726f7220666f7277617264696e67207472616e73616374696f6e8152508573ffffffffffffffffffffffffffffffffffffffff1661079b9092919063ffffffff16565b505b8173ffffffffffffffffffffffffffffffffffffffff1663079d229f33836040518363ffffffff1660e01b8152600401610305929190610abb565b602060405180830381600087803b15801561031f57600080fd5b505af1158015610333573d6000803e3d6000fd5b505050506040513d601f19601f82011682018060405250810190610357919061094c565b505b5050505050565b61036861066c565b73ffffffffffffffffffffffffffffffffffffffff1661038661049a565b73ffffffffffffffffffffffffffffffffffffffff16146103dc576040517f08c379a00000000000000000000000000000000000000000000000000000000081526004016103d390610b46565b60405180910390fd5b600073ffffffffffffffffffffffffffffffffffffffff1660008054906101000a900473ffffffffffffffffffffffffffffffffffffffff1673ffffffffffffffffffffffffffffffffffffffff167f8be0079c531659141344cd1fd0a4f28419497f9722a3daafe3b4186f6b6457e060405160405180910390a360008060006101000a81548173ffffffffffffffffffffffffffffffffffffffff021916908373ffffffffffffffffffffffffffffffffffffffff160217905550565b60008060009054906101000a900473ffffffffffffffffffffffffffffffffffffffff16905090565b6104cb61066c565b73ffffffffffffffffffffffffffffffffffffffff166104e961049a565b73ffffffffffffffffffffffffffffffffffffffff161461053f576040517f08c379a000000000000000000000000000000000000000000000000000000000815260040161053690610b46565b60405180910390fd5b600073ffffffffffffffffffffffffffffffffffffffff168173ffffffffffffffffffffffffffffffffffffffff1614156105af576040517f08c379a00000000000000000000000000000000000000000000000000000000081526004016105a690610b06565b60405180910390fd5b8073ffffffffffffffffffffffffffffffffffffffff1660008054906101000a900473ffffffffffffffffffffffffffffffffffffffff1673ffffffffffffffffffffffffffffffffffffffff167f8be0079c531659141344cd1fd0a4f28419497f9722a3daafe3b4186f6b6457e060405160405180910390a3806000806101000a81548173ffffffffffffffffffffffffffffffffffffffff021916908373ffffffffffffffffffffffffffffffffffffffff16021790555050565b600033905090565b600080823b905060008111915050919050565b6060824710156106cc576040517f08c379a00000000000000000000000000000000000000000000000000000000081526004016106c390610b26565b60405180910390fd5b6106d585610674565b610714576040517f08c379a000000000000000000000000000000000000000000000000000000000815260040161070b90610b66565b60405180910390fd5b6000808673ffffffffffffffffffffffffffffffffffffffff16858760405161073d9190610a89565b60006040518083038185875af1925050503d806000811461077a576040519150601f19603f3d011682016040523d82523d6000602084013e61077f565b606091505b509150915061078f8282866107b3565b92505050949350505050565b60606107aa8484600085610687565b90509392505050565b606083156107c357829050610813565b6000835111156107d65782518084602001fd5b816040517f08c379a000000000000000000000000000000000000000000000000000000000815260040161080a9190610ae4565b60405180910390fd5b9392505050565b60008135905061082981610d28565b92915050565b60008083601f84011261084157600080fd5b8235905067ffffffffffffffff81111561085a57600080fd5b60208301915083600182028301111561087257600080fd5b9250929050565b60008135905061088881610d3f565b92915050565b60008151905061089d81610d3f565b92915050565b6000602082840312156108b557600080fd5b60006108c38482850161081a565b91505092915050565b6000806000806000608086880312156108e457600080fd5b600086013567ffffffffffffffff8111156108fe57600080fd5b61090a8882890161082f565b9550955050602061091d8882890161081a565b935050604061092e8882890161081a565b925050606061093f88828901610879565b9150509295509295909350565b60006020828403121561095e57600080fd5b600061096c8482850161088e565b91505092915050565b61097e81610bb8565b82525050565b600061098f82610b86565b6109998185610b9c565b93506109a9818560208601610bf4565b80840191505092915050565b60006109c082610b91565b6109ca8185610ba7565b93506109da818560208601610bf4565b6109e381610c27565b840191505092915050565b60006109fb602683610ba7565b9150610a0682610c38565b604082019050919050565b6000610a1e602683610ba7565b9150610a2982610c87565b604082019050919050565b6000610a41602083610ba7565b9150610a4c82610cd6565b602082019050919050565b6000610a64601d83610ba7565b9150610a6f82610cff565b602082019050919050565b610a8381610bea565b82525050565b6000610a958284610984565b915081905092915050565b6000602082019050610ab56000830184610975565b92915050565b6000604082019050610ad06000830185610975565b610add6020830184610a7a565b9392505050565b60006020820190508181036000830152610afe81846109b5565b905092915050565b60006020820190508181036000830152610b1f816109ee565b9050919050565b60006020820190508181036000830152610b3f81610a11565b9050919050565b60006020820190508181036000830152610b5f81610a34565b9050919050565b60006020820190508181036000830152610b7f81610a57565b9050919050565b600081519050919050565b600081519050919050565b600081905092915050565b600082825260208201905092915050565b6000610bc382610bca565b9050919050565b600073ffffffffffffffffffffffffffffffffffffffff82169050919050565b6000819050919050565b60005b83811015610c12578082015181840152602081019050610bf7565b83811115610c21576000848401525b50505050565b6000601f19601f8301169050919050565b7f4f776e61626c653a206e6577206f776e657220697320746865207a65726f206160008201527f6464726573730000000000000000000000000000000000000000000000000000602082015250565b7f416464726573733a20696e73756666696369656e742062616c616e636520666f60008201527f722063616c6c0000000000000000000000000000000000000000000000000000602082015250565b7f4f776e61626c653a2063616c6c6572206973206e6f7420746865206f776e6572600082015250565b7f416464726573733a2063616c6c20746f206e6f6e2d636f6e7472616374000000600082015250565b610d3181610bb8565b8114610d3c57600080fd5b50565b610d4881610bea565b8114610d5357600080fd5b5056fea26469706673582212200ae7f71d87bab51f8f9c0857d3a49734026212d5e9b63c5286ff4ec8ab06461a64736f6c63430008040033",
  "immutableReferences": {},
  "source": "pragma solidity ^0.8.0;\r\n\r\nimport \"@openzeppelin/contracts/utils/Address.sol\";\r\nimport \"@openzeppelin/contracts/utils/math/Math.sol\";\r\nimport \"@openzeppelin/contracts/utils/math/SafeMath.sol\";\r\nimport \"@openzeppelin/contracts/token/ERC20/IERC20.sol\";\r\nimport \"@openzeppelin/contracts/access/Ownable.sol\";\r\nimport \"./IGSVEToken.sol\";\r\n\r\ncontract GasSwapWrapper is Ownable {\r\n    using Address for address;\r\n\r\n    // To avoid abuse, only the transaction sender can use approved values for gas saving.\r\n    function gasSwapCall(bytes calldata data, address contractAddress, address gas_token, uint256 tokensToBurn) public payable onlyOwner{\r\n        if(!contractAddress.isContract()){\r\n            return;\r\n        }\r\n\r\n        if(msg.value > 0){\r\n            contractAddress.functionCallWithValue(data, msg.value, \"GS: Error forwarding transaction\");\r\n        }\r\n        else{\r\n            contractAddress.functionCall(data, \"GS: Error forwarding transaction\");\r\n        }\r\n        IGSVEToken(gas_token).freeFromUpTo(msg.sender, tokensToBurn);\r\n    }\r\n}\r\n",
  "sourcePath": "C:/Users/khera/Documents/GitHub/GasSwapTokens/contracts/GasSwapWrapper.sol",
  "compiler": {
    "name": "solc",
    "version": "0.8.4+commit.c7e474f2.Emscripten.clang"
  },
  "schemaVersion": "3.3.4",
  "updatedAt": "2021-04-25T16:51:59.199Z",
  "devdoc": {
    "kind": "dev",
    "methods": {
      "owner()": {
        "details": "Returns the address of the current owner."
      },
      "renounceOwnership()": {
        "details": "Leaves the contract without owner. It will not be possible to call `onlyOwner` functions anymore. Can only be called by the current owner. NOTE: Renouncing ownership will leave the contract without an owner, thereby removing any functionality that is only available to the owner."
      },
      "transferOwnership(address)": {
        "details": "Transfers ownership of the contract to a new account (`newOwner`). Can only be called by the current owner."
      }
    },
    "version": 1
  },
  "userdoc": {
    "kind": "user",
    "methods": {},
    "version": 1
  }
}