{
  "contractName": "GasToken2",
  "abi": [
    {
      "anonymous": false,
      "inputs": [
        {
          "indexed": true,
          "internalType": "address",
          "name": "owner",
          "type": "address"
        },
        {
          "indexed": true,
          "internalType": "address",
          "name": "spender",
          "type": "address"
        },
        {
          "indexed": false,
          "internalType": "uint256",
          "name": "value",
          "type": "uint256"
        }
      ],
      "name": "Approval",
      "type": "event"
    },
    {
      "anonymous": false,
      "inputs": [
        {
          "indexed": true,
          "internalType": "address",
          "name": "from",
          "type": "address"
        },
        {
          "indexed": true,
          "internalType": "address",
          "name": "to",
          "type": "address"
        },
        {
          "indexed": false,
          "internalType": "uint256",
          "name": "value",
          "type": "uint256"
        }
      ],
      "name": "Transfer",
      "type": "event"
    },
    {
      "inputs": [],
      "name": "decimals",
      "outputs": [
        {
          "internalType": "uint8",
          "name": "",
          "type": "uint8"
        }
      ],
      "stateMutability": "view",
      "type": "function"
    },
    {
      "inputs": [],
      "name": "name",
      "outputs": [
        {
          "internalType": "string",
          "name": "",
          "type": "string"
        }
      ],
      "stateMutability": "view",
      "type": "function"
    },
    {
      "inputs": [],
      "name": "symbol",
      "outputs": [
        {
          "internalType": "string",
          "name": "",
          "type": "string"
        }
      ],
      "stateMutability": "view",
      "type": "function"
    },
    {
      "inputs": [
        {
          "internalType": "address",
          "name": "owner",
          "type": "address"
        }
      ],
      "name": "balanceOf",
      "outputs": [
        {
          "internalType": "uint256",
          "name": "balance",
          "type": "uint256"
        }
      ],
      "stateMutability": "nonpayable",
      "type": "function"
    },
    {
      "inputs": [
        {
          "internalType": "address",
          "name": "to",
          "type": "address"
        },
        {
          "internalType": "uint256",
          "name": "value",
          "type": "uint256"
        }
      ],
      "name": "transfer",
      "outputs": [
        {
          "internalType": "bool",
          "name": "success",
          "type": "bool"
        }
      ],
      "stateMutability": "nonpayable",
      "type": "function"
    },
    {
      "inputs": [
        {
          "internalType": "address",
          "name": "from",
          "type": "address"
        },
        {
          "internalType": "address",
          "name": "to",
          "type": "address"
        },
        {
          "internalType": "uint256",
          "name": "value",
          "type": "uint256"
        }
      ],
      "name": "transferFrom",
      "outputs": [
        {
          "internalType": "bool",
          "name": "success",
          "type": "bool"
        }
      ],
      "stateMutability": "nonpayable",
      "type": "function"
    },
    {
      "inputs": [
        {
          "internalType": "address",
          "name": "spender",
          "type": "address"
        },
        {
          "internalType": "uint256",
          "name": "value",
          "type": "uint256"
        }
      ],
      "name": "approve",
      "outputs": [
        {
          "internalType": "bool",
          "name": "success",
          "type": "bool"
        }
      ],
      "stateMutability": "nonpayable",
      "type": "function"
    },
    {
      "inputs": [
        {
          "internalType": "address",
          "name": "owner",
          "type": "address"
        },
        {
          "internalType": "address",
          "name": "spender",
          "type": "address"
        }
      ],
      "name": "allowance",
      "outputs": [
        {
          "internalType": "uint256",
          "name": "remaining",
          "type": "uint256"
        }
      ],
      "stateMutability": "nonpayable",
      "type": "function"
    },
    {
      "inputs": [],
      "name": "totalSupply",
      "outputs": [
        {
          "internalType": "uint256",
          "name": "supply",
          "type": "uint256"
        }
      ],
      "stateMutability": "nonpayable",
      "type": "function"
    },
    {
      "inputs": [
        {
          "internalType": "uint256",
          "name": "value",
          "type": "uint256"
        }
      ],
      "name": "mint",
      "outputs": [],
      "stateMutability": "nonpayable",
      "type": "function"
    },
    {
      "inputs": [
        {
          "internalType": "uint256",
          "name": "salt",
          "type": "uint256"
        }
      ],
      "name": "computeAddress2",
      "outputs": [
        {
          "internalType": "address",
          "name": "child",
          "type": "address"
        }
      ],
      "stateMutability": "pure",
      "type": "function"
    },
    {
      "inputs": [
        {
          "internalType": "uint256",
          "name": "value",
          "type": "uint256"
        }
      ],
      "name": "free",
      "outputs": [
        {
          "internalType": "bool",
          "name": "success",
          "type": "bool"
        }
      ],
      "stateMutability": "nonpayable",
      "type": "function"
    },
    {
      "inputs": [
        {
          "internalType": "uint256",
          "name": "value",
          "type": "uint256"
        }
      ],
      "name": "freeUpTo",
      "outputs": [
        {
          "internalType": "uint256",
          "name": "freed",
          "type": "uint256"
        }
      ],
      "stateMutability": "nonpayable",
      "type": "function"
    },
    {
      "inputs": [
        {
          "internalType": "address",
          "name": "from",
          "type": "address"
        },
        {
          "internalType": "uint256",
          "name": "value",
          "type": "uint256"
        }
      ],
      "name": "freeFrom",
      "outputs": [
        {
          "internalType": "bool",
          "name": "success",
          "type": "bool"
        }
      ],
      "stateMutability": "nonpayable",
      "type": "function"
    },
    {
      "inputs": [
        {
          "internalType": "address",
          "name": "from",
          "type": "address"
        },
        {
          "internalType": "uint256",
          "name": "value",
          "type": "uint256"
        }
      ],
      "name": "freeFromUpTo",
      "outputs": [
        {
          "internalType": "uint256",
          "name": "freed",
          "type": "uint256"
        }
      ],
      "stateMutability": "nonpayable",
      "type": "function"
    }
  ],
  "bytecode": "0x608060405234801561001057600080fd5b50611497806100206000396000f3fe608060405234801561001057600080fd5b50600436106100f55760003560e01c80636366b93611610097578063a9059cbb11610066578063a9059cbb146102ae578063b0ac19a0146102de578063d8ccd0f31461030e578063dd62ed3e1461033e576100f5565b80636366b9361461021457806370a082311461024457806395d89b4114610274578063a0712d6814610292576100f5565b806318160ddd116100d357806318160ddd1461017857806323b872dd14610196578063313ce567146101c65780635f2e2b45146101e4576100f5565b806306fdde03146100fa578063079d229f14610118578063095ea7b314610148575b600080fd5b61010261036e565b60405161010f9190611216565b60405180910390f35b610132600480360381019061012d91906110ce565b6103a7565b60405161013f9190611238565b60405180910390f35b610162600480360381019061015d91906110ce565b610540565b60405161016f91906111fb565b60405180910390f35b6101806106d5565b60405161018d9190611238565b60405180910390f35b6101b060048036038101906101ab919061107f565b6106ec565b6040516101bd91906111fb565b60405180910390f35b6101ce610834565b6040516101db9190611253565b60405180910390f35b6101fe60048036038101906101f991906110ce565b610839565b60405161020b91906111fb565b60405180910390f35b61022e6004803603810190610229919061110a565b6109e4565b60405161023b9190611238565b60405180910390f35b61025e6004803603810190610259919061101a565b610a94565b60405161026b9190611238565b60405180910390f35b61027c610adc565b6040516102899190611216565b60405180910390f35b6102ac60048036038101906102a7919061110a565b610b15565b005b6102c860048036038101906102c391906110ce565b610bae565b6040516102d591906111fb565b60405180910390f35b6102f860048036038101906102f3919061110a565b610bc8565b60405161030591906111e0565b60405180910390f35b6103286004803603810190610323919061110a565b610c3e565b60405161033591906111fb565b60405180910390f35b61035860048036038101906103539190611043565b610cf6565b6040516103659190611238565b60405180910390f35b6040518060400160405280600b81526020017f476173746f6b656e2e696f00000000000000000000000000000000000000000081525081565b60008033905060008060008673ffffffffffffffffffffffffffffffffffffffff1673ffffffffffffffffffffffffffffffffffffffff168152602001908152602001600020549050808411156103fc578093505b6000600160008773ffffffffffffffffffffffffffffffffffffffff1673ffffffffffffffffffffffffffffffffffffffff168152602001908152602001600020905060008160008573ffffffffffffffffffffffffffffffffffffffff1673ffffffffffffffffffffffffffffffffffffffff1681526020019081526020016000205490508086111561048e578095505b61049786610d7d565b85836104a391906112eb565b6000808973ffffffffffffffffffffffffffffffffffffffff1673ffffffffffffffffffffffffffffffffffffffff1681526020019081526020016000208190555085816104f191906112eb565b8260008673ffffffffffffffffffffffffffffffffffffffff1673ffffffffffffffffffffffffffffffffffffffff168152602001908152602001600020819055508594505050505092915050565b600080339050600083141580156105d457506000600160008373ffffffffffffffffffffffffffffffffffffffff1673ffffffffffffffffffffffffffffffffffffffff16815260200190815260200160002060008673ffffffffffffffffffffffffffffffffffffffff1673ffffffffffffffffffffffffffffffffffffffff1681526020019081526020016000205414155b156105e35760009150506106cf565b82600160008373ffffffffffffffffffffffffffffffffffffffff1673ffffffffffffffffffffffffffffffffffffffff16815260200190815260200160002060008673ffffffffffffffffffffffffffffffffffffffff1673ffffffffffffffffffffffffffffffffffffffff168152602001908152602001600020819055508373ffffffffffffffffffffffffffffffffffffffff168173ffffffffffffffffffffffffffffffffffffffff167f8c5be1e5ebec7d5bd14f71427d1e84f3dd0314c0f7b2291e5b200ac8c7c3b925856040516106c19190611238565b60405180910390a360019150505b92915050565b60006003546002546106e791906112eb565b905090565b600080339050600160008673ffffffffffffffffffffffffffffffffffffffff1673ffffffffffffffffffffffffffffffffffffffff16815260200190815260200160002060008273ffffffffffffffffffffffffffffffffffffffff1673ffffffffffffffffffffffffffffffffffffffff1681526020019081526020016000205483111580156107855750610784858585610e4f565b5b156108275782600160008773ffffffffffffffffffffffffffffffffffffffff1673ffffffffffffffffffffffffffffffffffffffff16815260200190815260200160002060008373ffffffffffffffffffffffffffffffffffffffff1673ffffffffffffffffffffffffffffffffffffffff168152602001908152602001600020600082825461081691906112eb565b92505081905550600191505061082d565b60009150505b9392505050565b600281565b60008033905060008060008673ffffffffffffffffffffffffffffffffffffffff1673ffffffffffffffffffffffffffffffffffffffff16815260200190815260200160002054905080841115610895576000925050506109de565b6000600160008773ffffffffffffffffffffffffffffffffffffffff1673ffffffffffffffffffffffffffffffffffffffff168152602001908152602001600020905060008160008573ffffffffffffffffffffffffffffffffffffffff1673ffffffffffffffffffffffffffffffffffffffff168152602001908152602001600020549050808611156109305760009450505050506109de565b61093986610d7d565b858361094591906112eb565b6000808973ffffffffffffffffffffffffffffffffffffffff1673ffffffffffffffffffffffffffffffffffffffff16815260200190815260200160002081905550858161099391906112eb565b8260008673ffffffffffffffffffffffffffffffffffffffff1673ffffffffffffffffffffffffffffffffffffffff1681526020019081526020016000208190555060019450505050505b92915050565b6000806000803373ffffffffffffffffffffffffffffffffffffffff1673ffffffffffffffffffffffffffffffffffffffff16815260200190815260200160002054905080831115610a34578092505b610a3d83610d7d565b8281610a4991906112eb565b6000803373ffffffffffffffffffffffffffffffffffffffff1673ffffffffffffffffffffffffffffffffffffffff1681526020019081526020016000208190555082915050919050565b60008060008373ffffffffffffffffffffffffffffffffffffffff1673ffffffffffffffffffffffffffffffffffffffff168152602001908152602001600020549050919050565b6040518060400160405280600481526020017f475354320000000000000000000000000000000000000000000000000000000081525081565b60005b81811015610b3c57610b28610fba565b508080610b34906113a7565b915050610b18565b508060026000828254610b4f9190611295565b92505081905550806000803373ffffffffffffffffffffffffffffffffffffffff1673ffffffffffffffffffffffffffffffffffffffff1681526020019081526020016000206000828254610ba49190611295565b9250508190555050565b600080339050610bbf818585610e4f565b91505092915050565b60006040517fff0000000000004946c0e9f43f4dee607b0ef1fa1c000000000000000000000081528260158201527f3c1644c68e5d6cb380c36d1bf847fdbc0c7ac28030025a2fc5e63cce23c16348603582015273ffffffffffffffffffffffffffffffffffffffff6055822016915050919050565b6000806000803373ffffffffffffffffffffffffffffffffffffffff1673ffffffffffffffffffffffffffffffffffffffff16815260200190815260200160002054905080831115610c94576000915050610cf1565b610c9d83610d7d565b8281610ca991906112eb565b6000803373ffffffffffffffffffffffffffffffffffffffff1673ffffffffffffffffffffffffffffffffffffffff1681526020019081526020016000208190555060019150505b919050565b6000600160008473ffffffffffffffffffffffffffffffffffffffff1673ffffffffffffffffffffffffffffffffffffffff16815260200190815260200160002060008373ffffffffffffffffffffffffffffffffffffffff1673ffffffffffffffffffffffffffffffffffffffff16815260200190815260200160002054905092915050565b600060035490506000600182610d939190611295565b90505b8282610da29190611295565b8111610e3857610dbe81600354610db99190611295565b610bc8565b73ffffffffffffffffffffffffffffffffffffffff16604051610de0906111cb565b6000604051808303816000865af19150503d8060008114610e1d576040519150601f19603f3d011682016040523d82523d6000602084013e610e22565b606091505b5050508080610e30906113a7565b915050610d96565b508181610e459190611295565b6003819055505050565b60008060008573ffffffffffffffffffffffffffffffffffffffff1673ffffffffffffffffffffffffffffffffffffffff168152602001908152602001600020548211610fae57816000808673ffffffffffffffffffffffffffffffffffffffff1673ffffffffffffffffffffffffffffffffffffffff1681526020019081526020016000206000828254610ee491906112eb565b92505081905550816000808573ffffffffffffffffffffffffffffffffffffffff1673ffffffffffffffffffffffffffffffffffffffff1681526020019081526020016000206000828254610f399190611295565b925050819055508273ffffffffffffffffffffffffffffffffffffffff168473ffffffffffffffffffffffffffffffffffffffff167fddf252ad1be2c89b69c2b068fc378daa952ba7f163c4a11628f55a4df523b3ef84604051610f9d9190611238565b60405180910390a360019050610fb3565b600090505b9392505050565b60006040517e756eb3f879cb30fe243b4dfee438691c043318585733ff6000526016600af38152601f600182016000f091505090565b600081359050610fff81611433565b92915050565b6000813590506110148161144a565b92915050565b60006020828403121561102c57600080fd5b600061103a84828501610ff0565b91505092915050565b6000806040838503121561105657600080fd5b600061106485828601610ff0565b925050602061107585828601610ff0565b9150509250929050565b60008060006060848603121561109457600080fd5b60006110a286828701610ff0565b93505060206110b386828701610ff0565b92505060406110c486828701611005565b9150509250925092565b600080604083850312156110e157600080fd5b60006110ef85828601610ff0565b925050602061110085828601611005565b9150509250929050565b60006020828403121561111c57600080fd5b600061112a84828501611005565b91505092915050565b61113c8161131f565b82525050565b61114b81611331565b82525050565b600061115c8261126e565b6111668185611284565b9350611176818560208601611374565b61117f8161141f565b840191505092915050565b6000611197600083611279565b91506111a282611430565b600082019050919050565b6111b68161135d565b82525050565b6111c581611367565b82525050565b60006111d68261118a565b9150819050919050565b60006020820190506111f56000830184611133565b92915050565b60006020820190506112106000830184611142565b92915050565b600060208201905081810360008301526112308184611151565b905092915050565b600060208201905061124d60008301846111ad565b92915050565b600060208201905061126860008301846111bc565b92915050565b600081519050919050565b600081905092915050565b600082825260208201905092915050565b60006112a08261135d565b91506112ab8361135d565b9250827fffffffffffffffffffffffffffffffffffffffffffffffffffffffffffffffff038211156112e0576112df6113f0565b5b828201905092915050565b60006112f68261135d565b91506113018361135d565b925082821015611314576113136113f0565b5b828203905092915050565b600061132a8261133d565b9050919050565b60008115159050919050565b600073ffffffffffffffffffffffffffffffffffffffff82169050919050565b6000819050919050565b600060ff82169050919050565b60005b83811015611392578082015181840152602081019050611377565b838111156113a1576000848401525b50505050565b60006113b28261135d565b91507fffffffffffffffffffffffffffffffffffffffffffffffffffffffffffffffff8214156113e5576113e46113f0565b5b600182019050919050565b7f4e487b7100000000000000000000000000000000000000000000000000000000600052601160045260246000fd5b6000601f19601f8301169050919050565b50565b61143c8161131f565b811461144757600080fd5b50565b6114538161135d565b811461145e57600080fd5b5056fea2646970667358221220a2d595277cfae630ede7ceac122d8b18b6cc7e320d4f975a252ad47d8a9c3e1f64736f6c63430008040033",
  "immutableReferences": {},
  "source": "// SPDX-License-Identifier: MIT\r\npragma solidity ^0.8.0;\r\n\r\ncontract GasToken2 {\r\n    //////////////////////////////////////////////////////////////////////////\r\n    // Generic ERC20\r\n    //////////////////////////////////////////////////////////////////////////\r\n    // owner -> amount\r\n    mapping(address => uint256) s_balances;\r\n    // owner -> spender -> max amount\r\n    mapping(address => mapping(address => uint256)) s_allowances;\r\n\r\n    event Transfer(address indexed from, address indexed to, uint256 value);\r\n\r\n    event Approval(address indexed owner, address indexed spender, uint256 value);\r\n\r\n    // Spec: Get the account balance of another account with address `owner`\r\n    function balanceOf(address owner) public returns (uint256 balance) {\r\n        return s_balances[owner];\r\n    }\r\n\r\n    function internalTransfer(address from, address to, uint256 value) internal returns (bool success) {\r\n        if (value <= s_balances[from]) {\r\n            s_balances[from] -= value;\r\n            s_balances[to] += value;\r\n            emit Transfer(from, to, value);\r\n            return true;\r\n        } else {\r\n            return false;\r\n        }\r\n    }\r\n\r\n    // Spec: Send `value` amount of tokens to address `to`\r\n    function transfer(address to, uint256 value) public returns (bool success) {\r\n        address from = msg.sender;\r\n        return internalTransfer(from, to, value);\r\n    }\r\n\r\n    // Spec: Send `value` amount of tokens from address `from` to address `to`\r\n    function transferFrom(address from, address to, uint256 value) public returns (bool success) {\r\n        address spender = msg.sender;\r\n        if(value <= s_allowances[from][spender] && internalTransfer(from, to, value)) {\r\n            s_allowances[from][spender] -= value;\r\n            return true;\r\n        } else {\r\n            return false;\r\n        }\r\n    }\r\n\r\n    // Spec: Allow `spender` to withdraw from your account, multiple times, up\r\n    // to the `value` amount. If this function is called again it overwrites the\r\n    // current allowance with `value`.\r\n    function approve(address spender, uint256 value) public returns (bool success) {\r\n        address owner = msg.sender;\r\n        if (value != 0 && s_allowances[owner][spender] != 0) {\r\n            return false;\r\n        }\r\n        s_allowances[owner][spender] = value;\r\n        emit Approval(owner, spender, value);\r\n        return true;\r\n    }\r\n\r\n    // Spec: Returns the `amount` which `spender` is still allowed to withdraw\r\n    // from `owner`.\r\n    // What if the allowance is higher than the balance of the `owner`?\r\n    // Callers should be careful to use min(allowance, balanceOf) to make sure\r\n    // that the allowance is actually present in the account!\r\n    function allowance(address owner, address spender) public returns (uint256 remaining) {\r\n        return s_allowances[owner][spender];\r\n    }\r\n\r\n    //////////////////////////////////////////////////////////////////////////\r\n    // GasToken specifics\r\n    //////////////////////////////////////////////////////////////////////////\r\n\r\n    uint8 constant public decimals = 2;\r\n    string constant public name = \"Gastoken.io\";\r\n    string constant public symbol = \"GST2\";\r\n\r\n    // We build a queue of nonces at which child contracts are stored. s_head is\r\n    // the nonce at the head of the queue, s_tail is the nonce behind the tail\r\n    // of the queue. The queue grows at the head and shrinks from the tail.\r\n    // Note that when and only when a contract CREATEs another contract, the\r\n    // creating contract's nonce is incremented.\r\n    // The first child contract is created with nonce == 1, the second child\r\n    // contract is created with nonce == 2, and so on...\r\n    // For example, if there are child contracts at nonces [2,3,4],\r\n    // then s_head == 4 and s_tail == 1. If there are no child contracts,\r\n    // s_head == s_tail.\r\n    uint256 s_head;\r\n    uint256 s_tail;\r\n\r\n    // totalSupply gives  the number of tokens currently in existence\r\n    // Each token corresponds to one child contract that can be SELFDESTRUCTed\r\n    // for a gas refund.\r\n    function totalSupply() public returns (uint256 supply) {\r\n        return s_head - s_tail;\r\n    }\r\n\r\n    // Creates a child contract that can only be destroyed by this contract.\r\n    function makeChild() internal returns (address addr) {\r\n        assembly {\r\n            // EVM assembler of runtime portion of child contract:\r\n            //     ;; Pseudocode: if (msg.sender != 0x0000000000b3f879cb30fe243b4dfee438691c04) { throw; }\r\n            //     ;;             suicide(msg.sender)\r\n            //     PUSH15 0xb3f879cb30fe243b4dfee438691c04 ;; hardcoded address of this contract\r\n            //     CALLER\r\n            //     XOR\r\n            //     PC\r\n            //     JUMPI\r\n            //     CALLER\r\n            //     SELFDESTRUCT\r\n            // Or in binary: 6eb3f879cb30fe243b4dfee438691c043318585733ff\r\n            // Since the binary is so short (22 bytes), we can get away\r\n            // with a very simple initcode:\r\n            //     PUSH22 0x6eb3f879cb30fe243b4dfee438691c043318585733ff\r\n            //     PUSH1 0\r\n            //     MSTORE ;; at this point, memory locations mem[10] through\r\n            //            ;; mem[31] contain the runtime portion of the child\r\n            //            ;; contract. all that's left to do is to RETURN this\r\n            //            ;; chunk of memory.\r\n            //     PUSH1 22 ;; length\r\n            //     PUSH1 10 ;; offset\r\n            //     RETURN\r\n            // Or in binary: 756eb3f879cb30fe243b4dfee438691c043318585733ff6000526016600af3\r\n            // Almost done! All we have to do is put this short (31 bytes) blob into\r\n            // memory and call CREATE with the appropriate offsets.\r\n            let solidity_free_mem_ptr := mload(0x40)\r\n            mstore(solidity_free_mem_ptr, 0x00756eb3f879cb30fe243b4dfee438691c043318585733ff6000526016600af3)\r\n            addr := create(0, add(solidity_free_mem_ptr, 1), 31)\r\n        }\r\n    }\r\n\r\n    // Mints `value` new sub-tokens (e.g. cents, pennies, ...) by creating `value`\r\n    // new child contracts. The minted tokens are owned by the caller of this\r\n    // function.\r\n    function mint(uint256 value) public {\r\n        for (uint256 i = 0; i < value; i++) {\r\n            makeChild();\r\n        }\r\n        s_head += value;\r\n        s_balances[msg.sender] += value;\r\n    }\r\n\r\n    // Destroys `value` child contracts and updates s_tail.\r\n    //\r\n    // This function is affected by an issue in solc: https://github.com/ethereum/solidity/issues/2999\r\n    // The `mk_contract_address(this, i).call();` doesn't forward all available gas, but only GAS - 25710.\r\n    // As a result, when this line is executed with e.g. 30000 gas, the callee will have less than 5000 gas\r\n    // available and its SELFDESTRUCT operation will fail leading to no gas refund occurring.\r\n    // The remaining ~29000 gas left after the call is enough to update s_tail and the caller's balance.\r\n    // Hence tokens will have been destroyed without a commensurate gas refund.\r\n    // Fortunately, there is a simple workaround:\r\n    // Whenever you call free, freeUpTo, freeFrom, or freeUpToFrom, ensure that you pass at least\r\n    // 25710 + `value` * (1148 + 5722 + 150) gas. (It won't all be used)\r\n    function destroyChildren(uint256 value) internal {\r\n        uint256 tail = s_tail;\r\n        // tail points to slot behind the last contract in the queue\r\n        for (uint256 i = tail + 1; i <= tail + value; i++) {\r\n            computeAddress2(s_tail + i).call(\"\");\r\n        }\r\n\r\n        s_tail = tail + value;\r\n    }\r\n\r\n    function computeAddress2(uint256 salt) public pure returns (address child) {\r\n        assembly {\r\n            let data := mload(0x40)\r\n            mstore(data, 0xff0000000000004946c0e9F43F4Dee607b0eF1fA1c0000000000000000000000)\r\n            mstore(add(data, 21), salt)\r\n            mstore(add(data, 53), 0x3c1644c68e5d6cb380c36d1bf847fdbc0c7ac28030025a2fc5e63cce23c16348)\r\n            child := and(keccak256(data, 85), 0xFFFFFFFFFFFFFFFFFFFFFFFFFFFFFFFFFFFFFFFF)\r\n        }\r\n    }\r\n\r\n    // Frees `value` sub-tokens (e.g. cents, pennies, ...) belonging to the\r\n    // caller of this function by destroying `value` child contracts, which\r\n    // will trigger a partial gas refund.\r\n    // You should ensure that you pass at least 25710 + `value` * (1148 + 5722 + 150) gas\r\n    // when calling this function. For details, see the comment above `destroyChildren`.\r\n    function free(uint256 value) public returns (bool success) {\r\n        uint256 from_balance = s_balances[msg.sender];\r\n        if (value > from_balance) {\r\n            return false;\r\n        }\r\n\r\n        destroyChildren(value);\r\n\r\n        s_balances[msg.sender] = from_balance - value;\r\n\r\n        return true;\r\n    }\r\n\r\n    // Frees up to `value` sub-tokens. Returns how many tokens were freed.\r\n    // Otherwise, identical to free.\r\n    // You should ensure that you pass at least 25710 + `value` * (1148 + 5722 + 150) gas\r\n    // when calling this function. For details, see the comment above `destroyChildren`.\r\n    function freeUpTo(uint256 value) public returns (uint256 freed) {\r\n        uint256 from_balance = s_balances[msg.sender];\r\n        if (value > from_balance) {\r\n            value = from_balance;\r\n        }\r\n\r\n        destroyChildren(value);\r\n\r\n        s_balances[msg.sender] = from_balance - value;\r\n\r\n        return value;\r\n    }\r\n\r\n    // Frees `value` sub-tokens owned by address `from`. Requires that `msg.sender`\r\n    // has been approved by `from`.\r\n    // You should ensure that you pass at least 25710 + `value` * (1148 + 5722 + 150) gas\r\n    // when calling this function. For details, see the comment above `destroyChildren`.\r\n    function freeFrom(address from, uint256 value) public returns (bool success) {\r\n        address spender = msg.sender;\r\n        uint256 from_balance = s_balances[from];\r\n        if (value > from_balance) {\r\n            return false;\r\n        }\r\n\r\n        mapping(address => uint256) storage from_allowances = s_allowances[from];\r\n        uint256 spender_allowance = from_allowances[spender];\r\n        if (value > spender_allowance) {\r\n            return false;\r\n        }\r\n\r\n        destroyChildren(value);\r\n\r\n        s_balances[from] = from_balance - value;\r\n        from_allowances[spender] = spender_allowance - value;\r\n\r\n        return true;\r\n    }\r\n\r\n    // Frees up to `value` sub-tokens owned by address `from`. Returns how many tokens were freed.\r\n    // Otherwise, identical to `freeFrom`.\r\n    // You should ensure that you pass at least 25710 + `value` * (1148 + 5722 + 150) gas\r\n    // when calling this function. For details, see the comment above `destroyChildren`.\r\n    function freeFromUpTo(address from, uint256 value) public returns (uint256 freed) {\r\n        address spender = msg.sender;\r\n        uint256 from_balance = s_balances[from];\r\n        if (value > from_balance) {\r\n            value = from_balance;\r\n        }\r\n\r\n        mapping(address => uint256) storage from_allowances = s_allowances[from];\r\n        uint256 spender_allowance = from_allowances[spender];\r\n        if (value > spender_allowance) {\r\n            value = spender_allowance;\r\n        }\r\n\r\n        destroyChildren(value);\r\n\r\n        s_balances[from] = from_balance - value;\r\n        from_allowances[spender] = spender_allowance - value;\r\n\r\n        return value;\r\n    }\r\n}\r\n",
  "sourcePath": "C:/Users/khera/Documents/GitHub/GasSwapTokens/contracts/existing_gas_tokens/GST/GST2.sol",
  "compiler": {
    "name": "solc",
    "version": "0.8.4+commit.c7e474f2.Emscripten.clang"
  },
  "schemaVersion": "3.3.4",
  "updatedAt": "2021-05-03T08:26:53.511Z",
  "devdoc": {
    "kind": "dev",
    "methods": {},
    "version": 1
  },
  "userdoc": {
    "kind": "user",
    "methods": {},
    "version": 1
  }
}