{
  "contractName": "GSVECore",
  "abi": [
    {
      "inputs": [
        {
          "internalType": "address",
          "name": "_tokenAddress",
          "type": "address"
        }
      ],
      "stateMutability": "nonpayable",
      "type": "constructor"
    },
    {
      "anonymous": false,
      "inputs": [
        {
          "indexed": true,
          "internalType": "address",
          "name": "_from",
          "type": "address"
        },
        {
          "indexed": true,
          "internalType": "address",
          "name": "_token",
          "type": "address"
        },
        {
          "indexed": false,
          "internalType": "uint256",
          "name": "_value",
          "type": "uint256"
        }
      ],
      "name": "Claimed",
      "type": "event"
    },
    {
      "anonymous": false,
      "inputs": [
        {
          "indexed": true,
          "internalType": "address",
          "name": "previousOwner",
          "type": "address"
        },
        {
          "indexed": true,
          "internalType": "address",
          "name": "newOwner",
          "type": "address"
        }
      ],
      "name": "OwnershipTransferred",
      "type": "event"
    },
    {
      "anonymous": false,
      "inputs": [
        {
          "indexed": true,
          "internalType": "address",
          "name": "_from",
          "type": "address"
        },
        {
          "indexed": false,
          "internalType": "uint256",
          "name": "_value",
          "type": "uint256"
        }
      ],
      "name": "Reward",
      "type": "event"
    },
    {
      "anonymous": false,
      "inputs": [
        {
          "indexed": true,
          "internalType": "address",
          "name": "_from",
          "type": "address"
        },
        {
          "indexed": false,
          "internalType": "uint256",
          "name": "_value",
          "type": "uint256"
        }
      ],
      "name": "Staked",
      "type": "event"
    },
    {
      "anonymous": false,
      "inputs": [
        {
          "indexed": true,
          "internalType": "address",
          "name": "_from",
          "type": "address"
        },
        {
          "indexed": false,
          "internalType": "uint256",
          "name": "_value",
          "type": "uint256"
        }
      ],
      "name": "Unstaked",
      "type": "event"
    },
    {
      "inputs": [],
      "name": "owner",
      "outputs": [
        {
          "internalType": "address",
          "name": "",
          "type": "address"
        }
      ],
      "stateMutability": "view",
      "type": "function"
    },
    {
      "inputs": [],
      "name": "renounceOwnership",
      "outputs": [],
      "stateMutability": "nonpayable",
      "type": "function"
    },
    {
      "inputs": [
        {
          "internalType": "address",
          "name": "newOwner",
          "type": "address"
        }
      ],
      "name": "transferOwnership",
      "outputs": [],
      "stateMutability": "nonpayable",
      "type": "function"
    },
    {
      "inputs": [
        {
          "internalType": "uint256",
          "name": "value",
          "type": "uint256"
        }
      ],
      "name": "stake",
      "outputs": [],
      "stateMutability": "nonpayable",
      "type": "function"
    },
    {
      "inputs": [
        {
          "internalType": "uint256",
          "name": "value",
          "type": "uint256"
        }
      ],
      "name": "unstakeAmount",
      "outputs": [],
      "stateMutability": "nonpayable",
      "type": "function"
    },
    {
      "inputs": [],
      "name": "unstake",
      "outputs": [],
      "stateMutability": "nonpayable",
      "type": "function"
    },
    {
      "inputs": [
        {
          "internalType": "address",
          "name": "rewardedAddress",
          "type": "address"
        }
      ],
      "name": "calculateStakeReward",
      "outputs": [
        {
          "internalType": "uint256",
          "name": "",
          "type": "uint256"
        }
      ],
      "stateMutability": "view",
      "type": "function"
    },
    {
      "inputs": [],
      "name": "collectReward",
      "outputs": [],
      "stateMutability": "nonpayable",
      "type": "function"
    },
    {
      "inputs": [
        {
          "internalType": "address",
          "name": "mintTokenAddress",
          "type": "address"
        },
        {
          "internalType": "uint256",
          "name": "tokensToMint",
          "type": "uint256"
        }
      ],
      "name": "burnDiscountedMinting",
      "outputs": [],
      "stateMutability": "nonpayable",
      "type": "function"
    },
    {
      "inputs": [
        {
          "internalType": "address",
          "name": "mintTokenAddress",
          "type": "address"
        },
        {
          "internalType": "uint256",
          "name": "tokensToMint",
          "type": "uint256"
        }
      ],
      "name": "discountedMinting",
      "outputs": [],
      "stateMutability": "nonpayable",
      "type": "function"
    },
    {
      "inputs": [
        {
          "internalType": "address",
          "name": "mintTokenAddress",
          "type": "address"
        },
        {
          "internalType": "uint256",
          "name": "tokensToMint",
          "type": "uint256"
        }
      ],
      "name": "rewardedMinting",
      "outputs": [],
      "stateMutability": "nonpayable",
      "type": "function"
    },
    {
      "inputs": [
        {
          "internalType": "address",
          "name": "claimGasTokenAddress",
          "type": "address"
        },
        {
          "internalType": "uint256",
          "name": "tokensClaimed",
          "type": "uint256"
        }
      ],
      "name": "claimToken",
      "outputs": [],
      "stateMutability": "nonpayable",
      "type": "function"
    },
    {
      "inputs": [
        {
          "internalType": "address",
          "name": "gasToken",
          "type": "address"
        },
        {
          "internalType": "uint256",
          "name": "mintType",
          "type": "uint256"
        },
        {
          "internalType": "uint256",
          "name": "isClaimable",
          "type": "uint256"
        }
      ],
      "name": "addGasToken",
      "outputs": [],
      "stateMutability": "nonpayable",
      "type": "function"
    },
    {
      "inputs": [
        {
          "internalType": "address",
          "name": "gasToken",
          "type": "address"
        }
      ],
      "name": "claimable",
      "outputs": [
        {
          "internalType": "uint256",
          "name": "",
          "type": "uint256"
        }
      ],
      "stateMutability": "view",
      "type": "function"
    },
    {
      "inputs": [
        {
          "internalType": "address",
          "name": "gasToken",
          "type": "address"
        }
      ],
      "name": "mintingType",
      "outputs": [
        {
          "internalType": "uint256",
          "name": "",
          "type": "uint256"
        }
      ],
      "stateMutability": "view",
      "type": "function"
    },
    {
      "inputs": [],
      "name": "totalStaked",
      "outputs": [
        {
          "internalType": "uint256",
          "name": "",
          "type": "uint256"
        }
      ],
      "stateMutability": "view",
      "type": "function"
    },
    {
      "inputs": [
        {
          "internalType": "address",
          "name": "user",
          "type": "address"
        }
      ],
      "name": "userStakeSize",
      "outputs": [
        {
          "internalType": "uint256",
          "name": "",
          "type": "uint256"
        }
      ],
      "stateMutability": "view",
      "type": "function"
    },
    {
      "inputs": [],
      "name": "totalRewards",
      "outputs": [
        {
          "internalType": "uint256",
          "name": "",
          "type": "uint256"
        }
      ],
      "stateMutability": "view",
      "type": "function"
    },
    {
      "inputs": [
        {
          "internalType": "address",
          "name": "user",
          "type": "address"
        }
      ],
      "name": "totalRewardUser",
      "outputs": [
        {
          "internalType": "uint256",
          "name": "",
          "type": "uint256"
        }
      ],
      "stateMutability": "view",
      "type": "function"
    }
  ],
  "bytecode": "0x6080604052600060025569054b40b1f852bda0000060055569152d02c7e14af680000060065560006007553480156200003757600080fd5b5060405162002dc038038062002dc083398181016040528101906200005d919062000174565b60006200006f6200015560201b60201c565b9050806000806101000a81548173ffffffffffffffffffffffffffffffffffffffff021916908373ffffffffffffffffffffffffffffffffffffffff1602179055508073ffffffffffffffffffffffffffffffffffffffff16600073ffffffffffffffffffffffffffffffffffffffff167f8be0079c531659141344cd1fd0a4f28419497f9722a3daafe3b4186f6b6457e060405160405180910390a35080600160006101000a81548173ffffffffffffffffffffffffffffffffffffffff021916908373ffffffffffffffffffffffffffffffffffffffff16021790555050620001ee565b600033905090565b6000815190506200016e81620001d4565b92915050565b6000602082840312156200018757600080fd5b600062000197848285016200015d565b91505092915050565b6000620001ad82620001b4565b9050919050565b600073ffffffffffffffffffffffffffffffffffffffff82169050919050565b620001df81620001a0565b8114620001eb57600080fd5b50565b612bc280620001fe6000396000f3fe608060405234801561001057600080fd5b50600436106101215760003560e01c806372ed601e116100ad578063a556a81811610071578063a556a818146102ba578063a694fc3a146102d6578063ca459eb5146102f2578063d59684ab14610322578063f2fde38b1461035257610121565b806372ed601e146102165780637ef5c18514610246578063817b1cd214610262578063829f0874146102805780638da5cb5b1461029c57610121565b80632def6620116100f45780632def6620146101ac578063402914f5146101b6578063459e657f146101e657806354c5aee114610202578063715018a61461020c57610121565b80630851482f146101265780630e15561a146101565780631698755f1461017457806329e7a69614610190575b600080fd5b610140600480360381019061013b9190612062565b61036e565b60405161014d9190612574565b60405180910390f35b61015e6103b7565b60405161016b9190612574565b60405180910390f35b61018e6004803603810190610189919061208b565b61047d565b005b6101aa60048036038101906101a5919061208b565b6109e4565b005b6101b4610b78565b005b6101d060048036038101906101cb9190612062565b610d7a565b6040516101dd9190612574565b60405180910390f35b61020060048036038101906101fb919061213f565b610dc3565b005b61020a61102e565b005b6102146112a6565b005b610230600480360381019061022b9190612062565b6113e0565b60405161023d9190612574565b60405180910390f35b610260600480360381019061025b919061208b565b611429565b005b61026a61163e565b6040516102779190612574565b60405180910390f35b61029a6004803603810190610295919061208b565b611648565b005b6102a46118db565b6040516102b19190612367565b60405180910390f35b6102d460048036038101906102cf91906120c7565b611904565b005b6102f060048036038101906102eb919061213f565b611a0d565b005b61030c60048036038101906103079190612062565b611c66565b6040516103199190612574565b60405180910390f35b61033c60048036038101906103379190612062565b611caf565b6040516103499190612574565b60405180910390f35b61036c60048036038101906103679190612062565b611dec565b005b6000600a60008373ffffffffffffffffffffffffffffffffffffffff1673ffffffffffffffffffffffffffffffffffffffff168152602001908152602001600020549050919050565b6000610478600754600160009054906101000a900473ffffffffffffffffffffffffffffffffffffffff1673ffffffffffffffffffffffffffffffffffffffff166370a08231306040518263ffffffff1660e01b815260040161041a9190612367565b60206040518083038186803b15801561043257600080fd5b505afa158015610446573d6000803e3d6000fd5b505050506040513d601f19601f8201168201806040525081019061046a9190612168565b611f9590919063ffffffff16565b905090565b6000600460008473ffffffffffffffffffffffffffffffffffffffff1673ffffffffffffffffffffffffffffffffffffffff16815260200190815260200160002054905060008114610504576040517f08c379a00000000000000000000000000000000000000000000000000000000081526004016104fb906124b4565b60405180910390fd5b600654600860003373ffffffffffffffffffffffffffffffffffffffff1673ffffffffffffffffffffffffffffffffffffffff168152602001908152602001600020541015610588576040517f08c379a000000000000000000000000000000000000000000000000000000000815260040161057f90612514565b60405180910390fd5b6000600b60003373ffffffffffffffffffffffffffffffffffffffff1673ffffffffffffffffffffffffffffffffffffffff16815260200190815260200160002060008573ffffffffffffffffffffffffffffffffffffffff1673ffffffffffffffffffffffffffffffffffffffff16815260200190815260200160002054146106df5761a8c061069e600b60003373ffffffffffffffffffffffffffffffffffffffff1673ffffffffffffffffffffffffffffffffffffffff16815260200190815260200160002060008673ffffffffffffffffffffffffffffffffffffffff1673ffffffffffffffffffffffffffffffffffffffff1681526020019081526020016000205442611f9590919063ffffffff16565b116106de576040517f08c379a00000000000000000000000000000000000000000000000000000000081526004016106d5906124d4565b60405180910390fd5b5b60008290506000600160009054906101000a900473ffffffffffffffffffffffffffffffffffffffff1673ffffffffffffffffffffffffffffffffffffffff166370a08231306040518263ffffffff1660e01b81526004016107419190612367565b60206040518083038186803b15801561075957600080fd5b505afa15801561076d573d6000803e3d6000fd5b505050506040513d601f19601f820116820180604052508101906107919190612168565b90506107a76107a1600583611fab565b83611fab565b915060008214156107ba575050506109e0565b600160009054906101000a900473ffffffffffffffffffffffffffffffffffffffff1673ffffffffffffffffffffffffffffffffffffffff166379cc67903367016345785d8a000060018661080f9190612703565b6108199190612703565b6040518363ffffffff1660e01b815260040161083692919061240b565b600060405180830381600087803b15801561085057600080fd5b505af1158015610864573d6000803e3d6000fd5b505050508473ffffffffffffffffffffffffffffffffffffffff1663a9059cbb33846040518363ffffffff1660e01b81526004016108a392919061240b565b602060405180830381600087803b1580156108bd57600080fd5b505af11580156108d1573d6000803e3d6000fd5b505050506040513d601f19601f820116820180604052508101906108f59190612116565b5042600b60003373ffffffffffffffffffffffffffffffffffffffff1673ffffffffffffffffffffffffffffffffffffffff16815260200190815260200160002060008773ffffffffffffffffffffffffffffffffffffffff1673ffffffffffffffffffffffffffffffffffffffff168152602001908152602001600020819055508473ffffffffffffffffffffffffffffffffffffffff163373ffffffffffffffffffffffffffffffffffffffff167ff7a40077ff7a04c7e61f6f26fb13774259ddf1b6bce9ecf26a8276cdd3992683846040516109d49190612574565b60405180910390a35050505b5050565b6000600360008473ffffffffffffffffffffffffffffffffffffffff1673ffffffffffffffffffffffffffffffffffffffff1681526020019081526020016000205490506000811415610a6c576040517f08c379a0000000000000000000000000000000000000000000000000000000008152600401610a6390612494565b60405180910390fd5b600160009054906101000a900473ffffffffffffffffffffffffffffffffffffffff1673ffffffffffffffffffffffffffffffffffffffff166379cc6790336703782dace9d900006040518363ffffffff1660e01b8152600401610ad19291906123e2565b600060405180830381600087803b158015610aeb57600080fd5b505af1158015610aff573d6000803e3d6000fd5b505050508273ffffffffffffffffffffffffffffffffffffffff16637e72014a836000336040518463ffffffff1660e01b8152600401610b419392919061258f565b600060405180830381600087803b158015610b5b57600080fd5b505af1158015610b6f573d6000803e3d6000fd5b50505050505050565b6000600860003373ffffffffffffffffffffffffffffffffffffffff1673ffffffffffffffffffffffffffffffffffffffff1681526020019081526020016000205490506000811415610bcb5750610d78565b6000600860003373ffffffffffffffffffffffffffffffffffffffff1673ffffffffffffffffffffffffffffffffffffffff168152602001908152602001600020819055506000600960003373ffffffffffffffffffffffffffffffffffffffff1673ffffffffffffffffffffffffffffffffffffffff16815260200190815260200160002081905550610c6a81600754611f9590919063ffffffff16565b600781905550600160009054906101000a900473ffffffffffffffffffffffffffffffffffffffff1673ffffffffffffffffffffffffffffffffffffffff1663a9059cbb33836040518363ffffffff1660e01b8152600401610ccd92919061240b565b602060405180830381600087803b158015610ce757600080fd5b505af1158015610cfb573d6000803e3d6000fd5b505050506040513d601f19601f82011682018060405250810190610d1f9190612116565b610d2857600080fd5b3373ffffffffffffffffffffffffffffffffffffffff167f0f5bb82176feb1b5e747e28471aa92156a04d9f3ab9f45f28e2d704232b93f7582604051610d6e9190612574565b60405180910390a2505b565b6000600460008373ffffffffffffffffffffffffffffffffffffffff1673ffffffffffffffffffffffffffffffffffffffff168152602001908152602001600020549050919050565b6000600860003373ffffffffffffffffffffffffffffffffffffffff1673ffffffffffffffffffffffffffffffffffffffff1681526020019081526020016000205490506000811415610e16575061102b565b6000610e228383611fab565b9050610e378183611f9590919063ffffffff16565b600860003373ffffffffffffffffffffffffffffffffffffffff1673ffffffffffffffffffffffffffffffffffffffff168152602001908152602001600020819055506000600860003373ffffffffffffffffffffffffffffffffffffffff1673ffffffffffffffffffffffffffffffffffffffff168152602001908152602001600020541415610f075742600960003373ffffffffffffffffffffffffffffffffffffffff1673ffffffffffffffffffffffffffffffffffffffff168152602001908152602001600020819055505b610f1c83600754611f9590919063ffffffff16565b600781905550600160009054906101000a900473ffffffffffffffffffffffffffffffffffffffff1673ffffffffffffffffffffffffffffffffffffffff1663a9059cbb33836040518363ffffffff1660e01b8152600401610f7f92919061240b565b602060405180830381600087803b158015610f9957600080fd5b505af1158015610fad573d6000803e3d6000fd5b505050506040513d601f19601f82011682018060405250810190610fd19190612116565b610fda57600080fd5b3373ffffffffffffffffffffffffffffffffffffffff167f0f5bb82176feb1b5e747e28471aa92156a04d9f3ab9f45f28e2d704232b93f75826040516110209190612574565b60405180910390a250505b50565b60006110386103b7565b11611078576040517f08c379a000000000000000000000000000000000000000000000000000000000815260040161106f90612454565b60405180910390fd5b600061108333611caf565b9050600081141561109457506112a4565b42600960003373ffffffffffffffffffffffffffffffffffffffff1673ffffffffffffffffffffffffffffffffffffffff1681526020019081526020016000208190555080600a60003373ffffffffffffffffffffffffffffffffffffffff1673ffffffffffffffffffffffffffffffffffffffff16815260200190815260200160002054611123919061267c565b600a60003373ffffffffffffffffffffffffffffffffffffffff1673ffffffffffffffffffffffffffffffffffffffff16815260200190815260200160002081905550600160009054906101000a900473ffffffffffffffffffffffffffffffffffffffff1673ffffffffffffffffffffffffffffffffffffffff1663a9059cbb33836040518363ffffffff1660e01b81526004016111c392919061240b565b602060405180830381600087803b1580156111dd57600080fd5b505af11580156111f1573d6000803e3d6000fd5b505050506040513d601f19601f820116820180604052508101906112159190612116565b611254576040517f08c379a000000000000000000000000000000000000000000000000000000000815260040161124b90612534565b60405180910390fd5b3373ffffffffffffffffffffffffffffffffffffffff167f619caafabdd75649b302ba8419e48cccf64f37f1983ac4727cfb38b57703ffc98260405161129a9190612574565b60405180910390a2505b565b6112ae611fc4565b73ffffffffffffffffffffffffffffffffffffffff166112cc6118db565b73ffffffffffffffffffffffffffffffffffffffff1614611322576040517f08c379a0000000000000000000000000000000000000000000000000000000008152600401611319906124f4565b60405180910390fd5b600073ffffffffffffffffffffffffffffffffffffffff1660008054906101000a900473ffffffffffffffffffffffffffffffffffffffff1673ffffffffffffffffffffffffffffffffffffffff167f8be0079c531659141344cd1fd0a4f28419497f9722a3daafe3b4186f6b6457e060405160405180910390a360008060006101000a81548173ffffffffffffffffffffffffffffffffffffffff021916908373ffffffffffffffffffffffffffffffffffffffff160217905550565b6000600860008373ffffffffffffffffffffffffffffffffffffffff1673ffffffffffffffffffffffffffffffffffffffff168152602001908152602001600020549050919050565b6000600360008473ffffffffffffffffffffffffffffffffffffffff1673ffffffffffffffffffffffffffffffffffffffff16815260200190815260200160002054905060008114156114b1576040517f08c379a00000000000000000000000000000000000000000000000000000000081526004016114a890612494565b60405180910390fd5b600554600860003373ffffffffffffffffffffffffffffffffffffffff1673ffffffffffffffffffffffffffffffffffffffff168152602001908152602001600020541015611535576040517f08c379a000000000000000000000000000000000000000000000000000000000815260040161152c90612434565b60405180910390fd5b60018114156115b3578273ffffffffffffffffffffffffffffffffffffffff16637e72014a836001336040518463ffffffff1660e01b815260040161157c939291906125c6565b600060405180830381600087803b15801561159657600080fd5b505af11580156115aa573d6000803e3d6000fd5b50505050611638565b6002811415611631578273ffffffffffffffffffffffffffffffffffffffff16637e72014a836002336040518463ffffffff1660e01b81526004016115fa939291906125fd565b600060405180830381600087803b15801561161457600080fd5b505af1158015611628573d6000803e3d6000fd5b50505050611637565b5061163a565b5b505b5050565b6000600754905090565b6000600360008473ffffffffffffffffffffffffffffffffffffffff1673ffffffffffffffffffffffffffffffffffffffff16815260200190815260200160002054905060008114156116d0576040517f08c379a00000000000000000000000000000000000000000000000000000000081526004016116c790612494565b60405180910390fd5b60006116da6103b7565b1161171a576040517f08c379a000000000000000000000000000000000000000000000000000000000815260040161171190612454565b60405180910390fd5b6001811415611798578273ffffffffffffffffffffffffffffffffffffffff16637e72014a836002336040518463ffffffff1660e01b8152600401611761939291906125fd565b600060405180830381600087803b15801561177b57600080fd5b505af115801561178f573d6000803e3d6000fd5b5050505061181d565b6002811415611816578273ffffffffffffffffffffffffffffffffffffffff16637e72014a836003336040518463ffffffff1660e01b81526004016117df93929190612634565b600060405180830381600087803b1580156117f957600080fd5b505af115801561180d573d6000803e3d6000fd5b5050505061181c565b506118d7565b5b600160009054906101000a900473ffffffffffffffffffffffffffffffffffffffff1673ffffffffffffffffffffffffffffffffffffffff1663a9059cbb3367016345785d8a00006040518363ffffffff1660e01b81526004016118829291906123b9565b602060405180830381600087803b15801561189c57600080fd5b505af11580156118b0573d6000803e3d6000fd5b505050506040513d601f19601f820116820180604052508101906118d49190612116565b50505b5050565b60008060009054906101000a900473ffffffffffffffffffffffffffffffffffffffff16905090565b61190c611fc4565b73ffffffffffffffffffffffffffffffffffffffff1661192a6118db565b73ffffffffffffffffffffffffffffffffffffffff1614611980576040517f08c379a0000000000000000000000000000000000000000000000000000000008152600401611977906124f4565b60405180910390fd5b81600360008573ffffffffffffffffffffffffffffffffffffffff1673ffffffffffffffffffffffffffffffffffffffff1681526020019081526020016000208190555080600460008573ffffffffffffffffffffffffffffffffffffffff1673ffffffffffffffffffffffffffffffffffffffff16815260200190815260200160002081905550505050565b6000611a1833611caf565b14611a58576040517f08c379a0000000000000000000000000000000000000000000000000000000008152600401611a4f90612554565b60405180910390fd5b6000811415611a6657611c63565b600160009054906101000a900473ffffffffffffffffffffffffffffffffffffffff1673ffffffffffffffffffffffffffffffffffffffff166323b872dd3330846040518463ffffffff1660e01b8152600401611ac593929190612382565b602060405180830381600087803b158015611adf57600080fd5b505af1158015611af3573d6000803e3d6000fd5b505050506040513d601f19601f82011682018060405250810190611b179190612116565b611b2057600080fd5b611b7281600860003373ffffffffffffffffffffffffffffffffffffffff1673ffffffffffffffffffffffffffffffffffffffff16815260200190815260200160002054611fcc90919063ffffffff16565b600860003373ffffffffffffffffffffffffffffffffffffffff1673ffffffffffffffffffffffffffffffffffffffff1681526020019081526020016000208190555042600960003373ffffffffffffffffffffffffffffffffffffffff1673ffffffffffffffffffffffffffffffffffffffff16815260200190815260200160002081905550611c0e81600754611fcc90919063ffffffff16565b6007819055503373ffffffffffffffffffffffffffffffffffffffff167f9e71bc8eea02a63969f509818f2dafb9254532904319f9dbda79b67bd34a5f3d82604051611c5a9190612574565b60405180910390a25b50565b6000600360008373ffffffffffffffffffffffffffffffffffffffff1673ffffffffffffffffffffffffffffffffffffffff168152602001908152602001600020549050919050565b600080600960008473ffffffffffffffffffffffffffffffffffffffff1673ffffffffffffffffffffffffffffffffffffffff168152602001908152602001600020541415611d015760009050611de7565b6000611d55600960008573ffffffffffffffffffffffffffffffffffffffff1673ffffffffffffffffffffffffffffffffffffffff1681526020019081526020016000205442611f9590919063ffffffff16565b90506000611d6e61a8c083611fe290919063ffffffff16565b90506000611dc66107d0600860008873ffffffffffffffffffffffffffffffffffffffff1673ffffffffffffffffffffffffffffffffffffffff16815260200190815260200160002054611fe290919063ffffffff16565b90506000611ddd8284611ff890919063ffffffff16565b9050809450505050505b919050565b611df4611fc4565b73ffffffffffffffffffffffffffffffffffffffff16611e126118db565b73ffffffffffffffffffffffffffffffffffffffff1614611e68576040517f08c379a0000000000000000000000000000000000000000000000000000000008152600401611e5f906124f4565b60405180910390fd5b600073ffffffffffffffffffffffffffffffffffffffff168173ffffffffffffffffffffffffffffffffffffffff161415611ed8576040517f08c379a0000000000000000000000000000000000000000000000000000000008152600401611ecf90612474565b60405180910390fd5b8073ffffffffffffffffffffffffffffffffffffffff1660008054906101000a900473ffffffffffffffffffffffffffffffffffffffff1673ffffffffffffffffffffffffffffffffffffffff167f8be0079c531659141344cd1fd0a4f28419497f9722a3daafe3b4186f6b6457e060405160405180910390a3806000806101000a81548173ffffffffffffffffffffffffffffffffffffffff021916908373ffffffffffffffffffffffffffffffffffffffff16021790555050565b60008183611fa3919061275d565b905092915050565b6000818310611fba5781611fbc565b825b905092915050565b600033905090565b60008183611fda919061267c565b905092915050565b60008183611ff091906126d2565b905092915050565b600081836120069190612703565b905092915050565b60008135905061201d81612b47565b92915050565b60008151905061203281612b5e565b92915050565b60008135905061204781612b75565b92915050565b60008151905061205c81612b75565b92915050565b60006020828403121561207457600080fd5b60006120828482850161200e565b91505092915050565b6000806040838503121561209e57600080fd5b60006120ac8582860161200e565b92505060206120bd85828601612038565b9150509250929050565b6000806000606084860312156120dc57600080fd5b60006120ea8682870161200e565b93505060206120fb86828701612038565b925050604061210c86828701612038565b9150509250925092565b60006020828403121561212857600080fd5b600061213684828501612023565b91505092915050565b60006020828403121561215157600080fd5b600061215f84828501612038565b91505092915050565b60006020828403121561217a57600080fd5b60006121888482850161204d565b91505092915050565b61219a81612791565b82525050565b6121a9816127d9565b82525050565b6121b8816127eb565b82525050565b6121c7816127fd565b82525050565b6121d68161280f565b82525050565b6121e581612821565b82525050565b6121f481612833565b82525050565b6000612207602c8361266b565b9150612212826128a3565b604082019050919050565b600061222a602d8361266b565b9150612235826128f2565b604082019050919050565b600061224d60268361266b565b915061225882612941565b604082019050919050565b600061227060178361266b565b915061227b82612990565b602082019050919050565b600061229360198361266b565b915061229e826129b9565b602082019050919050565b60006122b6603c8361266b565b91506122c1826129e2565b604082019050919050565b60006122d960208361266b565b91506122e482612a31565b602082019050919050565b60006122fc60378361266b565b915061230782612a5a565b604082019050919050565b600061231f601b8361266b565b915061232a82612aa9565b602082019050919050565b600061234260438361266b565b915061234d82612ad2565b606082019050919050565b612361816127cf565b82525050565b600060208201905061237c6000830184612191565b92915050565b60006060820190506123976000830186612191565b6123a46020830185612191565b6123b16040830184612358565b949350505050565b60006040820190506123ce6000830185612191565b6123db60208301846121af565b9392505050565b60006040820190506123f76000830185612191565b61240460208301846121cd565b9392505050565b60006040820190506124206000830185612191565b61242d6020830184612358565b9392505050565b6000602082019050818103600083015261244d816121fa565b9050919050565b6000602082019050818103600083015261246d8161221d565b9050919050565b6000602082019050818103600083015261248d81612240565b9050919050565b600060208201905081810360008301526124ad81612263565b9050919050565b600060208201905081810360008301526124cd81612286565b9050919050565b600060208201905081810360008301526124ed816122a9565b9050919050565b6000602082019050818103600083015261250d816122cc565b9050919050565b6000602082019050818103600083015261252d816122ef565b9050919050565b6000602082019050818103600083015261254d81612312565b9050919050565b6000602082019050818103600083015261256d81612335565b9050919050565b60006020820190506125896000830184612358565b92915050565b60006060820190506125a46000830186612358565b6125b160208301856121a0565b6125be6040830184612191565b949350505050565b60006060820190506125db6000830186612358565b6125e860208301856121be565b6125f56040830184612191565b949350505050565b60006060820190506126126000830186612358565b61261f60208301856121dc565b61262c6040830184612191565b949350505050565b60006060820190506126496000830186612358565b61265660208301856121eb565b6126636040830184612191565b949350505050565b600082825260208201905092915050565b6000612687826127cf565b9150612692836127cf565b9250827fffffffffffffffffffffffffffffffffffffffffffffffffffffffffffffffff038211156126c7576126c6612845565b5b828201905092915050565b60006126dd826127cf565b91506126e8836127cf565b9250826126f8576126f7612874565b5b828204905092915050565b600061270e826127cf565b9150612719836127cf565b9250817fffffffffffffffffffffffffffffffffffffffffffffffffffffffffffffffff048311821515161561275257612751612845565b5b828202905092915050565b6000612768826127cf565b9150612773836127cf565b92508282101561278657612785612845565b5b828203905092915050565b600061279c826127af565b9050919050565b60008115159050919050565b600073ffffffffffffffffffffffffffffffffffffffff82169050919050565b6000819050919050565b60006127e4826127cf565b9050919050565b60006127f6826127cf565b9050919050565b6000612808826127cf565b9050919050565b600061281a826127cf565b9050919050565b600061282c826127cf565b9050919050565b600061283e826127cf565b9050919050565b7f4e487b7100000000000000000000000000000000000000000000000000000000600052601160045260246000fd5b7f4e487b7100000000000000000000000000000000000000000000000000000000600052601260045260246000fd5b7f475356453a205573657220686173206e6f74207374616b656420656e6f75676860008201527f20746f20646973636f756e740000000000000000000000000000000000000000602082015250565b7f475356453a20636f6e7472616374206861732072616e206f7574206f6620726560008201527f776172647320746f206769766500000000000000000000000000000000000000602082015250565b7f4f776e61626c653a206e6577206f776e657220697320746865207a65726f206160008201527f6464726573730000000000000000000000000000000000000000000000000000602082015250565b7f475356453a20556e737570706f7274656420546f6b656e000000000000000000600082015250565b7f475356453a20546f6b656e206e6f7420636c61696d61626c6500000000000000600082015250565b7f475356453a20557365722063616e6e6f7420636c61696d207468652073616d6560008201527f2067617320746f6b656e20747769636520696e20313220686f75727300000000602082015250565b7f4f776e61626c653a2063616c6c6572206973206e6f7420746865206f776e6572600082015250565b7f475356453a205573657220686173206e6f74207374616b656420656e6f75676860008201527f20746f20636c61696d2066726f6d2074686520706f6f6c000000000000000000602082015250565b7f475356453a20746f6b656e207472616e73666572206661696c65640000000000600082015250565b7f475356453a205573657220686173207374616b6520726577617264732074686560008201527f79206d75737420636c61696d206265666f7265207570646174696e672073746160208201527f6b652e0000000000000000000000000000000000000000000000000000000000604082015250565b612b5081612791565b8114612b5b57600080fd5b50565b612b67816127a3565b8114612b7257600080fd5b50565b612b7e816127cf565b8114612b8957600080fd5b5056fea2646970667358221220eb43e58b9e33c47edcdf3a0ad281792806ffb0eabcab325c2838c151e43b3b2364736f6c63430008040033",
  "immutableReferences": {},
  "source": "pragma solidity ^0.8.0;\r\n\r\nimport \"@openzeppelin/contracts/utils/math/Math.sol\";\r\nimport \"@openzeppelin/contracts/utils/math/SafeMath.sol\";\r\nimport \"@openzeppelin/contracts/token/ERC20/IERC20.sol\";\r\nimport \"@openzeppelin/contracts/access/Ownable.sol\";\r\n\r\nimport \"./IGSVEProtocolToken.sol\";\r\nimport \"./IGSVEToken.sol\";\r\n\r\n\r\ncontract GSVECore is Ownable {\r\n    using SafeMath for uint256;\r\n    \r\n    //address of our protocol utility token\r\n    address private GSVEToken;\r\n\r\n    //supported gas tokens\r\n    uint256 private totalSupportedGasTokens = 0;\r\n\r\n    //mapping(uint256 => address) private supportedGasTokens;\r\n    mapping(address => uint256) private _mintingType;\r\n    mapping(address => uint256) private _claimable;\r\n\r\n    //fee stake threshholds;\r\n    uint256 private tierOneThreshold = 25000 * (10**18);\r\n    uint256 private tierTwoThreshold = 100000 * (10**18);\r\n\r\n    uint256 private _totalStaked = 0;\r\n\r\n    //staking  \r\n    mapping(address => uint256) private userStakes;\r\n    mapping(address => uint256) private userStakeTimes;\r\n    mapping(address => uint256) private userTotalRewards;\r\n\r\n    mapping(address => mapping(address => uint256)) private userClaimTimes;\r\n\r\n    constructor(address _tokenAddress) {\r\n        GSVEToken = _tokenAddress;\r\n    }\r\n\r\n    //Staking Functions - TODO Testing and Verification\r\n    function stake(uint256 value) public {\r\n        require(calculateStakeReward(msg.sender) == 0, \"GSVE: User has stake rewards they must claim before updating stake.\");\r\n\r\n        if (value == 0){\r\n            return;\r\n        }\r\n        require(IERC20(GSVEToken).transferFrom(msg.sender, address(this), value));\r\n        userStakes[msg.sender] = userStakes[msg.sender].add(value);\r\n        userStakeTimes[msg.sender] = block.timestamp;\r\n        _totalStaked = _totalStaked.add(value);\r\n        emit Staked(msg.sender, value);\r\n    }\r\n\r\n    function unstakeAmount(uint256 value) public {\r\n        uint256 stakeSize = userStakes[msg.sender];\r\n        if (stakeSize == 0){\r\n            return;\r\n        }\r\n\r\n        uint256 stakeWithdrawn = Math.min(value, stakeSize);\r\n        userStakes[msg.sender] = stakeSize.sub(stakeWithdrawn);\r\n        \r\n        if(userStakes[msg.sender] == 0){\r\n            userStakeTimes[msg.sender] = block.timestamp;\r\n        }\r\n\r\n        _totalStaked = _totalStaked.sub(value);\r\n        require(IERC20(GSVEToken).transfer(msg.sender, stakeWithdrawn));\r\n        emit Unstaked(msg.sender, stakeWithdrawn);\r\n    }\r\n\r\n    function unstake() public {\r\n        uint256 stakeSize = userStakes[msg.sender];\r\n        if (stakeSize == 0){\r\n            return;\r\n        }\r\n        userStakes[msg.sender] = 0;\r\n        userStakeTimes[msg.sender] = 0;\r\n        _totalStaked = _totalStaked.sub(stakeSize);\r\n        require(IERC20(GSVEToken).transfer(msg.sender, stakeSize));\r\n        emit Unstaked(msg.sender, stakeSize);\r\n    }\r\n\r\n    //calculate the users current unclaimed rewards. This is 1/2000th the users stake every 12 hours.\r\n    function calculateStakeReward(address rewardedAddress) public view returns(uint256){\r\n        if(userStakeTimes[rewardedAddress] == 0){\r\n            return 0;\r\n        }\r\n\r\n        uint256 timeDifference = block.timestamp.sub(userStakeTimes[rewardedAddress]);\r\n        uint256 rewardPeriod = timeDifference.div((60*60*12));\r\n        uint256 rewardPerPeriod = userStakes[rewardedAddress].div(2000);\r\n        uint256 reward = rewardPeriod.mul(rewardPerPeriod);\r\n\r\n        return reward;\r\n    }\r\n\r\n    function collectReward() public {\r\n        require(totalRewards() > 0, \"GSVE: contract has ran out of rewards to give\");\r\n\r\n        uint256 reward = calculateStakeReward(msg.sender);\r\n        if(reward == 0){\r\n            return;\r\n        }\r\n        \r\n        userStakeTimes[msg.sender] = block.timestamp;\r\n        userTotalRewards[msg.sender] = userTotalRewards[msg.sender] + reward;\r\n        require(IERC20(GSVEToken).transfer(msg.sender, reward), \"GSVE: token transfer failed\");\r\n        emit Reward(msg.sender, reward);\r\n    }\r\n\r\n    //remove fees when the user burns 0.25 GSVE\r\n    function burnDiscountedMinting(address mintTokenAddress, uint256 tokensToMint) public {\r\n        uint256 mintType = _mintingType[mintTokenAddress];\r\n        require(mintType != 0, \"GSVE: Unsupported Token\");\r\n        IGSVEProtocolToken(GSVEToken).burnFrom(msg.sender, 25 * 10**16);\r\n        IGSVEToken(mintTokenAddress).discountedMint(tokensToMint, 0, msg.sender);\r\n    }\r\n\r\n    //discounted minting for tier one stakers\r\n    function discountedMinting(address mintTokenAddress, uint256 tokensToMint) public{\r\n        uint256 mintType = _mintingType[mintTokenAddress];\r\n        require(mintType != 0, \"GSVE: Unsupported Token\");\r\n        require(userStakes[msg.sender] >= tierOneThreshold , \"GSVE: User has not staked enough to discount\");\r\n\r\n        if(mintType == 1){\r\n            IGSVEToken(mintTokenAddress).discountedMint(tokensToMint, 1, msg.sender);\r\n        }\r\n        else if (mintType == 2){\r\n            IGSVEToken(mintTokenAddress).discountedMint(tokensToMint, 2, msg.sender);\r\n        }\r\n        else{\r\n            return;\r\n        }\r\n    }\r\n\r\n    //Reward a user 0.1 GSVE tokens for minting \r\n    function rewardedMinting(address mintTokenAddress, uint256 tokensToMint) public{\r\n        uint256 mintType = _mintingType[mintTokenAddress];\r\n        require(mintType != 0, \"GSVE: Unsupported Token\");\r\n        require(totalRewards() > 0, \"GSVE: contract has ran out of rewards to give\");\r\n        if(mintType == 1){\r\n            IGSVEToken(mintTokenAddress).discountedMint(tokensToMint, 2, msg.sender);\r\n        }\r\n        else if (mintType == 2){\r\n            IGSVEToken(mintTokenAddress).discountedMint(tokensToMint, 3, msg.sender);\r\n        }\r\n        else{\r\n            return;\r\n        }\r\n\r\n        IERC20(GSVEToken).transfer(msg.sender, 10 * 10**16);\r\n    }\r\n\r\n    //Allow a tier 2 staker to burn tokens and claim from the pool of a specific token. \r\n    //Claimed at a rate of 0.1 GSVE per token claimed.\r\n    function claimToken(address claimGasTokenAddress, uint256 tokensClaimed) public {\r\n\r\n        uint256 isClaimable = _claimable[claimGasTokenAddress];\r\n        require(isClaimable == 0, \"GSVE: Token not claimable\");\r\n        require(userStakes[msg.sender] >= tierTwoThreshold , \"GSVE: User has not staked enough to claim from the pool\");\r\n        \r\n        if(userClaimTimes[msg.sender][claimGasTokenAddress] != 0){\r\n            require(block.timestamp.sub(userClaimTimes[msg.sender][claimGasTokenAddress]) > 60 * 60 * 12, \"GSVE: User cannot claim the same gas token twice in 12 hours\");\r\n        }\r\n\r\n        uint256 tokensGiven = tokensClaimed;\r\n\r\n        //user can withdraw up to 5 tokens from the pool\r\n        uint256 tokensAvailableToClaim = IERC20(GSVEToken).balanceOf(address(this));\r\n        tokensGiven = Math.min(Math.min(5, tokensAvailableToClaim), tokensGiven);\r\n\r\n        if(tokensGiven == 0){\r\n            return;\r\n        }\r\n\r\n        IGSVEProtocolToken(GSVEToken).burnFrom(msg.sender, tokensGiven * 1 * 10 ** 17);\r\n        IERC20(claimGasTokenAddress).transfer(msg.sender, tokensGiven);\r\n        userClaimTimes[msg.sender][claimGasTokenAddress] = block.timestamp;\r\n        emit Claimed(msg.sender, claimGasTokenAddress, tokensGiven);\r\n    }\r\n\r\n    function addGasToken(address gasToken, uint256 mintType, uint256 isClaimable) public onlyOwner{\r\n        _mintingType[gasToken] = mintType;\r\n        _claimable[gasToken] = isClaimable;\r\n    }\r\n\r\n    function claimable(address gasToken) public view returns (uint256){\r\n        return _claimable[gasToken];\r\n    }\r\n\r\n    function mintingType(address gasToken) public view returns (uint256){\r\n        return _mintingType[gasToken];\r\n    }\r\n\r\n    function totalStaked() public view returns (uint256){\r\n        return _totalStaked;\r\n    }\r\n\r\n    function userStakeSize(address user)  public view returns (uint256){\r\n        return userStakes[user]; \r\n    }\r\n\r\n    function totalRewards()  public view returns (uint256){\r\n        return IERC20(GSVEToken).balanceOf(address(this)).sub(_totalStaked); \r\n    }\r\n\r\n    function totalRewardUser(address user)  public view returns (uint256){\r\n        return userTotalRewards[user]; \r\n    }\r\n\r\n\r\n    event Claimed(address indexed _from, address indexed _token, uint _value);\r\n\r\n    event Reward(address indexed _from, uint _value);\r\n\r\n    event Staked(address indexed _from, uint _value);\r\n\r\n    event Unstaked(address indexed _from, uint _value);\r\n}\r\n",
  "sourcePath": "C:/Users/khera/Documents/GitHub/GasSwapTokens/contracts/GSVECore.sol",
  "compiler": {
    "name": "solc",
    "version": "0.8.4+commit.c7e474f2.Emscripten.clang"
  },
  "schemaVersion": "3.3.4",
  "updatedAt": "2021-04-26T18:29:24.876Z",
  "devdoc": {
    "kind": "dev",
    "methods": {
      "owner()": {
        "details": "Returns the address of the current owner."
      },
      "renounceOwnership()": {
        "details": "Leaves the contract without owner. It will not be possible to call `onlyOwner` functions anymore. Can only be called by the current owner. NOTE: Renouncing ownership will leave the contract without an owner, thereby removing any functionality that is only available to the owner."
      },
      "transferOwnership(address)": {
        "details": "Transfers ownership of the contract to a new account (`newOwner`). Can only be called by the current owner."
      }
    },
    "version": 1
  },
  "userdoc": {
    "kind": "user",
    "methods": {},
    "version": 1
  }
}