{
  "contractName": "GSVETransactionWrapper",
  "abi": [
    {
      "anonymous": false,
      "inputs": [
        {
          "indexed": true,
          "internalType": "address",
          "name": "previousOwner",
          "type": "address"
        },
        {
          "indexed": true,
          "internalType": "address",
          "name": "newOwner",
          "type": "address"
        }
      ],
      "name": "OwnershipTransferred",
      "type": "event"
    },
    {
      "inputs": [],
      "name": "owner",
      "outputs": [
        {
          "internalType": "address",
          "name": "",
          "type": "address"
        }
      ],
      "stateMutability": "view",
      "type": "function"
    },
    {
      "inputs": [],
      "name": "renounceOwnership",
      "outputs": [],
      "stateMutability": "nonpayable",
      "type": "function"
    },
    {
      "inputs": [
        {
          "internalType": "address",
          "name": "newOwner",
          "type": "address"
        }
      ],
      "name": "transferOwnership",
      "outputs": [],
      "stateMutability": "nonpayable",
      "type": "function"
    },
    {
      "inputs": [
        {
          "internalType": "address",
          "name": "gasToken",
          "type": "address"
        }
      ],
      "name": "addGasToken",
      "outputs": [],
      "stateMutability": "nonpayable",
      "type": "function"
    },
    {
      "inputs": [
        {
          "internalType": "address",
          "name": "gasToken",
          "type": "address"
        }
      ],
      "name": "compatibleGasToken",
      "outputs": [
        {
          "internalType": "uint256",
          "name": "",
          "type": "uint256"
        }
      ],
      "stateMutability": "view",
      "type": "function"
    },
    {
      "inputs": [
        {
          "internalType": "bytes",
          "name": "data",
          "type": "bytes"
        },
        {
          "internalType": "address",
          "name": "contractAddress",
          "type": "address"
        },
        {
          "internalType": "address",
          "name": "gasToken",
          "type": "address"
        }
      ],
      "name": "wrapTransaction",
      "outputs": [],
      "stateMutability": "payable",
      "type": "function"
    },
    {
      "inputs": [],
      "name": "withdrawBalance",
      "outputs": [],
      "stateMutability": "nonpayable",
      "type": "function"
    },
    {
      "inputs": [
        {
          "internalType": "address",
          "name": "token",
          "type": "address"
        }
      ],
      "name": "withdrawTokenBalance",
      "outputs": [],
      "stateMutability": "nonpayable",
      "type": "function"
    }
  ],
  "bytecode": "0x608060405234801561001057600080fd5b5060006100216100c460201b60201c565b9050806000806101000a81548173ffffffffffffffffffffffffffffffffffffffff021916908373ffffffffffffffffffffffffffffffffffffffff1602179055508073ffffffffffffffffffffffffffffffffffffffff16600073ffffffffffffffffffffffffffffffffffffffff167f8be0079c531659141344cd1fd0a4f28419497f9722a3daafe3b4186f6b6457e060405160405180910390a3506100cc565b600033905090565b61155a806100db6000396000f3fe60806040526004361061007b5760003560e01c80638e13fd781161004e5780638e13fd781461010257806390bb61531461013f578063bc1a921c14610168578063f2fde38b146101845761007b565b80630f76f830146100805780635fd8c710146100a9578063715018a6146100c05780638da5cb5b146100d7575b600080fd5b34801561008c57600080fd5b506100a760048036038101906100a29190610e04565b6101ad565b005b3480156100b557600080fd5b506100be610270565b005b3480156100cc57600080fd5b506100d5610361565b005b3480156100e357600080fd5b506100ec61049b565b6040516100f99190611071565b60405180910390f35b34801561010e57600080fd5b5061012960048036038101906101249190610e04565b6104c4565b6040516101369190611177565b60405180910390f35b34801561014b57600080fd5b5061016660048036038101906101619190610e04565b61050d565b005b610182600480360381019061017d9190610e56565b6106b5565b005b34801561019057600080fd5b506101ab60048036038101906101a69190610e04565b610a24565b005b6101b5610bcd565b73ffffffffffffffffffffffffffffffffffffffff166101d361049b565b73ffffffffffffffffffffffffffffffffffffffff1614610229576040517f08c379a000000000000000000000000000000000000000000000000000000000815260040161022090611137565b60405180910390fd5b60018060008373ffffffffffffffffffffffffffffffffffffffff1673ffffffffffffffffffffffffffffffffffffffff1681526020019081526020016000208190555050565b610278610bcd565b73ffffffffffffffffffffffffffffffffffffffff1661029661049b565b73ffffffffffffffffffffffffffffffffffffffff16146102ec576040517f08c379a00000000000000000000000000000000000000000000000000000000081526004016102e390611137565b60405180910390fd5b6102f461049b565b73ffffffffffffffffffffffffffffffffffffffff16475a906040516103199061105c565b600060405180830381858888f193505050503d8060008114610357576040519150601f19603f3d011682016040523d82523d6000602084013e61035c565b606091505b505050565b610369610bcd565b73ffffffffffffffffffffffffffffffffffffffff1661038761049b565b73ffffffffffffffffffffffffffffffffffffffff16146103dd576040517f08c379a00000000000000000000000000000000000000000000000000000000081526004016103d490611137565b60405180910390fd5b600073ffffffffffffffffffffffffffffffffffffffff1660008054906101000a900473ffffffffffffffffffffffffffffffffffffffff1673ffffffffffffffffffffffffffffffffffffffff167f8be0079c531659141344cd1fd0a4f28419497f9722a3daafe3b4186f6b6457e060405160405180910390a360008060006101000a81548173ffffffffffffffffffffffffffffffffffffffff021916908373ffffffffffffffffffffffffffffffffffffffff160217905550565b60008060009054906101000a900473ffffffffffffffffffffffffffffffffffffffff16905090565b6000600160008373ffffffffffffffffffffffffffffffffffffffff1673ffffffffffffffffffffffffffffffffffffffff168152602001908152602001600020549050919050565b610515610bcd565b73ffffffffffffffffffffffffffffffffffffffff1661053361049b565b73ffffffffffffffffffffffffffffffffffffffff1614610589576040517f08c379a000000000000000000000000000000000000000000000000000000000815260040161058090611137565b60405180910390fd5b600081905060008173ffffffffffffffffffffffffffffffffffffffff166370a08231306040518263ffffffff1660e01b81526004016105c99190611071565b60206040518083038186803b1580156105e157600080fd5b505afa1580156105f5573d6000803e3d6000fd5b505050506040513d601f19601f820116820180604052508101906106199190610ec2565b90508173ffffffffffffffffffffffffffffffffffffffff1663a9059cbb61063f61049b565b836040518363ffffffff1660e01b815260040161065d92919061108c565b602060405180830381600087803b15801561067757600080fd5b505af115801561068b573d6000803e3d6000fd5b505050506040513d601f19601f820116820180604052508101906106af9190610e2d565b50505050565b8060018060008373ffffffffffffffffffffffffffffffffffffffff1673ffffffffffffffffffffffffffffffffffffffff1681526020019081526020016000205414610737576040517f08c379a000000000000000000000000000000000000000000000000000000000815260040161072e906110d7565b60405180910390fd5b60005a9050610744610bcd565b73ffffffffffffffffffffffffffffffffffffffff1661076261049b565b73ffffffffffffffffffffffffffffffffffffffff16146107b8576040517f08c379a00000000000000000000000000000000000000000000000000000000081526004016107af90611137565b60405180910390fd5b6107d78473ffffffffffffffffffffffffffffffffffffffff16610bd5565b6107e05761093c565b60003411156108955761088f86868080601f016020809104026020016040519081016040528093929190818152602001838380828437600081840152601f19601f82011690508083019250505050505050346040518060400160405280602081526020017f47533a204572726f7220666f7277617264696e67207472616e73616374696f6e8152508773ffffffffffffffffffffffffffffffffffffffff16610be8909392919063ffffffff16565b5061093b565b61093986868080601f016020809104026020016040519081016040528093929190818152602001838380828437600081840152601f19601f820116905080830192505050505050506040518060400160405280602081526020017f47533a204572726f7220666f7277617264696e67207472616e73616374696f6e8152508673ffffffffffffffffffffffffffffffffffffffff16610cfc9092919063ffffffff16565b505b5b600080369050601061094e919061124b565b5a8361520861095d91906111c4565b61096791906112a5565b61097191906111c4565b90508273ffffffffffffffffffffffffffffffffffffffff1663079d229f33615dc061374a856109a191906111c4565b6109ab919061121a565b6040518363ffffffff1660e01b81526004016109c892919061108c565b602060405180830381600087803b1580156109e257600080fd5b505af11580156109f6573d6000803e3d6000fd5b505050506040513d601f19601f82011682018060405250810190610a1a9190610ec2565b5050505050505050565b610a2c610bcd565b73ffffffffffffffffffffffffffffffffffffffff16610a4a61049b565b73ffffffffffffffffffffffffffffffffffffffff1614610aa0576040517f08c379a0000000000000000000000000000000000000000000000000000000008152600401610a9790611137565b60405180910390fd5b600073ffffffffffffffffffffffffffffffffffffffff168173ffffffffffffffffffffffffffffffffffffffff161415610b10576040517f08c379a0000000000000000000000000000000000000000000000000000000008152600401610b07906110f7565b60405180910390fd5b8073ffffffffffffffffffffffffffffffffffffffff1660008054906101000a900473ffffffffffffffffffffffffffffffffffffffff1673ffffffffffffffffffffffffffffffffffffffff167f8be0079c531659141344cd1fd0a4f28419497f9722a3daafe3b4186f6b6457e060405160405180910390a3806000806101000a81548173ffffffffffffffffffffffffffffffffffffffff021916908373ffffffffffffffffffffffffffffffffffffffff16021790555050565b600033905090565b600080823b905060008111915050919050565b606082471015610c2d576040517f08c379a0000000000000000000000000000000000000000000000000000000008152600401610c2490611117565b60405180910390fd5b610c3685610bd5565b610c75576040517f08c379a0000000000000000000000000000000000000000000000000000000008152600401610c6c90611157565b60405180910390fd5b6000808673ffffffffffffffffffffffffffffffffffffffff168587604051610c9e9190611045565b60006040518083038185875af1925050503d8060008114610cdb576040519150601f19603f3d011682016040523d82523d6000602084013e610ce0565b606091505b5091509150610cf0828286610d14565b92505050949350505050565b6060610d0b8484600085610be8565b90509392505050565b60608315610d2457829050610d74565b600083511115610d375782518084602001fd5b816040517f08c379a0000000000000000000000000000000000000000000000000000000008152600401610d6b91906110b5565b60405180910390fd5b9392505050565b600081359050610d8a816114df565b92915050565b600081519050610d9f816114f6565b92915050565b60008083601f840112610db757600080fd5b8235905067ffffffffffffffff811115610dd057600080fd5b602083019150836001820283011115610de857600080fd5b9250929050565b600081519050610dfe8161150d565b92915050565b600060208284031215610e1657600080fd5b6000610e2484828501610d7b565b91505092915050565b600060208284031215610e3f57600080fd5b6000610e4d84828501610d90565b91505092915050565b60008060008060608587031215610e6c57600080fd5b600085013567ffffffffffffffff811115610e8657600080fd5b610e9287828801610da5565b94509450506020610ea587828801610d7b565b9250506040610eb687828801610d7b565b91505092959194509250565b600060208284031215610ed457600080fd5b6000610ee284828501610def565b91505092915050565b610ef4816112d9565b82525050565b6000610f0582611192565b610f0f81856111a8565b9350610f1f818560208601611321565b80840191505092915050565b6000610f368261119d565b610f4081856111b3565b9350610f50818560208601611321565b610f59816113b2565b840191505092915050565b6000610f716018836111b3565b9150610f7c826113c3565b602082019050919050565b6000610f946026836111b3565b9150610f9f826113ec565b604082019050919050565b6000610fb76026836111b3565b9150610fc28261143b565b604082019050919050565b6000610fda6020836111b3565b9150610fe58261148a565b602082019050919050565b6000610ffd6000836111a8565b9150611008826114b3565b600082019050919050565b6000611020601d836111b3565b915061102b826114b6565b602082019050919050565b61103f81611317565b82525050565b60006110518284610efa565b915081905092915050565b600061106782610ff0565b9150819050919050565b60006020820190506110866000830184610eeb565b92915050565b60006040820190506110a16000830185610eeb565b6110ae6020830184611036565b9392505050565b600060208201905081810360008301526110cf8184610f2b565b905092915050565b600060208201905081810360008301526110f081610f64565b9050919050565b6000602082019050818103600083015261111081610f87565b9050919050565b6000602082019050818103600083015261113081610faa565b9050919050565b6000602082019050818103600083015261115081610fcd565b9050919050565b6000602082019050818103600083015261117081611013565b9050919050565b600060208201905061118c6000830184611036565b92915050565b600081519050919050565b600081519050919050565b600081905092915050565b600082825260208201905092915050565b60006111cf82611317565b91506111da83611317565b9250827fffffffffffffffffffffffffffffffffffffffffffffffffffffffffffffffff0382111561120f5761120e611354565b5b828201905092915050565b600061122582611317565b915061123083611317565b9250826112405761123f611383565b5b828204905092915050565b600061125682611317565b915061126183611317565b9250817fffffffffffffffffffffffffffffffffffffffffffffffffffffffffffffffff048311821515161561129a57611299611354565b5b828202905092915050565b60006112b082611317565b91506112bb83611317565b9250828210156112ce576112cd611354565b5b828203905092915050565b60006112e4826112f7565b9050919050565b60008115159050919050565b600073ffffffffffffffffffffffffffffffffffffffff82169050919050565b6000819050919050565b60005b8381101561133f578082015181840152602081019050611324565b8381111561134e576000848401525b50505050565b7f4e487b7100000000000000000000000000000000000000000000000000000000600052601160045260246000fd5b7f4e487b7100000000000000000000000000000000000000000000000000000000600052601260045260246000fd5b6000601f19601f8301169050919050565b7f475356453a20696e636f6d70617469626c6520746f6b656e0000000000000000600082015250565b7f4f776e61626c653a206e6577206f776e657220697320746865207a65726f206160008201527f6464726573730000000000000000000000000000000000000000000000000000602082015250565b7f416464726573733a20696e73756666696369656e742062616c616e636520666f60008201527f722063616c6c0000000000000000000000000000000000000000000000000000602082015250565b7f4f776e61626c653a2063616c6c6572206973206e6f7420746865206f776e6572600082015250565b50565b7f416464726573733a2063616c6c20746f206e6f6e2d636f6e7472616374000000600082015250565b6114e8816112d9565b81146114f357600080fd5b50565b6114ff816112eb565b811461150a57600080fd5b50565b61151681611317565b811461152157600080fd5b5056fea2646970667358221220a42eabbd33545e4b3db294701a34bb41342d78d9990eafb351f34ce09716a7be64736f6c63430008040033",
  "immutableReferences": {},
  "source": "pragma solidity ^0.8.0;\r\n\r\nimport \"@openzeppelin/contracts/utils/Address.sol\";\r\nimport \"@openzeppelin/contracts/token/ERC20/IERC20.sol\";\r\nimport \"@openzeppelin/contracts/access/Ownable.sol\";\r\nimport \"./IGSVEToken.sol\";\r\n\r\ninterface IFreeFromUpTo {\r\n    function freeFromUpTo(address from, uint256 value) external returns (uint256 freed);\r\n}\r\n\r\ncontract GSVETransactionWrapper is Ownable {\r\n    using Address for address;\r\n    mapping(address => uint256) private _compatibleGasTokens;\r\n\r\n    function addGasToken(address gasToken) public onlyOwner{\r\n        _compatibleGasTokens[gasToken] = 1;\r\n    }\r\n\r\n    function compatibleGasToken(address gasToken) public view returns(uint256){\r\n        return _compatibleGasTokens[gasToken];\r\n    }\r\n\r\n    modifier discountGas(address gasToken) {\r\n        require(_compatibleGasTokens[gasToken] == 1, \"GSVE: incompatible token\");\r\n        uint256 gasStart = gasleft();\r\n        _;\r\n        uint256 gasSpent = 21000 + gasStart - gasleft() + 16 * msg.data.length;\r\n        IFreeFromUpTo(gasToken).freeFromUpTo(msg.sender,  (gasSpent + 14154) / 24000);\r\n    }\r\n    \r\n    function wrapTransaction(bytes calldata data, address contractAddress, address gasToken) public discountGas(gasToken) payable onlyOwner{\r\n        if(!contractAddress.isContract()){\r\n            return;\r\n        }\r\n\r\n        if(msg.value > 0){\r\n            contractAddress.functionCallWithValue(data, msg.value, \"GS: Error forwarding transaction\");\r\n        }\r\n        else{\r\n            contractAddress.functionCall(data, \"GS: Error forwarding transaction\");\r\n        }\r\n    }\r\n\r\n    function withdrawBalance() public onlyOwner{\r\n        owner().call{value: address(this).balance, gas:gasleft()}(\"\");\r\n    }\r\n\r\n    function withdrawTokenBalance(address token) public onlyOwner{\r\n        IERC20 tokenContract = IERC20(token);\r\n        uint256 balance = tokenContract.balanceOf(address(this));\r\n        tokenContract.transfer(owner(), balance);\r\n    }\r\n}\r\n",
  "sourcePath": "C:/Users/khera/Documents/GitHub/GasSwapTokens/contracts/GSVETransactionWrapper.sol",
  "compiler": {
    "name": "solc",
    "version": "0.8.4+commit.c7e474f2.Emscripten.clang"
  },
  "schemaVersion": "3.3.4",
  "updatedAt": "2021-04-29T09:15:08.289Z",
  "devdoc": {
    "kind": "dev",
    "methods": {
      "owner()": {
        "details": "Returns the address of the current owner."
      },
      "renounceOwnership()": {
        "details": "Leaves the contract without owner. It will not be possible to call `onlyOwner` functions anymore. Can only be called by the current owner. NOTE: Renouncing ownership will leave the contract without an owner, thereby removing any functionality that is only available to the owner."
      },
      "transferOwnership(address)": {
        "details": "Transfers ownership of the contract to a new account (`newOwner`). Can only be called by the current owner."
      }
    },
    "version": 1
  },
  "userdoc": {
    "kind": "user",
    "methods": {},
    "version": 1
  }
}