{
  "contractName": "GSVECore",
  "abi": [
    {
      "inputs": [
        {
          "internalType": "address",
          "name": "_tokenAddress",
          "type": "address"
        }
      ],
      "stateMutability": "nonpayable",
      "type": "constructor"
    },
    {
      "anonymous": false,
      "inputs": [
        {
          "indexed": true,
          "internalType": "address",
          "name": "_from",
          "type": "address"
        },
        {
          "indexed": true,
          "internalType": "address",
          "name": "_token",
          "type": "address"
        },
        {
          "indexed": false,
          "internalType": "uint256",
          "name": "_value",
          "type": "uint256"
        }
      ],
      "name": "Claimed",
      "type": "event"
    },
    {
      "anonymous": false,
      "inputs": [
        {
          "indexed": true,
          "internalType": "address",
          "name": "previousOwner",
          "type": "address"
        },
        {
          "indexed": true,
          "internalType": "address",
          "name": "newOwner",
          "type": "address"
        }
      ],
      "name": "OwnershipTransferred",
      "type": "event"
    },
    {
      "anonymous": false,
      "inputs": [
        {
          "indexed": true,
          "internalType": "address",
          "name": "_from",
          "type": "address"
        },
        {
          "indexed": false,
          "internalType": "uint256",
          "name": "_value",
          "type": "uint256"
        }
      ],
      "name": "Reward",
      "type": "event"
    },
    {
      "anonymous": false,
      "inputs": [
        {
          "indexed": true,
          "internalType": "address",
          "name": "_from",
          "type": "address"
        },
        {
          "indexed": false,
          "internalType": "uint256",
          "name": "_value",
          "type": "uint256"
        }
      ],
      "name": "Staked",
      "type": "event"
    },
    {
      "anonymous": false,
      "inputs": [
        {
          "indexed": true,
          "internalType": "address",
          "name": "_from",
          "type": "address"
        },
        {
          "indexed": false,
          "internalType": "uint256",
          "name": "_value",
          "type": "uint256"
        }
      ],
      "name": "Unstaked",
      "type": "event"
    },
    {
      "inputs": [],
      "name": "owner",
      "outputs": [
        {
          "internalType": "address",
          "name": "",
          "type": "address"
        }
      ],
      "stateMutability": "view",
      "type": "function"
    },
    {
      "inputs": [],
      "name": "renounceOwnership",
      "outputs": [],
      "stateMutability": "nonpayable",
      "type": "function"
    },
    {
      "inputs": [
        {
          "internalType": "address",
          "name": "newOwner",
          "type": "address"
        }
      ],
      "name": "transferOwnership",
      "outputs": [],
      "stateMutability": "nonpayable",
      "type": "function"
    },
    {
      "inputs": [
        {
          "internalType": "uint256",
          "name": "value",
          "type": "uint256"
        }
      ],
      "name": "stake",
      "outputs": [],
      "stateMutability": "nonpayable",
      "type": "function"
    },
    {
      "inputs": [
        {
          "internalType": "uint256",
          "name": "value",
          "type": "uint256"
        }
      ],
      "name": "unstakeAmount",
      "outputs": [],
      "stateMutability": "nonpayable",
      "type": "function"
    },
    {
      "inputs": [],
      "name": "unstake",
      "outputs": [],
      "stateMutability": "nonpayable",
      "type": "function"
    },
    {
      "inputs": [
        {
          "internalType": "address",
          "name": "rewardedAddress",
          "type": "address"
        }
      ],
      "name": "calculateStakeReward",
      "outputs": [
        {
          "internalType": "uint256",
          "name": "",
          "type": "uint256"
        }
      ],
      "stateMutability": "view",
      "type": "function"
    },
    {
      "inputs": [],
      "name": "collectReward",
      "outputs": [],
      "stateMutability": "nonpayable",
      "type": "function"
    },
    {
      "inputs": [
        {
          "internalType": "address",
          "name": "mintTokenAddress",
          "type": "address"
        },
        {
          "internalType": "uint256",
          "name": "tokensToMint",
          "type": "uint256"
        }
      ],
      "name": "burnDiscountedMinting",
      "outputs": [],
      "stateMutability": "nonpayable",
      "type": "function"
    },
    {
      "inputs": [
        {
          "internalType": "address",
          "name": "mintTokenAddress",
          "type": "address"
        },
        {
          "internalType": "uint256",
          "name": "tokensToMint",
          "type": "uint256"
        }
      ],
      "name": "discountedMinting",
      "outputs": [],
      "stateMutability": "nonpayable",
      "type": "function"
    },
    {
      "inputs": [
        {
          "internalType": "address",
          "name": "mintTokenAddress",
          "type": "address"
        },
        {
          "internalType": "uint256",
          "name": "tokensToMint",
          "type": "uint256"
        }
      ],
      "name": "rewardedMinting",
      "outputs": [],
      "stateMutability": "nonpayable",
      "type": "function"
    },
    {
      "inputs": [
        {
          "internalType": "address",
          "name": "claimGasTokenAddress",
          "type": "address"
        },
        {
          "internalType": "uint256",
          "name": "tokensClaimed",
          "type": "uint256"
        }
      ],
      "name": "claimToken",
      "outputs": [],
      "stateMutability": "nonpayable",
      "type": "function"
    },
    {
      "inputs": [
        {
          "internalType": "address",
          "name": "gasToken",
          "type": "address"
        },
        {
          "internalType": "uint256",
          "name": "mintType",
          "type": "uint256"
        },
        {
          "internalType": "uint256",
          "name": "isClaimable",
          "type": "uint256"
        }
      ],
      "name": "addGasToken",
      "outputs": [],
      "stateMutability": "nonpayable",
      "type": "function"
    },
    {
      "inputs": [
        {
          "internalType": "address",
          "name": "gasToken",
          "type": "address"
        }
      ],
      "name": "claimable",
      "outputs": [
        {
          "internalType": "uint256",
          "name": "",
          "type": "uint256"
        }
      ],
      "stateMutability": "view",
      "type": "function"
    },
    {
      "inputs": [
        {
          "internalType": "address",
          "name": "gasToken",
          "type": "address"
        }
      ],
      "name": "mintingType",
      "outputs": [
        {
          "internalType": "uint256",
          "name": "",
          "type": "uint256"
        }
      ],
      "stateMutability": "view",
      "type": "function"
    }
  ],
  "bytecode": "0x6080604052600060025569054b40b1f852bda0000060055569152d02c7e14af68000006006553480156200003257600080fd5b5060405162002ab038038062002ab083398181016040528101906200005891906200016f565b60006200006a6200015060201b60201c565b9050806000806101000a81548173ffffffffffffffffffffffffffffffffffffffff021916908373ffffffffffffffffffffffffffffffffffffffff1602179055508073ffffffffffffffffffffffffffffffffffffffff16600073ffffffffffffffffffffffffffffffffffffffff167f8be0079c531659141344cd1fd0a4f28419497f9722a3daafe3b4186f6b6457e060405160405180910390a35080600160006101000a81548173ffffffffffffffffffffffffffffffffffffffff021916908373ffffffffffffffffffffffffffffffffffffffff16021790555050620001e9565b600033905090565b6000815190506200016981620001cf565b92915050565b6000602082840312156200018257600080fd5b6000620001928482850162000158565b91505092915050565b6000620001a882620001af565b9050919050565b600073ffffffffffffffffffffffffffffffffffffffff82169050919050565b620001da816200019b565b8114620001e657600080fd5b50565b6128b780620001f96000396000f3fe608060405234801561001057600080fd5b50600436106100f55760003560e01c80637ef5c18511610097578063a694fc3a11610066578063a694fc3a1461020e578063ca459eb51461022a578063d59684ab1461025a578063f2fde38b1461028a576100f5565b80637ef5c1851461019c578063829f0874146101b85780638da5cb5b146101d4578063a556a818146101f2576100f5565b8063402914f5116100d3578063402914f51461013c578063459e657f1461016c57806354c5aee114610188578063715018a614610192576100f5565b80631698755f146100fa57806329e7a696146101165780632def662014610132575b600080fd5b610114600480360381019061010f9190611e12565b6102a6565b005b610130600480360381019061012b9190611e12565b61080d565b005b61013a6109a1565b005b61015660048036038101906101519190611de9565b610bd3565b60405161016391906122b8565b60405180910390f35b61018660048036038101906101819190611ec6565b610c1c565b005b610190610eb7565b005b61019a6110e5565b005b6101b660048036038101906101b19190611e12565b61121f565b005b6101d260048036038101906101cd9190611e12565b611434565b005b6101dc61167d565b6040516101e991906120cb565b60405180910390f35b61020c60048036038101906102079190611e4e565b6116a6565b005b61022860048036038101906102239190611ec6565b6117af565b005b610244600480360381019061023f9190611de9565b6119ed565b60405161025191906122b8565b60405180910390f35b610274600480360381019061026f9190611de9565b611a36565b60405161028191906122b8565b60405180910390f35b6102a4600480360381019061029f9190611de9565b611b73565b005b6000600460008473ffffffffffffffffffffffffffffffffffffffff1673ffffffffffffffffffffffffffffffffffffffff1681526020019081526020016000205490506000811461032d576040517f08c379a0000000000000000000000000000000000000000000000000000000008152600401610324906121f8565b60405180910390fd5b600654600760003373ffffffffffffffffffffffffffffffffffffffff1673ffffffffffffffffffffffffffffffffffffffff1681526020019081526020016000205410156103b1576040517f08c379a00000000000000000000000000000000000000000000000000000000081526004016103a890612258565b60405180910390fd5b6000600a60003373ffffffffffffffffffffffffffffffffffffffff1673ffffffffffffffffffffffffffffffffffffffff16815260200190815260200160002060008573ffffffffffffffffffffffffffffffffffffffff1673ffffffffffffffffffffffffffffffffffffffff16815260200190815260200160002054146105085761a8c06104c7600a60003373ffffffffffffffffffffffffffffffffffffffff1673ffffffffffffffffffffffffffffffffffffffff16815260200190815260200160002060008673ffffffffffffffffffffffffffffffffffffffff1673ffffffffffffffffffffffffffffffffffffffff1681526020019081526020016000205442611d1c90919063ffffffff16565b11610507576040517f08c379a00000000000000000000000000000000000000000000000000000000081526004016104fe90612218565b60405180910390fd5b5b60008290506000600160009054906101000a900473ffffffffffffffffffffffffffffffffffffffff1673ffffffffffffffffffffffffffffffffffffffff166370a08231306040518263ffffffff1660e01b815260040161056a91906120cb565b60206040518083038186803b15801561058257600080fd5b505afa158015610596573d6000803e3d6000fd5b505050506040513d601f19601f820116820180604052508101906105ba9190611eef565b90506105d06105ca600583611d32565b83611d32565b915060008214156105e357505050610809565b600160009054906101000a900473ffffffffffffffffffffffffffffffffffffffff1673ffffffffffffffffffffffffffffffffffffffff166379cc67903367016345785d8a00006001866106389190612447565b6106429190612447565b6040518363ffffffff1660e01b815260040161065f92919061216f565b600060405180830381600087803b15801561067957600080fd5b505af115801561068d573d6000803e3d6000fd5b505050508473ffffffffffffffffffffffffffffffffffffffff1663a9059cbb33846040518363ffffffff1660e01b81526004016106cc92919061216f565b602060405180830381600087803b1580156106e657600080fd5b505af11580156106fa573d6000803e3d6000fd5b505050506040513d601f19601f8201168201806040525081019061071e9190611e9d565b5042600a60003373ffffffffffffffffffffffffffffffffffffffff1673ffffffffffffffffffffffffffffffffffffffff16815260200190815260200160002060008773ffffffffffffffffffffffffffffffffffffffff1673ffffffffffffffffffffffffffffffffffffffff168152602001908152602001600020819055508473ffffffffffffffffffffffffffffffffffffffff163373ffffffffffffffffffffffffffffffffffffffff167ff7a40077ff7a04c7e61f6f26fb13774259ddf1b6bce9ecf26a8276cdd3992683846040516107fd91906122b8565b60405180910390a35050505b5050565b6000600360008473ffffffffffffffffffffffffffffffffffffffff1673ffffffffffffffffffffffffffffffffffffffff1681526020019081526020016000205490506000811415610895576040517f08c379a000000000000000000000000000000000000000000000000000000000815260040161088c906121d8565b60405180910390fd5b600160009054906101000a900473ffffffffffffffffffffffffffffffffffffffff1673ffffffffffffffffffffffffffffffffffffffff166379cc6790336703782dace9d900006040518363ffffffff1660e01b81526004016108fa929190612146565b600060405180830381600087803b15801561091457600080fd5b505af1158015610928573d6000803e3d6000fd5b505050508273ffffffffffffffffffffffffffffffffffffffff16637e72014a836000336040518463ffffffff1660e01b815260040161096a939291906122d3565b600060405180830381600087803b15801561098457600080fd5b505af1158015610998573d6000803e3d6000fd5b50505050505050565b60006109ac33611a36565b146109ec576040517f08c379a00000000000000000000000000000000000000000000000000000000081526004016109e390612298565b60405180910390fd5b6000600760003373ffffffffffffffffffffffffffffffffffffffff1673ffffffffffffffffffffffffffffffffffffffff1681526020019081526020016000205490506000811415610a3f5750610bd1565b6000600760003373ffffffffffffffffffffffffffffffffffffffff1673ffffffffffffffffffffffffffffffffffffffff168152602001908152602001600020819055506000600860003373ffffffffffffffffffffffffffffffffffffffff1673ffffffffffffffffffffffffffffffffffffffff16815260200190815260200160002081905550600160009054906101000a900473ffffffffffffffffffffffffffffffffffffffff1673ffffffffffffffffffffffffffffffffffffffff1663a9059cbb33836040518363ffffffff1660e01b8152600401610b2692919061216f565b602060405180830381600087803b158015610b4057600080fd5b505af1158015610b54573d6000803e3d6000fd5b505050506040513d601f19601f82011682018060405250810190610b789190611e9d565b610b8157600080fd5b3373ffffffffffffffffffffffffffffffffffffffff167f0f5bb82176feb1b5e747e28471aa92156a04d9f3ab9f45f28e2d704232b93f7582604051610bc791906122b8565b60405180910390a2505b565b6000600460008373ffffffffffffffffffffffffffffffffffffffff1673ffffffffffffffffffffffffffffffffffffffff168152602001908152602001600020549050919050565b6000610c2733611a36565b14610c67576040517f08c379a0000000000000000000000000000000000000000000000000000000008152600401610c5e90612298565b60405180910390fd5b6000600760003373ffffffffffffffffffffffffffffffffffffffff1673ffffffffffffffffffffffffffffffffffffffff1681526020019081526020016000205490506000811415610cba5750610eb4565b6000610cc68383611d32565b9050610cdb8183611d1c90919063ffffffff16565b600760003373ffffffffffffffffffffffffffffffffffffffff1673ffffffffffffffffffffffffffffffffffffffff168152602001908152602001600020819055506000600760003373ffffffffffffffffffffffffffffffffffffffff1673ffffffffffffffffffffffffffffffffffffffff168152602001908152602001600020541415610dab5742600860003373ffffffffffffffffffffffffffffffffffffffff1673ffffffffffffffffffffffffffffffffffffffff168152602001908152602001600020819055505b600160009054906101000a900473ffffffffffffffffffffffffffffffffffffffff1673ffffffffffffffffffffffffffffffffffffffff1663a9059cbb33836040518363ffffffff1660e01b8152600401610e0892919061216f565b602060405180830381600087803b158015610e2257600080fd5b505af1158015610e36573d6000803e3d6000fd5b505050506040513d601f19601f82011682018060405250810190610e5a9190611e9d565b610e6357600080fd5b3373ffffffffffffffffffffffffffffffffffffffff167f0f5bb82176feb1b5e747e28471aa92156a04d9f3ab9f45f28e2d704232b93f7582604051610ea991906122b8565b60405180910390a250505b50565b6000610ec233611a36565b90506000811415610ed357506110e3565b42600860003373ffffffffffffffffffffffffffffffffffffffff1673ffffffffffffffffffffffffffffffffffffffff1681526020019081526020016000208190555080600960003373ffffffffffffffffffffffffffffffffffffffff1673ffffffffffffffffffffffffffffffffffffffff16815260200190815260200160002054610f6291906123c0565b600960003373ffffffffffffffffffffffffffffffffffffffff1673ffffffffffffffffffffffffffffffffffffffff16815260200190815260200160002081905550600160009054906101000a900473ffffffffffffffffffffffffffffffffffffffff1673ffffffffffffffffffffffffffffffffffffffff1663a9059cbb33836040518363ffffffff1660e01b815260040161100292919061216f565b602060405180830381600087803b15801561101c57600080fd5b505af1158015611030573d6000803e3d6000fd5b505050506040513d601f19601f820116820180604052508101906110549190611e9d565b611093576040517f08c379a000000000000000000000000000000000000000000000000000000000815260040161108a90612278565b60405180910390fd5b3373ffffffffffffffffffffffffffffffffffffffff167f619caafabdd75649b302ba8419e48cccf64f37f1983ac4727cfb38b57703ffc9826040516110d991906122b8565b60405180910390a2505b565b6110ed611d4b565b73ffffffffffffffffffffffffffffffffffffffff1661110b61167d565b73ffffffffffffffffffffffffffffffffffffffff1614611161576040517f08c379a000000000000000000000000000000000000000000000000000000000815260040161115890612238565b60405180910390fd5b600073ffffffffffffffffffffffffffffffffffffffff1660008054906101000a900473ffffffffffffffffffffffffffffffffffffffff1673ffffffffffffffffffffffffffffffffffffffff167f8be0079c531659141344cd1fd0a4f28419497f9722a3daafe3b4186f6b6457e060405160405180910390a360008060006101000a81548173ffffffffffffffffffffffffffffffffffffffff021916908373ffffffffffffffffffffffffffffffffffffffff160217905550565b6000600360008473ffffffffffffffffffffffffffffffffffffffff1673ffffffffffffffffffffffffffffffffffffffff16815260200190815260200160002054905060008114156112a7576040517f08c379a000000000000000000000000000000000000000000000000000000000815260040161129e906121d8565b60405180910390fd5b600554600760003373ffffffffffffffffffffffffffffffffffffffff1673ffffffffffffffffffffffffffffffffffffffff16815260200190815260200160002054101561132b576040517f08c379a000000000000000000000000000000000000000000000000000000000815260040161132290612198565b60405180910390fd5b60018114156113a9578273ffffffffffffffffffffffffffffffffffffffff16637e72014a836001336040518463ffffffff1660e01b81526004016113729392919061230a565b600060405180830381600087803b15801561138c57600080fd5b505af11580156113a0573d6000803e3d6000fd5b5050505061142e565b6002811415611427578273ffffffffffffffffffffffffffffffffffffffff16637e72014a836002336040518463ffffffff1660e01b81526004016113f093929190612341565b600060405180830381600087803b15801561140a57600080fd5b505af115801561141e573d6000803e3d6000fd5b5050505061142d565b50611430565b5b505b5050565b6000600360008473ffffffffffffffffffffffffffffffffffffffff1673ffffffffffffffffffffffffffffffffffffffff16815260200190815260200160002054905060008114156114bc576040517f08c379a00000000000000000000000000000000000000000000000000000000081526004016114b3906121d8565b60405180910390fd5b600181141561153a578273ffffffffffffffffffffffffffffffffffffffff16637e72014a836002336040518463ffffffff1660e01b815260040161150393929190612341565b600060405180830381600087803b15801561151d57600080fd5b505af1158015611531573d6000803e3d6000fd5b505050506115bf565b60028114156115b8578273ffffffffffffffffffffffffffffffffffffffff16637e72014a836003336040518463ffffffff1660e01b815260040161158193929190612378565b600060405180830381600087803b15801561159b57600080fd5b505af11580156115af573d6000803e3d6000fd5b505050506115be565b50611679565b5b600160009054906101000a900473ffffffffffffffffffffffffffffffffffffffff1673ffffffffffffffffffffffffffffffffffffffff1663a9059cbb3367016345785d8a00006040518363ffffffff1660e01b815260040161162492919061211d565b602060405180830381600087803b15801561163e57600080fd5b505af1158015611652573d6000803e3d6000fd5b505050506040513d601f19601f820116820180604052508101906116769190611e9d565b50505b5050565b60008060009054906101000a900473ffffffffffffffffffffffffffffffffffffffff16905090565b6116ae611d4b565b73ffffffffffffffffffffffffffffffffffffffff166116cc61167d565b73ffffffffffffffffffffffffffffffffffffffff1614611722576040517f08c379a000000000000000000000000000000000000000000000000000000000815260040161171990612238565b60405180910390fd5b81600360008573ffffffffffffffffffffffffffffffffffffffff1673ffffffffffffffffffffffffffffffffffffffff1681526020019081526020016000208190555080600460008573ffffffffffffffffffffffffffffffffffffffff1673ffffffffffffffffffffffffffffffffffffffff16815260200190815260200160002081905550505050565b60006117ba33611a36565b146117fa576040517f08c379a00000000000000000000000000000000000000000000000000000000081526004016117f190612298565b60405180910390fd5b6000811415611808576119ea565b600160009054906101000a900473ffffffffffffffffffffffffffffffffffffffff1673ffffffffffffffffffffffffffffffffffffffff166323b872dd3330846040518463ffffffff1660e01b8152600401611867939291906120e6565b602060405180830381600087803b15801561188157600080fd5b505af1158015611895573d6000803e3d6000fd5b505050506040513d601f19601f820116820180604052508101906118b99190611e9d565b6118c257600080fd5b61191481600760003373ffffffffffffffffffffffffffffffffffffffff1673ffffffffffffffffffffffffffffffffffffffff16815260200190815260200160002054611d5390919063ffffffff16565b600760003373ffffffffffffffffffffffffffffffffffffffff1673ffffffffffffffffffffffffffffffffffffffff1681526020019081526020016000208190555042600860003373ffffffffffffffffffffffffffffffffffffffff1673ffffffffffffffffffffffffffffffffffffffff168152602001908152602001600020819055503373ffffffffffffffffffffffffffffffffffffffff167f9e71bc8eea02a63969f509818f2dafb9254532904319f9dbda79b67bd34a5f3d826040516119e191906122b8565b60405180910390a25b50565b6000600360008373ffffffffffffffffffffffffffffffffffffffff1673ffffffffffffffffffffffffffffffffffffffff168152602001908152602001600020549050919050565b600080600860008473ffffffffffffffffffffffffffffffffffffffff1673ffffffffffffffffffffffffffffffffffffffff168152602001908152602001600020541415611a885760009050611b6e565b6000611adc600860008573ffffffffffffffffffffffffffffffffffffffff1673ffffffffffffffffffffffffffffffffffffffff1681526020019081526020016000205442611d1c90919063ffffffff16565b90506000611af561a8c083611d6990919063ffffffff16565b90506000611b4d6107d0600760008873ffffffffffffffffffffffffffffffffffffffff1673ffffffffffffffffffffffffffffffffffffffff16815260200190815260200160002054611d6990919063ffffffff16565b90506000611b648284611d7f90919063ffffffff16565b9050809450505050505b919050565b611b7b611d4b565b73ffffffffffffffffffffffffffffffffffffffff16611b9961167d565b73ffffffffffffffffffffffffffffffffffffffff1614611bef576040517f08c379a0000000000000000000000000000000000000000000000000000000008152600401611be690612238565b60405180910390fd5b600073ffffffffffffffffffffffffffffffffffffffff168173ffffffffffffffffffffffffffffffffffffffff161415611c5f576040517f08c379a0000000000000000000000000000000000000000000000000000000008152600401611c56906121b8565b60405180910390fd5b8073ffffffffffffffffffffffffffffffffffffffff1660008054906101000a900473ffffffffffffffffffffffffffffffffffffffff1673ffffffffffffffffffffffffffffffffffffffff167f8be0079c531659141344cd1fd0a4f28419497f9722a3daafe3b4186f6b6457e060405160405180910390a3806000806101000a81548173ffffffffffffffffffffffffffffffffffffffff021916908373ffffffffffffffffffffffffffffffffffffffff16021790555050565b60008183611d2a91906124a1565b905092915050565b6000818310611d415781611d43565b825b905092915050565b600033905090565b60008183611d6191906123c0565b905092915050565b60008183611d779190612416565b905092915050565b60008183611d8d9190612447565b905092915050565b600081359050611da48161283c565b92915050565b600081519050611db981612853565b92915050565b600081359050611dce8161286a565b92915050565b600081519050611de38161286a565b92915050565b600060208284031215611dfb57600080fd5b6000611e0984828501611d95565b91505092915050565b60008060408385031215611e2557600080fd5b6000611e3385828601611d95565b9250506020611e4485828601611dbf565b9150509250929050565b600080600060608486031215611e6357600080fd5b6000611e7186828701611d95565b9350506020611e8286828701611dbf565b9250506040611e9386828701611dbf565b9150509250925092565b600060208284031215611eaf57600080fd5b6000611ebd84828501611daa565b91505092915050565b600060208284031215611ed857600080fd5b6000611ee684828501611dbf565b91505092915050565b600060208284031215611f0157600080fd5b6000611f0f84828501611dd4565b91505092915050565b611f21816124d5565b82525050565b611f308161251d565b82525050565b611f3f8161252f565b82525050565b611f4e81612541565b82525050565b611f5d81612553565b82525050565b611f6c81612565565b82525050565b611f7b81612577565b82525050565b6000611f8e602c836123af565b9150611f99826125e7565b604082019050919050565b6000611fb16026836123af565b9150611fbc82612636565b604082019050919050565b6000611fd46017836123af565b9150611fdf82612685565b602082019050919050565b6000611ff76019836123af565b9150612002826126ae565b602082019050919050565b600061201a603c836123af565b9150612025826126d7565b604082019050919050565b600061203d6020836123af565b915061204882612726565b602082019050919050565b60006120606037836123af565b915061206b8261274f565b604082019050919050565b6000612083601b836123af565b915061208e8261279e565b602082019050919050565b60006120a66043836123af565b91506120b1826127c7565b606082019050919050565b6120c581612513565b82525050565b60006020820190506120e06000830184611f18565b92915050565b60006060820190506120fb6000830186611f18565b6121086020830185611f18565b61211560408301846120bc565b949350505050565b60006040820190506121326000830185611f18565b61213f6020830184611f36565b9392505050565b600060408201905061215b6000830185611f18565b6121686020830184611f54565b9392505050565b60006040820190506121846000830185611f18565b61219160208301846120bc565b9392505050565b600060208201905081810360008301526121b181611f81565b9050919050565b600060208201905081810360008301526121d181611fa4565b9050919050565b600060208201905081810360008301526121f181611fc7565b9050919050565b6000602082019050818103600083015261221181611fea565b9050919050565b600060208201905081810360008301526122318161200d565b9050919050565b6000602082019050818103600083015261225181612030565b9050919050565b6000602082019050818103600083015261227181612053565b9050919050565b6000602082019050818103600083015261229181612076565b9050919050565b600060208201905081810360008301526122b181612099565b9050919050565b60006020820190506122cd60008301846120bc565b92915050565b60006060820190506122e860008301866120bc565b6122f56020830185611f27565b6123026040830184611f18565b949350505050565b600060608201905061231f60008301866120bc565b61232c6020830185611f45565b6123396040830184611f18565b949350505050565b600060608201905061235660008301866120bc565b6123636020830185611f63565b6123706040830184611f18565b949350505050565b600060608201905061238d60008301866120bc565b61239a6020830185611f72565b6123a76040830184611f18565b949350505050565b600082825260208201905092915050565b60006123cb82612513565b91506123d683612513565b9250827fffffffffffffffffffffffffffffffffffffffffffffffffffffffffffffffff0382111561240b5761240a612589565b5b828201905092915050565b600061242182612513565b915061242c83612513565b92508261243c5761243b6125b8565b5b828204905092915050565b600061245282612513565b915061245d83612513565b9250817fffffffffffffffffffffffffffffffffffffffffffffffffffffffffffffffff048311821515161561249657612495612589565b5b828202905092915050565b60006124ac82612513565b91506124b783612513565b9250828210156124ca576124c9612589565b5b828203905092915050565b60006124e0826124f3565b9050919050565b60008115159050919050565b600073ffffffffffffffffffffffffffffffffffffffff82169050919050565b6000819050919050565b600061252882612513565b9050919050565b600061253a82612513565b9050919050565b600061254c82612513565b9050919050565b600061255e82612513565b9050919050565b600061257082612513565b9050919050565b600061258282612513565b9050919050565b7f4e487b7100000000000000000000000000000000000000000000000000000000600052601160045260246000fd5b7f4e487b7100000000000000000000000000000000000000000000000000000000600052601260045260246000fd5b7f475356453a205573657220686173206e6f74207374616b656420656e6f75676860008201527f20746f20646973636f756e740000000000000000000000000000000000000000602082015250565b7f4f776e61626c653a206e6577206f776e657220697320746865207a65726f206160008201527f6464726573730000000000000000000000000000000000000000000000000000602082015250565b7f475356453a20556e737570706f7274656420546f6b656e000000000000000000600082015250565b7f475356453a20546f6b656e206e6f7420636c61696d61626c6500000000000000600082015250565b7f475356453a20557365722063616e6e6f7420636c61696d207468652073616d6560008201527f2067617320746f6b656e20747769636520696e20313220686f75727300000000602082015250565b7f4f776e61626c653a2063616c6c6572206973206e6f7420746865206f776e6572600082015250565b7f475356453a205573657220686173206e6f74207374616b656420656e6f75676860008201527f20746f20636c61696d2066726f6d2074686520706f6f6c000000000000000000602082015250565b7f475356453a20746f6b656e207472616e73666572206661696c65640000000000600082015250565b7f475356453a205573657220686173207374616b6520726577617264732074686560008201527f79206d75737420636c61696d206265666f7265207570646174696e672073746160208201527f6b652e0000000000000000000000000000000000000000000000000000000000604082015250565b612845816124d5565b811461285057600080fd5b50565b61285c816124e7565b811461286757600080fd5b50565b61287381612513565b811461287e57600080fd5b5056fea2646970667358221220ba842444a0a81c7693e722f5efde65d0375f83022319ce36f3887718e7bd818264736f6c63430008040033",
  "immutableReferences": {},
  "source": "pragma solidity ^0.8.0;\r\n\r\nimport \"@openzeppelin/contracts/utils/math/Math.sol\";\r\nimport \"@openzeppelin/contracts/utils/math/SafeMath.sol\";\r\nimport \"@openzeppelin/contracts/token/ERC20/IERC20.sol\";\r\nimport \"@openzeppelin/contracts/access/Ownable.sol\";\r\n\r\nimport \"./IGSVEProtocolToken.sol\";\r\nimport \"./IGSVEToken.sol\";\r\n\r\n\r\ncontract GSVECore is Ownable {\r\n    using SafeMath for uint256;\r\n    \r\n    //address of our protocol utility token\r\n    address private GSVEToken;\r\n\r\n    //supported gas tokens\r\n    uint256 private totalSupportedGasTokens = 0;\r\n\r\n    //mapping(uint256 => address) private supportedGasTokens;\r\n    mapping(address => uint256) private _mintingType;\r\n    mapping(address => uint256) private _claimable;\r\n\r\n    //fee stake threshholds;\r\n    uint256 private tierOneThreshold = 25000 * (10**18);\r\n    uint256 private tierTwoThreshold = 100000 * (10**18);\r\n\r\n    //staking  \r\n    mapping(address => uint256) private userStakes;\r\n    mapping(address => uint256) private userStakeTimes;\r\n    mapping(address => uint256) private userTotalRewards;\r\n\r\n    mapping(address => mapping(address => uint256)) private userClaimTimes;\r\n\r\n    constructor(address _tokenAddress) {\r\n        GSVEToken = _tokenAddress;\r\n    }\r\n\r\n    //Staking Functions - TODO Testing and Verification\r\n    function stake(uint256 value) public {\r\n        require(calculateStakeReward(msg.sender) == 0, \"GSVE: User has stake rewards they must claim before updating stake.\");\r\n\r\n        if (value == 0){\r\n            return;\r\n        }\r\n        require(IERC20(GSVEToken).transferFrom(msg.sender, address(this), value));\r\n        userStakes[msg.sender] = userStakes[msg.sender].add(value);\r\n        userStakeTimes[msg.sender] = block.timestamp;\r\n\r\n        emit Staked(msg.sender, value);\r\n    }\r\n    \r\n    function unstakeAmount(uint256 value) public {\r\n        require(calculateStakeReward(msg.sender) == 0, \"GSVE: User has stake rewards they must claim before updating stake.\");\r\n        uint256 stakeSize = userStakes[msg.sender];\r\n        if (stakeSize == 0){\r\n            return;\r\n        }\r\n\r\n        uint256 stakeWithdrawn = Math.min(value, stakeSize);\r\n        userStakes[msg.sender] = stakeSize.sub(stakeWithdrawn);\r\n        \r\n        if(userStakes[msg.sender] == 0){\r\n            userStakeTimes[msg.sender] = block.timestamp;\r\n        }\r\n\r\n        require(IERC20(GSVEToken).transfer(msg.sender, stakeWithdrawn));\r\n        emit Unstaked(msg.sender, stakeWithdrawn);\r\n    }\r\n\r\n    function unstake() public {\r\n        require(calculateStakeReward(msg.sender) == 0, \"GSVE: User has stake rewards they must claim before updating stake.\");\r\n        uint256 stakeSize = userStakes[msg.sender];\r\n        if (stakeSize == 0){\r\n            return;\r\n        }\r\n\r\n        userStakes[msg.sender] = 0;\r\n        userStakeTimes[msg.sender] = 0;\r\n\r\n        require(IERC20(GSVEToken).transfer(msg.sender, stakeSize));\r\n        emit Unstaked(msg.sender, stakeSize);\r\n    }\r\n\r\n    //calculate the users current unclaimed rewards. This is 1/2000th the users stake every 12 hours.\r\n    function calculateStakeReward(address rewardedAddress) public view returns(uint256){\r\n        if(userStakeTimes[rewardedAddress] == 0){\r\n            return 0;\r\n        }\r\n\r\n        uint256 timeDifference = block.timestamp.sub(userStakeTimes[rewardedAddress]);\r\n        uint256 rewardPeriod = timeDifference.div((60*60*12));\r\n        uint256 rewardPerPeriod = userStakes[rewardedAddress].div(2000);\r\n        uint256 reward = rewardPeriod.mul(rewardPerPeriod);\r\n\r\n        return reward;\r\n    }\r\n\r\n    function collectReward() public {\r\n        uint256 reward = calculateStakeReward(msg.sender);\r\n        if(reward == 0){\r\n            return;\r\n        }\r\n        userStakeTimes[msg.sender] = block.timestamp;\r\n        userTotalRewards[msg.sender] = userTotalRewards[msg.sender] + reward;\r\n        require(IERC20(GSVEToken).transfer(msg.sender, reward), \"GSVE: token transfer failed\");\r\n        emit Reward(msg.sender, reward);\r\n    }\r\n\r\n    //remove fees when the user burns 0.25 GSVE\r\n    function burnDiscountedMinting(address mintTokenAddress, uint256 tokensToMint) public {\r\n        uint256 mintType = _mintingType[mintTokenAddress];\r\n        require(mintType != 0, \"GSVE: Unsupported Token\");\r\n        IGSVEProtocolToken(GSVEToken).burnFrom(msg.sender, 25 * 10**16);\r\n        IGSVEToken(mintTokenAddress).discountedMint(tokensToMint, 0, msg.sender);\r\n    }\r\n\r\n    //discounted minting for tier one stakers\r\n    function discountedMinting(address mintTokenAddress, uint256 tokensToMint) public{\r\n        uint256 mintType = _mintingType[mintTokenAddress];\r\n        require(mintType != 0, \"GSVE: Unsupported Token\");\r\n        require(userStakes[msg.sender] >= tierOneThreshold , \"GSVE: User has not staked enough to discount\");\r\n\r\n        if(mintType == 1){\r\n            IGSVEToken(mintTokenAddress).discountedMint(tokensToMint, 1, msg.sender);\r\n        }\r\n        else if (mintType == 2){\r\n            IGSVEToken(mintTokenAddress).discountedMint(tokensToMint, 2, msg.sender);\r\n        }\r\n        else{\r\n            return;\r\n        }\r\n    }\r\n\r\n    //Reward a user 0.1 GSVE tokens for minting \r\n    function rewardedMinting(address mintTokenAddress, uint256 tokensToMint) public{\r\n        uint256 mintType = _mintingType[mintTokenAddress];\r\n        require(mintType != 0, \"GSVE: Unsupported Token\");\r\n        if(mintType == 1){\r\n            IGSVEToken(mintTokenAddress).discountedMint(tokensToMint, 2, msg.sender);\r\n        }\r\n        else if (mintType == 2){\r\n            IGSVEToken(mintTokenAddress).discountedMint(tokensToMint, 3, msg.sender);\r\n        }\r\n        else{\r\n            return;\r\n        }\r\n\r\n        IERC20(GSVEToken).transfer(msg.sender, 10 * 10**16);\r\n    }\r\n\r\n    //Allow a tier 2 staker to burn tokens and claim from the pool of a specific token. \r\n    //Claimed at a rate of 0.1 GSVE per token claimed.\r\n    function claimToken(address claimGasTokenAddress, uint256 tokensClaimed) public {\r\n\r\n        uint256 isClaimable = _claimable[claimGasTokenAddress];\r\n        require(isClaimable == 0, \"GSVE: Token not claimable\");\r\n        require(userStakes[msg.sender] >= tierTwoThreshold , \"GSVE: User has not staked enough to claim from the pool\");\r\n        \r\n        if(userClaimTimes[msg.sender][claimGasTokenAddress] != 0){\r\n            require(block.timestamp.sub(userClaimTimes[msg.sender][claimGasTokenAddress]) > 60 * 60 * 12, \"GSVE: User cannot claim the same gas token twice in 12 hours\");\r\n        }\r\n\r\n        uint256 tokensGiven = tokensClaimed;\r\n\r\n        //user can withdraw up to 5 tokens from the pool\r\n        uint256 tokensAvailableToClaim = IERC20(GSVEToken).balanceOf(address(this));\r\n        tokensGiven = Math.min(Math.min(5, tokensAvailableToClaim), tokensGiven);\r\n\r\n        if(tokensGiven == 0){\r\n            return;\r\n        }\r\n\r\n        IGSVEProtocolToken(GSVEToken).burnFrom(msg.sender, tokensGiven * 1 * 10 ** 17);\r\n        IERC20(claimGasTokenAddress).transfer(msg.sender, tokensGiven);\r\n        userClaimTimes[msg.sender][claimGasTokenAddress] = block.timestamp;\r\n        emit Claimed(msg.sender, claimGasTokenAddress, tokensGiven);\r\n    }\r\n\r\n    function addGasToken(address gasToken, uint256 mintType, uint256 isClaimable) public onlyOwner{\r\n        _mintingType[gasToken] = mintType;\r\n        _claimable[gasToken] = isClaimable;\r\n    }\r\n\r\n    function claimable(address gasToken) public view returns (uint256){\r\n        return _claimable[gasToken];\r\n    }\r\n\r\n    function mintingType(address gasToken) public view returns (uint256){\r\n        return _mintingType[gasToken];\r\n    }\r\n\r\n    event Claimed(address indexed _from, address indexed _token, uint _value);\r\n\r\n    event Reward(address indexed _from, uint _value);\r\n\r\n    event Staked(address indexed _from, uint _value);\r\n\r\n    event Unstaked(address indexed _from, uint _value);\r\n}\r\n",
  "sourcePath": "C:/Users/khera/Documents/GitHub/GasSwapTokens/contracts/GSVECore.sol",
  "compiler": {
    "name": "solc",
    "version": "0.8.4+commit.c7e474f2.Emscripten.clang"
  },
  "schemaVersion": "3.3.4",
  "updatedAt": "2021-04-25T16:51:59.164Z",
  "devdoc": {
    "kind": "dev",
    "methods": {
      "owner()": {
        "details": "Returns the address of the current owner."
      },
      "renounceOwnership()": {
        "details": "Leaves the contract without owner. It will not be possible to call `onlyOwner` functions anymore. Can only be called by the current owner. NOTE: Renouncing ownership will leave the contract without an owner, thereby removing any functionality that is only available to the owner."
      },
      "transferOwnership(address)": {
        "details": "Transfers ownership of the contract to a new account (`newOwner`). Can only be called by the current owner."
      }
    },
    "version": 1
  },
  "userdoc": {
    "kind": "user",
    "methods": {},
    "version": 1
  }
}