{
  "contractName": "GSVEContractDeployer",
  "abi": [
    {
      "anonymous": false,
      "inputs": [
        {
          "indexed": true,
          "internalType": "address",
          "name": "deploymentAddress",
          "type": "address"
        }
      ],
      "name": "ContractDeployed",
      "type": "event"
    },
    {
      "anonymous": false,
      "inputs": [
        {
          "indexed": true,
          "internalType": "address",
          "name": "previousOwner",
          "type": "address"
        },
        {
          "indexed": true,
          "internalType": "address",
          "name": "newOwner",
          "type": "address"
        }
      ],
      "name": "OwnershipTransferred",
      "type": "event"
    },
    {
      "inputs": [],
      "name": "owner",
      "outputs": [
        {
          "internalType": "address",
          "name": "",
          "type": "address"
        }
      ],
      "stateMutability": "view",
      "type": "function"
    },
    {
      "inputs": [],
      "name": "renounceOwnership",
      "outputs": [],
      "stateMutability": "nonpayable",
      "type": "function"
    },
    {
      "inputs": [
        {
          "internalType": "address",
          "name": "newOwner",
          "type": "address"
        }
      ],
      "name": "transferOwnership",
      "outputs": [],
      "stateMutability": "nonpayable",
      "type": "function"
    },
    {
      "inputs": [
        {
          "internalType": "address",
          "name": "gasToken",
          "type": "address"
        }
      ],
      "name": "addGasToken",
      "outputs": [],
      "stateMutability": "nonpayable",
      "type": "function"
    },
    {
      "inputs": [
        {
          "internalType": "address",
          "name": "gasToken",
          "type": "address"
        }
      ],
      "name": "compatibleGasToken",
      "outputs": [
        {
          "internalType": "uint256",
          "name": "",
          "type": "uint256"
        }
      ],
      "stateMutability": "view",
      "type": "function"
    },
    {
      "inputs": [
        {
          "internalType": "bytes",
          "name": "data",
          "type": "bytes"
        },
        {
          "internalType": "address",
          "name": "gasToken",
          "type": "address"
        }
      ],
      "name": "GsveDeploy",
      "outputs": [
        {
          "internalType": "address",
          "name": "contractAddress",
          "type": "address"
        }
      ],
      "stateMutability": "nonpayable",
      "type": "function"
    },
    {
      "inputs": [
        {
          "internalType": "uint256",
          "name": "salt",
          "type": "uint256"
        },
        {
          "internalType": "bytes",
          "name": "data",
          "type": "bytes"
        },
        {
          "internalType": "address",
          "name": "gasToken",
          "type": "address"
        }
      ],
      "name": "GsveDeploy2",
      "outputs": [
        {
          "internalType": "address",
          "name": "contractAddress",
          "type": "address"
        }
      ],
      "stateMutability": "nonpayable",
      "type": "function"
    }
  ],
  "bytecode": "0x608060405234801561001057600080fd5b5060006100216100c460201b60201c565b9050806000806101000a81548173ffffffffffffffffffffffffffffffffffffffff021916908373ffffffffffffffffffffffffffffffffffffffff1602179055508073ffffffffffffffffffffffffffffffffffffffff16600073ffffffffffffffffffffffffffffffffffffffff167f8be0079c531659141344cd1fd0a4f28419497f9722a3daafe3b4186f6b6457e060405160405180910390a3506100cc565b600033905090565b611109806100db6000396000f3fe608060405234801561001057600080fd5b506004361061007d5760003560e01c80638da5cb5b1161005b5780638da5cb5b146100d85780638e13fd78146100f6578063d1aa693d14610126578063f2fde38b146101565761007d565b80630f76f83014610082578063488f74631461009e578063715018a6146100ce575b600080fd5b61009c60048036038101906100979190610b1b565b610172565b005b6100b860048036038101906100b39190610b44565b610235565b6040516100c59190610caf565b60405180910390f35b6100d66104a5565b005b6100e06105df565b6040516100ed9190610caf565b60405180910390f35b610110600480360381019061010b9190610b1b565b610608565b60405161011d9190610d53565b60405180910390f35b610140600480360381019061013b9190610bc1565b610651565b60405161014d9190610caf565b60405180910390f35b610170600480360381019061016b9190610b1b565b6108c3565b005b61017a610a6c565b73ffffffffffffffffffffffffffffffffffffffff166101986105df565b73ffffffffffffffffffffffffffffffffffffffff16146101ee576040517f08c379a00000000000000000000000000000000000000000000000000000000081526004016101e590610d33565b60405180910390fd5b60018060008373ffffffffffffffffffffffffffffffffffffffff1673ffffffffffffffffffffffffffffffffffffffff1681526020019081526020016000208190555050565b60008160018060008373ffffffffffffffffffffffffffffffffffffffff1673ffffffffffffffffffffffffffffffffffffffff16815260200190815260200160002054146102b9576040517f08c379a00000000000000000000000000000000000000000000000000000000081526004016102b090610cf3565b60405180910390fd5b60005a90508451602086016000f092508273ffffffffffffffffffffffffffffffffffffffff1663f2fde38b336040518263ffffffff1660e01b81526004016103029190610caf565b600060405180830381600087803b15801561031c57600080fd5b505af192505050801561032d575060015b610379578273ffffffffffffffffffffffffffffffffffffffff167f8ffcdc15a283d706d38281f500270d8b5a656918f555de0913d7455e3e6bc1bf60405160405180910390a26103bd565b8273ffffffffffffffffffffffffffffffffffffffff167f8ffcdc15a283d706d38281f500270d8b5a656918f555de0913d7455e3e6bc1bf60405160405180910390a25b60008036905060106103cf9190610e5c565b5a836152086103de9190610dd5565b6103e89190610eb6565b6103f29190610dd5565b90508273ffffffffffffffffffffffffffffffffffffffff1663079d229f3361a0aa61374a856104229190610dd5565b61042c9190610e2b565b6040518363ffffffff1660e01b8152600401610449929190610cca565b602060405180830381600087803b15801561046357600080fd5b505af1158015610477573d6000803e3d6000fd5b505050506040513d601f19601f8201168201806040525081019061049b9190610b98565b5050505092915050565b6104ad610a6c565b73ffffffffffffffffffffffffffffffffffffffff166104cb6105df565b73ffffffffffffffffffffffffffffffffffffffff1614610521576040517f08c379a000000000000000000000000000000000000000000000000000000000815260040161051890610d33565b60405180910390fd5b600073ffffffffffffffffffffffffffffffffffffffff1660008054906101000a900473ffffffffffffffffffffffffffffffffffffffff1673ffffffffffffffffffffffffffffffffffffffff167f8be0079c531659141344cd1fd0a4f28419497f9722a3daafe3b4186f6b6457e060405160405180910390a360008060006101000a81548173ffffffffffffffffffffffffffffffffffffffff021916908373ffffffffffffffffffffffffffffffffffffffff160217905550565b60008060009054906101000a900473ffffffffffffffffffffffffffffffffffffffff16905090565b6000600160008373ffffffffffffffffffffffffffffffffffffffff1673ffffffffffffffffffffffffffffffffffffffff168152602001908152602001600020549050919050565b60008160018060008373ffffffffffffffffffffffffffffffffffffffff1673ffffffffffffffffffffffffffffffffffffffff16815260200190815260200160002054146106d5576040517f08c379a00000000000000000000000000000000000000000000000000000000081526004016106cc90610cf3565b60405180910390fd5b60005a9050858551602087016000f592508273ffffffffffffffffffffffffffffffffffffffff1663f2fde38b336040518263ffffffff1660e01b815260040161071f9190610caf565b600060405180830381600087803b15801561073957600080fd5b505af192505050801561074a575060015b610796578273ffffffffffffffffffffffffffffffffffffffff167f8ffcdc15a283d706d38281f500270d8b5a656918f555de0913d7455e3e6bc1bf60405160405180910390a26107da565b8273ffffffffffffffffffffffffffffffffffffffff167f8ffcdc15a283d706d38281f500270d8b5a656918f555de0913d7455e3e6bc1bf60405160405180910390a25b60008036905060106107ec9190610e5c565b5a836152086107fb9190610dd5565b6108059190610eb6565b61080f9190610dd5565b90508273ffffffffffffffffffffffffffffffffffffffff1663079d229f3361a0aa61374a8561083f9190610dd5565b6108499190610e2b565b6040518363ffffffff1660e01b8152600401610866929190610cca565b602060405180830381600087803b15801561088057600080fd5b505af1158015610894573d6000803e3d6000fd5b505050506040513d601f19601f820116820180604052508101906108b89190610b98565b505050509392505050565b6108cb610a6c565b73ffffffffffffffffffffffffffffffffffffffff166108e96105df565b73ffffffffffffffffffffffffffffffffffffffff161461093f576040517f08c379a000000000000000000000000000000000000000000000000000000000815260040161093690610d33565b60405180910390fd5b600073ffffffffffffffffffffffffffffffffffffffff168173ffffffffffffffffffffffffffffffffffffffff1614156109af576040517f08c379a00000000000000000000000000000000000000000000000000000000081526004016109a690610d13565b60405180910390fd5b8073ffffffffffffffffffffffffffffffffffffffff1660008054906101000a900473ffffffffffffffffffffffffffffffffffffffff1673ffffffffffffffffffffffffffffffffffffffff167f8be0079c531659141344cd1fd0a4f28419497f9722a3daafe3b4186f6b6457e060405160405180910390a3806000806101000a81548173ffffffffffffffffffffffffffffffffffffffff021916908373ffffffffffffffffffffffffffffffffffffffff16021790555050565b600033905090565b6000610a87610a8284610d93565b610d6e565b905082815260208101848484011115610a9f57600080fd5b610aaa848285610f26565b509392505050565b600081359050610ac1816110a5565b92915050565b600082601f830112610ad857600080fd5b8135610ae8848260208601610a74565b91505092915050565b600081359050610b00816110bc565b92915050565b600081519050610b15816110bc565b92915050565b600060208284031215610b2d57600080fd5b6000610b3b84828501610ab2565b91505092915050565b60008060408385031215610b5757600080fd5b600083013567ffffffffffffffff811115610b7157600080fd5b610b7d85828601610ac7565b9250506020610b8e85828601610ab2565b9150509250929050565b600060208284031215610baa57600080fd5b6000610bb884828501610b06565b91505092915050565b600080600060608486031215610bd657600080fd5b6000610be486828701610af1565b935050602084013567ffffffffffffffff811115610c0157600080fd5b610c0d86828701610ac7565b9250506040610c1e86828701610ab2565b9150509250925092565b610c3181610eea565b82525050565b6000610c44601883610dc4565b9150610c4f82611004565b602082019050919050565b6000610c67602683610dc4565b9150610c728261102d565b604082019050919050565b6000610c8a602083610dc4565b9150610c958261107c565b602082019050919050565b610ca981610f1c565b82525050565b6000602082019050610cc46000830184610c28565b92915050565b6000604082019050610cdf6000830185610c28565b610cec6020830184610ca0565b9392505050565b60006020820190508181036000830152610d0c81610c37565b9050919050565b60006020820190508181036000830152610d2c81610c5a565b9050919050565b60006020820190508181036000830152610d4c81610c7d565b9050919050565b6000602082019050610d686000830184610ca0565b92915050565b6000610d78610d89565b9050610d848282610f35565b919050565b6000604051905090565b600067ffffffffffffffff821115610dae57610dad610fc4565b5b610db782610ff3565b9050602081019050919050565b600082825260208201905092915050565b6000610de082610f1c565b9150610deb83610f1c565b9250827fffffffffffffffffffffffffffffffffffffffffffffffffffffffffffffffff03821115610e2057610e1f610f66565b5b828201905092915050565b6000610e3682610f1c565b9150610e4183610f1c565b925082610e5157610e50610f95565b5b828204905092915050565b6000610e6782610f1c565b9150610e7283610f1c565b9250817fffffffffffffffffffffffffffffffffffffffffffffffffffffffffffffffff0483118215151615610eab57610eaa610f66565b5b828202905092915050565b6000610ec182610f1c565b9150610ecc83610f1c565b925082821015610edf57610ede610f66565b5b828203905092915050565b6000610ef582610efc565b9050919050565b600073ffffffffffffffffffffffffffffffffffffffff82169050919050565b6000819050919050565b82818337600083830152505050565b610f3e82610ff3565b810181811067ffffffffffffffff82111715610f5d57610f5c610fc4565b5b80604052505050565b7f4e487b7100000000000000000000000000000000000000000000000000000000600052601160045260246000fd5b7f4e487b7100000000000000000000000000000000000000000000000000000000600052601260045260246000fd5b7f4e487b7100000000000000000000000000000000000000000000000000000000600052604160045260246000fd5b6000601f19601f8301169050919050565b7f475356453a20696e636f6d70617469626c6520746f6b656e0000000000000000600082015250565b7f4f776e61626c653a206e6577206f776e657220697320746865207a65726f206160008201527f6464726573730000000000000000000000000000000000000000000000000000602082015250565b7f4f776e61626c653a2063616c6c6572206973206e6f7420746865206f776e6572600082015250565b6110ae81610eea565b81146110b957600080fd5b50565b6110c581610f1c565b81146110d057600080fd5b5056fea2646970667358221220b9bdfe20d909b6c09ee4aea70fea00ab6076e70f31a5784a562a6239803cf59664736f6c63430008040033",
  "immutableReferences": {},
  "source": "pragma solidity ^0.8.0;\r\n\r\nimport \"@openzeppelin/contracts/access/Ownable.sol\";\r\n\r\ninterface IFreeFromUpTo {\r\n    function freeFromUpTo(address from, uint256 value) external returns (uint256 freed);\r\n}\r\n\r\ncontract GSVEContractDeployer is Ownable{\r\n    mapping(address => uint256) private _compatibleGasTokens;\r\n\r\n    function addGasToken(address gasToken) public onlyOwner{\r\n        _compatibleGasTokens[gasToken] = 1;\r\n    }\r\n\r\n    function compatibleGasToken(address gasToken) public view returns(uint256){\r\n        return _compatibleGasTokens[gasToken];\r\n    }\r\n\r\n    modifier discountGas(address gasToken) {\r\n        require(_compatibleGasTokens[gasToken] == 1, \"GSVE: incompatible token\");\r\n        uint256 gasStart = gasleft();\r\n        _;\r\n        uint256 gasSpent = 21000 + gasStart - gasleft() + 16 * msg.data.length;\r\n        IFreeFromUpTo(gasToken).freeFromUpTo(msg.sender,  (gasSpent + 14154) / 41130);\r\n    }\r\n\r\n    function GsveDeploy(bytes memory data, address gasToken) public discountGas(gasToken) returns(address contractAddress) {\r\n        assembly {\r\n            contractAddress := create(0, add(data, 32), mload(data))\r\n        }\r\n        try Ownable(contractAddress).transferOwnership(msg.sender){\r\n            emit ContractDeployed(contractAddress);\r\n        }\r\n        catch{\r\n            emit ContractDeployed(contractAddress);\r\n        }\r\n    }\r\n\r\n    function GsveDeploy2(uint256 salt, bytes memory data, address gasToken) public discountGas(gasToken) returns(address contractAddress) {\r\n        assembly {\r\n            contractAddress := create2(0, add(data, 32), mload(data), salt)\r\n        }\r\n\r\n        try Ownable(contractAddress).transferOwnership(msg.sender){\r\n            emit ContractDeployed(contractAddress);\r\n        }\r\n        catch{\r\n            emit ContractDeployed(contractAddress);\r\n        }\r\n    }\r\n\r\n    event ContractDeployed(address indexed deploymentAddress);\r\n}",
  "sourcePath": "C:/Users/khera/Documents/GitHub/GasSwapTokens/contracts/GSVEContractDeployer.sol",
  "compiler": {
    "name": "solc",
    "version": "0.8.4+commit.c7e474f2.Emscripten.clang"
  },
  "schemaVersion": "3.3.4",
  "updatedAt": "2021-04-29T08:48:16.581Z",
  "devdoc": {
    "kind": "dev",
    "methods": {
      "owner()": {
        "details": "Returns the address of the current owner."
      },
      "renounceOwnership()": {
        "details": "Leaves the contract without owner. It will not be possible to call `onlyOwner` functions anymore. Can only be called by the current owner. NOTE: Renouncing ownership will leave the contract without an owner, thereby removing any functionality that is only available to the owner."
      },
      "transferOwnership(address)": {
        "details": "Transfers ownership of the contract to a new account (`newOwner`). Can only be called by the current owner."
      }
    },
    "version": 1
  },
  "userdoc": {
    "kind": "user",
    "methods": {},
    "version": 1
  }
}