{
  "contractName": "GSVEStakeCore",
  "abi": [
    {
      "inputs": [
        {
          "internalType": "address",
          "name": "_tokenAddress",
          "type": "address"
        }
      ],
      "stateMutability": "nonpayable",
      "type": "constructor"
    },
    {
      "anonymous": false,
      "inputs": [
        {
          "indexed": true,
          "internalType": "address",
          "name": "_from",
          "type": "address"
        },
        {
          "indexed": true,
          "internalType": "address",
          "name": "_token",
          "type": "address"
        },
        {
          "indexed": false,
          "internalType": "uint256",
          "name": "_value",
          "type": "uint256"
        }
      ],
      "name": "Claimed",
      "type": "event"
    },
    {
      "anonymous": false,
      "inputs": [
        {
          "indexed": true,
          "internalType": "address",
          "name": "previousOwner",
          "type": "address"
        },
        {
          "indexed": true,
          "internalType": "address",
          "name": "newOwner",
          "type": "address"
        }
      ],
      "name": "OwnershipTransferred",
      "type": "event"
    },
    {
      "anonymous": false,
      "inputs": [
        {
          "indexed": true,
          "internalType": "address",
          "name": "_from",
          "type": "address"
        },
        {
          "indexed": false,
          "internalType": "uint256",
          "name": "_value",
          "type": "uint256"
        }
      ],
      "name": "Reward",
      "type": "event"
    },
    {
      "anonymous": false,
      "inputs": [
        {
          "indexed": true,
          "internalType": "address",
          "name": "_from",
          "type": "address"
        },
        {
          "indexed": false,
          "internalType": "uint256",
          "name": "_value",
          "type": "uint256"
        }
      ],
      "name": "Staked",
      "type": "event"
    },
    {
      "anonymous": false,
      "inputs": [
        {
          "indexed": true,
          "internalType": "address",
          "name": "_from",
          "type": "address"
        },
        {
          "indexed": false,
          "internalType": "uint256",
          "name": "_value",
          "type": "uint256"
        }
      ],
      "name": "Unstaked",
      "type": "event"
    },
    {
      "inputs": [],
      "name": "owner",
      "outputs": [
        {
          "internalType": "address",
          "name": "",
          "type": "address"
        }
      ],
      "stateMutability": "view",
      "type": "function"
    },
    {
      "inputs": [],
      "name": "renounceOwnership",
      "outputs": [],
      "stateMutability": "nonpayable",
      "type": "function"
    },
    {
      "inputs": [
        {
          "internalType": "address",
          "name": "newOwner",
          "type": "address"
        }
      ],
      "name": "transferOwnership",
      "outputs": [],
      "stateMutability": "nonpayable",
      "type": "function"
    },
    {
      "inputs": [
        {
          "internalType": "uint256",
          "name": "value",
          "type": "uint256"
        }
      ],
      "name": "stake",
      "outputs": [],
      "stateMutability": "nonpayable",
      "type": "function"
    },
    {
      "inputs": [],
      "name": "unstake",
      "outputs": [],
      "stateMutability": "nonpayable",
      "type": "function"
    },
    {
      "inputs": [
        {
          "internalType": "address",
          "name": "rewardedAddress",
          "type": "address"
        }
      ],
      "name": "calculateStakeReward",
      "outputs": [
        {
          "internalType": "uint256",
          "name": "",
          "type": "uint256"
        }
      ],
      "stateMutability": "view",
      "type": "function"
    },
    {
      "inputs": [],
      "name": "collectReward",
      "outputs": [],
      "stateMutability": "nonpayable",
      "type": "function"
    },
    {
      "inputs": [
        {
          "internalType": "address",
          "name": "gasTokenAddress",
          "type": "address"
        },
        {
          "internalType": "uint256",
          "name": "value",
          "type": "uint256"
        }
      ],
      "name": "burnDiscountedMinting",
      "outputs": [],
      "stateMutability": "nonpayable",
      "type": "function"
    },
    {
      "inputs": [
        {
          "internalType": "address",
          "name": "gasTokenAddress",
          "type": "address"
        },
        {
          "internalType": "uint256",
          "name": "value",
          "type": "uint256"
        }
      ],
      "name": "discountedMinting",
      "outputs": [],
      "stateMutability": "nonpayable",
      "type": "function"
    },
    {
      "inputs": [
        {
          "internalType": "address",
          "name": "gasTokenAddress",
          "type": "address"
        },
        {
          "internalType": "uint256",
          "name": "value",
          "type": "uint256"
        }
      ],
      "name": "rewardedMinting",
      "outputs": [],
      "stateMutability": "nonpayable",
      "type": "function"
    },
    {
      "inputs": [
        {
          "internalType": "address",
          "name": "gasTokenAddress",
          "type": "address"
        },
        {
          "internalType": "uint256",
          "name": "value",
          "type": "uint256"
        }
      ],
      "name": "claimToken",
      "outputs": [],
      "stateMutability": "nonpayable",
      "type": "function"
    },
    {
      "inputs": [
        {
          "internalType": "address",
          "name": "gasToken",
          "type": "address"
        },
        {
          "internalType": "uint256",
          "name": "mintType",
          "type": "uint256"
        },
        {
          "internalType": "uint256",
          "name": "isClaimable",
          "type": "uint256"
        }
      ],
      "name": "addGasToken",
      "outputs": [],
      "stateMutability": "nonpayable",
      "type": "function"
    },
    {
      "inputs": [
        {
          "internalType": "address",
          "name": "gasToken",
          "type": "address"
        }
      ],
      "name": "claimable",
      "outputs": [
        {
          "internalType": "uint256",
          "name": "",
          "type": "uint256"
        }
      ],
      "stateMutability": "view",
      "type": "function"
    },
    {
      "inputs": [
        {
          "internalType": "address",
          "name": "gasToken",
          "type": "address"
        }
      ],
      "name": "mintingType",
      "outputs": [
        {
          "internalType": "uint256",
          "name": "",
          "type": "uint256"
        }
      ],
      "stateMutability": "view",
      "type": "function"
    },
    {
      "inputs": [],
      "name": "totalStaked",
      "outputs": [
        {
          "internalType": "uint256",
          "name": "",
          "type": "uint256"
        }
      ],
      "stateMutability": "view",
      "type": "function"
    },
    {
      "inputs": [
        {
          "internalType": "address",
          "name": "user",
          "type": "address"
        }
      ],
      "name": "userStakeSize",
      "outputs": [
        {
          "internalType": "uint256",
          "name": "",
          "type": "uint256"
        }
      ],
      "stateMutability": "view",
      "type": "function"
    },
    {
      "inputs": [],
      "name": "totalRewards",
      "outputs": [
        {
          "internalType": "uint256",
          "name": "",
          "type": "uint256"
        }
      ],
      "stateMutability": "view",
      "type": "function"
    },
    {
      "inputs": [
        {
          "internalType": "address",
          "name": "user",
          "type": "address"
        }
      ],
      "name": "totalRewardUser",
      "outputs": [
        {
          "internalType": "uint256",
          "name": "",
          "type": "uint256"
        }
      ],
      "stateMutability": "view",
      "type": "function"
    }
  ],
  "bytecode": "0x6080604052600060035569054b40b1f852bda0000060065569152d02c7e14af680000060075560006008553480156200003757600080fd5b5060405162002d0e38038062002d0e83398181016040528101906200005d91906200017b565b60006200006f6200015c60201b60201c565b9050806000806101000a81548173ffffffffffffffffffffffffffffffffffffffff021916908373ffffffffffffffffffffffffffffffffffffffff1602179055508073ffffffffffffffffffffffffffffffffffffffff16600073ffffffffffffffffffffffffffffffffffffffff167f8be0079c531659141344cd1fd0a4f28419497f9722a3daafe3b4186f6b6457e060405160405180910390a3506001808190555080600260006101000a81548173ffffffffffffffffffffffffffffffffffffffff021916908373ffffffffffffffffffffffffffffffffffffffff16021790555050620001f5565b600033905090565b6000815190506200017581620001db565b92915050565b6000602082840312156200018e57600080fd5b60006200019e8482850162000164565b91505092915050565b6000620001b482620001bb565b9050919050565b600073ffffffffffffffffffffffffffffffffffffffff82169050919050565b620001e681620001a7565b8114620001f257600080fd5b50565b612b0980620002056000396000f3fe608060405234801561001057600080fd5b50600436106101165760003560e01c80637ef5c185116100a2578063a556a81811610071578063a556a81814610293578063a694fc3a146102af578063ca459eb5146102cb578063d59684ab146102fb578063f2fde38b1461032b57610116565b80637ef5c1851461021f578063817b1cd21461023b578063829f0874146102595780638da5cb5b1461027557610116565b80632def6620116100e95780632def6620146101a1578063402914f5146101ab57806354c5aee1146101db578063715018a6146101e557806372ed601e146101ef57610116565b80630851482f1461011b5780630e15561a1461014b5780631698755f1461016957806329e7a69614610185575b600080fd5b61013560048036038101906101309190611f7f565b610347565b60405161014291906124c1565b60405180910390f35b610153610390565b60405161016091906124c1565b60405180910390f35b610183600480360381019061017e9190611fa8565b610456565b005b61019f600480360381019061019a9190611fa8565b6109a0565b005b6101a9610bd4565b005b6101c560048036038101906101c09190611f7f565b610dd6565b6040516101d291906124c1565b60405180910390f35b6101e3610e1f565b005b6101ed6110aa565b005b61020960048036038101906102049190611f7f565b6111e4565b60405161021691906124c1565b60405180910390f35b61023960048036038101906102349190611fa8565b61122d565b005b6102436113de565b60405161025091906124c1565b60405180910390f35b610273600480360381019061026e9190611fa8565b6113e8565b005b61027d611617565b60405161028a919061229d565b60405180910390f35b6102ad60048036038101906102a89190611fe4565b611640565b005b6102c960048036038101906102c4919061205c565b611749565b005b6102e560048036038101906102e09190611f7f565b6119a2565b6040516102f291906124c1565b60405180910390f35b61031560048036038101906103109190611f7f565b6119eb565b60405161032291906124c1565b60405180910390f35b61034560048036038101906103409190611f7f565b611b28565b005b6000600b60008373ffffffffffffffffffffffffffffffffffffffff1673ffffffffffffffffffffffffffffffffffffffff168152602001908152602001600020549050919050565b6000610451600854600260009054906101000a900473ffffffffffffffffffffffffffffffffffffffff1673ffffffffffffffffffffffffffffffffffffffff166370a08231306040518263ffffffff1660e01b81526004016103f3919061229d565b60206040518083038186803b15801561040b57600080fd5b505afa15801561041f573d6000803e3d6000fd5b505050506040513d601f19601f820116820180604052508101906104439190612085565b611cd190919063ffffffff16565b905090565b6000600560008473ffffffffffffffffffffffffffffffffffffffff1673ffffffffffffffffffffffffffffffffffffffff168152602001908152602001600020549050600181146104dd576040517f08c379a00000000000000000000000000000000000000000000000000000000081526004016104d4906123e1565b60405180910390fd5b600754600960003373ffffffffffffffffffffffffffffffffffffffff1673ffffffffffffffffffffffffffffffffffffffff168152602001908152602001600020541015610561576040517f08c379a000000000000000000000000000000000000000000000000000000000815260040161055890612441565b60405180910390fd5b6000600c60003373ffffffffffffffffffffffffffffffffffffffff1673ffffffffffffffffffffffffffffffffffffffff1681526020019081526020016000205414610642576154606105fd600c60003373ffffffffffffffffffffffffffffffffffffffff1673ffffffffffffffffffffffffffffffffffffffff1681526020019081526020016000205442611cd190919063ffffffff16565b1161063d576040517f08c379a000000000000000000000000000000000000000000000000000000000815260040161063490612461565b60405180910390fd5b6106d8565b615460610697600a60003373ffffffffffffffffffffffffffffffffffffffff1673ffffffffffffffffffffffffffffffffffffffff1681526020019081526020016000205442611cd190919063ffffffff16565b116106d7576040517f08c379a00000000000000000000000000000000000000000000000000000000081526004016106ce90612401565b60405180910390fd5b5b60008290506000600260009054906101000a900473ffffffffffffffffffffffffffffffffffffffff1673ffffffffffffffffffffffffffffffffffffffff166370a08231306040518263ffffffff1660e01b815260040161073a919061229d565b60206040518083038186803b15801561075257600080fd5b505afa158015610766573d6000803e3d6000fd5b505050506040513d601f19601f8201168201806040525081019061078a9190612085565b90506107a061079a600583611ce7565b83611ce7565b915060008214156107b35750505061099c565b600260009054906101000a900473ffffffffffffffffffffffffffffffffffffffff1673ffffffffffffffffffffffffffffffffffffffff166379cc679033670de0b6b3a764000060018661080891906125e2565b61081291906125e2565b6040518363ffffffff1660e01b815260040161082f929190612318565b600060405180830381600087803b15801561084957600080fd5b505af115801561085d573d6000803e3d6000fd5b505050508473ffffffffffffffffffffffffffffffffffffffff1663a9059cbb33846040518363ffffffff1660e01b815260040161089c929190612318565b602060405180830381600087803b1580156108b657600080fd5b505af11580156108ca573d6000803e3d6000fd5b505050506040513d601f19601f820116820180604052508101906108ee9190612033565b5042600c60003373ffffffffffffffffffffffffffffffffffffffff1673ffffffffffffffffffffffffffffffffffffffff168152602001908152602001600020819055508473ffffffffffffffffffffffffffffffffffffffff163373ffffffffffffffffffffffffffffffffffffffff167ff7a40077ff7a04c7e61f6f26fb13774259ddf1b6bce9ecf26a8276cdd39926838460405161099091906124c1565b60405180910390a35050505b5050565b6000600460008473ffffffffffffffffffffffffffffffffffffffff1673ffffffffffffffffffffffffffffffffffffffff1681526020019081526020016000205490506000811415610a28576040517f08c379a0000000000000000000000000000000000000000000000000000000008152600401610a1f906123c1565b60405180910390fd5b600260009054906101000a900473ffffffffffffffffffffffffffffffffffffffff1673ffffffffffffffffffffffffffffffffffffffff166379cc679033670de0b6b3a76400006040518363ffffffff1660e01b8152600401610a8d9291906122ef565b600060405180830381600087803b158015610aa757600080fd5b505af1158015610abb573d6000803e3d6000fd5b505050508273ffffffffffffffffffffffffffffffffffffffff16637e72014a836000336040518463ffffffff1660e01b8152600401610afd939291906124dc565b600060405180830381600087803b158015610b1757600080fd5b505af1158015610b2b573d6000803e3d6000fd5b505050506001811415610b4957610b4483836000611d00565b610bce565b6002811415610bc7578273ffffffffffffffffffffffffffffffffffffffff16637e72014a836000336040518463ffffffff1660e01b8152600401610b90939291906124dc565b600060405180830381600087803b158015610baa57600080fd5b505af1158015610bbe573d6000803e3d6000fd5b50505050610bcd565b50610bd0565b5b505b5050565b6000600960003373ffffffffffffffffffffffffffffffffffffffff1673ffffffffffffffffffffffffffffffffffffffff1681526020019081526020016000205490506000811415610c275750610dd4565b6000600960003373ffffffffffffffffffffffffffffffffffffffff1673ffffffffffffffffffffffffffffffffffffffff168152602001908152602001600020819055506000600a60003373ffffffffffffffffffffffffffffffffffffffff1673ffffffffffffffffffffffffffffffffffffffff16815260200190815260200160002081905550610cc681600854611cd190919063ffffffff16565b600881905550600260009054906101000a900473ffffffffffffffffffffffffffffffffffffffff1673ffffffffffffffffffffffffffffffffffffffff1663a9059cbb33836040518363ffffffff1660e01b8152600401610d29929190612318565b602060405180830381600087803b158015610d4357600080fd5b505af1158015610d57573d6000803e3d6000fd5b505050506040513d601f19601f82011682018060405250810190610d7b9190612033565b610d8457600080fd5b3373ffffffffffffffffffffffffffffffffffffffff167f0f5bb82176feb1b5e747e28471aa92156a04d9f3ab9f45f28e2d704232b93f7582604051610dca91906124c1565b60405180910390a2505b565b6000600560008373ffffffffffffffffffffffffffffffffffffffff1673ffffffffffffffffffffffffffffffffffffffff168152602001908152602001600020549050919050565b6000610e29610390565b905060008111610e6e576040517f08c379a0000000000000000000000000000000000000000000000000000000008152600401610e6590612361565b60405180910390fd5b6000610e79336119eb565b90506000811415610e8b5750506110a8565b610e958282611ce7565b905042600a60003373ffffffffffffffffffffffffffffffffffffffff1673ffffffffffffffffffffffffffffffffffffffff1681526020019081526020016000208190555080600b60003373ffffffffffffffffffffffffffffffffffffffff1673ffffffffffffffffffffffffffffffffffffffff16815260200190815260200160002054610f26919061255b565b600b60003373ffffffffffffffffffffffffffffffffffffffff1673ffffffffffffffffffffffffffffffffffffffff16815260200190815260200160002081905550600260009054906101000a900473ffffffffffffffffffffffffffffffffffffffff1673ffffffffffffffffffffffffffffffffffffffff1663a9059cbb33836040518363ffffffff1660e01b8152600401610fc6929190612318565b602060405180830381600087803b158015610fe057600080fd5b505af1158015610ff4573d6000803e3d6000fd5b505050506040513d601f19601f820116820180604052508101906110189190612033565b611057576040517f08c379a000000000000000000000000000000000000000000000000000000000815260040161104e90612481565b60405180910390fd5b3373ffffffffffffffffffffffffffffffffffffffff167f619caafabdd75649b302ba8419e48cccf64f37f1983ac4727cfb38b57703ffc98260405161109d91906124c1565b60405180910390a250505b565b6110b2611ee1565b73ffffffffffffffffffffffffffffffffffffffff166110d0611617565b73ffffffffffffffffffffffffffffffffffffffff1614611126576040517f08c379a000000000000000000000000000000000000000000000000000000000815260040161111d90612421565b60405180910390fd5b600073ffffffffffffffffffffffffffffffffffffffff1660008054906101000a900473ffffffffffffffffffffffffffffffffffffffff1673ffffffffffffffffffffffffffffffffffffffff167f8be0079c531659141344cd1fd0a4f28419497f9722a3daafe3b4186f6b6457e060405160405180910390a360008060006101000a81548173ffffffffffffffffffffffffffffffffffffffff021916908373ffffffffffffffffffffffffffffffffffffffff160217905550565b6000600960008373ffffffffffffffffffffffffffffffffffffffff1673ffffffffffffffffffffffffffffffffffffffff168152602001908152602001600020549050919050565b6000600460008473ffffffffffffffffffffffffffffffffffffffff1673ffffffffffffffffffffffffffffffffffffffff16815260200190815260200160002054905060008114156112b5576040517f08c379a00000000000000000000000000000000000000000000000000000000081526004016112ac906123c1565b60405180910390fd5b600654600960003373ffffffffffffffffffffffffffffffffffffffff1673ffffffffffffffffffffffffffffffffffffffff168152602001908152602001600020541015611339576040517f08c379a000000000000000000000000000000000000000000000000000000000815260040161133090612341565b60405180910390fd5b60018114156113535761134e83836001611d00565b6113d8565b60028114156113d1578273ffffffffffffffffffffffffffffffffffffffff16637e72014a836002336040518463ffffffff1660e01b815260040161139a93929190612513565b600060405180830381600087803b1580156113b457600080fd5b505af11580156113c8573d6000803e3d6000fd5b505050506113d7565b506113da565b5b505b5050565b6000600854905090565b6000600460008473ffffffffffffffffffffffffffffffffffffffff1673ffffffffffffffffffffffffffffffffffffffff1681526020019081526020016000205490506000811415611470576040517f08c379a0000000000000000000000000000000000000000000000000000000008152600401611467906123c1565b60405180910390fd5b600061147a610390565b116114ba576040517f08c379a00000000000000000000000000000000000000000000000000000000081526004016114b190612361565b60405180910390fd5b60018114156114d4576114cf83836002611d00565b611559565b6002811415611552578273ffffffffffffffffffffffffffffffffffffffff16637e72014a836002336040518463ffffffff1660e01b815260040161151b93929190612513565b600060405180830381600087803b15801561153557600080fd5b505af1158015611549573d6000803e3d6000fd5b50505050611558565b50611613565b5b600260009054906101000a900473ffffffffffffffffffffffffffffffffffffffff1673ffffffffffffffffffffffffffffffffffffffff1663a9059cbb33670de0b6b3a76400006040518363ffffffff1660e01b81526004016115be9291906122ef565b602060405180830381600087803b1580156115d857600080fd5b505af11580156115ec573d6000803e3d6000fd5b505050506040513d601f19601f820116820180604052508101906116109190612033565b50505b5050565b60008060009054906101000a900473ffffffffffffffffffffffffffffffffffffffff16905090565b611648611ee1565b73ffffffffffffffffffffffffffffffffffffffff16611666611617565b73ffffffffffffffffffffffffffffffffffffffff16146116bc576040517f08c379a00000000000000000000000000000000000000000000000000000000081526004016116b390612421565b60405180910390fd5b81600460008573ffffffffffffffffffffffffffffffffffffffff1673ffffffffffffffffffffffffffffffffffffffff1681526020019081526020016000208190555080600560008573ffffffffffffffffffffffffffffffffffffffff1673ffffffffffffffffffffffffffffffffffffffff16815260200190815260200160002081905550505050565b6000611754336119eb565b14611794576040517f08c379a000000000000000000000000000000000000000000000000000000000815260040161178b906124a1565b60405180910390fd5b60008114156117a25761199f565b600260009054906101000a900473ffffffffffffffffffffffffffffffffffffffff1673ffffffffffffffffffffffffffffffffffffffff166323b872dd3330846040518463ffffffff1660e01b8152600401611801939291906122b8565b602060405180830381600087803b15801561181b57600080fd5b505af115801561182f573d6000803e3d6000fd5b505050506040513d601f19601f820116820180604052508101906118539190612033565b61185c57600080fd5b6118ae81600960003373ffffffffffffffffffffffffffffffffffffffff1673ffffffffffffffffffffffffffffffffffffffff16815260200190815260200160002054611ee990919063ffffffff16565b600960003373ffffffffffffffffffffffffffffffffffffffff1673ffffffffffffffffffffffffffffffffffffffff1681526020019081526020016000208190555042600a60003373ffffffffffffffffffffffffffffffffffffffff1673ffffffffffffffffffffffffffffffffffffffff1681526020019081526020016000208190555061194a81600854611ee990919063ffffffff16565b6008819055503373ffffffffffffffffffffffffffffffffffffffff167f9e71bc8eea02a63969f509818f2dafb9254532904319f9dbda79b67bd34a5f3d8260405161199691906124c1565b60405180910390a25b50565b6000600460008373ffffffffffffffffffffffffffffffffffffffff1673ffffffffffffffffffffffffffffffffffffffff168152602001908152602001600020549050919050565b600080600a60008473ffffffffffffffffffffffffffffffffffffffff1673ffffffffffffffffffffffffffffffffffffffff168152602001908152602001600020541415611a3d5760009050611b23565b6000611a91600a60008573ffffffffffffffffffffffffffffffffffffffff1673ffffffffffffffffffffffffffffffffffffffff1681526020019081526020016000205442611cd190919063ffffffff16565b90506000611aaa610e1083611eff90919063ffffffff16565b90506000611b02615dc0600960008873ffffffffffffffffffffffffffffffffffffffff1673ffffffffffffffffffffffffffffffffffffffff16815260200190815260200160002054611eff90919063ffffffff16565b90506000611b198284611f1590919063ffffffff16565b9050809450505050505b919050565b611b30611ee1565b73ffffffffffffffffffffffffffffffffffffffff16611b4e611617565b73ffffffffffffffffffffffffffffffffffffffff1614611ba4576040517f08c379a0000000000000000000000000000000000000000000000000000000008152600401611b9b90612421565b60405180910390fd5b600073ffffffffffffffffffffffffffffffffffffffff168173ffffffffffffffffffffffffffffffffffffffff161415611c14576040517f08c379a0000000000000000000000000000000000000000000000000000000008152600401611c0b90612381565b60405180910390fd5b8073ffffffffffffffffffffffffffffffffffffffff1660008054906101000a900473ffffffffffffffffffffffffffffffffffffffff1673ffffffffffffffffffffffffffffffffffffffff167f8be0079c531659141344cd1fd0a4f28419497f9722a3daafe3b4186f6b6457e060405160405180910390a3806000806101000a81548173ffffffffffffffffffffffffffffffffffffffff021916908373ffffffffffffffffffffffffffffffffffffffff16021790555050565b60008183611cdf919061263c565b905092915050565b6000818310611cf65781611cf8565b825b905092915050565b6000600460008573ffffffffffffffffffffffffffffffffffffffff1673ffffffffffffffffffffffffffffffffffffffff16815260200190815260200160002054905060018114611d87576040517f08c379a0000000000000000000000000000000000000000000000000000000008152600401611d7e906123c1565b60405180910390fd5b6000611d9c8385611cd190919063ffffffff16565b905060008111611de1576040517f08c379a0000000000000000000000000000000000000000000000000000000008152600401611dd8906123a1565b60405180910390fd5b8473ffffffffffffffffffffffffffffffffffffffff1663a0712d68856040518263ffffffff1660e01b8152600401611e1a91906124c1565b600060405180830381600087803b158015611e3457600080fd5b505af1158015611e48573d6000803e3d6000fd5b505050508473ffffffffffffffffffffffffffffffffffffffff1663a9059cbb33836040518363ffffffff1660e01b8152600401611e87929190612318565b602060405180830381600087803b158015611ea157600080fd5b505af1158015611eb5573d6000803e3d6000fd5b505050506040513d601f19601f82011682018060405250810190611ed99190612033565b505050505050565b600033905090565b60008183611ef7919061255b565b905092915050565b60008183611f0d91906125b1565b905092915050565b60008183611f2391906125e2565b905092915050565b600081359050611f3a81612a8e565b92915050565b600081519050611f4f81612aa5565b92915050565b600081359050611f6481612abc565b92915050565b600081519050611f7981612abc565b92915050565b600060208284031215611f9157600080fd5b6000611f9f84828501611f2b565b91505092915050565b60008060408385031215611fbb57600080fd5b6000611fc985828601611f2b565b9250506020611fda85828601611f55565b9150509250929050565b600080600060608486031215611ff957600080fd5b600061200786828701611f2b565b935050602061201886828701611f55565b925050604061202986828701611f55565b9150509250925092565b60006020828403121561204557600080fd5b600061205384828501611f40565b91505092915050565b60006020828403121561206e57600080fd5b600061207c84828501611f55565b91505092915050565b60006020828403121561209757600080fd5b60006120a584828501611f6a565b91505092915050565b6120b781612670565b82525050565b6120c6816126b8565b82525050565b6120d5816126ca565b82525050565b6120e4816126dc565b82525050565b60006120f7602c8361254a565b91506121028261274c565b604082019050919050565b600061211a602d8361254a565b91506121258261279b565b604082019050919050565b600061213d60268361254a565b9150612148826127ea565b604082019050919050565b600061216060278361254a565b915061216b82612839565b604082019050919050565b600061218360178361254a565b915061218e82612888565b602082019050919050565b60006121a660198361254a565b91506121b1826128b1565b602082019050919050565b60006121c960318361254a565b91506121d4826128da565b604082019050919050565b60006121ec60208361254a565b91506121f782612929565b602082019050919050565b600061220f60378361254a565b915061221a82612952565b604082019050919050565b600061223260378361254a565b915061223d826129a1565b604082019050919050565b6000612255601b8361254a565b9150612260826129f0565b602082019050919050565b600061227860438361254a565b915061228382612a19565b606082019050919050565b612297816126ae565b82525050565b60006020820190506122b260008301846120ae565b92915050565b60006060820190506122cd60008301866120ae565b6122da60208301856120ae565b6122e7604083018461228e565b949350505050565b600060408201905061230460008301856120ae565b61231160208301846120cc565b9392505050565b600060408201905061232d60008301856120ae565b61233a602083018461228e565b9392505050565b6000602082019050818103600083015261235a816120ea565b9050919050565b6000602082019050818103600083015261237a8161210d565b9050919050565b6000602082019050818103600083015261239a81612130565b9050919050565b600060208201905081810360008301526123ba81612153565b9050919050565b600060208201905081810360008301526123da81612176565b9050919050565b600060208201905081810360008301526123fa81612199565b9050919050565b6000602082019050818103600083015261241a816121bc565b9050919050565b6000602082019050818103600083015261243a816121df565b9050919050565b6000602082019050818103600083015261245a81612202565b9050919050565b6000602082019050818103600083015261247a81612225565b9050919050565b6000602082019050818103600083015261249a81612248565b9050919050565b600060208201905081810360008301526124ba8161226b565b9050919050565b60006020820190506124d6600083018461228e565b92915050565b60006060820190506124f1600083018661228e565b6124fe60208301856120bd565b61250b60408301846120ae565b949350505050565b6000606082019050612528600083018661228e565b61253560208301856120db565b61254260408301846120ae565b949350505050565b600082825260208201905092915050565b6000612566826126ae565b9150612571836126ae565b9250827fffffffffffffffffffffffffffffffffffffffffffffffffffffffffffffffff038211156125a6576125a56126ee565b5b828201905092915050565b60006125bc826126ae565b91506125c7836126ae565b9250826125d7576125d661271d565b5b828204905092915050565b60006125ed826126ae565b91506125f8836126ae565b9250817fffffffffffffffffffffffffffffffffffffffffffffffffffffffffffffffff0483118215151615612631576126306126ee565b5b828202905092915050565b6000612647826126ae565b9150612652836126ae565b925082821015612665576126646126ee565b5b828203905092915050565b600061267b8261268e565b9050919050565b60008115159050919050565b600073ffffffffffffffffffffffffffffffffffffffff82169050919050565b6000819050919050565b60006126c3826126ae565b9050919050565b60006126d5826126ae565b9050919050565b60006126e7826126ae565b9050919050565b7f4e487b7100000000000000000000000000000000000000000000000000000000600052601160045260246000fd5b7f4e487b7100000000000000000000000000000000000000000000000000000000600052601260045260246000fd5b7f475356453a205573657220686173206e6f74207374616b656420656e6f75676860008201527f20746f20646973636f756e740000000000000000000000000000000000000000602082015250565b7f475356453a20636f6e7472616374206861732072616e206f7574206f6620726560008201527f776172647320746f206769766500000000000000000000000000000000000000602082015250565b7f4f776e61626c653a206e6577206f776e657220697320746865207a65726f206160008201527f6464726573730000000000000000000000000000000000000000000000000000602082015250565b7f475356453a205573657220617474656d7074656420746f206d696e7420746f6f60008201527f206c6974746c6500000000000000000000000000000000000000000000000000602082015250565b7f475356453a20556e737570706f7274656420546f6b656e000000000000000000600082015250565b7f475356453a20546f6b656e206e6f7420636c61696d61626c6500000000000000600082015250565b7f475356453a20557365722063616e6e6f7420636c61696d2077697468696e203660008201527f20686f757273206f66207374616b696e67000000000000000000000000000000602082015250565b7f4f776e61626c653a2063616c6c6572206973206e6f7420746865206f776e6572600082015250565b7f475356453a205573657220686173206e6f74207374616b656420656e6f75676860008201527f20746f20636c61696d2066726f6d2074686520706f6f6c000000000000000000602082015250565b7f475356453a20557365722063616e6e6f7420636c61696d20746865206761732060008201527f746f6b656e7320747769636520696e203620686f757273000000000000000000602082015250565b7f475356453a20746f6b656e207472616e73666572206661696c65640000000000600082015250565b7f475356453a205573657220686173207374616b6520726577617264732074686560008201527f79206d75737420636c61696d206265666f7265207570646174696e672073746160208201527f6b652e0000000000000000000000000000000000000000000000000000000000604082015250565b612a9781612670565b8114612aa257600080fd5b50565b612aae81612682565b8114612ab957600080fd5b50565b612ac5816126ae565b8114612ad057600080fd5b5056fea2646970667358221220b77aec7dfafc2d40c9e49df581426d4a3dfe738d3f434d5fef2e9c4c026e4a9364736f6c63430008040033",
  "immutableReferences": {},
  "source": "// SPDX-License-Identifier: MIT\r\npragma solidity ^0.8.0;\r\n\r\nimport \"@openzeppelin/contracts/utils/math/Math.sol\";\r\nimport \"@openzeppelin/contracts/utils/math/SafeMath.sol\";\r\nimport \"@openzeppelin/contracts/token/ERC20/IERC20.sol\";\r\nimport \"@openzeppelin/contracts/access/Ownable.sol\";\r\nimport \"@openzeppelin/contracts/security/ReentrancyGuard.sol\";\r\n\r\nimport \"./IGasToken.sol\";\r\nimport \"./IWrappedGasToken.sol\";\r\n\r\ninterface IGSVEProtocolToken {\r\n    function burn(uint256 amount) external ;\r\n    function burnFrom(address account, uint256 amount) external;\r\n}\r\n\r\ncontract GSVEStakeCore is Ownable, ReentrancyGuard{\r\n    using SafeMath for uint256;\r\n    \r\n    //address of our protocol utility token\r\n    address private GSVEToken;\r\n\r\n    //supported gas tokens\r\n    uint256 private totalSupportedGasTokens = 0;\r\n\r\n    //system is in place to prevent reentrancy from untrusted tokens\r\n    mapping(address => uint256) private _mintingType;\r\n    mapping(address => uint256) private _claimable;\r\n\r\n    //fee stake threshholds;\r\n    uint256 private tierOneThreshold = 25000 * (10**18);\r\n    uint256 private tierTwoThreshold = 100000 * (10**18);\r\n\r\n    uint256 private _totalStaked = 0;\r\n\r\n    //staking  \r\n    mapping(address => uint256) private userStakes;\r\n    mapping(address => uint256) private userStakeTimes;\r\n    mapping(address => uint256) private userTotalRewards;\r\n\r\n    mapping(address => uint256) private userClaimTimes;\r\n\r\n    constructor(address _tokenAddress) {\r\n        GSVEToken = _tokenAddress;\r\n    }\r\n\r\n    function stake(uint256 value) public {\r\n        require(calculateStakeReward(msg.sender) == 0, \"GSVE: User has stake rewards they must claim before updating stake.\");\r\n\r\n        if (value == 0){\r\n            return;\r\n        }\r\n        require(IERC20(GSVEToken).transferFrom(msg.sender, address(this), value));\r\n        userStakes[msg.sender] = userStakes[msg.sender].add(value);\r\n        userStakeTimes[msg.sender] = block.timestamp;\r\n        _totalStaked = _totalStaked.add(value);\r\n        emit Staked(msg.sender, value);\r\n    }\r\n\r\n    function unstake() public {\r\n        uint256 stakeSize = userStakes[msg.sender];\r\n        if (stakeSize == 0){\r\n            return;\r\n        }\r\n        userStakes[msg.sender] = 0;\r\n        userStakeTimes[msg.sender] = 0;\r\n        _totalStaked = _totalStaked.sub(stakeSize);\r\n        require(IERC20(GSVEToken).transfer(msg.sender, stakeSize));\r\n        emit Unstaked(msg.sender, stakeSize);\r\n    }\r\n\r\n    function calculateStakeReward(address rewardedAddress) public view returns(uint256){\r\n        if(userStakeTimes[rewardedAddress] == 0){\r\n            return 0;\r\n        }\r\n\r\n        uint256 timeDifference = block.timestamp.sub(userStakeTimes[rewardedAddress]);\r\n        uint256 rewardPeriod = timeDifference.div((60*60*1));\r\n        uint256 rewardPerPeriod = userStakes[rewardedAddress].div(24000);\r\n        uint256 reward = rewardPeriod.mul(rewardPerPeriod);\r\n\r\n        return reward;\r\n    }\r\n\r\n    function collectReward() public {\r\n        uint256 remainingRewards = totalRewards();\r\n        require(remainingRewards > 0, \"GSVE: contract has ran out of rewards to give\");\r\n\r\n        uint256 reward = calculateStakeReward(msg.sender);\r\n        if(reward == 0){\r\n            return;\r\n        }\r\n\r\n        reward = Math.min(remainingRewards, reward);\r\n        userStakeTimes[msg.sender] = block.timestamp;\r\n        userTotalRewards[msg.sender] = userTotalRewards[msg.sender] + reward;\r\n        require(IERC20(GSVEToken).transfer(msg.sender, reward), \"GSVE: token transfer failed\");\r\n        emit Reward(msg.sender, reward);\r\n    }\r\n\r\n    function burnDiscountedMinting(address gasTokenAddress, uint256 value) public {\r\n        uint256 mintType = _mintingType[gasTokenAddress];\r\n        require(mintType != 0, \"GSVE: Unsupported Token\");\r\n        IGSVEProtocolToken(GSVEToken).burnFrom(msg.sender, 1*10**18);\r\n        IWrappedGasToken(gasTokenAddress).discountedMint(value, 0, msg.sender);\r\n        if(mintType == 1){\r\n            convenientMinting(gasTokenAddress, value, 0);\r\n        }\r\n        else if (mintType == 2){\r\n            IWrappedGasToken(gasTokenAddress).discountedMint(value, 0, msg.sender);\r\n        }\r\n        else{\r\n            return;\r\n        }\r\n    }\r\n\r\n    function discountedMinting(address gasTokenAddress, uint256 value) public{\r\n        uint256 mintType = _mintingType[gasTokenAddress];\r\n        require(mintType != 0, \"GSVE: Unsupported Token\");\r\n        require(userStakes[msg.sender] >= tierOneThreshold , \"GSVE: User has not staked enough to discount\");\r\n\r\n        if(mintType == 1){\r\n            convenientMinting(gasTokenAddress, value, 1);\r\n        }\r\n        else if (mintType == 2){\r\n            IWrappedGasToken(gasTokenAddress).discountedMint(value, 2, msg.sender);\r\n        }\r\n        else{\r\n            return;\r\n        }\r\n    }\r\n\r\n    function rewardedMinting(address gasTokenAddress, uint256 value) public{\r\n        uint256 mintType = _mintingType[gasTokenAddress];\r\n        require(mintType != 0, \"GSVE: Unsupported Token\");\r\n        require(totalRewards() > 0, \"GSVE: contract has ran out of rewards to give\");\r\n        if(mintType == 1){\r\n            convenientMinting(gasTokenAddress, value, 2);\r\n        }\r\n        else if (mintType == 2){\r\n            IWrappedGasToken(gasTokenAddress).discountedMint(value, 2, msg.sender);\r\n        }\r\n        else{\r\n            return;\r\n        }\r\n\r\n        IERC20(GSVEToken).transfer(msg.sender, 1*10**18);\r\n    }\r\n\r\n    function convenientMinting(address gasTokenAddress, uint256 value, uint256 fee) internal {\r\n        uint256 mintType = _mintingType[gasTokenAddress];\r\n        require(mintType == 1, \"GSVE: Unsupported Token\");\r\n\r\n        uint256 userTokens = value.sub(fee);\r\n        require(userTokens > 0, \"GSVE: User attempted to mint too little\");\r\n        IGasToken(gasTokenAddress).mint(value);\r\n        IERC20(gasTokenAddress).transfer(msg.sender, userTokens);\r\n    }\r\n\r\n    function claimToken(address gasTokenAddress, uint256 value) public {\r\n\r\n        uint256 isClaimable = _claimable[gasTokenAddress];\r\n        require(isClaimable == 1, \"GSVE: Token not claimable\");\r\n        require(userStakes[msg.sender] >= tierTwoThreshold , \"GSVE: User has not staked enough to claim from the pool\");\r\n        \r\n        if(userClaimTimes[msg.sender] != 0){\r\n            require(block.timestamp.sub(userClaimTimes[msg.sender]) > 60 * 60 * 6, \"GSVE: User cannot claim the gas tokens twice in 6 hours\");\r\n        }\r\n        else{\r\n            require(block.timestamp.sub(userStakeTimes[msg.sender]) > 60 * 60 * 6, \"GSVE: User cannot claim within 6 hours of staking\");\r\n        }\r\n\r\n        uint256 tokensGiven = value;\r\n\r\n        uint256 tokensAvailableToClaim = IERC20(GSVEToken).balanceOf(address(this));\r\n        tokensGiven = Math.min(Math.min(5, tokensAvailableToClaim), tokensGiven);\r\n\r\n        if(tokensGiven == 0){\r\n            return;\r\n        }\r\n\r\n        IGSVEProtocolToken(GSVEToken).burnFrom(msg.sender, tokensGiven * 1 * 10 ** 18);\r\n        IERC20(gasTokenAddress).transfer(msg.sender, tokensGiven);\r\n        userClaimTimes[msg.sender] = block.timestamp;\r\n        emit Claimed(msg.sender, gasTokenAddress, tokensGiven);\r\n    }\r\n\r\n    function addGasToken(address gasToken, uint256 mintType, uint256 isClaimable) public onlyOwner{\r\n        _mintingType[gasToken] = mintType;\r\n        _claimable[gasToken] = isClaimable;\r\n    }\r\n\r\n    function claimable(address gasToken) public view returns (uint256){\r\n        return _claimable[gasToken];\r\n    }\r\n\r\n    function mintingType(address gasToken) public view returns (uint256){\r\n        return _mintingType[gasToken];\r\n    }\r\n\r\n    function totalStaked() public view returns (uint256){\r\n        return _totalStaked;\r\n    }\r\n\r\n    function userStakeSize(address user)  public view returns (uint256){\r\n        return userStakes[user]; \r\n    }\r\n\r\n    function totalRewards()  public view returns (uint256){\r\n        return IERC20(GSVEToken).balanceOf(address(this)).sub(_totalStaked); \r\n    }\r\n\r\n    function totalRewardUser(address user)  public view returns (uint256){\r\n        return userTotalRewards[user]; \r\n    }\r\n\r\n\r\n    event Claimed(address indexed _from, address indexed _token, uint _value);\r\n\r\n    event Reward(address indexed _from, uint _value);\r\n\r\n    event Staked(address indexed _from, uint _value);\r\n\r\n    event Unstaked(address indexed _from, uint _value);\r\n}\r\n",
  "sourcePath": "C:/Users/khera/Documents/GitHub/GasSwapTokens/contracts/GSVEStakeCore.sol",
  "compiler": {
    "name": "solc",
    "version": "0.8.4+commit.c7e474f2.Emscripten.clang"
  },
  "schemaVersion": "3.3.4",
  "updatedAt": "2021-05-06T04:22:46.210Z",
  "devdoc": {
    "kind": "dev",
    "methods": {
      "owner()": {
        "details": "Returns the address of the current owner."
      },
      "renounceOwnership()": {
        "details": "Leaves the contract without owner. It will not be possible to call `onlyOwner` functions anymore. Can only be called by the current owner. NOTE: Renouncing ownership will leave the contract without an owner, thereby removing any functionality that is only available to the owner."
      },
      "transferOwnership(address)": {
        "details": "Transfers ownership of the contract to a new account (`newOwner`). Can only be called by the current owner."
      }
    },
    "version": 1
  },
  "userdoc": {
    "kind": "user",
    "methods": {},
    "version": 1
  }
}