{
  "contractName": "GSVEStakeCore",
  "abi": [
    {
      "inputs": [
        {
          "internalType": "address",
          "name": "_tokenAddress",
          "type": "address"
        },
        {
          "internalType": "address",
          "name": "_vaultAddress",
          "type": "address"
        }
      ],
      "stateMutability": "nonpayable",
      "type": "constructor"
    },
    {
      "anonymous": false,
      "inputs": [
        {
          "indexed": true,
          "internalType": "address",
          "name": "_from",
          "type": "address"
        },
        {
          "indexed": true,
          "internalType": "address",
          "name": "_token",
          "type": "address"
        },
        {
          "indexed": false,
          "internalType": "uint256",
          "name": "_value",
          "type": "uint256"
        }
      ],
      "name": "Claimed",
      "type": "event"
    },
    {
      "anonymous": false,
      "inputs": [
        {
          "indexed": true,
          "internalType": "address",
          "name": "previousOwner",
          "type": "address"
        },
        {
          "indexed": true,
          "internalType": "address",
          "name": "newOwner",
          "type": "address"
        }
      ],
      "name": "OwnershipTransferred",
      "type": "event"
    },
    {
      "anonymous": false,
      "inputs": [
        {
          "indexed": true,
          "internalType": "address",
          "name": "_from",
          "type": "address"
        },
        {
          "indexed": false,
          "internalType": "uint256",
          "name": "_value",
          "type": "uint256"
        }
      ],
      "name": "Reward",
      "type": "event"
    },
    {
      "anonymous": false,
      "inputs": [
        {
          "indexed": true,
          "internalType": "address",
          "name": "_from",
          "type": "address"
        },
        {
          "indexed": false,
          "internalType": "uint256",
          "name": "_value",
          "type": "uint256"
        }
      ],
      "name": "Staked",
      "type": "event"
    },
    {
      "anonymous": false,
      "inputs": [
        {
          "indexed": true,
          "internalType": "address",
          "name": "_from",
          "type": "address"
        },
        {
          "indexed": false,
          "internalType": "uint256",
          "name": "_value",
          "type": "uint256"
        }
      ],
      "name": "Unstaked",
      "type": "event"
    },
    {
      "inputs": [],
      "name": "owner",
      "outputs": [
        {
          "internalType": "address",
          "name": "",
          "type": "address"
        }
      ],
      "stateMutability": "view",
      "type": "function"
    },
    {
      "inputs": [],
      "name": "renounceOwnership",
      "outputs": [],
      "stateMutability": "nonpayable",
      "type": "function"
    },
    {
      "inputs": [
        {
          "internalType": "address",
          "name": "newOwner",
          "type": "address"
        }
      ],
      "name": "transferOwnership",
      "outputs": [],
      "stateMutability": "nonpayable",
      "type": "function"
    },
    {
      "inputs": [
        {
          "internalType": "uint256",
          "name": "value",
          "type": "uint256"
        }
      ],
      "name": "stake",
      "outputs": [],
      "stateMutability": "nonpayable",
      "type": "function"
    },
    {
      "inputs": [],
      "name": "unstake",
      "outputs": [],
      "stateMutability": "nonpayable",
      "type": "function"
    },
    {
      "inputs": [
        {
          "internalType": "address",
          "name": "rewardedAddress",
          "type": "address"
        }
      ],
      "name": "calculateStakeReward",
      "outputs": [
        {
          "internalType": "uint256",
          "name": "",
          "type": "uint256"
        }
      ],
      "stateMutability": "view",
      "type": "function"
    },
    {
      "inputs": [],
      "name": "collectReward",
      "outputs": [],
      "stateMutability": "nonpayable",
      "type": "function"
    },
    {
      "inputs": [
        {
          "internalType": "address",
          "name": "gasTokenAddress",
          "type": "address"
        },
        {
          "internalType": "uint256",
          "name": "value",
          "type": "uint256"
        }
      ],
      "name": "burnDiscountedMinting",
      "outputs": [],
      "stateMutability": "nonpayable",
      "type": "function"
    },
    {
      "inputs": [
        {
          "internalType": "address",
          "name": "gasTokenAddress",
          "type": "address"
        },
        {
          "internalType": "uint256",
          "name": "value",
          "type": "uint256"
        }
      ],
      "name": "discountedMinting",
      "outputs": [],
      "stateMutability": "nonpayable",
      "type": "function"
    },
    {
      "inputs": [
        {
          "internalType": "address",
          "name": "gasTokenAddress",
          "type": "address"
        },
        {
          "internalType": "uint256",
          "name": "value",
          "type": "uint256"
        }
      ],
      "name": "rewardedMinting",
      "outputs": [],
      "stateMutability": "nonpayable",
      "type": "function"
    },
    {
      "inputs": [
        {
          "internalType": "address",
          "name": "gasTokenAddress",
          "type": "address"
        },
        {
          "internalType": "uint256",
          "name": "value",
          "type": "uint256"
        }
      ],
      "name": "claimToken",
      "outputs": [],
      "stateMutability": "nonpayable",
      "type": "function"
    },
    {
      "inputs": [
        {
          "internalType": "address",
          "name": "gasToken",
          "type": "address"
        },
        {
          "internalType": "uint256",
          "name": "mintType",
          "type": "uint256"
        },
        {
          "internalType": "uint256",
          "name": "isClaimable",
          "type": "uint256"
        }
      ],
      "name": "addGasToken",
      "outputs": [],
      "stateMutability": "nonpayable",
      "type": "function"
    },
    {
      "inputs": [
        {
          "internalType": "address",
          "name": "gasToken",
          "type": "address"
        }
      ],
      "name": "claimable",
      "outputs": [
        {
          "internalType": "uint256",
          "name": "",
          "type": "uint256"
        }
      ],
      "stateMutability": "view",
      "type": "function"
    },
    {
      "inputs": [
        {
          "internalType": "address",
          "name": "gasToken",
          "type": "address"
        }
      ],
      "name": "mintingType",
      "outputs": [
        {
          "internalType": "uint256",
          "name": "",
          "type": "uint256"
        }
      ],
      "stateMutability": "view",
      "type": "function"
    },
    {
      "inputs": [],
      "name": "totalStaked",
      "outputs": [
        {
          "internalType": "uint256",
          "name": "",
          "type": "uint256"
        }
      ],
      "stateMutability": "view",
      "type": "function"
    },
    {
      "inputs": [
        {
          "internalType": "address",
          "name": "user",
          "type": "address"
        }
      ],
      "name": "userStakeSize",
      "outputs": [
        {
          "internalType": "uint256",
          "name": "",
          "type": "uint256"
        }
      ],
      "stateMutability": "view",
      "type": "function"
    },
    {
      "inputs": [],
      "name": "totalRewards",
      "outputs": [
        {
          "internalType": "uint256",
          "name": "",
          "type": "uint256"
        }
      ],
      "stateMutability": "view",
      "type": "function"
    },
    {
      "inputs": [
        {
          "internalType": "address",
          "name": "user",
          "type": "address"
        }
      ],
      "name": "totalRewardUser",
      "outputs": [
        {
          "internalType": "uint256",
          "name": "",
          "type": "uint256"
        }
      ],
      "stateMutability": "view",
      "type": "function"
    },
    {
      "inputs": [
        {
          "internalType": "address",
          "name": "ownedContract",
          "type": "address"
        },
        {
          "internalType": "address",
          "name": "newOwner",
          "type": "address"
        }
      ],
      "name": "transferOwnershipOfSubcontract",
      "outputs": [],
      "stateMutability": "nonpayable",
      "type": "function"
    }
  ],
  "bytecode": "0x6080604052600060045569054b40b1f852bda0000060075569152d02c7e14af680000060085560006009553480156200003757600080fd5b506040516200311f3803806200311f83398181016040528101906200005d9190620001bd565b60006200006f6200019e60201b60201c565b9050806000806101000a81548173ffffffffffffffffffffffffffffffffffffffff021916908373ffffffffffffffffffffffffffffffffffffffff1602179055508073ffffffffffffffffffffffffffffffffffffffff16600073ffffffffffffffffffffffffffffffffffffffff167f8be0079c531659141344cd1fd0a4f28419497f9722a3daafe3b4186f6b6457e060405160405180910390a3506001808190555081600260006101000a81548173ffffffffffffffffffffffffffffffffffffffff021916908373ffffffffffffffffffffffffffffffffffffffff16021790555080600360006101000a81548173ffffffffffffffffffffffffffffffffffffffff021916908373ffffffffffffffffffffffffffffffffffffffff16021790555050506200024c565b600033905090565b600081519050620001b78162000232565b92915050565b60008060408385031215620001d157600080fd5b6000620001e185828601620001a6565b9250506020620001f485828601620001a6565b9150509250929050565b60006200020b8262000212565b9050919050565b600073ffffffffffffffffffffffffffffffffffffffff82169050919050565b6200023d81620001fe565b81146200024957600080fd5b50565b612ec3806200025c6000396000f3fe608060405234801561001057600080fd5b50600436106101215760003560e01c80637ef5c185116100ad578063a694fc3a11610071578063a694fc3a146102ba578063b986faff146102d6578063ca459eb5146102f2578063d59684ab14610322578063f2fde38b1461035257610121565b80637ef5c1851461022a578063817b1cd214610246578063829f0874146102645780638da5cb5b14610280578063a556a8181461029e57610121565b80632def6620116100f45780632def6620146101ac578063402914f5146101b657806354c5aee1146101e6578063715018a6146101f057806372ed601e146101fa57610121565b80630851482f146101265780630e15561a146101565780631698755f1461017457806329e7a69614610190575b600080fd5b610140600480360381019061013b919061224d565b61036e565b60405161014d9190612820565b60405180910390f35b61015e6103b7565b60405161016b9190612820565b60405180910390f35b61018e600480360381019061018991906122b2565b61048b565b005b6101aa60048036038101906101a591906122b2565b610a2d565b005b6101b4610c46565b005b6101d060048036038101906101cb919061224d565b610e9d565b6040516101dd9190612820565b60405180910390f35b6101ee610ee6565b005b6101f861118b565b005b610214600480360381019061020f919061224d565b6112c5565b6040516102219190612820565b60405180910390f35b610244600480360381019061023f91906122b2565b61130e565b005b61024e611514565b60405161025b9190612820565b60405180910390f35b61027e600480360381019061027991906122b2565b61151e565b005b6102886117a5565b60405161029591906125c5565b60405180910390f35b6102b860048036038101906102b391906122ee565b6117ce565b005b6102d460048036038101906102cf9190612366565b6118d7565b005b6102f060048036038101906102eb9190612276565b611b85565b005b61030c6004803603810190610307919061224d565b611c70565b6040516103199190612820565b60405180910390f35b61033c6004803603810190610337919061224d565b611cb9565b6040516103499190612820565b60405180910390f35b61036c6004803603810190610367919061224d565b611df6565b005b6000600c60008373ffffffffffffffffffffffffffffffffffffffff1673ffffffffffffffffffffffffffffffffffffffff168152602001908152602001600020549050919050565b6000600260009054906101000a900473ffffffffffffffffffffffffffffffffffffffff1673ffffffffffffffffffffffffffffffffffffffff166370a08231600360009054906101000a900473ffffffffffffffffffffffffffffffffffffffff166040518263ffffffff1660e01b815260040161043691906125c5565b60206040518083038186803b15801561044e57600080fd5b505afa158015610462573d6000803e3d6000fd5b505050506040513d601f19601f82011682018060405250810190610486919061238f565b905090565b600260015414156104d1576040517f08c379a00000000000000000000000000000000000000000000000000000000081526004016104c8906127e0565b60405180910390fd5b60026001819055506000600660008473ffffffffffffffffffffffffffffffffffffffff1673ffffffffffffffffffffffffffffffffffffffff16815260200190815260200160002054905060018114610560576040517f08c379a000000000000000000000000000000000000000000000000000000000815260040161055790612740565b60405180910390fd5b600854600a60003373ffffffffffffffffffffffffffffffffffffffff1673ffffffffffffffffffffffffffffffffffffffff1681526020019081526020016000205410156105e4576040517f08c379a00000000000000000000000000000000000000000000000000000000081526004016105db906127a0565b60405180910390fd5b6000600d60003373ffffffffffffffffffffffffffffffffffffffff1673ffffffffffffffffffffffffffffffffffffffff16815260200190815260200160002054146106c557615460610680600d60003373ffffffffffffffffffffffffffffffffffffffff1673ffffffffffffffffffffffffffffffffffffffff1681526020019081526020016000205442611f9f90919063ffffffff16565b116106c0576040517f08c379a00000000000000000000000000000000000000000000000000000000081526004016106b7906127c0565b60405180910390fd5b61075b565b61546061071a600b60003373ffffffffffffffffffffffffffffffffffffffff1673ffffffffffffffffffffffffffffffffffffffff1681526020019081526020016000205442611f9f90919063ffffffff16565b1161075a576040517f08c379a000000000000000000000000000000000000000000000000000000000815260040161075190612760565b60405180910390fd5b5b600082905060008473ffffffffffffffffffffffffffffffffffffffff166370a08231600360009054906101000a900473ffffffffffffffffffffffffffffffffffffffff166040518263ffffffff1660e01b81526004016107bd91906125c5565b60206040518083038186803b1580156107d557600080fd5b505afa1580156107e9573d6000803e3d6000fd5b505050506040513d601f19601f8201168201806040525081019061080d919061238f565b905061082361081d600583611fb5565b83611fb5565b9150600082141561083657505050610a22565b600260009054906101000a900473ffffffffffffffffffffffffffffffffffffffff1673ffffffffffffffffffffffffffffffffffffffff166379cc679033670de0b6b3a764000060018661088b9190612978565b6108959190612978565b6040518363ffffffff1660e01b81526004016108b2929190612677565b600060405180830381600087803b1580156108cc57600080fd5b505af11580156108e0573d6000803e3d6000fd5b50505050600360009054906101000a900473ffffffffffffffffffffffffffffffffffffffff1673ffffffffffffffffffffffffffffffffffffffff1663f5537ede8633856040518463ffffffff1660e01b815260040161094393929190612617565b600060405180830381600087803b15801561095d57600080fd5b505af1158015610971573d6000803e3d6000fd5b5050505042600d60003373ffffffffffffffffffffffffffffffffffffffff1673ffffffffffffffffffffffffffffffffffffffff168152602001908152602001600020819055508473ffffffffffffffffffffffffffffffffffffffff163373ffffffffffffffffffffffffffffffffffffffff167ff7a40077ff7a04c7e61f6f26fb13774259ddf1b6bce9ecf26a8276cdd399268384604051610a169190612820565b60405180910390a35050505b600180819055505050565b60026001541415610a73576040517f08c379a0000000000000000000000000000000000000000000000000000000008152600401610a6a906127e0565b60405180910390fd5b60026001819055506000600560008473ffffffffffffffffffffffffffffffffffffffff1673ffffffffffffffffffffffffffffffffffffffff1681526020019081526020016000205490506000811415610b03576040517f08c379a0000000000000000000000000000000000000000000000000000000008152600401610afa90612720565b60405180910390fd5b600260009054906101000a900473ffffffffffffffffffffffffffffffffffffffff1673ffffffffffffffffffffffffffffffffffffffff166379cc679033671bc16d674ec800006040518363ffffffff1660e01b8152600401610b6892919061264e565b600060405180830381600087803b158015610b8257600080fd5b505af1158015610b96573d6000803e3d6000fd5b505050506001811415610bb457610baf83836000611fce565b610c39565b6002811415610c32578273ffffffffffffffffffffffffffffffffffffffff16637e72014a836000336040518463ffffffff1660e01b8152600401610bfb9392919061283b565b600060405180830381600087803b158015610c1557600080fd5b505af1158015610c29573d6000803e3d6000fd5b50505050610c38565b50610c3b565b5b505b600180819055505050565b60026001541415610c8c576040517f08c379a0000000000000000000000000000000000000000000000000000000008152600401610c83906127e0565b60405180910390fd5b60026001819055506000600a60003373ffffffffffffffffffffffffffffffffffffffff1673ffffffffffffffffffffffffffffffffffffffff1681526020019081526020016000205490506000811415610ce75750610e94565b6000600a60003373ffffffffffffffffffffffffffffffffffffffff1673ffffffffffffffffffffffffffffffffffffffff168152602001908152602001600020819055506000600b60003373ffffffffffffffffffffffffffffffffffffffff1673ffffffffffffffffffffffffffffffffffffffff16815260200190815260200160002081905550610d8681600954611f9f90919063ffffffff16565b600981905550600260009054906101000a900473ffffffffffffffffffffffffffffffffffffffff1673ffffffffffffffffffffffffffffffffffffffff1663a9059cbb33836040518363ffffffff1660e01b8152600401610de9929190612677565b602060405180830381600087803b158015610e0357600080fd5b505af1158015610e17573d6000803e3d6000fd5b505050506040513d601f19601f82011682018060405250810190610e3b919061233d565b610e4457600080fd5b3373ffffffffffffffffffffffffffffffffffffffff167f0f5bb82176feb1b5e747e28471aa92156a04d9f3ab9f45f28e2d704232b93f7582604051610e8a9190612820565b60405180910390a2505b60018081905550565b6000600660008373ffffffffffffffffffffffffffffffffffffffff1673ffffffffffffffffffffffffffffffffffffffff168152602001908152602001600020549050919050565b60026001541415610f2c576040517f08c379a0000000000000000000000000000000000000000000000000000000008152600401610f23906127e0565b60405180910390fd5b60026001819055506000610f3e6103b7565b905060008111610f83576040517f08c379a0000000000000000000000000000000000000000000000000000000008152600401610f7a906126c0565b60405180910390fd5b6000610f8e33611cb9565b90506000811415610fa0575050611182565b610faa8282611fb5565b905042600b60003373ffffffffffffffffffffffffffffffffffffffff1673ffffffffffffffffffffffffffffffffffffffff1681526020019081526020016000208190555080600c60003373ffffffffffffffffffffffffffffffffffffffff1673ffffffffffffffffffffffffffffffffffffffff1681526020019081526020016000205461103b91906128f1565b600c60003373ffffffffffffffffffffffffffffffffffffffff1673ffffffffffffffffffffffffffffffffffffffff16815260200190815260200160002081905550600360009054906101000a900473ffffffffffffffffffffffffffffffffffffffff1673ffffffffffffffffffffffffffffffffffffffff1663f5537ede600260009054906101000a900473ffffffffffffffffffffffffffffffffffffffff1633846040518463ffffffff1660e01b81526004016110ff93929190612617565b600060405180830381600087803b15801561111957600080fd5b505af115801561112d573d6000803e3d6000fd5b505050503373ffffffffffffffffffffffffffffffffffffffff167f619caafabdd75649b302ba8419e48cccf64f37f1983ac4727cfb38b57703ffc9826040516111779190612820565b60405180910390a250505b60018081905550565b6111936121af565b73ffffffffffffffffffffffffffffffffffffffff166111b16117a5565b73ffffffffffffffffffffffffffffffffffffffff1614611207576040517f08c379a00000000000000000000000000000000000000000000000000000000081526004016111fe90612780565b60405180910390fd5b600073ffffffffffffffffffffffffffffffffffffffff1660008054906101000a900473ffffffffffffffffffffffffffffffffffffffff1673ffffffffffffffffffffffffffffffffffffffff167f8be0079c531659141344cd1fd0a4f28419497f9722a3daafe3b4186f6b6457e060405160405180910390a360008060006101000a81548173ffffffffffffffffffffffffffffffffffffffff021916908373ffffffffffffffffffffffffffffffffffffffff160217905550565b6000600a60008373ffffffffffffffffffffffffffffffffffffffff1673ffffffffffffffffffffffffffffffffffffffff168152602001908152602001600020549050919050565b60026001541415611354576040517f08c379a000000000000000000000000000000000000000000000000000000000815260040161134b906127e0565b60405180910390fd5b60026001819055506000600560008473ffffffffffffffffffffffffffffffffffffffff1673ffffffffffffffffffffffffffffffffffffffff16815260200190815260200160002054905060008114156113e4576040517f08c379a00000000000000000000000000000000000000000000000000000000081526004016113db90612720565b60405180910390fd5b600754600a60003373ffffffffffffffffffffffffffffffffffffffff1673ffffffffffffffffffffffffffffffffffffffff168152602001908152602001600020541015611468576040517f08c379a000000000000000000000000000000000000000000000000000000000815260040161145f906126a0565b60405180910390fd5b60018114156114825761147d83836001611fce565b611507565b6002811415611500578273ffffffffffffffffffffffffffffffffffffffff16637e72014a836001336040518463ffffffff1660e01b81526004016114c993929190612872565b600060405180830381600087803b1580156114e357600080fd5b505af11580156114f7573d6000803e3d6000fd5b50505050611506565b50611509565b5b505b600180819055505050565b6000600954905090565b60026001541415611564576040517f08c379a000000000000000000000000000000000000000000000000000000000815260040161155b906127e0565b60405180910390fd5b60026001819055506000600560008473ffffffffffffffffffffffffffffffffffffffff1673ffffffffffffffffffffffffffffffffffffffff16815260200190815260200160002054905060008114156115f4576040517f08c379a00000000000000000000000000000000000000000000000000000000081526004016115eb90612720565b60405180910390fd5b60006115fe6103b7565b1161163e576040517f08c379a0000000000000000000000000000000000000000000000000000000008152600401611635906126c0565b60405180910390fd5b60018114156116585761165383836002611fce565b6116dd565b60028114156116d6578273ffffffffffffffffffffffffffffffffffffffff16637e72014a836002336040518463ffffffff1660e01b815260040161169f939291906128a9565b600060405180830381600087803b1580156116b957600080fd5b505af11580156116cd573d6000803e3d6000fd5b505050506116dc565b5061179a565b5b600360009054906101000a900473ffffffffffffffffffffffffffffffffffffffff1673ffffffffffffffffffffffffffffffffffffffff1663f5537ede600260009054906101000a900473ffffffffffffffffffffffffffffffffffffffff16336706f05b59d3b200006040518463ffffffff1660e01b8152600401611766939291906125e0565b600060405180830381600087803b15801561178057600080fd5b505af1158015611794573d6000803e3d6000fd5b50505050505b600180819055505050565b60008060009054906101000a900473ffffffffffffffffffffffffffffffffffffffff16905090565b6117d66121af565b73ffffffffffffffffffffffffffffffffffffffff166117f46117a5565b73ffffffffffffffffffffffffffffffffffffffff161461184a576040517f08c379a000000000000000000000000000000000000000000000000000000000815260040161184190612780565b60405180910390fd5b81600560008573ffffffffffffffffffffffffffffffffffffffff1673ffffffffffffffffffffffffffffffffffffffff1681526020019081526020016000208190555080600660008573ffffffffffffffffffffffffffffffffffffffff1673ffffffffffffffffffffffffffffffffffffffff16815260200190815260200160002081905550505050565b6002600154141561191d576040517f08c379a0000000000000000000000000000000000000000000000000000000008152600401611914906127e0565b60405180910390fd5b6002600181905550600061193033611cb9565b14611970576040517f08c379a000000000000000000000000000000000000000000000000000000000815260040161196790612800565b60405180910390fd5b600081141561197e57611b7b565b600260009054906101000a900473ffffffffffffffffffffffffffffffffffffffff1673ffffffffffffffffffffffffffffffffffffffff166323b872dd3330846040518463ffffffff1660e01b81526004016119dd93929190612617565b602060405180830381600087803b1580156119f757600080fd5b505af1158015611a0b573d6000803e3d6000fd5b505050506040513d601f19601f82011682018060405250810190611a2f919061233d565b611a3857600080fd5b611a8a81600a60003373ffffffffffffffffffffffffffffffffffffffff1673ffffffffffffffffffffffffffffffffffffffff168152602001908152602001600020546121b790919063ffffffff16565b600a60003373ffffffffffffffffffffffffffffffffffffffff1673ffffffffffffffffffffffffffffffffffffffff1681526020019081526020016000208190555042600b60003373ffffffffffffffffffffffffffffffffffffffff1673ffffffffffffffffffffffffffffffffffffffff16815260200190815260200160002081905550611b26816009546121b790919063ffffffff16565b6009819055503373ffffffffffffffffffffffffffffffffffffffff167f9e71bc8eea02a63969f509818f2dafb9254532904319f9dbda79b67bd34a5f3d82604051611b729190612820565b60405180910390a25b6001808190555050565b611b8d6121af565b73ffffffffffffffffffffffffffffffffffffffff16611bab6117a5565b73ffffffffffffffffffffffffffffffffffffffff1614611c01576040517f08c379a0000000000000000000000000000000000000000000000000000000008152600401611bf890612780565b60405180910390fd5b8173ffffffffffffffffffffffffffffffffffffffff1663f2fde38b826040518263ffffffff1660e01b8152600401611c3a91906125c5565b600060405180830381600087803b158015611c5457600080fd5b505af1158015611c68573d6000803e3d6000fd5b505050505050565b6000600560008373ffffffffffffffffffffffffffffffffffffffff1673ffffffffffffffffffffffffffffffffffffffff168152602001908152602001600020549050919050565b600080600b60008473ffffffffffffffffffffffffffffffffffffffff1673ffffffffffffffffffffffffffffffffffffffff168152602001908152602001600020541415611d0b5760009050611df1565b6000611d5f600b60008573ffffffffffffffffffffffffffffffffffffffff1673ffffffffffffffffffffffffffffffffffffffff1681526020019081526020016000205442611f9f90919063ffffffff16565b90506000611d78610e10836121cd90919063ffffffff16565b90506000611dd0615dc0600a60008873ffffffffffffffffffffffffffffffffffffffff1673ffffffffffffffffffffffffffffffffffffffff168152602001908152602001600020546121cd90919063ffffffff16565b90506000611de782846121e390919063ffffffff16565b9050809450505050505b919050565b611dfe6121af565b73ffffffffffffffffffffffffffffffffffffffff16611e1c6117a5565b73ffffffffffffffffffffffffffffffffffffffff1614611e72576040517f08c379a0000000000000000000000000000000000000000000000000000000008152600401611e6990612780565b60405180910390fd5b600073ffffffffffffffffffffffffffffffffffffffff168173ffffffffffffffffffffffffffffffffffffffff161415611ee2576040517f08c379a0000000000000000000000000000000000000000000000000000000008152600401611ed9906126e0565b60405180910390fd5b8073ffffffffffffffffffffffffffffffffffffffff1660008054906101000a900473ffffffffffffffffffffffffffffffffffffffff1673ffffffffffffffffffffffffffffffffffffffff167f8be0079c531659141344cd1fd0a4f28419497f9722a3daafe3b4186f6b6457e060405160405180910390a3806000806101000a81548173ffffffffffffffffffffffffffffffffffffffff021916908373ffffffffffffffffffffffffffffffffffffffff16021790555050565b60008183611fad91906129d2565b905092915050565b6000818310611fc45781611fc6565b825b905092915050565b6000600560008573ffffffffffffffffffffffffffffffffffffffff1673ffffffffffffffffffffffffffffffffffffffff16815260200190815260200160002054905060018114612055576040517f08c379a000000000000000000000000000000000000000000000000000000000815260040161204c90612720565b60405180910390fd5b600061206a8385611f9f90919063ffffffff16565b9050600081116120af576040517f08c379a00000000000000000000000000000000000000000000000000000000081526004016120a690612700565b60405180910390fd5b8473ffffffffffffffffffffffffffffffffffffffff1663a0712d68856040518263ffffffff1660e01b81526004016120e89190612820565b600060405180830381600087803b15801561210257600080fd5b505af1158015612116573d6000803e3d6000fd5b505050508473ffffffffffffffffffffffffffffffffffffffff1663a9059cbb33836040518363ffffffff1660e01b8152600401612155929190612677565b602060405180830381600087803b15801561216f57600080fd5b505af1158015612183573d6000803e3d6000fd5b505050506040513d601f19601f820116820180604052508101906121a7919061233d565b505050505050565b600033905090565b600081836121c591906128f1565b905092915050565b600081836121db9190612947565b905092915050565b600081836121f19190612978565b905092915050565b60008135905061220881612e48565b92915050565b60008151905061221d81612e5f565b92915050565b60008135905061223281612e76565b92915050565b60008151905061224781612e76565b92915050565b60006020828403121561225f57600080fd5b600061226d848285016121f9565b91505092915050565b6000806040838503121561228957600080fd5b6000612297858286016121f9565b92505060206122a8858286016121f9565b9150509250929050565b600080604083850312156122c557600080fd5b60006122d3858286016121f9565b92505060206122e485828601612223565b9150509250929050565b60008060006060848603121561230357600080fd5b6000612311868287016121f9565b935050602061232286828701612223565b925050604061233386828701612223565b9150509250925092565b60006020828403121561234f57600080fd5b600061235d8482850161220e565b91505092915050565b60006020828403121561237857600080fd5b600061238684828501612223565b91505092915050565b6000602082840312156123a157600080fd5b60006123af84828501612238565b91505092915050565b6123c181612a06565b82525050565b6123d081612a4e565b82525050565b6123df81612a60565b82525050565b6123ee81612a72565b82525050565b6123fd81612a84565b82525050565b61240c81612a96565b82525050565b600061241f602c836128e0565b915061242a82612b06565b604082019050919050565b6000612442602d836128e0565b915061244d82612b55565b604082019050919050565b60006124656026836128e0565b915061247082612ba4565b604082019050919050565b60006124886027836128e0565b915061249382612bf3565b604082019050919050565b60006124ab6017836128e0565b91506124b682612c42565b602082019050919050565b60006124ce6019836128e0565b91506124d982612c6b565b602082019050919050565b60006124f16031836128e0565b91506124fc82612c94565b604082019050919050565b60006125146020836128e0565b915061251f82612ce3565b602082019050919050565b60006125376037836128e0565b915061254282612d0c565b604082019050919050565b600061255a6037836128e0565b915061256582612d5b565b604082019050919050565b600061257d601f836128e0565b915061258882612daa565b602082019050919050565b60006125a06043836128e0565b91506125ab82612dd3565b606082019050919050565b6125bf81612a44565b82525050565b60006020820190506125da60008301846123b8565b92915050565b60006060820190506125f560008301866123b8565b61260260208301856123b8565b61260f6040830184612403565b949350505050565b600060608201905061262c60008301866123b8565b61263960208301856123b8565b61264660408301846125b6565b949350505050565b600060408201905061266360008301856123b8565b61267060208301846123e5565b9392505050565b600060408201905061268c60008301856123b8565b61269960208301846125b6565b9392505050565b600060208201905081810360008301526126b981612412565b9050919050565b600060208201905081810360008301526126d981612435565b9050919050565b600060208201905081810360008301526126f981612458565b9050919050565b600060208201905081810360008301526127198161247b565b9050919050565b600060208201905081810360008301526127398161249e565b9050919050565b60006020820190508181036000830152612759816124c1565b9050919050565b60006020820190508181036000830152612779816124e4565b9050919050565b6000602082019050818103600083015261279981612507565b9050919050565b600060208201905081810360008301526127b98161252a565b9050919050565b600060208201905081810360008301526127d98161254d565b9050919050565b600060208201905081810360008301526127f981612570565b9050919050565b6000602082019050818103600083015261281981612593565b9050919050565b600060208201905061283560008301846125b6565b92915050565b600060608201905061285060008301866125b6565b61285d60208301856123c7565b61286a60408301846123b8565b949350505050565b600060608201905061288760008301866125b6565b61289460208301856123d6565b6128a160408301846123b8565b949350505050565b60006060820190506128be60008301866125b6565b6128cb60208301856123f4565b6128d860408301846123b8565b949350505050565b600082825260208201905092915050565b60006128fc82612a44565b915061290783612a44565b9250827fffffffffffffffffffffffffffffffffffffffffffffffffffffffffffffffff0382111561293c5761293b612aa8565b5b828201905092915050565b600061295282612a44565b915061295d83612a44565b92508261296d5761296c612ad7565b5b828204905092915050565b600061298382612a44565b915061298e83612a44565b9250817fffffffffffffffffffffffffffffffffffffffffffffffffffffffffffffffff04831182151516156129c7576129c6612aa8565b5b828202905092915050565b60006129dd82612a44565b91506129e883612a44565b9250828210156129fb576129fa612aa8565b5b828203905092915050565b6000612a1182612a24565b9050919050565b60008115159050919050565b600073ffffffffffffffffffffffffffffffffffffffff82169050919050565b6000819050919050565b6000612a5982612a44565b9050919050565b6000612a6b82612a44565b9050919050565b6000612a7d82612a44565b9050919050565b6000612a8f82612a44565b9050919050565b6000612aa182612a44565b9050919050565b7f4e487b7100000000000000000000000000000000000000000000000000000000600052601160045260246000fd5b7f4e487b7100000000000000000000000000000000000000000000000000000000600052601260045260246000fd5b7f475356453a205573657220686173206e6f74207374616b656420656e6f75676860008201527f20746f20646973636f756e740000000000000000000000000000000000000000602082015250565b7f475356453a20636f6e7472616374206861732072616e206f7574206f6620726560008201527f776172647320746f206769766500000000000000000000000000000000000000602082015250565b7f4f776e61626c653a206e6577206f776e657220697320746865207a65726f206160008201527f6464726573730000000000000000000000000000000000000000000000000000602082015250565b7f475356453a205573657220617474656d7074656420746f206d696e7420746f6f60008201527f206c6974746c6500000000000000000000000000000000000000000000000000602082015250565b7f475356453a20556e737570706f7274656420546f6b656e000000000000000000600082015250565b7f475356453a20546f6b656e206e6f7420636c61696d61626c6500000000000000600082015250565b7f475356453a20557365722063616e6e6f7420636c61696d2077697468696e203660008201527f20686f757273206f66207374616b696e67000000000000000000000000000000602082015250565b7f4f776e61626c653a2063616c6c6572206973206e6f7420746865206f776e6572600082015250565b7f475356453a205573657220686173206e6f74207374616b656420656e6f75676860008201527f20746f20636c61696d2066726f6d2074686520706f6f6c000000000000000000602082015250565b7f475356453a20557365722063616e6e6f7420636c61696d20746865206761732060008201527f746f6b656e7320747769636520696e203620686f757273000000000000000000602082015250565b7f5265656e7472616e637947756172643a207265656e7472616e742063616c6c00600082015250565b7f475356453a205573657220686173207374616b6520726577617264732074686560008201527f79206d75737420636c61696d206265666f7265207570646174696e672073746160208201527f6b652e0000000000000000000000000000000000000000000000000000000000604082015250565b612e5181612a06565b8114612e5c57600080fd5b50565b612e6881612a18565b8114612e7357600080fd5b50565b612e7f81612a44565b8114612e8a57600080fd5b5056fea2646970667358221220a8431b01aa0e4dd19b44ce9762637bab0484c644f448c74e869612f773d715ad64736f6c63430008040033",
  "immutableReferences": {},
  "source": "// SPDX-License-Identifier: MIT\r\npragma solidity ^0.8.0;\r\n\r\nimport \"@openzeppelin/contracts/utils/math/Math.sol\";\r\nimport \"@openzeppelin/contracts/utils/math/SafeMath.sol\";\r\nimport \"@openzeppelin/contracts/token/ERC20/IERC20.sol\";\r\nimport \"@openzeppelin/contracts/access/Ownable.sol\";\r\nimport \"@openzeppelin/contracts/security/ReentrancyGuard.sol\";\r\n\r\nimport \"./IGasToken.sol\";\r\nimport \"./IWrappedGasToken.sol\";\r\n\r\n/**\r\n* @dev Interface for interacting with protocol token\r\n*/\r\ninterface IGSVEProtocolToken {\r\n    function burn(uint256 amount) external ;\r\n    function burnFrom(address account, uint256 amount) external;\r\n}\r\n\r\n/**\r\n* @dev Interface for interacting with the gas vault\r\n*/\r\ninterface IGSVEVault {\r\n    function transferToken(address token, address recipient, uint256 amount) external;\r\n}\r\n\r\ncontract GSVEStakeCore is Ownable, ReentrancyGuard{\r\n    using SafeMath for uint256;\r\n    \r\n    //address of our protocol utility token\r\n    address private GSVEToken;\r\n\r\n    address private GSVEVault;\r\n\r\n    //supported gas tokens\r\n    uint256 private totalSupportedGasTokens = 0;\r\n\r\n    //system is in place to prevent reentrancy from untrusted tokens\r\n    mapping(address => uint256) private _mintingType;\r\n    mapping(address => uint256) private _claimable;\r\n\r\n    //fee stake threshholds;\r\n    uint256 private tierOneThreshold = 25000 * (10**18);\r\n    uint256 private tierTwoThreshold = 100000 * (10**18);\r\n\r\n    uint256 private _totalStaked = 0;\r\n\r\n    //staking  \r\n    mapping(address => uint256) private userStakes;\r\n    mapping(address => uint256) private userStakeTimes;\r\n    mapping(address => uint256) private userTotalRewards;\r\n\r\n    mapping(address => uint256) private userClaimTimes;\r\n\r\n    /**\r\n     * @dev the constructor allows us to set the gsve token\r\n     * as the token we are using for staking and other protocol features\r\n     * also lets us set the vault address.\r\n     */\r\n    constructor(address _tokenAddress, address _vaultAddress) {\r\n        GSVEToken = _tokenAddress;\r\n        GSVEVault = _vaultAddress;\r\n    }\r\n\r\n\r\n    /**\r\n     * @dev A function that allows a user to stake tokens. \r\n     * If they have a rewards from a stake already, they must claim this first.\r\n     */\r\n    function stake(uint256 value) public nonReentrant() {\r\n        require(calculateStakeReward(msg.sender) == 0, \"GSVE: User has stake rewards they must claim before updating stake.\");\r\n\r\n        if (value == 0){\r\n            return;\r\n        }\r\n        require(IERC20(GSVEToken).transferFrom(msg.sender, address(this), value));\r\n        userStakes[msg.sender] = userStakes[msg.sender].add(value);\r\n        userStakeTimes[msg.sender] = block.timestamp;\r\n        _totalStaked = _totalStaked.add(value);\r\n        emit Staked(msg.sender, value);\r\n    }\r\n\r\n    /**\r\n     * @dev A function that allows a user to fully unstake.\r\n     */\r\n    function unstake() public nonReentrant() {\r\n        uint256 stakeSize = userStakes[msg.sender];\r\n        if (stakeSize == 0){\r\n            return;\r\n        }\r\n        userStakes[msg.sender] = 0;\r\n        userStakeTimes[msg.sender] = 0;\r\n        _totalStaked = _totalStaked.sub(stakeSize);\r\n        require(IERC20(GSVEToken).transfer(msg.sender, stakeSize));\r\n        emit Unstaked(msg.sender, stakeSize);\r\n    }\r\n\r\n    /**\r\n     * @dev A function that allows us to calculate the total rewards a user has not claimed yet.\r\n     */\r\n    function calculateStakeReward(address rewardedAddress) public view returns(uint256){\r\n        if(userStakeTimes[rewardedAddress] == 0){\r\n            return 0;\r\n        }\r\n\r\n        uint256 timeDifference = block.timestamp.sub(userStakeTimes[rewardedAddress]);\r\n        uint256 rewardPeriod = timeDifference.div((60*60*1));\r\n        uint256 rewardPerPeriod = userStakes[rewardedAddress].div(24000);\r\n        uint256 reward = rewardPeriod.mul(rewardPerPeriod);\r\n\r\n        return reward;\r\n    }\r\n\r\n    /**\r\n     * @dev A function that allows a user to collect the stake reward entitled to them\r\n     * in the situation where the rewards pool does not have enough tokens\r\n     * then the user is given as much as they can be given.\r\n     */\r\n    function collectReward() public nonReentrant() {\r\n        uint256 remainingRewards = totalRewards();\r\n        require(remainingRewards > 0, \"GSVE: contract has ran out of rewards to give\");\r\n\r\n        uint256 reward = calculateStakeReward(msg.sender);\r\n        if(reward == 0){\r\n            return;\r\n        }\r\n\r\n        reward = Math.min(remainingRewards, reward);\r\n        userStakeTimes[msg.sender] = block.timestamp;\r\n        userTotalRewards[msg.sender] = userTotalRewards[msg.sender] + reward;\r\n        IGSVEVault(GSVEVault).transferToken(GSVEToken, msg.sender, reward);\r\n        emit Reward(msg.sender, reward);\r\n    }\r\n\r\n    /**\r\n     * @dev A function that allows a user to burn some GSVE to avoid paying the protocol mint/wrap fee.\r\n     */\r\n    function burnDiscountedMinting(address gasTokenAddress, uint256 value) public nonReentrant() {\r\n        uint256 mintType = _mintingType[gasTokenAddress];\r\n        require(mintType != 0, \"GSVE: Unsupported Token\");\r\n        IGSVEProtocolToken(GSVEToken).burnFrom(msg.sender, 2*10**18);\r\n\r\n        if(mintType == 1){\r\n            convenientMinting(gasTokenAddress, value, 0);\r\n        }\r\n        else if (mintType == 2){\r\n            IWrappedGasToken(gasTokenAddress).discountedMint(value, 0, msg.sender);\r\n        }\r\n        else{\r\n            return;\r\n        }\r\n    }\r\n\r\n    /**\r\n     * @dev A function that allows a user to benefit from a lower protocol fee, based on the stake that they have.\r\n     */\r\n    function discountedMinting(address gasTokenAddress, uint256 value) public nonReentrant(){\r\n        uint256 mintType = _mintingType[gasTokenAddress];\r\n        require(mintType != 0, \"GSVE: Unsupported Token\");\r\n        require(userStakes[msg.sender] >= tierOneThreshold , \"GSVE: User has not staked enough to discount\");\r\n\r\n        if(mintType == 1){\r\n            convenientMinting(gasTokenAddress, value, 1);\r\n        }\r\n        else if (mintType == 2){\r\n            IWrappedGasToken(gasTokenAddress).discountedMint(value, 1, msg.sender);\r\n        }\r\n        else{\r\n            return;\r\n        }\r\n    }\r\n    \r\n    /**\r\n     * @dev A function that allows a user to be rewarded tokens by minting or wrapping\r\n     * they pay full fees for this operation.\r\n     */\r\n    function rewardedMinting(address gasTokenAddress, uint256 value) public nonReentrant(){\r\n        uint256 mintType = _mintingType[gasTokenAddress];\r\n        require(mintType != 0, \"GSVE: Unsupported Token\");\r\n        require(totalRewards() > 0, \"GSVE: contract has ran out of rewards to give\");\r\n        if(mintType == 1){\r\n            convenientMinting(gasTokenAddress, value, 2);\r\n        }\r\n        else if (mintType == 2){\r\n            IWrappedGasToken(gasTokenAddress).discountedMint(value, 2, msg.sender);\r\n        }\r\n        else{\r\n            return;\r\n        }\r\n\r\n        IGSVEVault(GSVEVault).transferToken(GSVEToken, msg.sender, 5*10**17);\r\n    }\r\n\r\n    /**\r\n     * @dev A function that allows us to mint non-wrapped tokens from the convenience of this smart contract.\r\n     * taking a portion of portion of the minted tokens as payment for this convenience.\r\n     */\r\n    function convenientMinting(address gasTokenAddress, uint256 value, uint256 fee) internal {\r\n        uint256 mintType = _mintingType[gasTokenAddress];\r\n        require(mintType == 1, \"GSVE: Unsupported Token\");\r\n\r\n        uint256 userTokens = value.sub(fee);\r\n        require(userTokens > 0, \"GSVE: User attempted to mint too little\");\r\n        IGasToken(gasTokenAddress).mint(value);\r\n        IERC20(gasTokenAddress).transfer(msg.sender, userTokens);\r\n    }\r\n\r\n    /**\r\n     * @dev A function that allows a user to claim tokens from the pool\r\n     * The user burns 1 GSVE for each token they take.\r\n     * They are limited to one claim action every 6 hours, and can claim up to 5 tokens per claim.\r\n     */\r\n    function claimToken(address gasTokenAddress, uint256 value) public nonReentrant() {\r\n\r\n        uint256 isClaimable = _claimable[gasTokenAddress];\r\n        require(isClaimable == 1, \"GSVE: Token not claimable\");\r\n        require(userStakes[msg.sender] >= tierTwoThreshold , \"GSVE: User has not staked enough to claim from the pool\");\r\n        \r\n        if(userClaimTimes[msg.sender] != 0){\r\n            require(block.timestamp.sub(userClaimTimes[msg.sender]) > 60 * 60 * 6, \"GSVE: User cannot claim the gas tokens twice in 6 hours\");\r\n        }\r\n        else{\r\n            require(block.timestamp.sub(userStakeTimes[msg.sender]) > 60 * 60 * 6, \"GSVE: User cannot claim within 6 hours of staking\");\r\n        }\r\n\r\n        uint256 tokensGiven = value;\r\n\r\n        uint256 tokensAvailableToClaim = IERC20(gasTokenAddress).balanceOf(GSVEVault);\r\n        tokensGiven = Math.min(Math.min(5, tokensAvailableToClaim), tokensGiven);\r\n\r\n        if(tokensGiven == 0){\r\n            return;\r\n        }\r\n\r\n        IGSVEProtocolToken(GSVEToken).burnFrom(msg.sender, tokensGiven*1*10**18);\r\n        IGSVEVault(GSVEVault).transferToken(gasTokenAddress, msg.sender, tokensGiven);\r\n        userClaimTimes[msg.sender] = block.timestamp;\r\n        emit Claimed(msg.sender, gasTokenAddress, tokensGiven);\r\n    }\r\n\r\n    /**\r\n     * @dev A function that allows us to enable gas tokens for use with this contract.\r\n     */\r\n    function addGasToken(address gasToken, uint256 mintType, uint256 isClaimable) public onlyOwner{\r\n        _mintingType[gasToken] = mintType;\r\n        _claimable[gasToken] = isClaimable;\r\n    }\r\n\r\n    /**\r\n     * @dev A function that allows us to easily check claim type of the token.\r\n     */\r\n    function claimable(address gasToken) public view returns (uint256){\r\n        return _claimable[gasToken];\r\n    }\r\n\r\n    /**\r\n     * @dev A function that allows us to check the mint type of the token.\r\n     */\r\n    function mintingType(address gasToken) public view returns (uint256){\r\n        return _mintingType[gasToken];\r\n    }\r\n\r\n    /**\r\n     * @dev A function that allows us to see the total stake of everyone in the protocol.\r\n     */\r\n    function totalStaked() public view returns (uint256){\r\n        return _totalStaked;\r\n    }\r\n\r\n    /**\r\n     * @dev A function that allows us to see the stake size of a specific staker.\r\n     */\r\n    function userStakeSize(address user)  public view returns (uint256){\r\n        return userStakes[user]; \r\n    }\r\n\r\n    /**\r\n     * @dev A function that allows us to see how much rewards the vault has available right now.\r\n     */    \r\n     function totalRewards()  public view returns (uint256){\r\n        return IERC20(GSVEToken).balanceOf(GSVEVault); \r\n    }\r\n\r\n    /**\r\n     * @dev A function that allows us to see how much rewards a user has claimed\r\n     */\r\n    function totalRewardUser(address user)  public view returns (uint256){\r\n        return userTotalRewards[user]; \r\n    }\r\n\r\n    /**\r\n     * @dev A function that allows us to reassign ownership of the contracts that this contract owns. \r\n     /* Enabling future smartcontract upgrades without the complexity of proxy/proxy upgrades.\r\n     */\r\n    function transferOwnershipOfSubcontract(address ownedContract, address newOwner) public onlyOwner{\r\n        Ownable(ownedContract).transferOwnership(newOwner);\r\n    }\r\n\r\n    event Claimed(address indexed _from, address indexed _token, uint _value);\r\n\r\n    event Reward(address indexed _from, uint _value);\r\n\r\n    event Staked(address indexed _from, uint _value);\r\n\r\n    event Unstaked(address indexed _from, uint _value);\r\n}\r\n",
  "sourcePath": "C:/Users/khera/Documents/GitHub/GasSwapTokens/contracts/GSVEStakeCore.sol",
  "compiler": {
    "name": "solc",
    "version": "0.8.4+commit.c7e474f2.Emscripten.clang"
  },
  "schemaVersion": "3.3.4",
  "updatedAt": "2021-05-08T09:50:55.548Z",
  "devdoc": {
    "kind": "dev",
    "methods": {
      "addGasToken(address,uint256,uint256)": {
        "details": "A function that allows us to enable gas tokens for use with this contract."
      },
      "burnDiscountedMinting(address,uint256)": {
        "details": "A function that allows a user to burn some GSVE to avoid paying the protocol mint/wrap fee."
      },
      "calculateStakeReward(address)": {
        "details": "A function that allows us to calculate the total rewards a user has not claimed yet."
      },
      "claimToken(address,uint256)": {
        "details": "A function that allows a user to claim tokens from the pool The user burns 1 GSVE for each token they take. They are limited to one claim action every 6 hours, and can claim up to 5 tokens per claim."
      },
      "claimable(address)": {
        "details": "A function that allows us to easily check claim type of the token."
      },
      "collectReward()": {
        "details": "A function that allows a user to collect the stake reward entitled to them in the situation where the rewards pool does not have enough tokens then the user is given as much as they can be given."
      },
      "constructor": {
        "details": "the constructor allows us to set the gsve token as the token we are using for staking and other protocol features also lets us set the vault address."
      },
      "discountedMinting(address,uint256)": {
        "details": "A function that allows a user to benefit from a lower protocol fee, based on the stake that they have."
      },
      "mintingType(address)": {
        "details": "A function that allows us to check the mint type of the token."
      },
      "owner()": {
        "details": "Returns the address of the current owner."
      },
      "renounceOwnership()": {
        "details": "Leaves the contract without owner. It will not be possible to call `onlyOwner` functions anymore. Can only be called by the current owner. NOTE: Renouncing ownership will leave the contract without an owner, thereby removing any functionality that is only available to the owner."
      },
      "rewardedMinting(address,uint256)": {
        "details": "A function that allows a user to be rewarded tokens by minting or wrapping they pay full fees for this operation."
      },
      "stake(uint256)": {
        "details": "A function that allows a user to stake tokens.  If they have a rewards from a stake already, they must claim this first."
      },
      "totalRewardUser(address)": {
        "details": "A function that allows us to see how much rewards a user has claimed"
      },
      "totalRewards()": {
        "details": "A function that allows us to see how much rewards the vault has available right now."
      },
      "totalStaked()": {
        "details": "A function that allows us to see the total stake of everyone in the protocol."
      },
      "transferOwnership(address)": {
        "details": "Transfers ownership of the contract to a new account (`newOwner`). Can only be called by the current owner."
      },
      "transferOwnershipOfSubcontract(address,address)": {
        "details": "A function that allows us to reassign ownership of the contracts that this contract owns.  /* Enabling future smartcontract upgrades without the complexity of proxy/proxy upgrades."
      },
      "unstake()": {
        "details": "A function that allows a user to fully unstake."
      },
      "userStakeSize(address)": {
        "details": "A function that allows us to see the stake size of a specific staker."
      }
    },
    "version": 1
  },
  "userdoc": {
    "kind": "user",
    "methods": {},
    "version": 1
  }
}