{
  "contractName": "GSVEVault",
  "abi": [
    {
      "anonymous": false,
      "inputs": [
        {
          "indexed": true,
          "internalType": "address",
          "name": "previousOwner",
          "type": "address"
        },
        {
          "indexed": true,
          "internalType": "address",
          "name": "newOwner",
          "type": "address"
        }
      ],
      "name": "OwnershipTransferred",
      "type": "event"
    },
    {
      "inputs": [],
      "name": "owner",
      "outputs": [
        {
          "internalType": "address",
          "name": "",
          "type": "address"
        }
      ],
      "stateMutability": "view",
      "type": "function"
    },
    {
      "inputs": [],
      "name": "renounceOwnership",
      "outputs": [],
      "stateMutability": "nonpayable",
      "type": "function"
    },
    {
      "inputs": [
        {
          "internalType": "address",
          "name": "newOwner",
          "type": "address"
        }
      ],
      "name": "transferOwnership",
      "outputs": [],
      "stateMutability": "nonpayable",
      "type": "function"
    },
    {
      "inputs": [
        {
          "internalType": "address",
          "name": "token",
          "type": "address"
        },
        {
          "internalType": "address",
          "name": "recipient",
          "type": "address"
        },
        {
          "internalType": "uint256",
          "name": "amount",
          "type": "uint256"
        }
      ],
      "name": "transferToken",
      "outputs": [],
      "stateMutability": "nonpayable",
      "type": "function"
    }
  ],
  "bytecode": "0x608060405234801561001057600080fd5b5060006100216100c460201b60201c565b9050806000806101000a81548173ffffffffffffffffffffffffffffffffffffffff021916908373ffffffffffffffffffffffffffffffffffffffff1602179055508073ffffffffffffffffffffffffffffffffffffffff16600073ffffffffffffffffffffffffffffffffffffffff167f8be0079c531659141344cd1fd0a4f28419497f9722a3daafe3b4186f6b6457e060405160405180910390a3506100cc565b600033905090565b6107e8806100db6000396000f3fe608060405234801561001057600080fd5b506004361061004c5760003560e01c8063715018a6146100515780638da5cb5b1461005b578063f2fde38b14610079578063f5537ede14610095575b600080fd5b6100596100b1565b005b6100636101eb565b6040516100709190610618565b60405180910390f35b610093600480360381019061008e9190610513565b610214565b005b6100af60048036038101906100aa919061053c565b6103bd565b005b6100b96104cc565b73ffffffffffffffffffffffffffffffffffffffff166100d76101eb565b73ffffffffffffffffffffffffffffffffffffffff161461012d576040517f08c379a00000000000000000000000000000000000000000000000000000000081526004016101249061067c565b60405180910390fd5b600073ffffffffffffffffffffffffffffffffffffffff1660008054906101000a900473ffffffffffffffffffffffffffffffffffffffff1673ffffffffffffffffffffffffffffffffffffffff167f8be0079c531659141344cd1fd0a4f28419497f9722a3daafe3b4186f6b6457e060405160405180910390a360008060006101000a81548173ffffffffffffffffffffffffffffffffffffffff021916908373ffffffffffffffffffffffffffffffffffffffff160217905550565b60008060009054906101000a900473ffffffffffffffffffffffffffffffffffffffff16905090565b61021c6104cc565b73ffffffffffffffffffffffffffffffffffffffff1661023a6101eb565b73ffffffffffffffffffffffffffffffffffffffff1614610290576040517f08c379a00000000000000000000000000000000000000000000000000000000081526004016102879061067c565b60405180910390fd5b600073ffffffffffffffffffffffffffffffffffffffff168173ffffffffffffffffffffffffffffffffffffffff161415610300576040517f08c379a00000000000000000000000000000000000000000000000000000000081526004016102f79061065c565b60405180910390fd5b8073ffffffffffffffffffffffffffffffffffffffff1660008054906101000a900473ffffffffffffffffffffffffffffffffffffffff1673ffffffffffffffffffffffffffffffffffffffff167f8be0079c531659141344cd1fd0a4f28419497f9722a3daafe3b4186f6b6457e060405160405180910390a3806000806101000a81548173ffffffffffffffffffffffffffffffffffffffff021916908373ffffffffffffffffffffffffffffffffffffffff16021790555050565b6103c56104cc565b73ffffffffffffffffffffffffffffffffffffffff166103e36101eb565b73ffffffffffffffffffffffffffffffffffffffff1614610439576040517f08c379a00000000000000000000000000000000000000000000000000000000081526004016104309061067c565b60405180910390fd5b8273ffffffffffffffffffffffffffffffffffffffff1663a9059cbb83836040518363ffffffff1660e01b8152600401610474929190610633565b602060405180830381600087803b15801561048e57600080fd5b505af11580156104a2573d6000803e3d6000fd5b505050506040513d601f19601f820116820180604052508101906104c6919061058b565b50505050565b600033905090565b6000813590506104e38161076d565b92915050565b6000815190506104f881610784565b92915050565b60008135905061050d8161079b565b92915050565b60006020828403121561052557600080fd5b6000610533848285016104d4565b91505092915050565b60008060006060848603121561055157600080fd5b600061055f868287016104d4565b9350506020610570868287016104d4565b9250506040610581868287016104fe565b9150509250925092565b60006020828403121561059d57600080fd5b60006105ab848285016104e9565b91505092915050565b6105bd816106ad565b82525050565b60006105d060268361069c565b91506105db826106f5565b604082019050919050565b60006105f360208361069c565b91506105fe82610744565b602082019050919050565b610612816106eb565b82525050565b600060208201905061062d60008301846105b4565b92915050565b600060408201905061064860008301856105b4565b6106556020830184610609565b9392505050565b60006020820190508181036000830152610675816105c3565b9050919050565b60006020820190508181036000830152610695816105e6565b9050919050565b600082825260208201905092915050565b60006106b8826106cb565b9050919050565b60008115159050919050565b600073ffffffffffffffffffffffffffffffffffffffff82169050919050565b6000819050919050565b7f4f776e61626c653a206e6577206f776e657220697320746865207a65726f206160008201527f6464726573730000000000000000000000000000000000000000000000000000602082015250565b7f4f776e61626c653a2063616c6c6572206973206e6f7420746865206f776e6572600082015250565b610776816106ad565b811461078157600080fd5b50565b61078d816106bf565b811461079857600080fd5b50565b6107a4816106eb565b81146107af57600080fd5b5056fea26469706673582212206c65bd967292571c65f6bc12bc92f0895d561caec105f89ce0c171ae835841a564736f6c63430008040033",
  "immutableReferences": {},
  "source": "// SPDX-License-Identifier: MIT\r\npragma solidity ^0.8.0;\r\n\r\nimport \"@openzeppelin/contracts/token/ERC20/IERC20.sol\";\r\nimport \"@openzeppelin/contracts/access/Ownable.sol\";\r\n\r\n/**\r\n* @dev This smart contract is a \"vault\"\r\n* it holds onto the fees that the protocol has gathered\r\n* and any GSVE that is to be rewarded from protocol iteraction\r\n*/\r\ncontract GSVEVault is Ownable{\r\n    function transferToken(address token, address recipient, uint256 amount) public onlyOwner{\r\n        IERC20(token).transfer(recipient, amount);\r\n    }\r\n}\r\n",
  "sourcePath": "C:/Users/khera/Documents/GitHub/GasSwapTokens/contracts/GSVEVault.sol",
  "compiler": {
    "name": "solc",
    "version": "0.8.4+commit.c7e474f2.Emscripten.clang"
  },
  "schemaVersion": "3.3.4",
  "updatedAt": "2021-05-06T11:17:03.892Z",
  "devdoc": {
    "details": "This smart contract is a \"vault\" it holds onto the fees that the protocol has gathered and any GSVE that is to be rewarded from protocol iteraction",
    "kind": "dev",
    "methods": {
      "owner()": {
        "details": "Returns the address of the current owner."
      },
      "renounceOwnership()": {
        "details": "Leaves the contract without owner. It will not be possible to call `onlyOwner` functions anymore. Can only be called by the current owner. NOTE: Renouncing ownership will leave the contract without an owner, thereby removing any functionality that is only available to the owner."
      },
      "transferOwnership(address)": {
        "details": "Transfers ownership of the contract to a new account (`newOwner`). Can only be called by the current owner."
      }
    },
    "version": 1
  },
  "userdoc": {
    "kind": "user",
    "methods": {},
    "version": 1
  }
}