{
  "contractName": "GSVETransactionWrapper",
  "abi": [
    {
      "anonymous": false,
      "inputs": [
        {
          "indexed": true,
          "internalType": "address",
          "name": "previousOwner",
          "type": "address"
        },
        {
          "indexed": true,
          "internalType": "address",
          "name": "newOwner",
          "type": "address"
        }
      ],
      "name": "OwnershipTransferred",
      "type": "event"
    },
    {
      "inputs": [],
      "name": "owner",
      "outputs": [
        {
          "internalType": "address",
          "name": "",
          "type": "address"
        }
      ],
      "stateMutability": "view",
      "type": "function"
    },
    {
      "inputs": [],
      "name": "renounceOwnership",
      "outputs": [],
      "stateMutability": "nonpayable",
      "type": "function"
    },
    {
      "inputs": [
        {
          "internalType": "address",
          "name": "newOwner",
          "type": "address"
        }
      ],
      "name": "transferOwnership",
      "outputs": [],
      "stateMutability": "nonpayable",
      "type": "function"
    },
    {
      "inputs": [
        {
          "internalType": "address",
          "name": "gasToken",
          "type": "address"
        }
      ],
      "name": "addGasToken",
      "outputs": [],
      "stateMutability": "nonpayable",
      "type": "function"
    },
    {
      "inputs": [
        {
          "internalType": "address",
          "name": "gasToken",
          "type": "address"
        }
      ],
      "name": "compatibleGasToken",
      "outputs": [
        {
          "internalType": "uint256",
          "name": "",
          "type": "uint256"
        }
      ],
      "stateMutability": "view",
      "type": "function"
    },
    {
      "inputs": [
        {
          "internalType": "bytes",
          "name": "data",
          "type": "bytes"
        },
        {
          "internalType": "address",
          "name": "contractAddress",
          "type": "address"
        },
        {
          "internalType": "address",
          "name": "gasToken",
          "type": "address"
        }
      ],
      "name": "wrapTransaction",
      "outputs": [],
      "stateMutability": "payable",
      "type": "function"
    },
    {
      "inputs": [],
      "name": "withdrawBalance",
      "outputs": [],
      "stateMutability": "nonpayable",
      "type": "function"
    },
    {
      "inputs": [
        {
          "internalType": "address",
          "name": "token",
          "type": "address"
        }
      ],
      "name": "withdrawTokenBalance",
      "outputs": [],
      "stateMutability": "nonpayable",
      "type": "function"
    }
  ],
  "bytecode": "0x608060405234801561001057600080fd5b5060006100216100c460201b60201c565b9050806000806101000a81548173ffffffffffffffffffffffffffffffffffffffff021916908373ffffffffffffffffffffffffffffffffffffffff1602179055508073ffffffffffffffffffffffffffffffffffffffff16600073ffffffffffffffffffffffffffffffffffffffff167f8be0079c531659141344cd1fd0a4f28419497f9722a3daafe3b4186f6b6457e060405160405180910390a3506100cc565b600033905090565b611507806100db6000396000f3fe60806040526004361061007b5760003560e01c80638e13fd781161004e5780638e13fd781461010257806390bb61531461013f578063bc1a921c14610168578063f2fde38b146101845761007b565b80630f76f830146100805780635fd8c710146100a9578063715018a6146100c05780638da5cb5b146100d7575b600080fd5b34801561008c57600080fd5b506100a760048036038101906100a29190610dec565b6101ad565b005b3480156100b557600080fd5b506100be610270565b005b3480156100cc57600080fd5b506100d5610342565b005b3480156100e357600080fd5b506100ec61047c565b6040516100f99190611021565b60405180910390f35b34801561010e57600080fd5b5061012960048036038101906101249190610dec565b6104a5565b6040516101369190611127565b60405180910390f35b34801561014b57600080fd5b5061016660048036038101906101619190610dec565b6104ee565b005b610182600480360381019061017d9190610e3e565b61069d565b005b34801561019057600080fd5b506101ab60048036038101906101a69190610dec565b610a0c565b005b6101b5610bb5565b73ffffffffffffffffffffffffffffffffffffffff166101d361047c565b73ffffffffffffffffffffffffffffffffffffffff1614610229576040517f08c379a0000000000000000000000000000000000000000000000000000000008152600401610220906110e7565b60405180910390fd5b60018060008373ffffffffffffffffffffffffffffffffffffffff1673ffffffffffffffffffffffffffffffffffffffff1681526020019081526020016000208190555050565b610278610bb5565b73ffffffffffffffffffffffffffffffffffffffff1661029661047c565b73ffffffffffffffffffffffffffffffffffffffff16146102ec576040517f08c379a00000000000000000000000000000000000000000000000000000000081526004016102e3906110e7565b60405180910390fd5b60006102f661047c565b90508073ffffffffffffffffffffffffffffffffffffffff166108fc479081150290604051600060405180830381858888f1935050505015801561033e573d6000803e3d6000fd5b5050565b61034a610bb5565b73ffffffffffffffffffffffffffffffffffffffff1661036861047c565b73ffffffffffffffffffffffffffffffffffffffff16146103be576040517f08c379a00000000000000000000000000000000000000000000000000000000081526004016103b5906110e7565b60405180910390fd5b600073ffffffffffffffffffffffffffffffffffffffff1660008054906101000a900473ffffffffffffffffffffffffffffffffffffffff1673ffffffffffffffffffffffffffffffffffffffff167f8be0079c531659141344cd1fd0a4f28419497f9722a3daafe3b4186f6b6457e060405160405180910390a360008060006101000a81548173ffffffffffffffffffffffffffffffffffffffff021916908373ffffffffffffffffffffffffffffffffffffffff160217905550565b60008060009054906101000a900473ffffffffffffffffffffffffffffffffffffffff16905090565b6000600160008373ffffffffffffffffffffffffffffffffffffffff1673ffffffffffffffffffffffffffffffffffffffff168152602001908152602001600020549050919050565b6104f6610bb5565b73ffffffffffffffffffffffffffffffffffffffff1661051461047c565b73ffffffffffffffffffffffffffffffffffffffff161461056a576040517f08c379a0000000000000000000000000000000000000000000000000000000008152600401610561906110e7565b60405180910390fd5b600081905060008173ffffffffffffffffffffffffffffffffffffffff166370a0823161059561047c565b6040518263ffffffff1660e01b81526004016105b19190611021565b60206040518083038186803b1580156105c957600080fd5b505afa1580156105dd573d6000803e3d6000fd5b505050506040513d601f19601f820116820180604052508101906106019190610eaa565b90508173ffffffffffffffffffffffffffffffffffffffff1663a9059cbb61062761047c565b836040518363ffffffff1660e01b815260040161064592919061103c565b602060405180830381600087803b15801561065f57600080fd5b505af1158015610673573d6000803e3d6000fd5b505050506040513d601f19601f820116820180604052508101906106979190610e15565b50505050565b8060018060008373ffffffffffffffffffffffffffffffffffffffff1673ffffffffffffffffffffffffffffffffffffffff168152602001908152602001600020541461071f576040517f08c379a000000000000000000000000000000000000000000000000000000000815260040161071690611087565b60405180910390fd5b60005a905061072c610bb5565b73ffffffffffffffffffffffffffffffffffffffff1661074a61047c565b73ffffffffffffffffffffffffffffffffffffffff16146107a0576040517f08c379a0000000000000000000000000000000000000000000000000000000008152600401610797906110e7565b60405180910390fd5b6107bf8473ffffffffffffffffffffffffffffffffffffffff16610bbd565b6107c857610924565b600034111561087d5761087786868080601f016020809104026020016040519081016040528093929190818152602001838380828437600081840152601f19601f82011690508083019250505050505050346040518060400160405280602081526020017f47533a204572726f7220666f7277617264696e67207472616e73616374696f6e8152508773ffffffffffffffffffffffffffffffffffffffff16610bd0909392919063ffffffff16565b50610923565b61092186868080601f016020809104026020016040519081016040528093929190818152602001838380828437600081840152601f19601f820116905080830192505050505050506040518060400160405280602081526020017f47533a204572726f7220666f7277617264696e67207472616e73616374696f6e8152508673ffffffffffffffffffffffffffffffffffffffff16610ce49092919063ffffffff16565b505b5b600080369050601061093691906111fb565b5a836152086109459190611174565b61094f9190611255565b6109599190611174565b90508273ffffffffffffffffffffffffffffffffffffffff1663079d229f33615dc061374a856109899190611174565b61099391906111ca565b6040518363ffffffff1660e01b81526004016109b092919061103c565b602060405180830381600087803b1580156109ca57600080fd5b505af11580156109de573d6000803e3d6000fd5b505050506040513d601f19601f82011682018060405250810190610a029190610eaa565b5050505050505050565b610a14610bb5565b73ffffffffffffffffffffffffffffffffffffffff16610a3261047c565b73ffffffffffffffffffffffffffffffffffffffff1614610a88576040517f08c379a0000000000000000000000000000000000000000000000000000000008152600401610a7f906110e7565b60405180910390fd5b600073ffffffffffffffffffffffffffffffffffffffff168173ffffffffffffffffffffffffffffffffffffffff161415610af8576040517f08c379a0000000000000000000000000000000000000000000000000000000008152600401610aef906110a7565b60405180910390fd5b8073ffffffffffffffffffffffffffffffffffffffff1660008054906101000a900473ffffffffffffffffffffffffffffffffffffffff1673ffffffffffffffffffffffffffffffffffffffff167f8be0079c531659141344cd1fd0a4f28419497f9722a3daafe3b4186f6b6457e060405160405180910390a3806000806101000a81548173ffffffffffffffffffffffffffffffffffffffff021916908373ffffffffffffffffffffffffffffffffffffffff16021790555050565b600033905090565b600080823b905060008111915050919050565b606082471015610c15576040517f08c379a0000000000000000000000000000000000000000000000000000000008152600401610c0c906110c7565b60405180910390fd5b610c1e85610bbd565b610c5d576040517f08c379a0000000000000000000000000000000000000000000000000000000008152600401610c5490611107565b60405180910390fd5b6000808673ffffffffffffffffffffffffffffffffffffffff168587604051610c86919061100a565b60006040518083038185875af1925050503d8060008114610cc3576040519150601f19603f3d011682016040523d82523d6000602084013e610cc8565b606091505b5091509150610cd8828286610cfc565b92505050949350505050565b6060610cf38484600085610bd0565b90509392505050565b60608315610d0c57829050610d5c565b600083511115610d1f5782518084602001fd5b816040517f08c379a0000000000000000000000000000000000000000000000000000000008152600401610d539190611065565b60405180910390fd5b9392505050565b600081359050610d728161148c565b92915050565b600081519050610d87816114a3565b92915050565b60008083601f840112610d9f57600080fd5b8235905067ffffffffffffffff811115610db857600080fd5b602083019150836001820283011115610dd057600080fd5b9250929050565b600081519050610de6816114ba565b92915050565b600060208284031215610dfe57600080fd5b6000610e0c84828501610d63565b91505092915050565b600060208284031215610e2757600080fd5b6000610e3584828501610d78565b91505092915050565b60008060008060608587031215610e5457600080fd5b600085013567ffffffffffffffff811115610e6e57600080fd5b610e7a87828801610d8d565b94509450506020610e8d87828801610d63565b9250506040610e9e87828801610d63565b91505092959194509250565b600060208284031215610ebc57600080fd5b6000610eca84828501610dd7565b91505092915050565b610edc81611289565b82525050565b6000610eed82611142565b610ef78185611158565b9350610f078185602086016112d1565b80840191505092915050565b6000610f1e8261114d565b610f288185611163565b9350610f388185602086016112d1565b610f4181611362565b840191505092915050565b6000610f59601883611163565b9150610f6482611373565b602082019050919050565b6000610f7c602683611163565b9150610f878261139c565b604082019050919050565b6000610f9f602683611163565b9150610faa826113eb565b604082019050919050565b6000610fc2602083611163565b9150610fcd8261143a565b602082019050919050565b6000610fe5601d83611163565b9150610ff082611463565b602082019050919050565b611004816112c7565b82525050565b60006110168284610ee2565b915081905092915050565b60006020820190506110366000830184610ed3565b92915050565b60006040820190506110516000830185610ed3565b61105e6020830184610ffb565b9392505050565b6000602082019050818103600083015261107f8184610f13565b905092915050565b600060208201905081810360008301526110a081610f4c565b9050919050565b600060208201905081810360008301526110c081610f6f565b9050919050565b600060208201905081810360008301526110e081610f92565b9050919050565b6000602082019050818103600083015261110081610fb5565b9050919050565b6000602082019050818103600083015261112081610fd8565b9050919050565b600060208201905061113c6000830184610ffb565b92915050565b600081519050919050565b600081519050919050565b600081905092915050565b600082825260208201905092915050565b600061117f826112c7565b915061118a836112c7565b9250827fffffffffffffffffffffffffffffffffffffffffffffffffffffffffffffffff038211156111bf576111be611304565b5b828201905092915050565b60006111d5826112c7565b91506111e0836112c7565b9250826111f0576111ef611333565b5b828204905092915050565b6000611206826112c7565b9150611211836112c7565b9250817fffffffffffffffffffffffffffffffffffffffffffffffffffffffffffffffff048311821515161561124a57611249611304565b5b828202905092915050565b6000611260826112c7565b915061126b836112c7565b92508282101561127e5761127d611304565b5b828203905092915050565b6000611294826112a7565b9050919050565b60008115159050919050565b600073ffffffffffffffffffffffffffffffffffffffff82169050919050565b6000819050919050565b60005b838110156112ef5780820151818401526020810190506112d4565b838111156112fe576000848401525b50505050565b7f4e487b7100000000000000000000000000000000000000000000000000000000600052601160045260246000fd5b7f4e487b7100000000000000000000000000000000000000000000000000000000600052601260045260246000fd5b6000601f19601f8301169050919050565b7f475356453a20696e636f6d70617469626c6520746f6b656e0000000000000000600082015250565b7f4f776e61626c653a206e6577206f776e657220697320746865207a65726f206160008201527f6464726573730000000000000000000000000000000000000000000000000000602082015250565b7f416464726573733a20696e73756666696369656e742062616c616e636520666f60008201527f722063616c6c0000000000000000000000000000000000000000000000000000602082015250565b7f4f776e61626c653a2063616c6c6572206973206e6f7420746865206f776e6572600082015250565b7f416464726573733a2063616c6c20746f206e6f6e2d636f6e7472616374000000600082015250565b61149581611289565b81146114a057600080fd5b50565b6114ac8161129b565b81146114b757600080fd5b50565b6114c3816112c7565b81146114ce57600080fd5b5056fea264697066735822122085d6ed0594e8978843008cc99ce93249b2c4fae1e05c76330f56c1c07fd2672464736f6c63430008040033",
  "immutableReferences": {},
  "source": "pragma solidity ^0.8.0;\r\n\r\nimport \"@openzeppelin/contracts/utils/Address.sol\";\r\nimport \"@openzeppelin/contracts/token/ERC20/IERC20.sol\";\r\nimport \"@openzeppelin/contracts/access/Ownable.sol\";\r\nimport \"./IGSVEToken.sol\";\r\n\r\ninterface IFreeFromUpTo {\r\n    function freeFromUpTo(address from, uint256 value) external returns (uint256 freed);\r\n}\r\n\r\ncontract GSVETransactionWrapper is Ownable {\r\n    using Address for address;\r\n    mapping(address => uint256) private _compatibleGasTokens;\r\n\r\n    function addGasToken(address gasToken) public onlyOwner{\r\n        _compatibleGasTokens[gasToken] = 1;\r\n    }\r\n\r\n    function compatibleGasToken(address gasToken) public view returns(uint256){\r\n        return _compatibleGasTokens[gasToken];\r\n    }\r\n\r\n    modifier discountGas(address gasToken) {\r\n        require(_compatibleGasTokens[gasToken] == 1, \"GSVE: incompatible token\");\r\n        uint256 gasStart = gasleft();\r\n        _;\r\n        uint256 gasSpent = 21000 + gasStart - gasleft() + 16 * msg.data.length;\r\n        IFreeFromUpTo(gasToken).freeFromUpTo(msg.sender,  (gasSpent + 14154) / 24000);\r\n    }\r\n    \r\n    function wrapTransaction(bytes calldata data, address contractAddress, address gasToken) public discountGas(gasToken) payable onlyOwner{\r\n        if(!contractAddress.isContract()){\r\n            return;\r\n        }\r\n\r\n        if(msg.value > 0){\r\n            contractAddress.functionCallWithValue(data, msg.value, \"GS: Error forwarding transaction\");\r\n        }\r\n        else{\r\n            contractAddress.functionCall(data, \"GS: Error forwarding transaction\");\r\n        }\r\n    }\r\n\r\n    function withdrawBalance() public onlyOwner{\r\n        address payable ownerAddress = payable(owner());\r\n        ownerAddress.transfer(address(this).balance);\r\n    }\r\n\r\n    function withdrawTokenBalance(address token) public onlyOwner{\r\n        IERC20 tokenContract = IERC20(token);\r\n        uint256 balance = tokenContract.balanceOf(owner());\r\n        tokenContract.transfer(owner(), balance);\r\n    }\r\n}\r\n",
  "sourcePath": "C:/Users/khera/Documents/GitHub/GasSwapTokens/contracts/GSVETransactionWrapper.sol",
  "compiler": {
    "name": "solc",
    "version": "0.8.4+commit.c7e474f2.Emscripten.clang"
  },
  "schemaVersion": "3.3.4",
  "updatedAt": "2021-04-29T08:48:16.589Z",
  "devdoc": {
    "kind": "dev",
    "methods": {
      "owner()": {
        "details": "Returns the address of the current owner."
      },
      "renounceOwnership()": {
        "details": "Leaves the contract without owner. It will not be possible to call `onlyOwner` functions anymore. Can only be called by the current owner. NOTE: Renouncing ownership will leave the contract without an owner, thereby removing any functionality that is only available to the owner."
      },
      "transferOwnership(address)": {
        "details": "Transfers ownership of the contract to a new account (`newOwner`). Can only be called by the current owner."
      }
    },
    "version": 1
  },
  "userdoc": {
    "kind": "user",
    "methods": {},
    "version": 1
  }
}