{"abi":[{"type":"constructor","inputs":[],"stateMutability":"nonpayable"},{"name":"OwnershipTransferred","type":"event","inputs":[{"name":"previousOwner","type":"address","indexed":true,"internalType":"address"},{"name":"newOwner","type":"address","indexed":true,"internalType":"address"}],"anonymous":false},{"type":"receive","payable":true,"stateMutability":"payable"},{"name":"init","type":"function","inputs":[{"name":"initialOwner","type":"address","internalType":"address"}],"outputs":[],"stateMutability":"nonpayable"},{"name":"wrapTransaction","type":"function","inputs":[{"name":"data","type":"bytes","internalType":"bytes"},{"name":"contractAddress","type":"address","internalType":"address"},{"name":"value","type":"uint256","internalType":"uint256"},{"name":"gasToken","type":"address","internalType":"address"},{"name":"tokenFreeValue","type":"uint256","internalType":"uint256"},{"name":"sender","type":"bool","internalType":"bool"}],"outputs":[],"payable":true,"stateMutability":"payable"},{"name":"withdrawBalance","type":"function","inputs":[],"outputs":[],"stateMutability":"nonpayable"},{"name":"withdrawTokenBalance","type":"function","inputs":[{"name":"token","type":"address","internalType":"address"}],"outputs":[],"stateMutability":"nonpayable"},{"name":"owner","type":"function","inputs":[],"outputs":[{"name":"","type":"address","internalType":"address"}],"constant":true,"stateMutability":"view"},{"name":"transferOwnership","type":"function","inputs":[{"name":"newOwner","type":"address","internalType":"address"}],"outputs":[],"stateMutability":"nonpayable"}],"devdoc":{"kind":"dev","details":"The v1 smart wrapper is the core gas saving feature it can interact with other smart contracts it burns gas to save on the transaction fee only the owner/deployer of the smart contract can interact with it only the owner can send tokens from the address (smart contract) only the owner can withdraw tokens of any type, and this goes directly to the owner.","methods":{"owner()":{"details":"Returns the address of the current owner."},"init(address)":{"details":"Initializes the contract setting the deployer as the initial owner. also sets the GSVE token reference"},"withdrawBalance()":{"details":"function that the user can trigger to withdraw the entire balance of their wrapper back to themselves."},"transferOwnership(address)":{"details":"Transfers ownership of the contract to a new account (`newOwner`). Can only be called by the current owner."},"withdrawTokenBalance(address)":{"details":"function that the user can trigger to withdraw an entire token balance from the wrapper to themselves"},"wrapTransaction(bytes,address,uint256,address,uint256,bool)":{"details":"the wrapTransaction function interacts with other smart contracts on the users behalf this wrapper works for any smart contract as long as the dApp/smart contract the wrapper is interacting with has the correct approvals for balances within this wrapper if the function requires a payment, this is handled too and sent from the wrapper balance."}},"version":1},"source":"// SPDX-License-Identifier: MIT\npragma solidity ^0.8.0;\n\nimport \"@openzeppelin/contracts/utils/Address.sol\";\n\n/**\n* @dev interface to allow gas tokens to be burned from the wrapper\n*/\ninterface IFreeUp {\n    function freeUpTo(uint256 value) external returns (uint256 freed);\n    function freeFromUpTo(address from, uint256 value) external returns (uint256 freed);\n}\n\n/**\n* @dev interface to allow gsve to be burned for upgrades\n*/\ninterface IToken {\n    function burnFrom(address account, uint256 amount) external;\n    function balanceOf(address account) external view returns (uint256);\n    function transfer(address recipient, uint256 amount) external returns (bool);\n}\n\n\n/**\n* @dev The v1 smart wrapper is the core gas saving feature\n* it can interact with other smart contracts\n* it burns gas to save on the transaction fee\n* only the owner/deployer of the smart contract can interact with it\n* only the owner can send tokens from the address (smart contract)\n* only the owner can withdraw tokens of any type, and this goes directly to the owner.\n*/\ncontract GSVESmartWrapper {\n    using Address for address;\n    address private _owner;\n\n    constructor () public {\n        init(msg.sender);\n    }\n\n    /**\n     * @dev Initializes the contract setting the deployer as the initial owner.\n     * also sets the GSVE token reference\n     */\n    function init (address initialOwner) public {\n        require(_owner == address(0), \"This contract is already owned\");\n        _owner = initialOwner;\n        emit OwnershipTransferred(address(0), initialOwner);\n    }\n\n    /**\n    * @dev allow the contract to recieve funds. \n    * This will be needed for dApps that check balances before enabling transaction creation.\n    */\n    receive() external payable{}\n\n    /**\n    * @dev GSVE moddifier that burns gas tokens if the sender wants to burn them\n    * burning them if the sender wants to burn them\n    */\n    modifier discountGas(address gasToken, uint256 tokenFreeValue, bool sender) {\n        if(gasToken != address(0)){\n            uint256 gasStart = gasleft();\n            _;\n            uint256 gasSpent = 21000 + gasStart - gasleft() + 16 * msg.data.length;\n\n            if(tokenFreeValue == 0 || gasSpent < 48000){\n                return;\n            }\n\n            if(sender){\n                IFreeUp(gasToken).freeFromUpTo(msg.sender, (gasSpent + 16000) / tokenFreeValue);\n            }\n            else{\n                IFreeUp(gasToken).freeUpTo((gasSpent + 16000) / tokenFreeValue);\n            }\n        }\n        else {\n            _;\n        }\n    }\n    \n    /**\n    * @dev the wrapTransaction function interacts with other smart contracts on the users behalf\n    * this wrapper works for any smart contract\n    * as long as the dApp/smart contract the wrapper is interacting with has the correct approvals for balances within this wrapper\n    * if the function requires a payment, this is handled too and sent from the wrapper balance.\n    */\n    function wrapTransaction(bytes calldata data, address contractAddress, uint256 value, address gasToken, uint256 tokenFreeValue, bool sender) external discountGas(gasToken, tokenFreeValue, sender) payable onlyOwner{\n        if(!contractAddress.isContract()){\n            return;\n        }\n\n        if(value > 0){\n            contractAddress.functionCallWithValue(data, value, \"GS: Error forwarding transaction\");\n        }\n        else{\n            contractAddress.functionCall(data, \"GS: Error forwarding transaction\");\n        }\n    }\n\n    /**\n    * @dev function that the user can trigger to withdraw the entire balance of their wrapper back to themselves.\n    */\n    function withdrawBalance() public onlyOwner{\n        owner().call{value: address(this).balance, gas:gasleft()}(\"\");\n    }\n\n    /**\n    * @dev function that the user can trigger to withdraw an entire token balance from the wrapper to themselves\n    */\n    function withdrawTokenBalance(address token) external onlyOwner{\n        IToken tokenContract = IToken(token);\n        uint256 balance = tokenContract.balanceOf(address(this));\n        tokenContract.transfer(owner(), balance);\n    }\n\n    /**\n     * @dev Returns the address of the current owner.\n     */\n    function owner() public view virtual returns (address) {\n        return _owner;\n    }\n\n    /**\n     * @dev Throws if called by any account other than the owner.\n     */\n    modifier onlyOwner() {\n        require(owner() == _msgSender(), \"Ownable: caller is not the owner\");\n        _;\n    }\n\n    /**\n     * @dev Transfers ownership of the contract to a new account (`newOwner`).\n     * Can only be called by the current owner.\n     */\n    function transferOwnership(address newOwner) public virtual onlyOwner {\n        require(newOwner != address(0), \"Ownable: new owner is the zero address\");\n        emit OwnershipTransferred(_owner, newOwner);\n        _owner = newOwner;\n    }\n\n    function _msgSender() internal view virtual returns (address) {\n        return msg.sender;\n    }\n\n    event OwnershipTransferred(address indexed previousOwner, address indexed newOwner);\n}\n","userdoc":{"kind":"user","methods":{},"version":1},"bytecode":"0x608060405234801561001057600080fd5b5061001a3361001f565b6100c7565b6000546001600160a01b03161561007c5760405162461bcd60e51b815260206004820152601e60248201527f5468697320636f6e747261637420697320616c7265616479206f776e65640000604482015260640160405180910390fd5b600080546001600160a01b0319166001600160a01b03831690811782556040519091907f8be0079c531659141344cd1fd0a4f28419497f9722a3daafe3b4186f6b6457e0908290a350565b610cc5806100d66000396000f3fe6080604052600436106100595760003560e01c80630d55a76d1461006557806319ab453c1461007a5780635fd8c7101461009a5780638da5cb5b146100af57806390bb6153146100db578063f2fde38b146100fb57600080fd5b3661006057005b600080fd5b610078610073366004610a61565b61011b565b005b34801561008657600080fd5b50610078610095366004610a2b565b610530565b3480156100a657600080fd5b506100786105d4565b3480156100bb57600080fd5b50600054604080516001600160a01b039092168252519081900360200190f35b3480156100e757600080fd5b506100786100f6366004610a2b565b610651565b34801561010757600080fd5b50610078610116366004610a2b565b6107a0565b8282826001600160a01b038316156103fd5760005a6000549091506001600160a01b031633146101665760405162461bcd60e51b815260040161015d90610b79565b60405180910390fd5b6001600160a01b0389163b61017a57610263565b87156101f4576101ee8b8b8080601f01602080910402602001604051908101604052809392919081815260200183838082843760009201919091525050604080518082019091526020808252600080516020610c70833981519152908201526001600160a01b038e169392508c915061088a565b50610263565b6102618b8b8080601f01602080910402602001604051908101604052809392919081815260200183838082843760009201919091525050604080518082019091526020808252600080516020610c70833981519152908201526001600160a01b038e1693925090506109b2565b505b6000610270366010610be6565b5a61027d84615208610bae565b6102879190610c05565b6102919190610bae565b90508315806102a1575061bb8081105b156102ad575050610524565b821561035e576001600160a01b03851663079d229f33866102d085613e80610bae565b6102da9190610bc6565b6040516001600160e01b031960e085901b1681526001600160a01b0390921660048301526024820152604401602060405180830381600087803b15801561032057600080fd5b505af1158015610334573d6000803e3d6000fd5b505050506040513d601f19601f820116820180604052508101906103589190610b12565b506103f6565b6001600160a01b038516636366b9368561037a84613e80610bae565b6103849190610bc6565b6040518263ffffffff1660e01b81526004016103a291815260200190565b602060405180830381600087803b1580156103bc57600080fd5b505af11580156103d0573d6000803e3d6000fd5b505050506040513d601f19601f820116820180604052508101906103f49190610b12565b505b5050610524565b6000546001600160a01b031633146104275760405162461bcd60e51b815260040161015d90610b79565b6001600160a01b0388163b61043b57610524565b86156104b5576104af8a8a8080601f01602080910402602001604051908101604052809392919081815260200183838082843760009201919091525050604080518082019091526020808252600080516020610c70833981519152908201526001600160a01b038d169392508b915061088a565b50610524565b6105228a8a8080601f01602080910402602001604051908101604052809392919081815260200183838082843760009201919091525050604080518082019091526020808252600080516020610c70833981519152908201526001600160a01b038d1693925090506109b2565b505b50505050505050505050565b6000546001600160a01b0316156105895760405162461bcd60e51b815260206004820152601e60248201527f5468697320636f6e747261637420697320616c7265616479206f776e65640000604482015260640161015d565b600080546001600160a01b0319166001600160a01b03831690811782556040519091907f8be0079c531659141344cd1fd0a4f28419497f9722a3daafe3b4186f6b6457e0908290a350565b6000546001600160a01b031633146105fe5760405162461bcd60e51b815260040161015d90610b79565b6000546001600160a01b0316475a6040519091906000818181858888f193505050503d806000811461064c576040519150601f19603f3d011682016040523d82523d6000602084013e505050565b505050565b6000546001600160a01b0316331461067b5760405162461bcd60e51b815260040161015d90610b79565b6040516370a0823160e01b815230600482015281906000906001600160a01b038316906370a082319060240160206040518083038186803b1580156106bf57600080fd5b505afa1580156106d3573d6000803e3d6000fd5b505050506040513d601f19601f820116820180604052508101906106f79190610b12565b9050816001600160a01b031663a9059cbb61071a6000546001600160a01b031690565b6040516001600160e01b031960e084901b1681526001600160a01b03909116600482015260248101849052604401602060405180830381600087803b15801561076257600080fd5b505af1158015610776573d6000803e3d6000fd5b505050506040513d601f19601f8201168201806040525081019061079a9190610a45565b50505050565b6000546001600160a01b031633146107ca5760405162461bcd60e51b815260040161015d90610b79565b6001600160a01b03811661082f5760405162461bcd60e51b815260206004820152602660248201527f4f776e61626c653a206e6577206f776e657220697320746865207a65726f206160448201526564647265737360d01b606482015260840161015d565b600080546040516001600160a01b03808516939216917f8be0079c531659141344cd1fd0a4f28419497f9722a3daafe3b4186f6b6457e091a3600080546001600160a01b0319166001600160a01b0392909216919091179055565b6060824710156108eb5760405162461bcd60e51b815260206004820152602660248201527f416464726573733a20696e73756666696369656e742062616c616e636520666f6044820152651c8818d85b1b60d21b606482015260840161015d565b843b6109395760405162461bcd60e51b815260206004820152601d60248201527f416464726573733a2063616c6c20746f206e6f6e2d636f6e7472616374000000604482015260640161015d565b600080866001600160a01b031685876040516109559190610b2a565b60006040518083038185875af1925050503d8060008114610992576040519150601f19603f3d011682016040523d82523d6000602084013e610997565b606091505b50915091506109a78282866109cb565b979650505050505050565b60606109c1848460008561088a565b90505b9392505050565b606083156109da5750816109c4565b8251156109ea5782518084602001fd5b8160405162461bcd60e51b815260040161015d9190610b46565b80356001600160a01b0381168114610a1b57600080fd5b919050565b8035610a1b81610c5e565b600060208284031215610a3c578081fd5b6109c482610a04565b600060208284031215610a56578081fd5b81516109c481610c5e565b600080600080600080600060c0888a031215610a7b578283fd5b873567ffffffffffffffff80821115610a92578485fd5b818a0191508a601f830112610aa5578485fd5b813581811115610ab3578586fd5b8b6020828501011115610ac4578586fd5b602092830199509750610ada918a019050610a04565b945060408801359350610aef60608901610a04565b925060808801359150610b0460a08901610a20565b905092959891949750929550565b600060208284031215610b23578081fd5b5051919050565b60008251610b3c818460208701610c1c565b9190910192915050565b6020815260008251806020840152610b65816040850160208701610c1c565b601f01601f19169190910160400192915050565b6020808252818101527f4f776e61626c653a2063616c6c6572206973206e6f7420746865206f776e6572604082015260600190565b60008219821115610bc157610bc1610c48565b500190565b600082610be157634e487b7160e01b81526012600452602481fd5b500490565b6000816000190483118215151615610c0057610c00610c48565b500290565b600082821015610c1757610c17610c48565b500390565b60005b83811015610c37578181015183820152602001610c1f565b8381111561079a5750506000910152565b634e487b7160e01b600052601160045260246000fd5b8015158114610c6c57600080fd5b5056fe47533a204572726f7220666f7277617264696e67207472616e73616374696f6ea26469706673582212205c23900797196213d852c0e3b988a82842f18d2f834bd6345a0b51eb6844675e64736f6c63430008040033","compiler":{"name":"solc","version":"0.8.4+commit.c7e474f2.Emscripten.clang"},"updatedAt":"2021-05-18T16:57:42.761Z","sourcePath":"/C/Users/khera/Documents/GitHub/GasSwapTokens/contracts/GSVESmartWrapper.sol","networkType":"ethereum","contractName":"GSVESmartWrapper","schemaVersion":"3.4.1","immutableReferences":{}}