{
  "contractName": "GSVEToken",
  "abi": [
    {
      "inputs": [],
      "stateMutability": "nonpayable",
      "type": "constructor"
    },
    {
      "anonymous": false,
      "inputs": [
        {
          "indexed": true,
          "internalType": "address",
          "name": "owner",
          "type": "address"
        },
        {
          "indexed": true,
          "internalType": "address",
          "name": "spender",
          "type": "address"
        },
        {
          "indexed": false,
          "internalType": "uint256",
          "name": "value",
          "type": "uint256"
        }
      ],
      "name": "Approval",
      "type": "event"
    },
    {
      "anonymous": false,
      "inputs": [
        {
          "indexed": true,
          "internalType": "address",
          "name": "from",
          "type": "address"
        },
        {
          "indexed": true,
          "internalType": "address",
          "name": "to",
          "type": "address"
        },
        {
          "indexed": false,
          "internalType": "uint256",
          "name": "value",
          "type": "uint256"
        }
      ],
      "name": "Transfer",
      "type": "event"
    },
    {
      "inputs": [
        {
          "internalType": "address",
          "name": "owner",
          "type": "address"
        },
        {
          "internalType": "address",
          "name": "spender",
          "type": "address"
        }
      ],
      "name": "allowance",
      "outputs": [
        {
          "internalType": "uint256",
          "name": "",
          "type": "uint256"
        }
      ],
      "stateMutability": "view",
      "type": "function"
    },
    {
      "inputs": [
        {
          "internalType": "address",
          "name": "spender",
          "type": "address"
        },
        {
          "internalType": "uint256",
          "name": "amount",
          "type": "uint256"
        }
      ],
      "name": "approve",
      "outputs": [
        {
          "internalType": "bool",
          "name": "",
          "type": "bool"
        }
      ],
      "stateMutability": "nonpayable",
      "type": "function"
    },
    {
      "inputs": [
        {
          "internalType": "address",
          "name": "account",
          "type": "address"
        }
      ],
      "name": "balanceOf",
      "outputs": [
        {
          "internalType": "uint256",
          "name": "",
          "type": "uint256"
        }
      ],
      "stateMutability": "view",
      "type": "function"
    },
    {
      "inputs": [],
      "name": "decimals",
      "outputs": [
        {
          "internalType": "uint8",
          "name": "",
          "type": "uint8"
        }
      ],
      "stateMutability": "view",
      "type": "function"
    },
    {
      "inputs": [
        {
          "internalType": "address",
          "name": "spender",
          "type": "address"
        },
        {
          "internalType": "uint256",
          "name": "subtractedValue",
          "type": "uint256"
        }
      ],
      "name": "decreaseAllowance",
      "outputs": [
        {
          "internalType": "bool",
          "name": "",
          "type": "bool"
        }
      ],
      "stateMutability": "nonpayable",
      "type": "function"
    },
    {
      "inputs": [
        {
          "internalType": "address",
          "name": "spender",
          "type": "address"
        },
        {
          "internalType": "uint256",
          "name": "addedValue",
          "type": "uint256"
        }
      ],
      "name": "increaseAllowance",
      "outputs": [
        {
          "internalType": "bool",
          "name": "",
          "type": "bool"
        }
      ],
      "stateMutability": "nonpayable",
      "type": "function"
    },
    {
      "inputs": [],
      "name": "name",
      "outputs": [
        {
          "internalType": "string",
          "name": "",
          "type": "string"
        }
      ],
      "stateMutability": "view",
      "type": "function"
    },
    {
      "inputs": [],
      "name": "symbol",
      "outputs": [
        {
          "internalType": "string",
          "name": "",
          "type": "string"
        }
      ],
      "stateMutability": "view",
      "type": "function"
    },
    {
      "inputs": [],
      "name": "totalSupply",
      "outputs": [
        {
          "internalType": "uint256",
          "name": "",
          "type": "uint256"
        }
      ],
      "stateMutability": "view",
      "type": "function"
    },
    {
      "inputs": [
        {
          "internalType": "address",
          "name": "recipient",
          "type": "address"
        },
        {
          "internalType": "uint256",
          "name": "amount",
          "type": "uint256"
        }
      ],
      "name": "transfer",
      "outputs": [
        {
          "internalType": "bool",
          "name": "",
          "type": "bool"
        }
      ],
      "stateMutability": "nonpayable",
      "type": "function"
    },
    {
      "inputs": [
        {
          "internalType": "address",
          "name": "sender",
          "type": "address"
        },
        {
          "internalType": "address",
          "name": "recipient",
          "type": "address"
        },
        {
          "internalType": "uint256",
          "name": "amount",
          "type": "uint256"
        }
      ],
      "name": "transferFrom",
      "outputs": [
        {
          "internalType": "bool",
          "name": "",
          "type": "bool"
        }
      ],
      "stateMutability": "nonpayable",
      "type": "function"
    },
    {
      "inputs": [
        {
          "internalType": "uint256",
          "name": "amount",
          "type": "uint256"
        }
      ],
      "name": "burn",
      "outputs": [],
      "stateMutability": "nonpayable",
      "type": "function"
    },
    {
      "inputs": [
        {
          "internalType": "address",
          "name": "account",
          "type": "address"
        },
        {
          "internalType": "uint256",
          "name": "amount",
          "type": "uint256"
        }
      ],
      "name": "burnFrom",
      "outputs": [],
      "stateMutability": "nonpayable",
      "type": "function"
    }
  ],
  "bytecode": "0x60806040523480156200001157600080fd5b506040518060400160405280601781526020017f47617320536176652050726f746f636f6c20546f6b656e0000000000000000008152506040518060400160405280600481526020017f47535645000000000000000000000000000000000000000000000000000000008152508160039080519060200190620000969291906200023f565b508060049080519060200190620000af9291906200023f565b505050620000cf336a52b7d2dcc80cd2e4000000620000d560201b60201c565b6200049b565b600073ffffffffffffffffffffffffffffffffffffffff168273ffffffffffffffffffffffffffffffffffffffff16141562000148576040517f08c379a00000000000000000000000000000000000000000000000000000000081526004016200013f9062000327565b60405180910390fd5b6200015c600083836200023a60201b60201c565b806002600082825462000170919062000377565b92505081905550806000808473ffffffffffffffffffffffffffffffffffffffff1673ffffffffffffffffffffffffffffffffffffffff1681526020019081526020016000206000828254620001c7919062000377565b925050819055508173ffffffffffffffffffffffffffffffffffffffff16600073ffffffffffffffffffffffffffffffffffffffff167fddf252ad1be2c89b69c2b068fc378daa952ba7f163c4a11628f55a4df523b3ef836040516200022e919062000349565b60405180910390a35050565b505050565b8280546200024d90620003de565b90600052602060002090601f016020900481019282620002715760008555620002bd565b82601f106200028c57805160ff1916838001178555620002bd565b82800160010185558215620002bd579182015b82811115620002bc5782518255916020019190600101906200029f565b5b509050620002cc9190620002d0565b5090565b5b80821115620002eb576000816000905550600101620002d1565b5090565b6000620002fe601f8362000366565b91506200030b8262000472565b602082019050919050565b6200032181620003d4565b82525050565b600060208201905081810360008301526200034281620002ef565b9050919050565b600060208201905062000360600083018462000316565b92915050565b600082825260208201905092915050565b60006200038482620003d4565b91506200039183620003d4565b9250827fffffffffffffffffffffffffffffffffffffffffffffffffffffffffffffffff03821115620003c957620003c862000414565b5b828201905092915050565b6000819050919050565b60006002820490506001821680620003f757607f821691505b602082108114156200040e576200040d62000443565b5b50919050565b7f4e487b7100000000000000000000000000000000000000000000000000000000600052601160045260246000fd5b7f4e487b7100000000000000000000000000000000000000000000000000000000600052602260045260246000fd5b7f45524332303a206d696e7420746f20746865207a65726f206164647265737300600082015250565b61183b80620004ab6000396000f3fe608060405234801561001057600080fd5b50600436106100cf5760003560e01c806342966c681161008c57806395d89b411161006657806395d89b4114610226578063a457c2d714610244578063a9059cbb14610274578063dd62ed3e146102a4576100cf565b806342966c68146101be57806370a08231146101da57806379cc67901461020a576100cf565b806306fdde03146100d4578063095ea7b3146100f257806318160ddd1461012257806323b872dd14610140578063313ce56714610170578063395093511461018e575b600080fd5b6100dc6102d4565b6040516100e991906111a5565b60405180910390f35b61010c60048036038101906101079190610f84565b610366565b604051610119919061118a565b60405180910390f35b61012a610384565b60405161013791906112e7565b60405180910390f35b61015a60048036038101906101559190610f35565b61038e565b604051610167919061118a565b60405180910390f35b61017861048f565b6040516101859190611302565b60405180910390f35b6101a860048036038101906101a39190610f84565b610498565b6040516101b5919061118a565b60405180910390f35b6101d860048036038101906101d39190610fc0565b610544565b005b6101f460048036038101906101ef9190610ed0565b610551565b60405161020191906112e7565b60405180910390f35b610224600480360381019061021f9190610f84565b610599565b005b61022e6105fb565b60405161023b91906111a5565b60405180910390f35b61025e60048036038101906102599190610f84565b61068d565b60405161026b919061118a565b60405180910390f35b61028e60048036038101906102899190610f84565b610781565b60405161029b919061118a565b60405180910390f35b6102be60048036038101906102b99190610ef9565b61079f565b6040516102cb91906112e7565b60405180910390f35b6060600380546102e39061144b565b80601f016020809104026020016040519081016040528092919081815260200182805461030f9061144b565b801561035c5780601f106103315761010080835404028352916020019161035c565b820191906000526020600020905b81548152906001019060200180831161033f57829003601f168201915b5050505050905090565b600061037a610373610826565b848461082e565b6001905092915050565b6000600254905090565b600061039b8484846109f9565b6000600160008673ffffffffffffffffffffffffffffffffffffffff1673ffffffffffffffffffffffffffffffffffffffff16815260200190815260200160002060006103e6610826565b73ffffffffffffffffffffffffffffffffffffffff1673ffffffffffffffffffffffffffffffffffffffff16815260200190815260200160002054905082811015610466576040517f08c379a000000000000000000000000000000000000000000000000000000000815260040161045d90611247565b60405180910390fd5b61048385610472610826565b858461047e919061138f565b61082e565b60019150509392505050565b60006012905090565b600061053a6104a5610826565b8484600160006104b3610826565b73ffffffffffffffffffffffffffffffffffffffff1673ffffffffffffffffffffffffffffffffffffffff16815260200190815260200160002060008873ffffffffffffffffffffffffffffffffffffffff1673ffffffffffffffffffffffffffffffffffffffff168152602001908152602001600020546105359190611339565b61082e565b6001905092915050565b61054e3382610c78565b50565b60008060008373ffffffffffffffffffffffffffffffffffffffff1673ffffffffffffffffffffffffffffffffffffffff168152602001908152602001600020549050919050565b6105a38282610c78565b60006105af833361079f565b9050600060ff82901c14156105f6576105f583336105f0856040518060600160405280602481526020016117e26024913986610e4c9092919063ffffffff16565b61082e565b5b505050565b60606004805461060a9061144b565b80601f01602080910402602001604051908101604052809291908181526020018280546106369061144b565b80156106835780601f1061065857610100808354040283529160200191610683565b820191906000526020600020905b81548152906001019060200180831161066657829003601f168201915b5050505050905090565b6000806001600061069c610826565b73ffffffffffffffffffffffffffffffffffffffff1673ffffffffffffffffffffffffffffffffffffffff16815260200190815260200160002060008573ffffffffffffffffffffffffffffffffffffffff1673ffffffffffffffffffffffffffffffffffffffff16815260200190815260200160002054905082811015610759576040517f08c379a0000000000000000000000000000000000000000000000000000000008152600401610750906112c7565b60405180910390fd5b610776610764610826565b858584610771919061138f565b61082e565b600191505092915050565b600061079561078e610826565b84846109f9565b6001905092915050565b6000600160008473ffffffffffffffffffffffffffffffffffffffff1673ffffffffffffffffffffffffffffffffffffffff16815260200190815260200160002060008373ffffffffffffffffffffffffffffffffffffffff1673ffffffffffffffffffffffffffffffffffffffff16815260200190815260200160002054905092915050565b600033905090565b600073ffffffffffffffffffffffffffffffffffffffff168373ffffffffffffffffffffffffffffffffffffffff16141561089e576040517f08c379a0000000000000000000000000000000000000000000000000000000008152600401610895906112a7565b60405180910390fd5b600073ffffffffffffffffffffffffffffffffffffffff168273ffffffffffffffffffffffffffffffffffffffff16141561090e576040517f08c379a000000000000000000000000000000000000000000000000000000000815260040161090590611207565b60405180910390fd5b80600160008573ffffffffffffffffffffffffffffffffffffffff1673ffffffffffffffffffffffffffffffffffffffff16815260200190815260200160002060008473ffffffffffffffffffffffffffffffffffffffff1673ffffffffffffffffffffffffffffffffffffffff168152602001908152602001600020819055508173ffffffffffffffffffffffffffffffffffffffff168373ffffffffffffffffffffffffffffffffffffffff167f8c5be1e5ebec7d5bd14f71427d1e84f3dd0314c0f7b2291e5b200ac8c7c3b925836040516109ec91906112e7565b60405180910390a3505050565b600073ffffffffffffffffffffffffffffffffffffffff168373ffffffffffffffffffffffffffffffffffffffff161415610a69576040517f08c379a0000000000000000000000000000000000000000000000000000000008152600401610a6090611287565b60405180910390fd5b600073ffffffffffffffffffffffffffffffffffffffff168273ffffffffffffffffffffffffffffffffffffffff161415610ad9576040517f08c379a0000000000000000000000000000000000000000000000000000000008152600401610ad0906111c7565b60405180910390fd5b610ae4838383610ea1565b60008060008573ffffffffffffffffffffffffffffffffffffffff1673ffffffffffffffffffffffffffffffffffffffff16815260200190815260200160002054905081811015610b6a576040517f08c379a0000000000000000000000000000000000000000000000000000000008152600401610b6190611227565b60405180910390fd5b8181610b76919061138f565b6000808673ffffffffffffffffffffffffffffffffffffffff1673ffffffffffffffffffffffffffffffffffffffff16815260200190815260200160002081905550816000808573ffffffffffffffffffffffffffffffffffffffff1673ffffffffffffffffffffffffffffffffffffffff1681526020019081526020016000206000828254610c069190611339565b925050819055508273ffffffffffffffffffffffffffffffffffffffff168473ffffffffffffffffffffffffffffffffffffffff167fddf252ad1be2c89b69c2b068fc378daa952ba7f163c4a11628f55a4df523b3ef84604051610c6a91906112e7565b60405180910390a350505050565b600073ffffffffffffffffffffffffffffffffffffffff168273ffffffffffffffffffffffffffffffffffffffff161415610ce8576040517f08c379a0000000000000000000000000000000000000000000000000000000008152600401610cdf90611267565b60405180910390fd5b610cf482600083610ea1565b60008060008473ffffffffffffffffffffffffffffffffffffffff1673ffffffffffffffffffffffffffffffffffffffff16815260200190815260200160002054905081811015610d7a576040517f08c379a0000000000000000000000000000000000000000000000000000000008152600401610d71906111e7565b60405180910390fd5b8181610d86919061138f565b6000808573ffffffffffffffffffffffffffffffffffffffff1673ffffffffffffffffffffffffffffffffffffffff168152602001908152602001600020819055508160026000828254610dda919061138f565b92505081905550600073ffffffffffffffffffffffffffffffffffffffff168373ffffffffffffffffffffffffffffffffffffffff167fddf252ad1be2c89b69c2b068fc378daa952ba7f163c4a11628f55a4df523b3ef84604051610e3f91906112e7565b60405180910390a3505050565b6000838311158290610e94576040517f08c379a0000000000000000000000000000000000000000000000000000000008152600401610e8b91906111a5565b60405180910390fd5b5082840390509392505050565b505050565b600081359050610eb5816117b3565b92915050565b600081359050610eca816117ca565b92915050565b600060208284031215610ee257600080fd5b6000610ef084828501610ea6565b91505092915050565b60008060408385031215610f0c57600080fd5b6000610f1a85828601610ea6565b9250506020610f2b85828601610ea6565b9150509250929050565b600080600060608486031215610f4a57600080fd5b6000610f5886828701610ea6565b9350506020610f6986828701610ea6565b9250506040610f7a86828701610ebb565b9150509250925092565b60008060408385031215610f9757600080fd5b6000610fa585828601610ea6565b9250506020610fb685828601610ebb565b9150509250929050565b600060208284031215610fd257600080fd5b6000610fe084828501610ebb565b91505092915050565b610ff2816113d5565b82525050565b60006110038261131d565b61100d8185611328565b935061101d818560208601611418565b611026816114db565b840191505092915050565b600061103e602383611328565b9150611049826114ec565b604082019050919050565b6000611061602283611328565b915061106c8261153b565b604082019050919050565b6000611084602283611328565b915061108f8261158a565b604082019050919050565b60006110a7602683611328565b91506110b2826115d9565b604082019050919050565b60006110ca602883611328565b91506110d582611628565b604082019050919050565b60006110ed602183611328565b91506110f882611677565b604082019050919050565b6000611110602583611328565b915061111b826116c6565b604082019050919050565b6000611133602483611328565b915061113e82611715565b604082019050919050565b6000611156602583611328565b915061116182611764565b604082019050919050565b61117581611401565b82525050565b6111848161140b565b82525050565b600060208201905061119f6000830184610fe9565b92915050565b600060208201905081810360008301526111bf8184610ff8565b905092915050565b600060208201905081810360008301526111e081611031565b9050919050565b6000602082019050818103600083015261120081611054565b9050919050565b6000602082019050818103600083015261122081611077565b9050919050565b600060208201905081810360008301526112408161109a565b9050919050565b60006020820190508181036000830152611260816110bd565b9050919050565b60006020820190508181036000830152611280816110e0565b9050919050565b600060208201905081810360008301526112a081611103565b9050919050565b600060208201905081810360008301526112c081611126565b9050919050565b600060208201905081810360008301526112e081611149565b9050919050565b60006020820190506112fc600083018461116c565b92915050565b6000602082019050611317600083018461117b565b92915050565b600081519050919050565b600082825260208201905092915050565b600061134482611401565b915061134f83611401565b9250827fffffffffffffffffffffffffffffffffffffffffffffffffffffffffffffffff038211156113845761138361147d565b5b828201905092915050565b600061139a82611401565b91506113a583611401565b9250828210156113b8576113b761147d565b5b828203905092915050565b60006113ce826113e1565b9050919050565b60008115159050919050565b600073ffffffffffffffffffffffffffffffffffffffff82169050919050565b6000819050919050565b600060ff82169050919050565b60005b8381101561143657808201518184015260208101905061141b565b83811115611445576000848401525b50505050565b6000600282049050600182168061146357607f821691505b60208210811415611477576114766114ac565b5b50919050565b7f4e487b7100000000000000000000000000000000000000000000000000000000600052601160045260246000fd5b7f4e487b7100000000000000000000000000000000000000000000000000000000600052602260045260246000fd5b6000601f19601f8301169050919050565b7f45524332303a207472616e7366657220746f20746865207a65726f206164647260008201527f6573730000000000000000000000000000000000000000000000000000000000602082015250565b7f45524332303a206275726e20616d6f756e7420657863656564732062616c616e60008201527f6365000000000000000000000000000000000000000000000000000000000000602082015250565b7f45524332303a20617070726f766520746f20746865207a65726f20616464726560008201527f7373000000000000000000000000000000000000000000000000000000000000602082015250565b7f45524332303a207472616e7366657220616d6f756e742065786365656473206260008201527f616c616e63650000000000000000000000000000000000000000000000000000602082015250565b7f45524332303a207472616e7366657220616d6f756e742065786365656473206160008201527f6c6c6f77616e6365000000000000000000000000000000000000000000000000602082015250565b7f45524332303a206275726e2066726f6d20746865207a65726f2061646472657360008201527f7300000000000000000000000000000000000000000000000000000000000000602082015250565b7f45524332303a207472616e736665722066726f6d20746865207a65726f20616460008201527f6472657373000000000000000000000000000000000000000000000000000000602082015250565b7f45524332303a20617070726f76652066726f6d20746865207a65726f2061646460008201527f7265737300000000000000000000000000000000000000000000000000000000602082015250565b7f45524332303a2064656372656173656420616c6c6f77616e63652062656c6f7760008201527f207a65726f000000000000000000000000000000000000000000000000000000602082015250565b6117bc816113c3565b81146117c757600080fd5b50565b6117d381611401565b81146117de57600080fd5b5056fe45524332303a206275726e20616d6f756e74206578636565647320616c6c6f77616e6365a2646970667358221220c07e922c1a8e83fb02a05accd67892e1b119b0fda4e234a5826feee295087c7264736f6c63430008040033",
  "immutableReferences": {},
  "source": "// SPDX-License-Identifier: MIT\r\npragma solidity ^0.8.0;\r\n\r\nimport \"@openzeppelin/contracts/token/ERC20/ERC20.sol\";\r\nimport \"@openzeppelin/contracts/utils/math/SafeMath.sol\";\r\n\r\n/**\r\n* @dev the GSVE token is a ERC20 token with burning capabilities\r\n*/\r\ncontract GSVEToken is ERC20{    \r\n    using SafeMath for uint256;\r\n\r\n    /**\r\n    * @dev mint 1 billion GSVE tokens\r\n    */\r\n    constructor() public ERC20(\"Gas Save Protocol Token\", \"GSVE\") {\r\n        _mint(msg.sender, 100000000*(10**18));\r\n    }\r\n\r\n    /**\r\n    * @dev a function that allows a user to burn x amount of tokens\r\n    */\r\n    function burn(uint256 amount) external {\r\n        _burn(msg.sender, amount);\r\n    }\r\n\r\n    /**\r\n    * @dev a function that allows burning tokens from an approved address\r\n    */\r\n    function burnFrom(address account, uint256 amount) external {\r\n        _burn(account, amount);\r\n        uint256 allowed = allowance(account, msg.sender);\r\n        if ((allowed >> 255) == 0) {\r\n            _approve(account, msg.sender, allowed.sub(amount, \"ERC20: burn amount exceeds allowance\"));\r\n        }\r\n    }\r\n}",
  "sourcePath": "C:/Users/khera/Documents/GitHub/GasSwapTokens/contracts/GSVEToken.sol",
  "compiler": {
    "name": "solc",
    "version": "0.8.4+commit.c7e474f2.Emscripten.clang"
  },
  "schemaVersion": "3.3.4",
  "updatedAt": "2021-05-06T11:17:03.880Z",
  "devdoc": {
    "details": "the GSVE token is a ERC20 token with burning capabilities",
    "kind": "dev",
    "methods": {
      "allowance(address,address)": {
        "details": "See {IERC20-allowance}."
      },
      "approve(address,uint256)": {
        "details": "See {IERC20-approve}. Requirements: - `spender` cannot be the zero address."
      },
      "balanceOf(address)": {
        "details": "See {IERC20-balanceOf}."
      },
      "burn(uint256)": {
        "details": "a function that allows a user to burn x amount of tokens"
      },
      "burnFrom(address,uint256)": {
        "details": "a function that allows burning tokens from an approved address"
      },
      "constructor": {
        "details": "mint 1 billion GSVE tokens"
      },
      "decimals()": {
        "details": "Returns the number of decimals used to get its user representation. For example, if `decimals` equals `2`, a balance of `505` tokens should be displayed to a user as `5,05` (`505 / 10 ** 2`). Tokens usually opt for a value of 18, imitating the relationship between Ether and Wei. This is the value {ERC20} uses, unless this function is overloaded; NOTE: This information is only used for _display_ purposes: it in no way affects any of the arithmetic of the contract, including {IERC20-balanceOf} and {IERC20-transfer}."
      },
      "decreaseAllowance(address,uint256)": {
        "details": "Atomically decreases the allowance granted to `spender` by the caller. This is an alternative to {approve} that can be used as a mitigation for problems described in {IERC20-approve}. Emits an {Approval} event indicating the updated allowance. Requirements: - `spender` cannot be the zero address. - `spender` must have allowance for the caller of at least `subtractedValue`."
      },
      "increaseAllowance(address,uint256)": {
        "details": "Atomically increases the allowance granted to `spender` by the caller. This is an alternative to {approve} that can be used as a mitigation for problems described in {IERC20-approve}. Emits an {Approval} event indicating the updated allowance. Requirements: - `spender` cannot be the zero address."
      },
      "name()": {
        "details": "Returns the name of the token."
      },
      "symbol()": {
        "details": "Returns the symbol of the token, usually a shorter version of the name."
      },
      "totalSupply()": {
        "details": "See {IERC20-totalSupply}."
      },
      "transfer(address,uint256)": {
        "details": "See {IERC20-transfer}. Requirements: - `recipient` cannot be the zero address. - the caller must have a balance of at least `amount`."
      },
      "transferFrom(address,address,uint256)": {
        "details": "See {IERC20-transferFrom}. Emits an {Approval} event indicating the updated allowance. This is not required by the EIP. See the note at the beginning of {ERC20}. Requirements: - `sender` and `recipient` cannot be the zero address. - `sender` must have a balance of at least `amount`. - the caller must have allowance for ``sender``'s tokens of at least `amount`."
      }
    },
    "version": 1
  },
  "userdoc": {
    "kind": "user",
    "methods": {},
    "version": 1
  }
}