{
  "contractName": "GSVETransactionWrapper",
  "abi": [
    {
      "anonymous": false,
      "inputs": [
        {
          "indexed": true,
          "internalType": "address",
          "name": "previousOwner",
          "type": "address"
        },
        {
          "indexed": true,
          "internalType": "address",
          "name": "newOwner",
          "type": "address"
        }
      ],
      "name": "OwnershipTransferred",
      "type": "event"
    },
    {
      "inputs": [],
      "name": "owner",
      "outputs": [
        {
          "internalType": "address",
          "name": "",
          "type": "address"
        }
      ],
      "stateMutability": "view",
      "type": "function"
    },
    {
      "inputs": [],
      "name": "renounceOwnership",
      "outputs": [],
      "stateMutability": "nonpayable",
      "type": "function"
    },
    {
      "inputs": [
        {
          "internalType": "address",
          "name": "newOwner",
          "type": "address"
        }
      ],
      "name": "transferOwnership",
      "outputs": [],
      "stateMutability": "nonpayable",
      "type": "function"
    },
    {
      "stateMutability": "payable",
      "type": "receive"
    },
    {
      "inputs": [
        {
          "internalType": "address",
          "name": "gasToken",
          "type": "address"
        }
      ],
      "name": "addGasToken",
      "outputs": [],
      "stateMutability": "nonpayable",
      "type": "function"
    },
    {
      "inputs": [
        {
          "internalType": "address",
          "name": "gasToken",
          "type": "address"
        }
      ],
      "name": "compatibleGasToken",
      "outputs": [
        {
          "internalType": "uint256",
          "name": "",
          "type": "uint256"
        }
      ],
      "stateMutability": "view",
      "type": "function"
    },
    {
      "inputs": [
        {
          "internalType": "bytes",
          "name": "data",
          "type": "bytes"
        },
        {
          "internalType": "address",
          "name": "contractAddress",
          "type": "address"
        },
        {
          "internalType": "uint256",
          "name": "value",
          "type": "uint256"
        },
        {
          "internalType": "address",
          "name": "gasToken",
          "type": "address"
        }
      ],
      "name": "wrapTransaction",
      "outputs": [],
      "stateMutability": "payable",
      "type": "function"
    },
    {
      "inputs": [],
      "name": "withdrawBalance",
      "outputs": [],
      "stateMutability": "nonpayable",
      "type": "function"
    },
    {
      "inputs": [
        {
          "internalType": "address",
          "name": "token",
          "type": "address"
        }
      ],
      "name": "withdrawTokenBalance",
      "outputs": [],
      "stateMutability": "nonpayable",
      "type": "function"
    }
  ],
  "bytecode": "0x608060405234801561001057600080fd5b5060006100216100c460201b60201c565b9050806000806101000a81548173ffffffffffffffffffffffffffffffffffffffff021916908373ffffffffffffffffffffffffffffffffffffffff1602179055508073ffffffffffffffffffffffffffffffffffffffff16600073ffffffffffffffffffffffffffffffffffffffff167f8be0079c531659141344cd1fd0a4f28419497f9722a3daafe3b4186f6b6457e060405160405180910390a3506100cc565b600033905090565b61158d806100db6000396000f3fe60806040526004361061007f5760003560e01c80638da5cb5b1161004e5780638da5cb5b146100fe5780638e13fd781461012957806390bb615314610166578063f2fde38b1461018f57610086565b80630f76f8301461008b5780635fd8c710146100b4578063715018a6146100cb5780638da02632146100e257610086565b3661008657005b600080fd5b34801561009757600080fd5b506100b260048036038101906100ad9190610e23565b6101b8565b005b3480156100c057600080fd5b506100c961027b565b005b3480156100d757600080fd5b506100e061036c565b005b6100fc60048036038101906100f79190610e75565b6104a6565b005b34801561010a57600080fd5b50610113610814565b60405161012091906110a4565b60405180910390f35b34801561013557600080fd5b50610150600480360381019061014b9190610e23565b61083d565b60405161015d91906111aa565b60405180910390f35b34801561017257600080fd5b5061018d60048036038101906101889190610e23565b610886565b005b34801561019b57600080fd5b506101b660048036038101906101b19190610e23565b610a2e565b005b6101c0610bd7565b73ffffffffffffffffffffffffffffffffffffffff166101de610814565b73ffffffffffffffffffffffffffffffffffffffff1614610234576040517f08c379a000000000000000000000000000000000000000000000000000000000815260040161022b9061116a565b60405180910390fd5b60018060008373ffffffffffffffffffffffffffffffffffffffff1673ffffffffffffffffffffffffffffffffffffffff1681526020019081526020016000208190555050565b610283610bd7565b73ffffffffffffffffffffffffffffffffffffffff166102a1610814565b73ffffffffffffffffffffffffffffffffffffffff16146102f7576040517f08c379a00000000000000000000000000000000000000000000000000000000081526004016102ee9061116a565b60405180910390fd5b6102ff610814565b73ffffffffffffffffffffffffffffffffffffffff16475a906040516103249061108f565b600060405180830381858888f193505050503d8060008114610362576040519150601f19603f3d011682016040523d82523d6000602084013e610367565b606091505b505050565b610374610bd7565b73ffffffffffffffffffffffffffffffffffffffff16610392610814565b73ffffffffffffffffffffffffffffffffffffffff16146103e8576040517f08c379a00000000000000000000000000000000000000000000000000000000081526004016103df9061116a565b60405180910390fd5b600073ffffffffffffffffffffffffffffffffffffffff1660008054906101000a900473ffffffffffffffffffffffffffffffffffffffff1673ffffffffffffffffffffffffffffffffffffffff167f8be0079c531659141344cd1fd0a4f28419497f9722a3daafe3b4186f6b6457e060405160405180910390a360008060006101000a81548173ffffffffffffffffffffffffffffffffffffffff021916908373ffffffffffffffffffffffffffffffffffffffff160217905550565b8060018060008373ffffffffffffffffffffffffffffffffffffffff1673ffffffffffffffffffffffffffffffffffffffff1681526020019081526020016000205414610528576040517f08c379a000000000000000000000000000000000000000000000000000000000815260040161051f9061110a565b60405180910390fd5b60005a9050610535610bd7565b73ffffffffffffffffffffffffffffffffffffffff16610553610814565b73ffffffffffffffffffffffffffffffffffffffff16146105a9576040517f08c379a00000000000000000000000000000000000000000000000000000000081526004016105a09061116a565b60405180910390fd5b6105c88573ffffffffffffffffffffffffffffffffffffffff16610bdf565b6105d15761072d565b60008411156106865761068087878080601f016020809104026020016040519081016040528093929190818152602001838380828437600081840152601f19601f82011690508083019250505050505050856040518060400160405280602081526020017f47533a204572726f7220666f7277617264696e67207472616e73616374696f6e8152508873ffffffffffffffffffffffffffffffffffffffff16610bf2909392919063ffffffff16565b5061072c565b61072a87878080601f016020809104026020016040519081016040528093929190818152602001838380828437600081840152601f19601f820116905080830192505050505050506040518060400160405280602081526020017f47533a204572726f7220666f7277617264696e67207472616e73616374696f6e8152508773ffffffffffffffffffffffffffffffffffffffff16610d069092919063ffffffff16565b505b5b600080369050601061073f919061127e565b5a8361520861074e91906111f7565b61075891906112d8565b61076291906111f7565b90508273ffffffffffffffffffffffffffffffffffffffff16636366b936615dc061374a8461079191906111f7565b61079b919061124d565b6040518263ffffffff1660e01b81526004016107b791906111aa565b602060405180830381600087803b1580156107d157600080fd5b505af11580156107e5573d6000803e3d6000fd5b505050506040513d601f19601f820116820180604052508101906108099190610ef5565b505050505050505050565b60008060009054906101000a900473ffffffffffffffffffffffffffffffffffffffff16905090565b6000600160008373ffffffffffffffffffffffffffffffffffffffff1673ffffffffffffffffffffffffffffffffffffffff168152602001908152602001600020549050919050565b61088e610bd7565b73ffffffffffffffffffffffffffffffffffffffff166108ac610814565b73ffffffffffffffffffffffffffffffffffffffff1614610902576040517f08c379a00000000000000000000000000000000000000000000000000000000081526004016108f99061116a565b60405180910390fd5b600081905060008173ffffffffffffffffffffffffffffffffffffffff166370a08231306040518263ffffffff1660e01b815260040161094291906110a4565b60206040518083038186803b15801561095a57600080fd5b505afa15801561096e573d6000803e3d6000fd5b505050506040513d601f19601f820116820180604052508101906109929190610ef5565b90508173ffffffffffffffffffffffffffffffffffffffff1663a9059cbb6109b8610814565b836040518363ffffffff1660e01b81526004016109d69291906110bf565b602060405180830381600087803b1580156109f057600080fd5b505af1158015610a04573d6000803e3d6000fd5b505050506040513d601f19601f82011682018060405250810190610a289190610e4c565b50505050565b610a36610bd7565b73ffffffffffffffffffffffffffffffffffffffff16610a54610814565b73ffffffffffffffffffffffffffffffffffffffff1614610aaa576040517f08c379a0000000000000000000000000000000000000000000000000000000008152600401610aa19061116a565b60405180910390fd5b600073ffffffffffffffffffffffffffffffffffffffff168173ffffffffffffffffffffffffffffffffffffffff161415610b1a576040517f08c379a0000000000000000000000000000000000000000000000000000000008152600401610b119061112a565b60405180910390fd5b8073ffffffffffffffffffffffffffffffffffffffff1660008054906101000a900473ffffffffffffffffffffffffffffffffffffffff1673ffffffffffffffffffffffffffffffffffffffff167f8be0079c531659141344cd1fd0a4f28419497f9722a3daafe3b4186f6b6457e060405160405180910390a3806000806101000a81548173ffffffffffffffffffffffffffffffffffffffff021916908373ffffffffffffffffffffffffffffffffffffffff16021790555050565b600033905090565b600080823b905060008111915050919050565b606082471015610c37576040517f08c379a0000000000000000000000000000000000000000000000000000000008152600401610c2e9061114a565b60405180910390fd5b610c4085610bdf565b610c7f576040517f08c379a0000000000000000000000000000000000000000000000000000000008152600401610c769061118a565b60405180910390fd5b6000808673ffffffffffffffffffffffffffffffffffffffff168587604051610ca89190611078565b60006040518083038185875af1925050503d8060008114610ce5576040519150601f19603f3d011682016040523d82523d6000602084013e610cea565b606091505b5091509150610cfa828286610d1e565b92505050949350505050565b6060610d158484600085610bf2565b90509392505050565b60608315610d2e57829050610d7e565b600083511115610d415782518084602001fd5b816040517f08c379a0000000000000000000000000000000000000000000000000000000008152600401610d7591906110e8565b60405180910390fd5b9392505050565b600081359050610d9481611512565b92915050565b600081519050610da981611529565b92915050565b60008083601f840112610dc157600080fd5b8235905067ffffffffffffffff811115610dda57600080fd5b602083019150836001820283011115610df257600080fd5b9250929050565b600081359050610e0881611540565b92915050565b600081519050610e1d81611540565b92915050565b600060208284031215610e3557600080fd5b6000610e4384828501610d85565b91505092915050565b600060208284031215610e5e57600080fd5b6000610e6c84828501610d9a565b91505092915050565b600080600080600060808688031215610e8d57600080fd5b600086013567ffffffffffffffff811115610ea757600080fd5b610eb388828901610daf565b95509550506020610ec688828901610d85565b9350506040610ed788828901610df9565b9250506060610ee888828901610d85565b9150509295509295909350565b600060208284031215610f0757600080fd5b6000610f1584828501610e0e565b91505092915050565b610f278161130c565b82525050565b6000610f38826111c5565b610f4281856111db565b9350610f52818560208601611354565b80840191505092915050565b6000610f69826111d0565b610f7381856111e6565b9350610f83818560208601611354565b610f8c816113e5565b840191505092915050565b6000610fa46018836111e6565b9150610faf826113f6565b602082019050919050565b6000610fc76026836111e6565b9150610fd28261141f565b604082019050919050565b6000610fea6026836111e6565b9150610ff58261146e565b604082019050919050565b600061100d6020836111e6565b9150611018826114bd565b602082019050919050565b60006110306000836111db565b915061103b826114e6565b600082019050919050565b6000611053601d836111e6565b915061105e826114e9565b602082019050919050565b6110728161134a565b82525050565b60006110848284610f2d565b915081905092915050565b600061109a82611023565b9150819050919050565b60006020820190506110b96000830184610f1e565b92915050565b60006040820190506110d46000830185610f1e565b6110e16020830184611069565b9392505050565b600060208201905081810360008301526111028184610f5e565b905092915050565b6000602082019050818103600083015261112381610f97565b9050919050565b6000602082019050818103600083015261114381610fba565b9050919050565b6000602082019050818103600083015261116381610fdd565b9050919050565b6000602082019050818103600083015261118381611000565b9050919050565b600060208201905081810360008301526111a381611046565b9050919050565b60006020820190506111bf6000830184611069565b92915050565b600081519050919050565b600081519050919050565b600081905092915050565b600082825260208201905092915050565b60006112028261134a565b915061120d8361134a565b9250827fffffffffffffffffffffffffffffffffffffffffffffffffffffffffffffffff0382111561124257611241611387565b5b828201905092915050565b60006112588261134a565b91506112638361134a565b925082611273576112726113b6565b5b828204905092915050565b60006112898261134a565b91506112948361134a565b9250817fffffffffffffffffffffffffffffffffffffffffffffffffffffffffffffffff04831182151516156112cd576112cc611387565b5b828202905092915050565b60006112e38261134a565b91506112ee8361134a565b92508282101561130157611300611387565b5b828203905092915050565b60006113178261132a565b9050919050565b60008115159050919050565b600073ffffffffffffffffffffffffffffffffffffffff82169050919050565b6000819050919050565b60005b83811015611372578082015181840152602081019050611357565b83811115611381576000848401525b50505050565b7f4e487b7100000000000000000000000000000000000000000000000000000000600052601160045260246000fd5b7f4e487b7100000000000000000000000000000000000000000000000000000000600052601260045260246000fd5b6000601f19601f8301169050919050565b7f475356453a20696e636f6d70617469626c6520746f6b656e0000000000000000600082015250565b7f4f776e61626c653a206e6577206f776e657220697320746865207a65726f206160008201527f6464726573730000000000000000000000000000000000000000000000000000602082015250565b7f416464726573733a20696e73756666696369656e742062616c616e636520666f60008201527f722063616c6c0000000000000000000000000000000000000000000000000000602082015250565b7f4f776e61626c653a2063616c6c6572206973206e6f7420746865206f776e6572600082015250565b50565b7f416464726573733a2063616c6c20746f206e6f6e2d636f6e7472616374000000600082015250565b61151b8161130c565b811461152657600080fd5b50565b6115328161131e565b811461153d57600080fd5b50565b6115498161134a565b811461155457600080fd5b5056fea2646970667358221220fe2f391ebe278010444adb2a2fc44e92f28f4722d710a1cfcf62ad76c54588fb64736f6c63430008040033",
  "immutableReferences": {},
  "source": "// SPDX-License-Identifier: MIT\r\npragma solidity ^0.8.0;\r\n\r\nimport \"@openzeppelin/contracts/utils/Address.sol\";\r\nimport \"@openzeppelin/contracts/token/ERC20/IERC20.sol\";\r\nimport \"@openzeppelin/contracts/access/Ownable.sol\";\r\nimport \"./IGSVEToken.sol\";\r\n\r\ninterface IFreeUpTo {\r\n    function freeUpTo(uint256 value) external returns (uint256 freed);\r\n}\r\n\r\ncontract GSVETransactionWrapper is Ownable {\r\n    using Address for address;\r\n\r\n    //compatibility system is in place to prevent reentrancy/other attacks from untrusted tokens\r\n    mapping(address => uint256) private _compatibleGasTokens;\r\n\r\n    receive() external payable{}\r\n\r\n    function addGasToken(address gasToken) public onlyOwner{\r\n        _compatibleGasTokens[gasToken] = 1;\r\n    }\r\n\r\n    function compatibleGasToken(address gasToken) public view returns(uint256){\r\n        return _compatibleGasTokens[gasToken];\r\n    }\r\n\r\n    modifier discountGas(address gasToken) {\r\n        require(_compatibleGasTokens[gasToken] == 1, \"GSVE: incompatible token\");\r\n        uint256 gasStart = gasleft();\r\n        _;\r\n        uint256 gasSpent = 21000 + gasStart - gasleft() + 16 * msg.data.length;\r\n        IFreeUpTo(gasToken).freeUpTo((gasSpent + 14154) / 24000);\r\n    }\r\n    \r\n    function wrapTransaction(bytes calldata data, address contractAddress, uint256 value, address gasToken) public discountGas(gasToken) payable onlyOwner{\r\n        if(!contractAddress.isContract()){\r\n            return;\r\n        }\r\n\r\n        if(value > 0){\r\n            contractAddress.functionCallWithValue(data, value, \"GS: Error forwarding transaction\");\r\n        }\r\n        else{\r\n            contractAddress.functionCall(data, \"GS: Error forwarding transaction\");\r\n        }\r\n    }\r\n\r\n    function withdrawBalance() public onlyOwner{\r\n        owner().call{value: address(this).balance, gas:gasleft()}(\"\");\r\n    }\r\n\r\n    function withdrawTokenBalance(address token) public onlyOwner{\r\n        IERC20 tokenContract = IERC20(token);\r\n        uint256 balance = tokenContract.balanceOf(address(this));\r\n        tokenContract.transfer(owner(), balance);\r\n    }\r\n}\r\n",
  "sourcePath": "C:\\Users\\khera\\Documents\\GitHub\\GasSwapTokens\\contracts\\GSVETransactionWrapper.sol",
  "compiler": {
    "name": "solc",
    "version": "0.8.4+commit.c7e474f2.Emscripten.clang"
  },
  "schemaVersion": "3.3.4",
  "updatedAt": "2021-05-02T13:18:48.195Z",
  "devdoc": {
    "kind": "dev",
    "methods": {
      "owner()": {
        "details": "Returns the address of the current owner."
      },
      "renounceOwnership()": {
        "details": "Leaves the contract without owner. It will not be possible to call `onlyOwner` functions anymore. Can only be called by the current owner. NOTE: Renouncing ownership will leave the contract without an owner, thereby removing any functionality that is only available to the owner."
      },
      "transferOwnership(address)": {
        "details": "Transfers ownership of the contract to a new account (`newOwner`). Can only be called by the current owner."
      }
    },
    "version": 1
  },
  "userdoc": {
    "kind": "user",
    "methods": {},
    "version": 1
  }
}