{
  "contractName": "GSVESmartWrapper",
  "abi": [
    {
      "anonymous": false,
      "inputs": [
        {
          "indexed": true,
          "internalType": "address",
          "name": "previousOwner",
          "type": "address"
        },
        {
          "indexed": true,
          "internalType": "address",
          "name": "newOwner",
          "type": "address"
        }
      ],
      "name": "OwnershipTransferred",
      "type": "event"
    },
    {
      "inputs": [],
      "name": "owner",
      "outputs": [
        {
          "internalType": "address",
          "name": "",
          "type": "address"
        }
      ],
      "stateMutability": "view",
      "type": "function"
    },
    {
      "inputs": [],
      "name": "renounceOwnership",
      "outputs": [],
      "stateMutability": "nonpayable",
      "type": "function"
    },
    {
      "inputs": [
        {
          "internalType": "address",
          "name": "newOwner",
          "type": "address"
        }
      ],
      "name": "transferOwnership",
      "outputs": [],
      "stateMutability": "nonpayable",
      "type": "function"
    },
    {
      "stateMutability": "payable",
      "type": "receive"
    },
    {
      "inputs": [
        {
          "internalType": "address",
          "name": "gasToken",
          "type": "address"
        },
        {
          "internalType": "uint256",
          "name": "freeUpValue",
          "type": "uint256"
        }
      ],
      "name": "addGasToken",
      "outputs": [],
      "stateMutability": "nonpayable",
      "type": "function"
    },
    {
      "inputs": [
        {
          "internalType": "address",
          "name": "gasToken",
          "type": "address"
        }
      ],
      "name": "compatibleGasToken",
      "outputs": [
        {
          "internalType": "uint256",
          "name": "",
          "type": "uint256"
        }
      ],
      "stateMutability": "view",
      "type": "function"
    },
    {
      "inputs": [
        {
          "internalType": "bytes",
          "name": "data",
          "type": "bytes"
        },
        {
          "internalType": "address",
          "name": "contractAddress",
          "type": "address"
        },
        {
          "internalType": "uint256",
          "name": "value",
          "type": "uint256"
        },
        {
          "internalType": "address",
          "name": "gasToken",
          "type": "address"
        }
      ],
      "name": "wrapTransaction",
      "outputs": [],
      "stateMutability": "payable",
      "type": "function"
    },
    {
      "inputs": [],
      "name": "withdrawBalance",
      "outputs": [],
      "stateMutability": "nonpayable",
      "type": "function"
    },
    {
      "inputs": [
        {
          "internalType": "address",
          "name": "token",
          "type": "address"
        }
      ],
      "name": "withdrawTokenBalance",
      "outputs": [],
      "stateMutability": "nonpayable",
      "type": "function"
    }
  ],
  "bytecode": "0x608060405234801561001057600080fd5b5060006100216100c460201b60201c565b9050806000806101000a81548173ffffffffffffffffffffffffffffffffffffffff021916908373ffffffffffffffffffffffffffffffffffffffff1602179055508073ffffffffffffffffffffffffffffffffffffffff16600073ffffffffffffffffffffffffffffffffffffffff167f8be0079c531659141344cd1fd0a4f28419497f9722a3daafe3b4186f6b6457e060405160405180910390a3506100cc565b600033905090565b61164a806100db6000396000f3fe60806040526004361061007e5760003560e01c80638da5cb5b1161004e5780638da5cb5b146100fd5780638e13fd781461012857806390bb615314610165578063f2fde38b1461018e57610085565b8062e356021461008a5780635fd8c710146100b3578063715018a6146100ca5780638da02632146100e157610085565b3661008557005b600080fd5b34801561009657600080fd5b506100b160048036038101906100ac9190610ecd565b6101b7565b005b3480156100bf57600080fd5b506100c86102bf565b005b3480156100d657600080fd5b506100df6103b0565b005b6100fb60048036038101906100f69190610f32565b6104ea565b005b34801561010957600080fd5b50610112610895565b60405161011f9190611161565b60405180910390f35b34801561013457600080fd5b5061014f600480360381019061014a9190610ea4565b6108be565b60405161015c9190611267565b60405180910390f35b34801561017157600080fd5b5061018c60048036038101906101879190610ea4565b610907565b005b34801561019a57600080fd5b506101b560048036038101906101b09190610ea4565b610aaf565b005b6101bf610c58565b73ffffffffffffffffffffffffffffffffffffffff166101dd610895565b73ffffffffffffffffffffffffffffffffffffffff1614610233576040517f08c379a000000000000000000000000000000000000000000000000000000000815260040161022a90611227565b60405180910390fd5b60018060008473ffffffffffffffffffffffffffffffffffffffff1673ffffffffffffffffffffffffffffffffffffffff1681526020019081526020016000208190555080600260008473ffffffffffffffffffffffffffffffffffffffff1673ffffffffffffffffffffffffffffffffffffffff168152602001908152602001600020819055505050565b6102c7610c58565b73ffffffffffffffffffffffffffffffffffffffff166102e5610895565b73ffffffffffffffffffffffffffffffffffffffff161461033b576040517f08c379a000000000000000000000000000000000000000000000000000000000815260040161033290611227565b60405180910390fd5b610343610895565b73ffffffffffffffffffffffffffffffffffffffff16475a906040516103689061114c565b600060405180830381858888f193505050503d80600081146103a6576040519150601f19603f3d011682016040523d82523d6000602084013e6103ab565b606091505b505050565b6103b8610c58565b73ffffffffffffffffffffffffffffffffffffffff166103d6610895565b73ffffffffffffffffffffffffffffffffffffffff161461042c576040517f08c379a000000000000000000000000000000000000000000000000000000000815260040161042390611227565b60405180910390fd5b600073ffffffffffffffffffffffffffffffffffffffff1660008054906101000a900473ffffffffffffffffffffffffffffffffffffffff1673ffffffffffffffffffffffffffffffffffffffff167f8be0079c531659141344cd1fd0a4f28419497f9722a3daafe3b4186f6b6457e060405160405180910390a360008060006101000a81548173ffffffffffffffffffffffffffffffffffffffff021916908373ffffffffffffffffffffffffffffffffffffffff160217905550565b8060018060008373ffffffffffffffffffffffffffffffffffffffff1673ffffffffffffffffffffffffffffffffffffffff168152602001908152602001600020541461056c576040517f08c379a0000000000000000000000000000000000000000000000000000000008152600401610563906111c7565b60405180910390fd5b60005a9050610579610c58565b73ffffffffffffffffffffffffffffffffffffffff16610597610895565b73ffffffffffffffffffffffffffffffffffffffff16146105ed576040517f08c379a00000000000000000000000000000000000000000000000000000000081526004016105e490611227565b60405180910390fd5b61060c8573ffffffffffffffffffffffffffffffffffffffff16610c60565b61061557610771565b60008411156106ca576106c487878080601f016020809104026020016040519081016040528093929190818152602001838380828437600081840152601f19601f82011690508083019250505050505050856040518060400160405280602081526020017f47533a204572726f7220666f7277617264696e67207472616e73616374696f6e8152508873ffffffffffffffffffffffffffffffffffffffff16610c73909392919063ffffffff16565b50610770565b61076e87878080601f016020809104026020016040519081016040528093929190818152602001838380828437600081840152601f19601f820116905080830192505050505050506040518060400160405280602081526020017f47533a204572726f7220666f7277617264696e67207472616e73616374696f6e8152508773ffffffffffffffffffffffffffffffffffffffff16610d879092919063ffffffff16565b505b5b6000803690506010610783919061133b565b5a8361520861079291906112b4565b61079c9190611395565b6107a691906112b4565b90508273ffffffffffffffffffffffffffffffffffffffff16636366b936600260008673ffffffffffffffffffffffffffffffffffffffff1673ffffffffffffffffffffffffffffffffffffffff16815260200190815260200160002054614e208461081291906112b4565b61081c919061130a565b6040518263ffffffff1660e01b81526004016108389190611267565b602060405180830381600087803b15801561085257600080fd5b505af1158015610866573d6000803e3d6000fd5b505050506040513d601f19601f8201168201806040525081019061088a9190610fb2565b505050505050505050565b60008060009054906101000a900473ffffffffffffffffffffffffffffffffffffffff16905090565b6000600160008373ffffffffffffffffffffffffffffffffffffffff1673ffffffffffffffffffffffffffffffffffffffff168152602001908152602001600020549050919050565b61090f610c58565b73ffffffffffffffffffffffffffffffffffffffff1661092d610895565b73ffffffffffffffffffffffffffffffffffffffff1614610983576040517f08c379a000000000000000000000000000000000000000000000000000000000815260040161097a90611227565b60405180910390fd5b600081905060008173ffffffffffffffffffffffffffffffffffffffff166370a08231306040518263ffffffff1660e01b81526004016109c39190611161565b60206040518083038186803b1580156109db57600080fd5b505afa1580156109ef573d6000803e3d6000fd5b505050506040513d601f19601f82011682018060405250810190610a139190610fb2565b90508173ffffffffffffffffffffffffffffffffffffffff1663a9059cbb610a39610895565b836040518363ffffffff1660e01b8152600401610a5792919061117c565b602060405180830381600087803b158015610a7157600080fd5b505af1158015610a85573d6000803e3d6000fd5b505050506040513d601f19601f82011682018060405250810190610aa99190610f09565b50505050565b610ab7610c58565b73ffffffffffffffffffffffffffffffffffffffff16610ad5610895565b73ffffffffffffffffffffffffffffffffffffffff1614610b2b576040517f08c379a0000000000000000000000000000000000000000000000000000000008152600401610b2290611227565b60405180910390fd5b600073ffffffffffffffffffffffffffffffffffffffff168173ffffffffffffffffffffffffffffffffffffffff161415610b9b576040517f08c379a0000000000000000000000000000000000000000000000000000000008152600401610b92906111e7565b60405180910390fd5b8073ffffffffffffffffffffffffffffffffffffffff1660008054906101000a900473ffffffffffffffffffffffffffffffffffffffff1673ffffffffffffffffffffffffffffffffffffffff167f8be0079c531659141344cd1fd0a4f28419497f9722a3daafe3b4186f6b6457e060405160405180910390a3806000806101000a81548173ffffffffffffffffffffffffffffffffffffffff021916908373ffffffffffffffffffffffffffffffffffffffff16021790555050565b600033905090565b600080823b905060008111915050919050565b606082471015610cb8576040517f08c379a0000000000000000000000000000000000000000000000000000000008152600401610caf90611207565b60405180910390fd5b610cc185610c60565b610d00576040517f08c379a0000000000000000000000000000000000000000000000000000000008152600401610cf790611247565b60405180910390fd5b6000808673ffffffffffffffffffffffffffffffffffffffff168587604051610d299190611135565b60006040518083038185875af1925050503d8060008114610d66576040519150601f19603f3d011682016040523d82523d6000602084013e610d6b565b606091505b5091509150610d7b828286610d9f565b92505050949350505050565b6060610d968484600085610c73565b90509392505050565b60608315610daf57829050610dff565b600083511115610dc25782518084602001fd5b816040517f08c379a0000000000000000000000000000000000000000000000000000000008152600401610df691906111a5565b60405180910390fd5b9392505050565b600081359050610e15816115cf565b92915050565b600081519050610e2a816115e6565b92915050565b60008083601f840112610e4257600080fd5b8235905067ffffffffffffffff811115610e5b57600080fd5b602083019150836001820283011115610e7357600080fd5b9250929050565b600081359050610e89816115fd565b92915050565b600081519050610e9e816115fd565b92915050565b600060208284031215610eb657600080fd5b6000610ec484828501610e06565b91505092915050565b60008060408385031215610ee057600080fd5b6000610eee85828601610e06565b9250506020610eff85828601610e7a565b9150509250929050565b600060208284031215610f1b57600080fd5b6000610f2984828501610e1b565b91505092915050565b600080600080600060808688031215610f4a57600080fd5b600086013567ffffffffffffffff811115610f6457600080fd5b610f7088828901610e30565b95509550506020610f8388828901610e06565b9350506040610f9488828901610e7a565b9250506060610fa588828901610e06565b9150509295509295909350565b600060208284031215610fc457600080fd5b6000610fd284828501610e8f565b91505092915050565b610fe4816113c9565b82525050565b6000610ff582611282565b610fff8185611298565b935061100f818560208601611411565b80840191505092915050565b60006110268261128d565b61103081856112a3565b9350611040818560208601611411565b611049816114a2565b840191505092915050565b60006110616018836112a3565b915061106c826114b3565b602082019050919050565b60006110846026836112a3565b915061108f826114dc565b604082019050919050565b60006110a76026836112a3565b91506110b28261152b565b604082019050919050565b60006110ca6020836112a3565b91506110d58261157a565b602082019050919050565b60006110ed600083611298565b91506110f8826115a3565b600082019050919050565b6000611110601d836112a3565b915061111b826115a6565b602082019050919050565b61112f81611407565b82525050565b60006111418284610fea565b915081905092915050565b6000611157826110e0565b9150819050919050565b60006020820190506111766000830184610fdb565b92915050565b60006040820190506111916000830185610fdb565b61119e6020830184611126565b9392505050565b600060208201905081810360008301526111bf818461101b565b905092915050565b600060208201905081810360008301526111e081611054565b9050919050565b6000602082019050818103600083015261120081611077565b9050919050565b600060208201905081810360008301526112208161109a565b9050919050565b60006020820190508181036000830152611240816110bd565b9050919050565b6000602082019050818103600083015261126081611103565b9050919050565b600060208201905061127c6000830184611126565b92915050565b600081519050919050565b600081519050919050565b600081905092915050565b600082825260208201905092915050565b60006112bf82611407565b91506112ca83611407565b9250827fffffffffffffffffffffffffffffffffffffffffffffffffffffffffffffffff038211156112ff576112fe611444565b5b828201905092915050565b600061131582611407565b915061132083611407565b9250826113305761132f611473565b5b828204905092915050565b600061134682611407565b915061135183611407565b9250817fffffffffffffffffffffffffffffffffffffffffffffffffffffffffffffffff048311821515161561138a57611389611444565b5b828202905092915050565b60006113a082611407565b91506113ab83611407565b9250828210156113be576113bd611444565b5b828203905092915050565b60006113d4826113e7565b9050919050565b60008115159050919050565b600073ffffffffffffffffffffffffffffffffffffffff82169050919050565b6000819050919050565b60005b8381101561142f578082015181840152602081019050611414565b8381111561143e576000848401525b50505050565b7f4e487b7100000000000000000000000000000000000000000000000000000000600052601160045260246000fd5b7f4e487b7100000000000000000000000000000000000000000000000000000000600052601260045260246000fd5b6000601f19601f8301169050919050565b7f475356453a20696e636f6d70617469626c6520746f6b656e0000000000000000600082015250565b7f4f776e61626c653a206e6577206f776e657220697320746865207a65726f206160008201527f6464726573730000000000000000000000000000000000000000000000000000602082015250565b7f416464726573733a20696e73756666696369656e742062616c616e636520666f60008201527f722063616c6c0000000000000000000000000000000000000000000000000000602082015250565b7f4f776e61626c653a2063616c6c6572206973206e6f7420746865206f776e6572600082015250565b50565b7f416464726573733a2063616c6c20746f206e6f6e2d636f6e7472616374000000600082015250565b6115d8816113c9565b81146115e357600080fd5b50565b6115ef816113db565b81146115fa57600080fd5b50565b61160681611407565b811461161157600080fd5b5056fea2646970667358221220b38d2e08995c8a134824fbe05f8cf921b2794e00f4e20d0252a8ec62967af18864736f6c63430008040033",
  "immutableReferences": {},
  "source": "// SPDX-License-Identifier: MIT\r\npragma solidity ^0.8.0;\r\n\r\nimport \"@openzeppelin/contracts/utils/Address.sol\";\r\nimport \"@openzeppelin/contracts/token/ERC20/IERC20.sol\";\r\nimport \"@openzeppelin/contracts/access/Ownable.sol\";\r\n\r\n/**\r\n* @dev interface to allow gas tokens to be burned from the wrapper\r\n*/\r\ninterface IFreeUpTo {\r\n    function freeUpTo(uint256 value) external returns (uint256 freed);\r\n}\r\n\r\n/**\r\n* @dev The v1 smart wrapper is the core gas saving feature\r\n* it can interact with other smart contracts\r\n* it burns gas to save on the transaction fee\r\n* only the owner/deployer of the smart contract can interact with it\r\n* only the owner can send tokens from the address (smart contract)\r\n* only the owner can withdraw tokens of any type, and this goes directly to the owner.\r\n*/\r\ncontract GSVESmartWrapper is Ownable {\r\n    using Address for address;\r\n\r\n   \r\n    mapping(address => uint256) private _compatibleGasTokens;\r\n    mapping(address => uint256) private _freeUpValue;\r\n\r\n    /**\r\n    * @dev allow the contract to recieve funds. \r\n    * This will be needed for dApps that check balances before enabling transaction creation.\r\n    */\r\n    receive() external payable{}\r\n\r\n    /**\r\n    * @dev function to enable gas tokens.\r\n    * by default the wrapped tokens are added when the wrapper is deployed\r\n    * using efficiency values based on a known token gas rebate that we store on contract.\r\n    * DANGER: adding unvetted gas tokens that aren't supported by the protocol could be bad!\r\n    */\r\n    function addGasToken(address gasToken, uint256 freeUpValue) public onlyOwner{\r\n        _compatibleGasTokens[gasToken] = 1;\r\n        _freeUpValue[gasToken] = freeUpValue;\r\n    }\r\n\r\n    /**\r\n    * @dev checks if the gas token is supported\r\n    */\r\n    function compatibleGasToken(address gasToken) public view returns(uint256){\r\n        return _compatibleGasTokens[gasToken];\r\n    }\r\n\r\n    /**\r\n    * @dev GSVE moddifier that burns supported gas tokens around a function that uses gas\r\n    * the function calculates the optimal number of tokens to burn, based on the token specified\r\n    */\r\n    modifier discountGas(address gasToken) {\r\n        require(_compatibleGasTokens[gasToken] == 1, \"GSVE: incompatible token\");\r\n        uint256 gasStart = gasleft();\r\n        _;\r\n        uint256 gasSpent = 21000 + gasStart - gasleft() + 16 * msg.data.length;\r\n        IFreeUpTo(gasToken).freeUpTo((gasSpent + 20000) / _freeUpValue[gasToken]);\r\n    }\r\n    \r\n    /**\r\n    * @dev the wrapTransaction function interacts with other smart contracts on the users behalf\r\n    * this wrapper works for any smart contract\r\n    * as long as the dApp/smart contract the wrapper is interacting with has the correct approvals for balances within this wrapper\r\n    * if the function requires a payment, this is handled too and sent from the wrapper balance.\r\n    */\r\n    function wrapTransaction(bytes calldata data, address contractAddress, uint256 value, address gasToken) public discountGas(gasToken) payable onlyOwner{\r\n        if(!contractAddress.isContract()){\r\n            return;\r\n        }\r\n\r\n        if(value > 0){\r\n            contractAddress.functionCallWithValue(data, value, \"GS: Error forwarding transaction\");\r\n        }\r\n        else{\r\n            contractAddress.functionCall(data, \"GS: Error forwarding transaction\");\r\n        }\r\n    }\r\n\r\n    /**\r\n    * @dev function that the user can trigger to withdraw the entire balance of their wrapper back to themselves.\r\n    */\r\n    function withdrawBalance() public onlyOwner{\r\n        owner().call{value: address(this).balance, gas:gasleft()}(\"\");\r\n    }\r\n\r\n    /**\r\n    * @dev function that the user can trigger to withdraw an entire token balance from the wrapper to themselves\r\n    */\r\n    function withdrawTokenBalance(address token) public onlyOwner{\r\n        IERC20 tokenContract = IERC20(token);\r\n        uint256 balance = tokenContract.balanceOf(address(this));\r\n        tokenContract.transfer(owner(), balance);\r\n    }\r\n}\r\n",
  "sourcePath": "C:\\Users\\khera\\Documents\\GitHub\\GasSwapTokens\\contracts\\GSVESmartWrapper.sol",
  "compiler": {
    "name": "solc",
    "version": "0.8.4+commit.c7e474f2.Emscripten.clang"
  },
  "schemaVersion": "3.3.4",
  "updatedAt": "2021-05-06T11:17:03.855Z",
  "devdoc": {
    "details": "The v1 smart wrapper is the core gas saving feature it can interact with other smart contracts it burns gas to save on the transaction fee only the owner/deployer of the smart contract can interact with it only the owner can send tokens from the address (smart contract) only the owner can withdraw tokens of any type, and this goes directly to the owner.",
    "kind": "dev",
    "methods": {
      "addGasToken(address,uint256)": {
        "details": "function to enable gas tokens. by default the wrapped tokens are added when the wrapper is deployed using efficiency values based on a known token gas rebate that we store on contract. DANGER: adding unvetted gas tokens that aren't supported by the protocol could be bad!"
      },
      "compatibleGasToken(address)": {
        "details": "checks if the gas token is supported"
      },
      "owner()": {
        "details": "Returns the address of the current owner."
      },
      "renounceOwnership()": {
        "details": "Leaves the contract without owner. It will not be possible to call `onlyOwner` functions anymore. Can only be called by the current owner. NOTE: Renouncing ownership will leave the contract without an owner, thereby removing any functionality that is only available to the owner."
      },
      "transferOwnership(address)": {
        "details": "Transfers ownership of the contract to a new account (`newOwner`). Can only be called by the current owner."
      },
      "withdrawBalance()": {
        "details": "function that the user can trigger to withdraw the entire balance of their wrapper back to themselves."
      },
      "withdrawTokenBalance(address)": {
        "details": "function that the user can trigger to withdraw an entire token balance from the wrapper to themselves"
      },
      "wrapTransaction(bytes,address,uint256,address)": {
        "details": "the wrapTransaction function interacts with other smart contracts on the users behalf this wrapper works for any smart contract as long as the dApp/smart contract the wrapper is interacting with has the correct approvals for balances within this wrapper if the function requires a payment, this is handled too and sent from the wrapper balance."
      }
    },
    "version": 1
  },
  "userdoc": {
    "kind": "user",
    "methods": {},
    "version": 1
  }
}