{
  "contractName": "GSVEContractDeployer",
  "abi": [
    {
      "anonymous": false,
      "inputs": [
        {
          "indexed": true,
          "internalType": "address",
          "name": "creator",
          "type": "address"
        },
        {
          "indexed": false,
          "internalType": "address",
          "name": "deploymentAddress",
          "type": "address"
        }
      ],
      "name": "ContractDeployed",
      "type": "event"
    },
    {
      "anonymous": false,
      "inputs": [
        {
          "indexed": true,
          "internalType": "address",
          "name": "previousOwner",
          "type": "address"
        },
        {
          "indexed": true,
          "internalType": "address",
          "name": "newOwner",
          "type": "address"
        }
      ],
      "name": "OwnershipTransferred",
      "type": "event"
    },
    {
      "inputs": [],
      "name": "owner",
      "outputs": [
        {
          "internalType": "address",
          "name": "",
          "type": "address"
        }
      ],
      "stateMutability": "view",
      "type": "function"
    },
    {
      "inputs": [],
      "name": "renounceOwnership",
      "outputs": [],
      "stateMutability": "nonpayable",
      "type": "function"
    },
    {
      "inputs": [
        {
          "internalType": "address",
          "name": "newOwner",
          "type": "address"
        }
      ],
      "name": "transferOwnership",
      "outputs": [],
      "stateMutability": "nonpayable",
      "type": "function"
    },
    {
      "inputs": [
        {
          "internalType": "address",
          "name": "gasToken",
          "type": "address"
        }
      ],
      "name": "addGasToken",
      "outputs": [],
      "stateMutability": "nonpayable",
      "type": "function"
    },
    {
      "inputs": [
        {
          "internalType": "address",
          "name": "creator",
          "type": "address"
        }
      ],
      "name": "deployedWalletAddressLocation",
      "outputs": [
        {
          "internalType": "address",
          "name": "",
          "type": "address"
        }
      ],
      "stateMutability": "view",
      "type": "function"
    },
    {
      "inputs": [
        {
          "internalType": "address",
          "name": "gasToken",
          "type": "address"
        }
      ],
      "name": "compatibleGasToken",
      "outputs": [
        {
          "internalType": "uint256",
          "name": "",
          "type": "uint256"
        }
      ],
      "stateMutability": "view",
      "type": "function"
    },
    {
      "inputs": [
        {
          "internalType": "bytes",
          "name": "data",
          "type": "bytes"
        },
        {
          "internalType": "address",
          "name": "gasToken",
          "type": "address"
        }
      ],
      "name": "GsveDeploy",
      "outputs": [
        {
          "internalType": "address",
          "name": "contractAddress",
          "type": "address"
        }
      ],
      "stateMutability": "nonpayable",
      "type": "function"
    },
    {
      "inputs": [
        {
          "internalType": "uint256",
          "name": "salt",
          "type": "uint256"
        },
        {
          "internalType": "bytes",
          "name": "data",
          "type": "bytes"
        },
        {
          "internalType": "address",
          "name": "gasToken",
          "type": "address"
        }
      ],
      "name": "GsveDeploy2",
      "outputs": [
        {
          "internalType": "address",
          "name": "contractAddress",
          "type": "address"
        }
      ],
      "stateMutability": "nonpayable",
      "type": "function"
    },
    {
      "inputs": [],
      "name": "GsveWrapperDeploy",
      "outputs": [
        {
          "internalType": "address",
          "name": "contractAddress",
          "type": "address"
        }
      ],
      "stateMutability": "nonpayable",
      "type": "function"
    }
  ],
  "bytecode": "0x6080604052600060045534801561001557600080fd5b5060006100266100c960201b60201c565b9050806000806101000a81548173ffffffffffffffffffffffffffffffffffffffff021916908373ffffffffffffffffffffffffffffffffffffffff1602179055508073ffffffffffffffffffffffffffffffffffffffff16600073ffffffffffffffffffffffffffffffffffffffff167f8be0079c531659141344cd1fd0a4f28419497f9722a3daafe3b4186f6b6457e060405160405180910390a3506100d1565b600033905090565b612b4a806100e06000396000f3fe608060405234801561001057600080fd5b50600436106100935760003560e01c8063715018a611610066578063715018a6146101325780638da5cb5b1461013c5780638e13fd781461015a578063d1aa693d1461018a578063f2fde38b146101ba57610093565b80630f76f830146100985780632e8e94ef146100b4578063488f7463146100e45780635a0aa57e14610114575b600080fd5b6100b260048036038101906100ad9190610e7b565b6101d6565b005b6100ce60048036038101906100c99190610e7b565b610302565b6040516100db9190611041565b60405180910390f35b6100fe60048036038101906100f99190610ea4565b61036b565b60405161010b9190611041565b60405180910390f35b61011c6105f1565b6040516101299190611041565b60405180910390f35b61013a6107e1565b005b61014461091b565b6040516101519190611041565b60405180910390f35b610174600480360381019061016f9190610e7b565b610944565b60405161018191906110e5565b60405180910390f35b6101a4600480360381019061019f9190610f21565b61098d565b6040516101b19190611041565b60405180910390f35b6101d460048036038101906101cf9190610e7b565b610c15565b005b6101de610dbe565b73ffffffffffffffffffffffffffffffffffffffff166101fc61091b565b73ffffffffffffffffffffffffffffffffffffffff1614610252576040517f08c379a0000000000000000000000000000000000000000000000000000000008152600401610249906110c5565b60405180910390fd5b60018060008373ffffffffffffffffffffffffffffffffffffffff1673ffffffffffffffffffffffffffffffffffffffff168152602001908152602001600020819055508060026000600454815260200190815260200160002060006101000a81548173ffffffffffffffffffffffffffffffffffffffff021916908373ffffffffffffffffffffffffffffffffffffffff16021790555060016004546102f99190611167565b60048190555050565b6000600360008373ffffffffffffffffffffffffffffffffffffffff1673ffffffffffffffffffffffffffffffffffffffff16815260200190815260200160002060009054906101000a900473ffffffffffffffffffffffffffffffffffffffff169050919050565b60008160018060008373ffffffffffffffffffffffffffffffffffffffff1673ffffffffffffffffffffffffffffffffffffffff16815260200190815260200160002054146103ef576040517f08c379a00000000000000000000000000000000000000000000000000000000081526004016103e690611085565b60405180910390fd5b60005a90508451602086016000f092508273ffffffffffffffffffffffffffffffffffffffff1663f2fde38b336040518263ffffffff1660e01b81526004016104389190611041565b600060405180830381600087803b15801561045257600080fd5b505af1925050508015610463575060015b6104ba573373ffffffffffffffffffffffffffffffffffffffff167f33c981baba081f8fd2c52ac6ad1ea95b6814b4376640f55689051f6584729688846040516104ad9190611041565b60405180910390a2610509565b3373ffffffffffffffffffffffffffffffffffffffff167f33c981baba081f8fd2c52ac6ad1ea95b6814b4376640f55689051f6584729688846040516105009190611041565b60405180910390a25b600080369050601061051b91906111ee565b5a8361520861052a9190611167565b6105349190611248565b61053e9190611167565b90508273ffffffffffffffffffffffffffffffffffffffff1663079d229f3361a0aa61374a8561056e9190611167565b61057891906111bd565b6040518363ffffffff1660e01b815260040161059592919061105c565b602060405180830381600087803b1580156105af57600080fd5b505af11580156105c3573d6000803e3d6000fd5b505050506040513d601f19601f820116820180604052508101906105e79190610ef8565b5050505092915050565b6000806040518060200161060490610dc6565b6020820181038252601f19601f82011660405250905060003360405160200161062d9190611026565b604051602081830303815290604052805190602001209050808251602084016000f5925060005b60045481101561070f578373ffffffffffffffffffffffffffffffffffffffff16630f76f8306002600084815260200190815260200160002060009054906101000a900473ffffffffffffffffffffffffffffffffffffffff166040518263ffffffff1660e01b81526004016106ca9190611041565b600060405180830381600087803b1580156106e457600080fd5b505af11580156106f8573d6000803e3d6000fd5b505050508080610707906112f8565b915050610654565b5082600360003373ffffffffffffffffffffffffffffffffffffffff1673ffffffffffffffffffffffffffffffffffffffff16815260200190815260200160002060006101000a81548173ffffffffffffffffffffffffffffffffffffffff021916908373ffffffffffffffffffffffffffffffffffffffff1602179055503373ffffffffffffffffffffffffffffffffffffffff167f33c981baba081f8fd2c52ac6ad1ea95b6814b4376640f55689051f6584729688846040516107d49190611041565b60405180910390a2505090565b6107e9610dbe565b73ffffffffffffffffffffffffffffffffffffffff1661080761091b565b73ffffffffffffffffffffffffffffffffffffffff161461085d576040517f08c379a0000000000000000000000000000000000000000000000000000000008152600401610854906110c5565b60405180910390fd5b600073ffffffffffffffffffffffffffffffffffffffff1660008054906101000a900473ffffffffffffffffffffffffffffffffffffffff1673ffffffffffffffffffffffffffffffffffffffff167f8be0079c531659141344cd1fd0a4f28419497f9722a3daafe3b4186f6b6457e060405160405180910390a360008060006101000a81548173ffffffffffffffffffffffffffffffffffffffff021916908373ffffffffffffffffffffffffffffffffffffffff160217905550565b60008060009054906101000a900473ffffffffffffffffffffffffffffffffffffffff16905090565b6000600160008373ffffffffffffffffffffffffffffffffffffffff1673ffffffffffffffffffffffffffffffffffffffff168152602001908152602001600020549050919050565b60008160018060008373ffffffffffffffffffffffffffffffffffffffff1673ffffffffffffffffffffffffffffffffffffffff1681526020019081526020016000205414610a11576040517f08c379a0000000000000000000000000000000000000000000000000000000008152600401610a0890611085565b60405180910390fd5b60005a9050858551602087016000f592508273ffffffffffffffffffffffffffffffffffffffff1663f2fde38b336040518263ffffffff1660e01b8152600401610a5b9190611041565b600060405180830381600087803b158015610a7557600080fd5b505af1925050508015610a86575060015b610add573373ffffffffffffffffffffffffffffffffffffffff167f33c981baba081f8fd2c52ac6ad1ea95b6814b4376640f55689051f658472968884604051610ad09190611041565b60405180910390a2610b2c565b3373ffffffffffffffffffffffffffffffffffffffff167f33c981baba081f8fd2c52ac6ad1ea95b6814b4376640f55689051f658472968884604051610b239190611041565b60405180910390a25b6000803690506010610b3e91906111ee565b5a83615208610b4d9190611167565b610b579190611248565b610b619190611167565b90508273ffffffffffffffffffffffffffffffffffffffff1663079d229f3361a0aa61374a85610b919190611167565b610b9b91906111bd565b6040518363ffffffff1660e01b8152600401610bb892919061105c565b602060405180830381600087803b158015610bd257600080fd5b505af1158015610be6573d6000803e3d6000fd5b505050506040513d601f19601f82011682018060405250810190610c0a9190610ef8565b505050509392505050565b610c1d610dbe565b73ffffffffffffffffffffffffffffffffffffffff16610c3b61091b565b73ffffffffffffffffffffffffffffffffffffffff1614610c91576040517f08c379a0000000000000000000000000000000000000000000000000000000008152600401610c88906110c5565b60405180910390fd5b600073ffffffffffffffffffffffffffffffffffffffff168173ffffffffffffffffffffffffffffffffffffffff161415610d01576040517f08c379a0000000000000000000000000000000000000000000000000000000008152600401610cf8906110a5565b60405180910390fd5b8073ffffffffffffffffffffffffffffffffffffffff1660008054906101000a900473ffffffffffffffffffffffffffffffffffffffff1673ffffffffffffffffffffffffffffffffffffffff167f8be0079c531659141344cd1fd0a4f28419497f9722a3daafe3b4186f6b6457e060405160405180910390a3806000806101000a81548173ffffffffffffffffffffffffffffffffffffffff021916908373ffffffffffffffffffffffffffffffffffffffff16021790555050565b600033905090565b61163580620014e083390190565b6000610de7610de284611125565b611100565b905082815260208101848484011115610dff57600080fd5b610e0a8482856112b8565b509392505050565b600081359050610e21816114b1565b92915050565b600082601f830112610e3857600080fd5b8135610e48848260208601610dd4565b91505092915050565b600081359050610e60816114c8565b92915050565b600081519050610e75816114c8565b92915050565b600060208284031215610e8d57600080fd5b6000610e9b84828501610e12565b91505092915050565b60008060408385031215610eb757600080fd5b600083013567ffffffffffffffff811115610ed157600080fd5b610edd85828601610e27565b9250506020610eee85828601610e12565b9150509250929050565b600060208284031215610f0a57600080fd5b6000610f1884828501610e66565b91505092915050565b600080600060608486031215610f3657600080fd5b6000610f4486828701610e51565b935050602084013567ffffffffffffffff811115610f6157600080fd5b610f6d86828701610e27565b9250506040610f7e86828701610e12565b9150509250925092565b610f918161127c565b82525050565b610fa8610fa38261127c565b611341565b82525050565b6000610fbb601883611156565b9150610fc682611410565b602082019050919050565b6000610fde602683611156565b9150610fe982611439565b604082019050919050565b6000611001602083611156565b915061100c82611488565b602082019050919050565b611020816112ae565b82525050565b60006110328284610f97565b60148201915081905092915050565b60006020820190506110566000830184610f88565b92915050565b60006040820190506110716000830185610f88565b61107e6020830184611017565b9392505050565b6000602082019050818103600083015261109e81610fae565b9050919050565b600060208201905081810360008301526110be81610fd1565b9050919050565b600060208201905081810360008301526110de81610ff4565b9050919050565b60006020820190506110fa6000830184611017565b92915050565b600061110a61111b565b905061111682826112c7565b919050565b6000604051905090565b600067ffffffffffffffff8211156111405761113f6113c3565b5b611149826113f2565b9050602081019050919050565b600082825260208201905092915050565b6000611172826112ae565b915061117d836112ae565b9250827fffffffffffffffffffffffffffffffffffffffffffffffffffffffffffffffff038211156111b2576111b1611365565b5b828201905092915050565b60006111c8826112ae565b91506111d3836112ae565b9250826111e3576111e2611394565b5b828204905092915050565b60006111f9826112ae565b9150611204836112ae565b9250817fffffffffffffffffffffffffffffffffffffffffffffffffffffffffffffffff048311821515161561123d5761123c611365565b5b828202905092915050565b6000611253826112ae565b915061125e836112ae565b92508282101561127157611270611365565b5b828203905092915050565b60006112878261128e565b9050919050565b600073ffffffffffffffffffffffffffffffffffffffff82169050919050565b6000819050919050565b82818337600083830152505050565b6112d0826113f2565b810181811067ffffffffffffffff821117156112ef576112ee6113c3565b5b80604052505050565b6000611303826112ae565b91507fffffffffffffffffffffffffffffffffffffffffffffffffffffffffffffffff82141561133657611335611365565b5b600182019050919050565b600061134c82611353565b9050919050565b600061135e82611403565b9050919050565b7f4e487b7100000000000000000000000000000000000000000000000000000000600052601160045260246000fd5b7f4e487b7100000000000000000000000000000000000000000000000000000000600052601260045260246000fd5b7f4e487b7100000000000000000000000000000000000000000000000000000000600052604160045260246000fd5b6000601f19601f8301169050919050565b60008160601b9050919050565b7f475356453a20696e636f6d70617469626c6520746f6b656e0000000000000000600082015250565b7f4f776e61626c653a206e6577206f776e657220697320746865207a65726f206160008201527f6464726573730000000000000000000000000000000000000000000000000000602082015250565b7f4f776e61626c653a2063616c6c6572206973206e6f7420746865206f776e6572600082015250565b6114ba8161127c565b81146114c557600080fd5b50565b6114d1816112ae565b81146114dc57600080fd5b5056fe608060405234801561001057600080fd5b5060006100216100c460201b60201c565b9050806000806101000a81548173ffffffffffffffffffffffffffffffffffffffff021916908373ffffffffffffffffffffffffffffffffffffffff1602179055508073ffffffffffffffffffffffffffffffffffffffff16600073ffffffffffffffffffffffffffffffffffffffff167f8be0079c531659141344cd1fd0a4f28419497f9722a3daafe3b4186f6b6457e060405160405180910390a3506100cc565b600033905090565b61155a806100db6000396000f3fe60806040526004361061007b5760003560e01c80638e13fd781161004e5780638e13fd781461010257806390bb61531461013f578063bc1a921c14610168578063f2fde38b146101845761007b565b80630f76f830146100805780635fd8c710146100a9578063715018a6146100c05780638da5cb5b146100d7575b600080fd5b34801561008c57600080fd5b506100a760048036038101906100a29190610e04565b6101ad565b005b3480156100b557600080fd5b506100be610270565b005b3480156100cc57600080fd5b506100d5610361565b005b3480156100e357600080fd5b506100ec61049b565b6040516100f99190611071565b60405180910390f35b34801561010e57600080fd5b5061012960048036038101906101249190610e04565b6104c4565b6040516101369190611177565b60405180910390f35b34801561014b57600080fd5b5061016660048036038101906101619190610e04565b61050d565b005b610182600480360381019061017d9190610e56565b6106b5565b005b34801561019057600080fd5b506101ab60048036038101906101a69190610e04565b610a24565b005b6101b5610bcd565b73ffffffffffffffffffffffffffffffffffffffff166101d361049b565b73ffffffffffffffffffffffffffffffffffffffff1614610229576040517f08c379a000000000000000000000000000000000000000000000000000000000815260040161022090611137565b60405180910390fd5b60018060008373ffffffffffffffffffffffffffffffffffffffff1673ffffffffffffffffffffffffffffffffffffffff1681526020019081526020016000208190555050565b610278610bcd565b73ffffffffffffffffffffffffffffffffffffffff1661029661049b565b73ffffffffffffffffffffffffffffffffffffffff16146102ec576040517f08c379a00000000000000000000000000000000000000000000000000000000081526004016102e390611137565b60405180910390fd5b6102f461049b565b73ffffffffffffffffffffffffffffffffffffffff16475a906040516103199061105c565b600060405180830381858888f193505050503d8060008114610357576040519150601f19603f3d011682016040523d82523d6000602084013e61035c565b606091505b505050565b610369610bcd565b73ffffffffffffffffffffffffffffffffffffffff1661038761049b565b73ffffffffffffffffffffffffffffffffffffffff16146103dd576040517f08c379a00000000000000000000000000000000000000000000000000000000081526004016103d490611137565b60405180910390fd5b600073ffffffffffffffffffffffffffffffffffffffff1660008054906101000a900473ffffffffffffffffffffffffffffffffffffffff1673ffffffffffffffffffffffffffffffffffffffff167f8be0079c531659141344cd1fd0a4f28419497f9722a3daafe3b4186f6b6457e060405160405180910390a360008060006101000a81548173ffffffffffffffffffffffffffffffffffffffff021916908373ffffffffffffffffffffffffffffffffffffffff160217905550565b60008060009054906101000a900473ffffffffffffffffffffffffffffffffffffffff16905090565b6000600160008373ffffffffffffffffffffffffffffffffffffffff1673ffffffffffffffffffffffffffffffffffffffff168152602001908152602001600020549050919050565b610515610bcd565b73ffffffffffffffffffffffffffffffffffffffff1661053361049b565b73ffffffffffffffffffffffffffffffffffffffff1614610589576040517f08c379a000000000000000000000000000000000000000000000000000000000815260040161058090611137565b60405180910390fd5b600081905060008173ffffffffffffffffffffffffffffffffffffffff166370a08231306040518263ffffffff1660e01b81526004016105c99190611071565b60206040518083038186803b1580156105e157600080fd5b505afa1580156105f5573d6000803e3d6000fd5b505050506040513d601f19601f820116820180604052508101906106199190610ec2565b90508173ffffffffffffffffffffffffffffffffffffffff1663a9059cbb61063f61049b565b836040518363ffffffff1660e01b815260040161065d92919061108c565b602060405180830381600087803b15801561067757600080fd5b505af115801561068b573d6000803e3d6000fd5b505050506040513d601f19601f820116820180604052508101906106af9190610e2d565b50505050565b8060018060008373ffffffffffffffffffffffffffffffffffffffff1673ffffffffffffffffffffffffffffffffffffffff1681526020019081526020016000205414610737576040517f08c379a000000000000000000000000000000000000000000000000000000000815260040161072e906110d7565b60405180910390fd5b60005a9050610744610bcd565b73ffffffffffffffffffffffffffffffffffffffff1661076261049b565b73ffffffffffffffffffffffffffffffffffffffff16146107b8576040517f08c379a00000000000000000000000000000000000000000000000000000000081526004016107af90611137565b60405180910390fd5b6107d78473ffffffffffffffffffffffffffffffffffffffff16610bd5565b6107e05761093c565b60003411156108955761088f86868080601f016020809104026020016040519081016040528093929190818152602001838380828437600081840152601f19601f82011690508083019250505050505050346040518060400160405280602081526020017f47533a204572726f7220666f7277617264696e67207472616e73616374696f6e8152508773ffffffffffffffffffffffffffffffffffffffff16610be8909392919063ffffffff16565b5061093b565b61093986868080601f016020809104026020016040519081016040528093929190818152602001838380828437600081840152601f19601f820116905080830192505050505050506040518060400160405280602081526020017f47533a204572726f7220666f7277617264696e67207472616e73616374696f6e8152508673ffffffffffffffffffffffffffffffffffffffff16610cfc9092919063ffffffff16565b505b5b600080369050601061094e919061124b565b5a8361520861095d91906111c4565b61096791906112a5565b61097191906111c4565b90508273ffffffffffffffffffffffffffffffffffffffff1663079d229f33615dc061374a856109a191906111c4565b6109ab919061121a565b6040518363ffffffff1660e01b81526004016109c892919061108c565b602060405180830381600087803b1580156109e257600080fd5b505af11580156109f6573d6000803e3d6000fd5b505050506040513d601f19601f82011682018060405250810190610a1a9190610ec2565b5050505050505050565b610a2c610bcd565b73ffffffffffffffffffffffffffffffffffffffff16610a4a61049b565b73ffffffffffffffffffffffffffffffffffffffff1614610aa0576040517f08c379a0000000000000000000000000000000000000000000000000000000008152600401610a9790611137565b60405180910390fd5b600073ffffffffffffffffffffffffffffffffffffffff168173ffffffffffffffffffffffffffffffffffffffff161415610b10576040517f08c379a0000000000000000000000000000000000000000000000000000000008152600401610b07906110f7565b60405180910390fd5b8073ffffffffffffffffffffffffffffffffffffffff1660008054906101000a900473ffffffffffffffffffffffffffffffffffffffff1673ffffffffffffffffffffffffffffffffffffffff167f8be0079c531659141344cd1fd0a4f28419497f9722a3daafe3b4186f6b6457e060405160405180910390a3806000806101000a81548173ffffffffffffffffffffffffffffffffffffffff021916908373ffffffffffffffffffffffffffffffffffffffff16021790555050565b600033905090565b600080823b905060008111915050919050565b606082471015610c2d576040517f08c379a0000000000000000000000000000000000000000000000000000000008152600401610c2490611117565b60405180910390fd5b610c3685610bd5565b610c75576040517f08c379a0000000000000000000000000000000000000000000000000000000008152600401610c6c90611157565b60405180910390fd5b6000808673ffffffffffffffffffffffffffffffffffffffff168587604051610c9e9190611045565b60006040518083038185875af1925050503d8060008114610cdb576040519150601f19603f3d011682016040523d82523d6000602084013e610ce0565b606091505b5091509150610cf0828286610d14565b92505050949350505050565b6060610d0b8484600085610be8565b90509392505050565b60608315610d2457829050610d74565b600083511115610d375782518084602001fd5b816040517f08c379a0000000000000000000000000000000000000000000000000000000008152600401610d6b91906110b5565b60405180910390fd5b9392505050565b600081359050610d8a816114df565b92915050565b600081519050610d9f816114f6565b92915050565b60008083601f840112610db757600080fd5b8235905067ffffffffffffffff811115610dd057600080fd5b602083019150836001820283011115610de857600080fd5b9250929050565b600081519050610dfe8161150d565b92915050565b600060208284031215610e1657600080fd5b6000610e2484828501610d7b565b91505092915050565b600060208284031215610e3f57600080fd5b6000610e4d84828501610d90565b91505092915050565b60008060008060608587031215610e6c57600080fd5b600085013567ffffffffffffffff811115610e8657600080fd5b610e9287828801610da5565b94509450506020610ea587828801610d7b565b9250506040610eb687828801610d7b565b91505092959194509250565b600060208284031215610ed457600080fd5b6000610ee284828501610def565b91505092915050565b610ef4816112d9565b82525050565b6000610f0582611192565b610f0f81856111a8565b9350610f1f818560208601611321565b80840191505092915050565b6000610f368261119d565b610f4081856111b3565b9350610f50818560208601611321565b610f59816113b2565b840191505092915050565b6000610f716018836111b3565b9150610f7c826113c3565b602082019050919050565b6000610f946026836111b3565b9150610f9f826113ec565b604082019050919050565b6000610fb76026836111b3565b9150610fc28261143b565b604082019050919050565b6000610fda6020836111b3565b9150610fe58261148a565b602082019050919050565b6000610ffd6000836111a8565b9150611008826114b3565b600082019050919050565b6000611020601d836111b3565b915061102b826114b6565b602082019050919050565b61103f81611317565b82525050565b60006110518284610efa565b915081905092915050565b600061106782610ff0565b9150819050919050565b60006020820190506110866000830184610eeb565b92915050565b60006040820190506110a16000830185610eeb565b6110ae6020830184611036565b9392505050565b600060208201905081810360008301526110cf8184610f2b565b905092915050565b600060208201905081810360008301526110f081610f64565b9050919050565b6000602082019050818103600083015261111081610f87565b9050919050565b6000602082019050818103600083015261113081610faa565b9050919050565b6000602082019050818103600083015261115081610fcd565b9050919050565b6000602082019050818103600083015261117081611013565b9050919050565b600060208201905061118c6000830184611036565b92915050565b600081519050919050565b600081519050919050565b600081905092915050565b600082825260208201905092915050565b60006111cf82611317565b91506111da83611317565b9250827fffffffffffffffffffffffffffffffffffffffffffffffffffffffffffffffff0382111561120f5761120e611354565b5b828201905092915050565b600061122582611317565b915061123083611317565b9250826112405761123f611383565b5b828204905092915050565b600061125682611317565b915061126183611317565b9250817fffffffffffffffffffffffffffffffffffffffffffffffffffffffffffffffff048311821515161561129a57611299611354565b5b828202905092915050565b60006112b082611317565b91506112bb83611317565b9250828210156112ce576112cd611354565b5b828203905092915050565b60006112e4826112f7565b9050919050565b60008115159050919050565b600073ffffffffffffffffffffffffffffffffffffffff82169050919050565b6000819050919050565b60005b8381101561133f578082015181840152602081019050611324565b8381111561134e576000848401525b50505050565b7f4e487b7100000000000000000000000000000000000000000000000000000000600052601160045260246000fd5b7f4e487b7100000000000000000000000000000000000000000000000000000000600052601260045260246000fd5b6000601f19601f8301169050919050565b7f475356453a20696e636f6d70617469626c6520746f6b656e0000000000000000600082015250565b7f4f776e61626c653a206e6577206f776e657220697320746865207a65726f206160008201527f6464726573730000000000000000000000000000000000000000000000000000602082015250565b7f416464726573733a20696e73756666696369656e742062616c616e636520666f60008201527f722063616c6c0000000000000000000000000000000000000000000000000000602082015250565b7f4f776e61626c653a2063616c6c6572206973206e6f7420746865206f776e6572600082015250565b50565b7f416464726573733a2063616c6c20746f206e6f6e2d636f6e7472616374000000600082015250565b6114e8816112d9565b81146114f357600080fd5b50565b6114ff816112eb565b811461150a57600080fd5b50565b61151681611317565b811461152157600080fd5b5056fea2646970667358221220a42eabbd33545e4b3db294701a34bb41342d78d9990eafb351f34ce09716a7be64736f6c63430008040033a2646970667358221220f416fd5d85a6a77a8ddad18b4114d010d552bbc968ba07f2232fe65a7d68c3d064736f6c63430008040033",
  "immutableReferences": {},
  "source": "pragma solidity ^0.8.0;\r\n\r\nimport \"@openzeppelin/contracts/access/Ownable.sol\";\r\nimport \"./GSVETransactionWrapper.sol\";\r\n\r\ncontract GSVEContractDeployer is Ownable{\r\n    mapping(address => uint256) private _compatibleGasTokens;\r\n    mapping(uint256 => address) private _reverseTokenMap;\r\n    mapping(address => address) private _deployedWalletAddressLocation;\r\n    uint256 private _totalSupportedTokens = 0;\r\n\r\n\r\n    function addGasToken(address gasToken) public onlyOwner{\r\n        _compatibleGasTokens[gasToken] = 1;\r\n        _reverseTokenMap[_totalSupportedTokens] = gasToken;\r\n        _totalSupportedTokens = _totalSupportedTokens + 1;\r\n    }\r\n\r\n    function deployedWalletAddressLocation(address creator) public view returns(address){\r\n        return _deployedWalletAddressLocation[creator];\r\n    }\r\n\r\n    function compatibleGasToken(address gasToken) public view returns(uint256){\r\n        return _compatibleGasTokens[gasToken];\r\n    }\r\n\r\n    modifier discountGas(address gasToken) {\r\n        require(_compatibleGasTokens[gasToken] == 1, \"GSVE: incompatible token\");\r\n        uint256 gasStart = gasleft();\r\n        _;\r\n        uint256 gasSpent = 21000 + gasStart - gasleft() + 16 * msg.data.length;\r\n        IFreeFromUpTo(gasToken).freeFromUpTo(msg.sender,  (gasSpent + 14154) / 41130);\r\n    }\r\n\r\n    function GsveDeploy(bytes memory data, address gasToken) public discountGas(gasToken) returns(address contractAddress) {\r\n        assembly {\r\n            contractAddress := create(0, add(data, 32), mload(data))\r\n        }\r\n        try Ownable(contractAddress).transferOwnership(msg.sender){\r\n            emit ContractDeployed(msg.sender, contractAddress);\r\n        }\r\n        catch{\r\n            emit ContractDeployed(msg.sender, contractAddress);\r\n        }\r\n    }\r\n\r\n    function GsveDeploy2(uint256 salt, bytes memory data, address gasToken) public discountGas(gasToken) returns(address contractAddress) {\r\n        assembly {\r\n            contractAddress := create2(0, add(data, 32), mload(data), salt)\r\n        }\r\n\r\n        try Ownable(contractAddress).transferOwnership(msg.sender){\r\n            emit ContractDeployed(msg.sender, contractAddress);\r\n        }\r\n        catch{\r\n            emit ContractDeployed(msg.sender, contractAddress);\r\n        }\r\n    }\r\n    \r\n    function GsveWrapperDeploy() public returns(address contractAddress) {\r\n\r\n        bytes memory bytecode = type(GSVETransactionWrapper).creationCode;\r\n        bytes32 salt = keccak256(abi.encodePacked(msg.sender));\r\n\r\n        assembly {\r\n            contractAddress := create2(0, add(bytecode, 32), mload(bytecode), salt)\r\n        }\r\n\r\n        for(uint256 i = 0; i<_totalSupportedTokens; i++){\r\n            GSVETransactionWrapper(contractAddress).addGasToken(_reverseTokenMap[i]);\r\n        }\r\n        \r\n        _deployedWalletAddressLocation[msg.sender] = contractAddress;\r\n        emit ContractDeployed(msg.sender, contractAddress);\r\n    }\r\n\r\n    event ContractDeployed(address indexed creator, address deploymentAddress);\r\n}",
  "sourcePath": "C:/Users/khera/Documents/GitHub/GasSwapTokens/contracts/GSVEContractDeployer.sol",
  "compiler": {
    "name": "solc",
    "version": "0.8.4+commit.c7e474f2.Emscripten.clang"
  },
  "schemaVersion": "3.3.4",
  "updatedAt": "2021-04-29T10:01:07.710Z",
  "devdoc": {
    "kind": "dev",
    "methods": {
      "owner()": {
        "details": "Returns the address of the current owner."
      },
      "renounceOwnership()": {
        "details": "Leaves the contract without owner. It will not be possible to call `onlyOwner` functions anymore. Can only be called by the current owner. NOTE: Renouncing ownership will leave the contract without an owner, thereby removing any functionality that is only available to the owner."
      },
      "transferOwnership(address)": {
        "details": "Transfers ownership of the contract to a new account (`newOwner`). Can only be called by the current owner."
      }
    },
    "version": 1
  },
  "userdoc": {
    "kind": "user",
    "methods": {},
    "version": 1
  }
}