{
  "contractName": "GSVEDeployer",
  "abi": [
    {
      "anonymous": false,
      "inputs": [
        {
          "indexed": true,
          "internalType": "address",
          "name": "creator",
          "type": "address"
        },
        {
          "indexed": false,
          "internalType": "address",
          "name": "deploymentAddress",
          "type": "address"
        }
      ],
      "name": "ContractDeployed",
      "type": "event"
    },
    {
      "anonymous": false,
      "inputs": [
        {
          "indexed": true,
          "internalType": "address",
          "name": "previousOwner",
          "type": "address"
        },
        {
          "indexed": true,
          "internalType": "address",
          "name": "newOwner",
          "type": "address"
        }
      ],
      "name": "OwnershipTransferred",
      "type": "event"
    },
    {
      "inputs": [],
      "name": "owner",
      "outputs": [
        {
          "internalType": "address",
          "name": "",
          "type": "address"
        }
      ],
      "stateMutability": "view",
      "type": "function"
    },
    {
      "inputs": [],
      "name": "renounceOwnership",
      "outputs": [],
      "stateMutability": "nonpayable",
      "type": "function"
    },
    {
      "inputs": [
        {
          "internalType": "address",
          "name": "newOwner",
          "type": "address"
        }
      ],
      "name": "transferOwnership",
      "outputs": [],
      "stateMutability": "nonpayable",
      "type": "function"
    },
    {
      "inputs": [
        {
          "internalType": "address",
          "name": "gasToken",
          "type": "address"
        }
      ],
      "name": "addGasToken",
      "outputs": [],
      "stateMutability": "nonpayable",
      "type": "function"
    },
    {
      "inputs": [
        {
          "internalType": "address",
          "name": "creator",
          "type": "address"
        }
      ],
      "name": "deployedWalletAddressLocation",
      "outputs": [
        {
          "internalType": "address",
          "name": "",
          "type": "address"
        }
      ],
      "stateMutability": "view",
      "type": "function"
    },
    {
      "inputs": [
        {
          "internalType": "address",
          "name": "gasToken",
          "type": "address"
        }
      ],
      "name": "compatibleGasToken",
      "outputs": [
        {
          "internalType": "uint256",
          "name": "",
          "type": "uint256"
        }
      ],
      "stateMutability": "view",
      "type": "function"
    },
    {
      "inputs": [
        {
          "internalType": "bytes",
          "name": "data",
          "type": "bytes"
        },
        {
          "internalType": "address",
          "name": "gasToken",
          "type": "address"
        }
      ],
      "name": "GsveDeploy",
      "outputs": [
        {
          "internalType": "address",
          "name": "contractAddress",
          "type": "address"
        }
      ],
      "stateMutability": "nonpayable",
      "type": "function"
    },
    {
      "inputs": [
        {
          "internalType": "uint256",
          "name": "salt",
          "type": "uint256"
        },
        {
          "internalType": "bytes",
          "name": "data",
          "type": "bytes"
        },
        {
          "internalType": "address",
          "name": "gasToken",
          "type": "address"
        }
      ],
      "name": "GsveDeploy2",
      "outputs": [
        {
          "internalType": "address",
          "name": "contractAddress",
          "type": "address"
        }
      ],
      "stateMutability": "nonpayable",
      "type": "function"
    },
    {
      "inputs": [],
      "name": "GsveWrapperDeploy",
      "outputs": [
        {
          "internalType": "address payable",
          "name": "contractAddress",
          "type": "address"
        }
      ],
      "stateMutability": "nonpayable",
      "type": "function"
    }
  ],
  "bytecode": "0x6080604052600060045534801561001557600080fd5b5060006100266100c960201b60201c565b9050806000806101000a81548173ffffffffffffffffffffffffffffffffffffffff021916908373ffffffffffffffffffffffffffffffffffffffff1602179055508073ffffffffffffffffffffffffffffffffffffffff16600073ffffffffffffffffffffffffffffffffffffffff167f8be0079c531659141344cd1fd0a4f28419497f9722a3daafe3b4186f6b6457e060405160405180910390a3506100d1565b600033905090565b612db8806100e06000396000f3fe60806040523480156200001157600080fd5b5060043610620000a05760003560e01c8063715018a6116200006f578063715018a614620001535780638da5cb5b146200015f5780638e13fd781462000181578063d1aa693d14620001b7578063f2fde38b14620001ed57620000a0565b80630f76f83014620000a55780632e8e94ef14620000c5578063488f746314620000fb5780635a0aa57e1462000131575b600080fd5b620000c36004803603810190620000bd919062000f97565b6200020d565b005b620000e36004803603810190620000dd919062000f97565b62000342565b604051620000f29190620011a9565b60405180910390f35b62000119600480360381019062000113919062000fc3565b620003ab565b604051620001289190620011a9565b60405180910390f35b6200013b62000650565b6040516200014a9190620011e3565b60405180910390f35b6200015d620008bd565b005b62000169620009fe565b604051620001789190620011a9565b60405180910390f35b6200019f600480360381019062000199919062000f97565b62000a27565b604051620001ae919062001293565b60405180910390f35b620001d56004803603810190620001cf919062001049565b62000a70565b604051620001e49190620011a9565b60405180910390f35b6200020b600480360381019062000205919062000f97565b62000d17565b005b6200021762000eca565b73ffffffffffffffffffffffffffffffffffffffff1662000237620009fe565b73ffffffffffffffffffffffffffffffffffffffff161462000290576040517f08c379a0000000000000000000000000000000000000000000000000000000008152600401620002879062001271565b60405180910390fd5b60018060008373ffffffffffffffffffffffffffffffffffffffff1673ffffffffffffffffffffffffffffffffffffffff168152602001908152602001600020819055508060026000600454815260200190815260200160002060006101000a81548173ffffffffffffffffffffffffffffffffffffffff021916908373ffffffffffffffffffffffffffffffffffffffff160217905550600160045462000339919062001320565b60048190555050565b6000600360008373ffffffffffffffffffffffffffffffffffffffff1673ffffffffffffffffffffffffffffffffffffffff16815260200190815260200160002060009054906101000a900473ffffffffffffffffffffffffffffffffffffffff169050919050565b60008160018060008373ffffffffffffffffffffffffffffffffffffffff1673ffffffffffffffffffffffffffffffffffffffff168152602001908152602001600020541462000432576040517f08c379a000000000000000000000000000000000000000000000000000000000815260040162000429906200122d565b60405180910390fd5b60005a90508451602086016000f092508273ffffffffffffffffffffffffffffffffffffffff1663f2fde38b336040518263ffffffff1660e01b81526004016200047d9190620011a9565b600060405180830381600087803b1580156200049857600080fd5b505af1925050508015620004aa575060015b62000505573373ffffffffffffffffffffffffffffffffffffffff167f33c981baba081f8fd2c52ac6ad1ea95b6814b4376640f55689051f658472968884604051620004f79190620011a9565b60405180910390a262000556565b3373ffffffffffffffffffffffffffffffffffffffff167f33c981baba081f8fd2c52ac6ad1ea95b6814b4376640f55689051f6584729688846040516200054d9190620011a9565b60405180910390a25b60008036905060106200056a9190620013b5565b5a836152086200057b919062001320565b62000587919062001416565b62000593919062001320565b90508273ffffffffffffffffffffffffffffffffffffffff1663079d229f3361a0aa61374a85620005c5919062001320565b620005d191906200137d565b6040518363ffffffff1660e01b8152600401620005f092919062001200565b602060405180830381600087803b1580156200060b57600080fd5b505af115801562000620573d6000803e3d6000fd5b505050506040513d601f19601f820116820180604052508101906200064691906200101d565b5050505092915050565b60008060405180602001620006659062000ed2565b6020820181038252601f19601f8201166040525090506000336040516020016200069091906200118c565b604051602081830303815290604052805190602001209050808251602084016000f5925060005b6004548110156200077a578373ffffffffffffffffffffffffffffffffffffffff16630f76f8306002600084815260200190815260200160002060009054906101000a900473ffffffffffffffffffffffffffffffffffffffff166040518263ffffffff1660e01b8152600401620007309190620011a9565b600060405180830381600087803b1580156200074b57600080fd5b505af115801562000760573d6000803e3d6000fd5b505050508080620007719062001524565b915050620006b7565b508273ffffffffffffffffffffffffffffffffffffffff1663f2fde38b336040518263ffffffff1660e01b8152600401620007b69190620011a9565b600060405180830381600087803b158015620007d157600080fd5b505af1158015620007e6573d6000803e3d6000fd5b5050505082600360003373ffffffffffffffffffffffffffffffffffffffff1673ffffffffffffffffffffffffffffffffffffffff16815260200190815260200160002060006101000a81548173ffffffffffffffffffffffffffffffffffffffff021916908373ffffffffffffffffffffffffffffffffffffffff1602179055503373ffffffffffffffffffffffffffffffffffffffff167f33c981baba081f8fd2c52ac6ad1ea95b6814b4376640f55689051f658472968884604051620008b09190620011c6565b60405180910390a2505090565b620008c762000eca565b73ffffffffffffffffffffffffffffffffffffffff16620008e7620009fe565b73ffffffffffffffffffffffffffffffffffffffff161462000940576040517f08c379a0000000000000000000000000000000000000000000000000000000008152600401620009379062001271565b60405180910390fd5b600073ffffffffffffffffffffffffffffffffffffffff1660008054906101000a900473ffffffffffffffffffffffffffffffffffffffff1673ffffffffffffffffffffffffffffffffffffffff167f8be0079c531659141344cd1fd0a4f28419497f9722a3daafe3b4186f6b6457e060405160405180910390a360008060006101000a81548173ffffffffffffffffffffffffffffffffffffffff021916908373ffffffffffffffffffffffffffffffffffffffff160217905550565b60008060009054906101000a900473ffffffffffffffffffffffffffffffffffffffff16905090565b6000600160008373ffffffffffffffffffffffffffffffffffffffff1673ffffffffffffffffffffffffffffffffffffffff168152602001908152602001600020549050919050565b60008160018060008373ffffffffffffffffffffffffffffffffffffffff1673ffffffffffffffffffffffffffffffffffffffff168152602001908152602001600020541462000af7576040517f08c379a000000000000000000000000000000000000000000000000000000000815260040162000aee906200122d565b60405180910390fd5b60005a9050858551602087016000f592508273ffffffffffffffffffffffffffffffffffffffff1663f2fde38b336040518263ffffffff1660e01b815260040162000b439190620011a9565b600060405180830381600087803b15801562000b5e57600080fd5b505af192505050801562000b70575060015b62000bcb573373ffffffffffffffffffffffffffffffffffffffff167f33c981baba081f8fd2c52ac6ad1ea95b6814b4376640f55689051f65847296888460405162000bbd9190620011a9565b60405180910390a262000c1c565b3373ffffffffffffffffffffffffffffffffffffffff167f33c981baba081f8fd2c52ac6ad1ea95b6814b4376640f55689051f65847296888460405162000c139190620011a9565b60405180910390a25b600080369050601062000c309190620013b5565b5a8361520862000c41919062001320565b62000c4d919062001416565b62000c59919062001320565b90508273ffffffffffffffffffffffffffffffffffffffff1663079d229f3361a0aa61374a8562000c8b919062001320565b62000c9791906200137d565b6040518363ffffffff1660e01b815260040162000cb692919062001200565b602060405180830381600087803b15801562000cd157600080fd5b505af115801562000ce6573d6000803e3d6000fd5b505050506040513d601f19601f8201168201806040525081019062000d0c91906200101d565b505050509392505050565b62000d2162000eca565b73ffffffffffffffffffffffffffffffffffffffff1662000d41620009fe565b73ffffffffffffffffffffffffffffffffffffffff161462000d9a576040517f08c379a000000000000000000000000000000000000000000000000000000000815260040162000d919062001271565b60405180910390fd5b600073ffffffffffffffffffffffffffffffffffffffff168173ffffffffffffffffffffffffffffffffffffffff16141562000e0d576040517f08c379a000000000000000000000000000000000000000000000000000000000815260040162000e04906200124f565b60405180910390fd5b8073ffffffffffffffffffffffffffffffffffffffff1660008054906101000a900473ffffffffffffffffffffffffffffffffffffffff1673ffffffffffffffffffffffffffffffffffffffff167f8be0079c531659141344cd1fd0a4f28419497f9722a3daafe3b4186f6b6457e060405160405180910390a3806000806101000a81548173ffffffffffffffffffffffffffffffffffffffff021916908373ffffffffffffffffffffffffffffffffffffffff16021790555050565b600033905090565b611668806200171b83390190565b600062000ef762000ef184620012d9565b620012b0565b90508281526020810184848401111562000f1057600080fd5b62000f1d848285620014df565b509392505050565b60008135905062000f3681620016e6565b92915050565b600082601f83011262000f4e57600080fd5b813562000f6084826020860162000ee0565b91505092915050565b60008135905062000f7a8162001700565b92915050565b60008151905062000f918162001700565b92915050565b60006020828403121562000faa57600080fd5b600062000fba8482850162000f25565b91505092915050565b6000806040838503121562000fd757600080fd5b600083013567ffffffffffffffff81111562000ff257600080fd5b620010008582860162000f3c565b9250506020620010138582860162000f25565b9150509250929050565b6000602082840312156200103057600080fd5b6000620010408482850162000f80565b91505092915050565b6000806000606084860312156200105f57600080fd5b60006200106f8682870162000f69565b935050602084013567ffffffffffffffff8111156200108d57600080fd5b6200109b8682870162000f3c565b9250506040620010ae8682870162000f25565b9150509250925092565b620010c381620014a3565b82525050565b620010d48162001465565b82525050565b620010e58162001451565b82525050565b62001100620010fa8262001451565b62001572565b82525050565b6000620011156018836200130f565b9150620011228262001645565b602082019050919050565b60006200113c6026836200130f565b915062001149826200166e565b604082019050919050565b6000620011636020836200130f565b91506200117082620016bd565b602082019050919050565b620011868162001499565b82525050565b60006200119a8284620010eb565b60148201915081905092915050565b6000602082019050620011c06000830184620010da565b92915050565b6000602082019050620011dd6000830184620010b8565b92915050565b6000602082019050620011fa6000830184620010c9565b92915050565b6000604082019050620012176000830185620010da565b6200122660208301846200117b565b9392505050565b60006020820190508181036000830152620012488162001106565b9050919050565b600060208201905081810360008301526200126a816200112d565b9050919050565b600060208201905081810360008301526200128c8162001154565b9050919050565b6000602082019050620012aa60008301846200117b565b92915050565b6000620012bc620012cf565b9050620012ca8282620014ee565b919050565b6000604051905090565b600067ffffffffffffffff821115620012f757620012f6620015f8565b5b620013028262001627565b9050602081019050919050565b600082825260208201905092915050565b60006200132d8262001499565b91506200133a8362001499565b9250827fffffffffffffffffffffffffffffffffffffffffffffffffffffffffffffffff038211156200137257620013716200159a565b5b828201905092915050565b60006200138a8262001499565b9150620013978362001499565b925082620013aa57620013a9620015c9565b5b828204905092915050565b6000620013c28262001499565b9150620013cf8362001499565b9250817fffffffffffffffffffffffffffffffffffffffffffffffffffffffffffffffff04831182151516156200140b576200140a6200159a565b5b828202905092915050565b6000620014238262001499565b9150620014308362001499565b9250828210156200144657620014456200159a565b5b828203905092915050565b60006200145e8262001479565b9050919050565b6000620014728262001479565b9050919050565b600073ffffffffffffffffffffffffffffffffffffffff82169050919050565b6000819050919050565b6000620014b082620014b7565b9050919050565b6000620014c482620014cb565b9050919050565b6000620014d88262001479565b9050919050565b82818337600083830152505050565b620014f98262001627565b810181811067ffffffffffffffff821117156200151b576200151a620015f8565b5b80604052505050565b6000620015318262001499565b91507fffffffffffffffffffffffffffffffffffffffffffffffffffffffffffffffff8214156200156757620015666200159a565b5b600182019050919050565b60006200157f8262001586565b9050919050565b6000620015938262001638565b9050919050565b7f4e487b7100000000000000000000000000000000000000000000000000000000600052601160045260246000fd5b7f4e487b7100000000000000000000000000000000000000000000000000000000600052601260045260246000fd5b7f4e487b7100000000000000000000000000000000000000000000000000000000600052604160045260246000fd5b6000601f19601f8301169050919050565b60008160601b9050919050565b7f475356453a20696e636f6d70617469626c6520746f6b656e0000000000000000600082015250565b7f4f776e61626c653a206e6577206f776e657220697320746865207a65726f206160008201527f6464726573730000000000000000000000000000000000000000000000000000602082015250565b7f4f776e61626c653a2063616c6c6572206973206e6f7420746865206f776e6572600082015250565b620016f18162001451565b8114620016fd57600080fd5b50565b6200170b8162001499565b81146200171757600080fd5b5056fe608060405234801561001057600080fd5b5060006100216100c460201b60201c565b9050806000806101000a81548173ffffffffffffffffffffffffffffffffffffffff021916908373ffffffffffffffffffffffffffffffffffffffff1602179055508073ffffffffffffffffffffffffffffffffffffffff16600073ffffffffffffffffffffffffffffffffffffffff167f8be0079c531659141344cd1fd0a4f28419497f9722a3daafe3b4186f6b6457e060405160405180910390a3506100cc565b600033905090565b61158d806100db6000396000f3fe60806040526004361061007f5760003560e01c80638da5cb5b1161004e5780638da5cb5b146100fe5780638e13fd781461012957806390bb615314610166578063f2fde38b1461018f57610086565b80630f76f8301461008b5780635fd8c710146100b4578063715018a6146100cb5780638da02632146100e257610086565b3661008657005b600080fd5b34801561009757600080fd5b506100b260048036038101906100ad9190610e23565b6101b8565b005b3480156100c057600080fd5b506100c961027b565b005b3480156100d757600080fd5b506100e061036c565b005b6100fc60048036038101906100f79190610e75565b6104a6565b005b34801561010a57600080fd5b50610113610814565b60405161012091906110a4565b60405180910390f35b34801561013557600080fd5b50610150600480360381019061014b9190610e23565b61083d565b60405161015d91906111aa565b60405180910390f35b34801561017257600080fd5b5061018d60048036038101906101889190610e23565b610886565b005b34801561019b57600080fd5b506101b660048036038101906101b19190610e23565b610a2e565b005b6101c0610bd7565b73ffffffffffffffffffffffffffffffffffffffff166101de610814565b73ffffffffffffffffffffffffffffffffffffffff1614610234576040517f08c379a000000000000000000000000000000000000000000000000000000000815260040161022b9061116a565b60405180910390fd5b60018060008373ffffffffffffffffffffffffffffffffffffffff1673ffffffffffffffffffffffffffffffffffffffff1681526020019081526020016000208190555050565b610283610bd7565b73ffffffffffffffffffffffffffffffffffffffff166102a1610814565b73ffffffffffffffffffffffffffffffffffffffff16146102f7576040517f08c379a00000000000000000000000000000000000000000000000000000000081526004016102ee9061116a565b60405180910390fd5b6102ff610814565b73ffffffffffffffffffffffffffffffffffffffff16475a906040516103249061108f565b600060405180830381858888f193505050503d8060008114610362576040519150601f19603f3d011682016040523d82523d6000602084013e610367565b606091505b505050565b610374610bd7565b73ffffffffffffffffffffffffffffffffffffffff16610392610814565b73ffffffffffffffffffffffffffffffffffffffff16146103e8576040517f08c379a00000000000000000000000000000000000000000000000000000000081526004016103df9061116a565b60405180910390fd5b600073ffffffffffffffffffffffffffffffffffffffff1660008054906101000a900473ffffffffffffffffffffffffffffffffffffffff1673ffffffffffffffffffffffffffffffffffffffff167f8be0079c531659141344cd1fd0a4f28419497f9722a3daafe3b4186f6b6457e060405160405180910390a360008060006101000a81548173ffffffffffffffffffffffffffffffffffffffff021916908373ffffffffffffffffffffffffffffffffffffffff160217905550565b8060018060008373ffffffffffffffffffffffffffffffffffffffff1673ffffffffffffffffffffffffffffffffffffffff1681526020019081526020016000205414610528576040517f08c379a000000000000000000000000000000000000000000000000000000000815260040161051f9061110a565b60405180910390fd5b60005a9050610535610bd7565b73ffffffffffffffffffffffffffffffffffffffff16610553610814565b73ffffffffffffffffffffffffffffffffffffffff16146105a9576040517f08c379a00000000000000000000000000000000000000000000000000000000081526004016105a09061116a565b60405180910390fd5b6105c88573ffffffffffffffffffffffffffffffffffffffff16610bdf565b6105d15761072d565b60008411156106865761068087878080601f016020809104026020016040519081016040528093929190818152602001838380828437600081840152601f19601f82011690508083019250505050505050856040518060400160405280602081526020017f47533a204572726f7220666f7277617264696e67207472616e73616374696f6e8152508873ffffffffffffffffffffffffffffffffffffffff16610bf2909392919063ffffffff16565b5061072c565b61072a87878080601f016020809104026020016040519081016040528093929190818152602001838380828437600081840152601f19601f820116905080830192505050505050506040518060400160405280602081526020017f47533a204572726f7220666f7277617264696e67207472616e73616374696f6e8152508773ffffffffffffffffffffffffffffffffffffffff16610d069092919063ffffffff16565b505b5b600080369050601061073f919061127e565b5a8361520861074e91906111f7565b61075891906112d8565b61076291906111f7565b90508273ffffffffffffffffffffffffffffffffffffffff16636366b936615dc061374a8461079191906111f7565b61079b919061124d565b6040518263ffffffff1660e01b81526004016107b791906111aa565b602060405180830381600087803b1580156107d157600080fd5b505af11580156107e5573d6000803e3d6000fd5b505050506040513d601f19601f820116820180604052508101906108099190610ef5565b505050505050505050565b60008060009054906101000a900473ffffffffffffffffffffffffffffffffffffffff16905090565b6000600160008373ffffffffffffffffffffffffffffffffffffffff1673ffffffffffffffffffffffffffffffffffffffff168152602001908152602001600020549050919050565b61088e610bd7565b73ffffffffffffffffffffffffffffffffffffffff166108ac610814565b73ffffffffffffffffffffffffffffffffffffffff1614610902576040517f08c379a00000000000000000000000000000000000000000000000000000000081526004016108f99061116a565b60405180910390fd5b600081905060008173ffffffffffffffffffffffffffffffffffffffff166370a08231306040518263ffffffff1660e01b815260040161094291906110a4565b60206040518083038186803b15801561095a57600080fd5b505afa15801561096e573d6000803e3d6000fd5b505050506040513d601f19601f820116820180604052508101906109929190610ef5565b90508173ffffffffffffffffffffffffffffffffffffffff1663a9059cbb6109b8610814565b836040518363ffffffff1660e01b81526004016109d69291906110bf565b602060405180830381600087803b1580156109f057600080fd5b505af1158015610a04573d6000803e3d6000fd5b505050506040513d601f19601f82011682018060405250810190610a289190610e4c565b50505050565b610a36610bd7565b73ffffffffffffffffffffffffffffffffffffffff16610a54610814565b73ffffffffffffffffffffffffffffffffffffffff1614610aaa576040517f08c379a0000000000000000000000000000000000000000000000000000000008152600401610aa19061116a565b60405180910390fd5b600073ffffffffffffffffffffffffffffffffffffffff168173ffffffffffffffffffffffffffffffffffffffff161415610b1a576040517f08c379a0000000000000000000000000000000000000000000000000000000008152600401610b119061112a565b60405180910390fd5b8073ffffffffffffffffffffffffffffffffffffffff1660008054906101000a900473ffffffffffffffffffffffffffffffffffffffff1673ffffffffffffffffffffffffffffffffffffffff167f8be0079c531659141344cd1fd0a4f28419497f9722a3daafe3b4186f6b6457e060405160405180910390a3806000806101000a81548173ffffffffffffffffffffffffffffffffffffffff021916908373ffffffffffffffffffffffffffffffffffffffff16021790555050565b600033905090565b600080823b905060008111915050919050565b606082471015610c37576040517f08c379a0000000000000000000000000000000000000000000000000000000008152600401610c2e9061114a565b60405180910390fd5b610c4085610bdf565b610c7f576040517f08c379a0000000000000000000000000000000000000000000000000000000008152600401610c769061118a565b60405180910390fd5b6000808673ffffffffffffffffffffffffffffffffffffffff168587604051610ca89190611078565b60006040518083038185875af1925050503d8060008114610ce5576040519150601f19603f3d011682016040523d82523d6000602084013e610cea565b606091505b5091509150610cfa828286610d1e565b92505050949350505050565b6060610d158484600085610bf2565b90509392505050565b60608315610d2e57829050610d7e565b600083511115610d415782518084602001fd5b816040517f08c379a0000000000000000000000000000000000000000000000000000000008152600401610d7591906110e8565b60405180910390fd5b9392505050565b600081359050610d9481611512565b92915050565b600081519050610da981611529565b92915050565b60008083601f840112610dc157600080fd5b8235905067ffffffffffffffff811115610dda57600080fd5b602083019150836001820283011115610df257600080fd5b9250929050565b600081359050610e0881611540565b92915050565b600081519050610e1d81611540565b92915050565b600060208284031215610e3557600080fd5b6000610e4384828501610d85565b91505092915050565b600060208284031215610e5e57600080fd5b6000610e6c84828501610d9a565b91505092915050565b600080600080600060808688031215610e8d57600080fd5b600086013567ffffffffffffffff811115610ea757600080fd5b610eb388828901610daf565b95509550506020610ec688828901610d85565b9350506040610ed788828901610df9565b9250506060610ee888828901610d85565b9150509295509295909350565b600060208284031215610f0757600080fd5b6000610f1584828501610e0e565b91505092915050565b610f278161130c565b82525050565b6000610f38826111c5565b610f4281856111db565b9350610f52818560208601611354565b80840191505092915050565b6000610f69826111d0565b610f7381856111e6565b9350610f83818560208601611354565b610f8c816113e5565b840191505092915050565b6000610fa46018836111e6565b9150610faf826113f6565b602082019050919050565b6000610fc76026836111e6565b9150610fd28261141f565b604082019050919050565b6000610fea6026836111e6565b9150610ff58261146e565b604082019050919050565b600061100d6020836111e6565b9150611018826114bd565b602082019050919050565b60006110306000836111db565b915061103b826114e6565b600082019050919050565b6000611053601d836111e6565b915061105e826114e9565b602082019050919050565b6110728161134a565b82525050565b60006110848284610f2d565b915081905092915050565b600061109a82611023565b9150819050919050565b60006020820190506110b96000830184610f1e565b92915050565b60006040820190506110d46000830185610f1e565b6110e16020830184611069565b9392505050565b600060208201905081810360008301526111028184610f5e565b905092915050565b6000602082019050818103600083015261112381610f97565b9050919050565b6000602082019050818103600083015261114381610fba565b9050919050565b6000602082019050818103600083015261116381610fdd565b9050919050565b6000602082019050818103600083015261118381611000565b9050919050565b600060208201905081810360008301526111a381611046565b9050919050565b60006020820190506111bf6000830184611069565b92915050565b600081519050919050565b600081519050919050565b600081905092915050565b600082825260208201905092915050565b60006112028261134a565b915061120d8361134a565b9250827fffffffffffffffffffffffffffffffffffffffffffffffffffffffffffffffff0382111561124257611241611387565b5b828201905092915050565b60006112588261134a565b91506112638361134a565b925082611273576112726113b6565b5b828204905092915050565b60006112898261134a565b91506112948361134a565b9250817fffffffffffffffffffffffffffffffffffffffffffffffffffffffffffffffff04831182151516156112cd576112cc611387565b5b828202905092915050565b60006112e38261134a565b91506112ee8361134a565b92508282101561130157611300611387565b5b828203905092915050565b60006113178261132a565b9050919050565b60008115159050919050565b600073ffffffffffffffffffffffffffffffffffffffff82169050919050565b6000819050919050565b60005b83811015611372578082015181840152602081019050611357565b83811115611381576000848401525b50505050565b7f4e487b7100000000000000000000000000000000000000000000000000000000600052601160045260246000fd5b7f4e487b7100000000000000000000000000000000000000000000000000000000600052601260045260246000fd5b6000601f19601f8301169050919050565b7f475356453a20696e636f6d70617469626c6520746f6b656e0000000000000000600082015250565b7f4f776e61626c653a206e6577206f776e657220697320746865207a65726f206160008201527f6464726573730000000000000000000000000000000000000000000000000000602082015250565b7f416464726573733a20696e73756666696369656e742062616c616e636520666f60008201527f722063616c6c0000000000000000000000000000000000000000000000000000602082015250565b7f4f776e61626c653a2063616c6c6572206973206e6f7420746865206f776e6572600082015250565b50565b7f416464726573733a2063616c6c20746f206e6f6e2d636f6e7472616374000000600082015250565b61151b8161130c565b811461152657600080fd5b50565b6115328161131e565b811461153d57600080fd5b50565b6115498161134a565b811461155457600080fd5b5056fea2646970667358221220b3a3e0eea259d7fe03d27f03cc33ad5d9bc3cdb1b6ee91c4f19f0d90012108bf64736f6c63430008040033a26469706673582212203042201c0e7bc953dcf24f222bbe57456e665a3ff1f4719fd674c3a1e2804d6764736f6c63430008040033",
  "immutableReferences": {},
  "source": "// SPDX-License-Identifier: MIT\r\npragma solidity ^0.8.0;\r\n\r\nimport \"@openzeppelin/contracts/access/Ownable.sol\";\r\nimport \"./GSVESmartWrapper.sol\";\r\n\r\ninterface IFreeFromUpTo {\r\n    function freeFromUpTo(address from, uint256 value) external returns (uint256 freed);\r\n}\r\n\r\ncontract GSVEDeployer is Ownable{\r\n    mapping(address => uint256) private _compatibleGasTokens;\r\n    mapping(uint256 => address) private _reverseTokenMap;\r\n    mapping(address => address) private _deployedWalletAddressLocation;\r\n    uint256 private _totalSupportedTokens = 0;\r\n\r\n\r\n    function addGasToken(address gasToken) public onlyOwner{\r\n        _compatibleGasTokens[gasToken] = 1;\r\n        _reverseTokenMap[_totalSupportedTokens] = gasToken;\r\n        _totalSupportedTokens = _totalSupportedTokens + 1;\r\n    }\r\n\r\n    function deployedWalletAddressLocation(address creator) public view returns(address){\r\n        return _deployedWalletAddressLocation[creator];\r\n    }\r\n\r\n    function compatibleGasToken(address gasToken) public view returns(uint256){\r\n        return _compatibleGasTokens[gasToken];\r\n    }\r\n\r\n    modifier discountGas(address gasToken) {\r\n        require(_compatibleGasTokens[gasToken] == 1, \"GSVE: incompatible token\");\r\n        uint256 gasStart = gasleft();\r\n        _;\r\n        uint256 gasSpent = 21000 + gasStart - gasleft() + 16 * msg.data.length;\r\n        IFreeFromUpTo(gasToken).freeFromUpTo(msg.sender,  (gasSpent + 14154) / 41130);\r\n    }\r\n\r\n    function GsveDeploy(bytes memory data, address gasToken) public discountGas(gasToken) returns(address contractAddress) {\r\n        assembly {\r\n            contractAddress := create(0, add(data, 32), mload(data))\r\n        }\r\n        try Ownable(contractAddress).transferOwnership(msg.sender){\r\n            emit ContractDeployed(msg.sender, contractAddress);\r\n        }\r\n        catch{\r\n            emit ContractDeployed(msg.sender, contractAddress);\r\n        }\r\n    }\r\n\r\n    function GsveDeploy2(uint256 salt, bytes memory data, address gasToken) public discountGas(gasToken) returns(address contractAddress) {\r\n        assembly {\r\n            contractAddress := create2(0, add(data, 32), mload(data), salt)\r\n        }\r\n\r\n        try Ownable(contractAddress).transferOwnership(msg.sender){\r\n            emit ContractDeployed(msg.sender, contractAddress);\r\n        }\r\n        catch{\r\n            emit ContractDeployed(msg.sender, contractAddress);\r\n        }\r\n    }\r\n    \r\n    function GsveWrapperDeploy() public returns(address payable contractAddress) {\r\n\r\n        bytes memory bytecode = type(GSVESmartWrapper).creationCode;\r\n        bytes32 salt = keccak256(abi.encodePacked(msg.sender));\r\n\r\n        assembly {\r\n            contractAddress := create2(0, add(bytecode, 32), mload(bytecode), salt)\r\n        }\r\n\r\n        for(uint256 i = 0; i<_totalSupportedTokens; i++){\r\n            GSVESmartWrapper(contractAddress).addGasToken(_reverseTokenMap[i]);\r\n        }\r\n        \r\n        Ownable(contractAddress).transferOwnership(msg.sender);\r\n        _deployedWalletAddressLocation[msg.sender] = contractAddress;\r\n        emit ContractDeployed(msg.sender, contractAddress);\r\n    }\r\n\r\n    event ContractDeployed(address indexed creator, address deploymentAddress);\r\n}",
  "sourcePath": "C:/Users/khera/Documents/GitHub/GasSwapTokens/contracts/GSVEDeployer.sol",
  "compiler": {
    "name": "solc",
    "version": "0.8.4+commit.c7e474f2.Emscripten.clang"
  },
  "schemaVersion": "3.3.4",
  "updatedAt": "2021-05-06T04:22:46.169Z",
  "devdoc": {
    "kind": "dev",
    "methods": {
      "owner()": {
        "details": "Returns the address of the current owner."
      },
      "renounceOwnership()": {
        "details": "Leaves the contract without owner. It will not be possible to call `onlyOwner` functions anymore. Can only be called by the current owner. NOTE: Renouncing ownership will leave the contract without an owner, thereby removing any functionality that is only available to the owner."
      },
      "transferOwnership(address)": {
        "details": "Transfers ownership of the contract to a new account (`newOwner`). Can only be called by the current owner."
      }
    },
    "version": 1
  },
  "userdoc": {
    "kind": "user",
    "methods": {},
    "version": 1
  }
}