{
  "contractName": "GSVECore",
  "abi": [
    {
      "inputs": [
        {
          "internalType": "address",
          "name": "_tokenAddress",
          "type": "address"
        }
      ],
      "stateMutability": "nonpayable",
      "type": "constructor"
    },
    {
      "anonymous": false,
      "inputs": [
        {
          "indexed": true,
          "internalType": "address",
          "name": "_from",
          "type": "address"
        },
        {
          "indexed": true,
          "internalType": "address",
          "name": "_token",
          "type": "address"
        },
        {
          "indexed": false,
          "internalType": "uint256",
          "name": "_value",
          "type": "uint256"
        }
      ],
      "name": "Claimed",
      "type": "event"
    },
    {
      "anonymous": false,
      "inputs": [
        {
          "indexed": true,
          "internalType": "address",
          "name": "previousOwner",
          "type": "address"
        },
        {
          "indexed": true,
          "internalType": "address",
          "name": "newOwner",
          "type": "address"
        }
      ],
      "name": "OwnershipTransferred",
      "type": "event"
    },
    {
      "anonymous": false,
      "inputs": [
        {
          "indexed": true,
          "internalType": "address",
          "name": "_from",
          "type": "address"
        },
        {
          "indexed": false,
          "internalType": "uint256",
          "name": "_value",
          "type": "uint256"
        }
      ],
      "name": "Reward",
      "type": "event"
    },
    {
      "anonymous": false,
      "inputs": [
        {
          "indexed": true,
          "internalType": "address",
          "name": "_from",
          "type": "address"
        },
        {
          "indexed": false,
          "internalType": "uint256",
          "name": "_value",
          "type": "uint256"
        }
      ],
      "name": "Staked",
      "type": "event"
    },
    {
      "anonymous": false,
      "inputs": [
        {
          "indexed": true,
          "internalType": "address",
          "name": "_from",
          "type": "address"
        },
        {
          "indexed": false,
          "internalType": "uint256",
          "name": "_value",
          "type": "uint256"
        }
      ],
      "name": "Unstaked",
      "type": "event"
    },
    {
      "inputs": [],
      "name": "owner",
      "outputs": [
        {
          "internalType": "address",
          "name": "",
          "type": "address"
        }
      ],
      "stateMutability": "view",
      "type": "function"
    },
    {
      "inputs": [],
      "name": "renounceOwnership",
      "outputs": [],
      "stateMutability": "nonpayable",
      "type": "function"
    },
    {
      "inputs": [
        {
          "internalType": "address",
          "name": "newOwner",
          "type": "address"
        }
      ],
      "name": "transferOwnership",
      "outputs": [],
      "stateMutability": "nonpayable",
      "type": "function"
    },
    {
      "inputs": [
        {
          "internalType": "uint256",
          "name": "value",
          "type": "uint256"
        }
      ],
      "name": "stake",
      "outputs": [],
      "stateMutability": "nonpayable",
      "type": "function"
    },
    {
      "inputs": [
        {
          "internalType": "uint256",
          "name": "value",
          "type": "uint256"
        }
      ],
      "name": "unstakeAmount",
      "outputs": [],
      "stateMutability": "nonpayable",
      "type": "function"
    },
    {
      "inputs": [],
      "name": "unstake",
      "outputs": [],
      "stateMutability": "nonpayable",
      "type": "function"
    },
    {
      "inputs": [
        {
          "internalType": "address",
          "name": "rewardedAddress",
          "type": "address"
        }
      ],
      "name": "calculateStakeReward",
      "outputs": [
        {
          "internalType": "uint256",
          "name": "",
          "type": "uint256"
        }
      ],
      "stateMutability": "view",
      "type": "function"
    },
    {
      "inputs": [],
      "name": "collectReward",
      "outputs": [],
      "stateMutability": "nonpayable",
      "type": "function"
    },
    {
      "inputs": [
        {
          "internalType": "address",
          "name": "mintTokenAddress",
          "type": "address"
        },
        {
          "internalType": "uint256",
          "name": "tokensToMint",
          "type": "uint256"
        }
      ],
      "name": "burnDiscountedMinting",
      "outputs": [],
      "stateMutability": "nonpayable",
      "type": "function"
    },
    {
      "inputs": [
        {
          "internalType": "address",
          "name": "mintTokenAddress",
          "type": "address"
        },
        {
          "internalType": "uint256",
          "name": "tokensToMint",
          "type": "uint256"
        }
      ],
      "name": "discountedMinting",
      "outputs": [],
      "stateMutability": "nonpayable",
      "type": "function"
    },
    {
      "inputs": [
        {
          "internalType": "address",
          "name": "mintTokenAddress",
          "type": "address"
        },
        {
          "internalType": "uint256",
          "name": "tokensToMint",
          "type": "uint256"
        }
      ],
      "name": "rewardedMinting",
      "outputs": [],
      "stateMutability": "nonpayable",
      "type": "function"
    },
    {
      "inputs": [
        {
          "internalType": "address",
          "name": "claimGasTokenAddress",
          "type": "address"
        },
        {
          "internalType": "uint256",
          "name": "tokensClaimed",
          "type": "uint256"
        }
      ],
      "name": "claimToken",
      "outputs": [],
      "stateMutability": "nonpayable",
      "type": "function"
    },
    {
      "inputs": [
        {
          "internalType": "address",
          "name": "gasToken",
          "type": "address"
        },
        {
          "internalType": "uint256",
          "name": "mintType",
          "type": "uint256"
        },
        {
          "internalType": "uint256",
          "name": "isClaimable",
          "type": "uint256"
        }
      ],
      "name": "addGasToken",
      "outputs": [],
      "stateMutability": "nonpayable",
      "type": "function"
    },
    {
      "inputs": [
        {
          "internalType": "address",
          "name": "gasToken",
          "type": "address"
        }
      ],
      "name": "claimable",
      "outputs": [
        {
          "internalType": "uint256",
          "name": "",
          "type": "uint256"
        }
      ],
      "stateMutability": "view",
      "type": "function"
    },
    {
      "inputs": [
        {
          "internalType": "address",
          "name": "gasToken",
          "type": "address"
        }
      ],
      "name": "mintingType",
      "outputs": [
        {
          "internalType": "uint256",
          "name": "",
          "type": "uint256"
        }
      ],
      "stateMutability": "view",
      "type": "function"
    },
    {
      "inputs": [],
      "name": "totalStaked",
      "outputs": [
        {
          "internalType": "uint256",
          "name": "",
          "type": "uint256"
        }
      ],
      "stateMutability": "view",
      "type": "function"
    },
    {
      "inputs": [
        {
          "internalType": "address",
          "name": "user",
          "type": "address"
        }
      ],
      "name": "userStakeSize",
      "outputs": [
        {
          "internalType": "uint256",
          "name": "",
          "type": "uint256"
        }
      ],
      "stateMutability": "view",
      "type": "function"
    },
    {
      "inputs": [],
      "name": "totalRewards",
      "outputs": [
        {
          "internalType": "uint256",
          "name": "",
          "type": "uint256"
        }
      ],
      "stateMutability": "view",
      "type": "function"
    },
    {
      "inputs": [
        {
          "internalType": "address",
          "name": "user",
          "type": "address"
        }
      ],
      "name": "totalRewardUser",
      "outputs": [
        {
          "internalType": "uint256",
          "name": "",
          "type": "uint256"
        }
      ],
      "stateMutability": "view",
      "type": "function"
    }
  ],
  "bytecode": "0x6080604052600060025569054b40b1f852bda0000060055569152d02c7e14af680000060065560006007553480156200003757600080fd5b5060405162002eff38038062002eff83398181016040528101906200005d919062000174565b60006200006f6200015560201b60201c565b9050806000806101000a81548173ffffffffffffffffffffffffffffffffffffffff021916908373ffffffffffffffffffffffffffffffffffffffff1602179055508073ffffffffffffffffffffffffffffffffffffffff16600073ffffffffffffffffffffffffffffffffffffffff167f8be0079c531659141344cd1fd0a4f28419497f9722a3daafe3b4186f6b6457e060405160405180910390a35080600160006101000a81548173ffffffffffffffffffffffffffffffffffffffff021916908373ffffffffffffffffffffffffffffffffffffffff16021790555050620001ee565b600033905090565b6000815190506200016e81620001d4565b92915050565b6000602082840312156200018757600080fd5b600062000197848285016200015d565b91505092915050565b6000620001ad82620001b4565b9050919050565b600073ffffffffffffffffffffffffffffffffffffffff82169050919050565b620001df81620001a0565b8114620001eb57600080fd5b50565b612d0180620001fe6000396000f3fe608060405234801561001057600080fd5b50600436106101215760003560e01c806372ed601e116100ad578063a556a81811610071578063a556a818146102ba578063a694fc3a146102d6578063ca459eb5146102f2578063d59684ab14610322578063f2fde38b1461035257610121565b806372ed601e146102165780637ef5c18514610246578063817b1cd214610262578063829f0874146102805780638da5cb5b1461029c57610121565b80632def6620116100f45780632def6620146101ac578063402914f5146101b6578063459e657f146101e657806354c5aee114610202578063715018a61461020c57610121565b80630851482f146101265780630e15561a146101565780631698755f1461017457806329e7a69614610190575b600080fd5b610140600480360381019061013b919061210f565b61036e565b60405161014d9190612664565b60405180910390f35b61015e6103b7565b60405161016b9190612664565b60405180910390f35b61018e60048036038101906101899190612138565b61047d565b005b6101aa60048036038101906101a59190612138565b610a7e565b005b6101b4610c12565b005b6101d060048036038101906101cb919061210f565b610e14565b6040516101dd9190612664565b60405180910390f35b61020060048036038101906101fb91906121ec565b610e5d565b005b61020a6110c8565b005b610214611353565b005b610230600480360381019061022b919061210f565b61148d565b60405161023d9190612664565b60405180910390f35b610260600480360381019061025b9190612138565b6114d6565b005b61026a6116eb565b6040516102779190612664565b60405180910390f35b61029a60048036038101906102959190612138565b6116f5565b005b6102a4611988565b6040516102b19190612437565b60405180910390f35b6102d460048036038101906102cf9190612174565b6119b1565b005b6102f060048036038101906102eb91906121ec565b611aba565b005b61030c6004803603810190610307919061210f565b611d13565b6040516103199190612664565b60405180910390f35b61033c6004803603810190610337919061210f565b611d5c565b6040516103499190612664565b60405180910390f35b61036c6004803603810190610367919061210f565b611e99565b005b6000600a60008373ffffffffffffffffffffffffffffffffffffffff1673ffffffffffffffffffffffffffffffffffffffff168152602001908152602001600020549050919050565b6000610478600754600160009054906101000a900473ffffffffffffffffffffffffffffffffffffffff1673ffffffffffffffffffffffffffffffffffffffff166370a08231306040518263ffffffff1660e01b815260040161041a9190612437565b60206040518083038186803b15801561043257600080fd5b505afa158015610446573d6000803e3d6000fd5b505050506040513d601f19601f8201168201806040525081019061046a9190612215565b61204290919063ffffffff16565b905090565b6000600460008473ffffffffffffffffffffffffffffffffffffffff1673ffffffffffffffffffffffffffffffffffffffff16815260200190815260200160002054905060018114610504576040517f08c379a00000000000000000000000000000000000000000000000000000000081526004016104fb90612584565b60405180910390fd5b600654600860003373ffffffffffffffffffffffffffffffffffffffff1673ffffffffffffffffffffffffffffffffffffffff168152602001908152602001600020541015610588576040517f08c379a000000000000000000000000000000000000000000000000000000000815260040161057f906125e4565b60405180910390fd5b6000600b60003373ffffffffffffffffffffffffffffffffffffffff1673ffffffffffffffffffffffffffffffffffffffff16815260200190815260200160002060008573ffffffffffffffffffffffffffffffffffffffff1673ffffffffffffffffffffffffffffffffffffffff16815260200190815260200160002054146106e35761a8c061069e600b60003373ffffffffffffffffffffffffffffffffffffffff1673ffffffffffffffffffffffffffffffffffffffff16815260200190815260200160002060008673ffffffffffffffffffffffffffffffffffffffff1673ffffffffffffffffffffffffffffffffffffffff168152602001908152602001600020544261204290919063ffffffff16565b116106de576040517f08c379a00000000000000000000000000000000000000000000000000000000081526004016106d5906125a4565b60405180910390fd5b610779565b61a8c0610738600960003373ffffffffffffffffffffffffffffffffffffffff1673ffffffffffffffffffffffffffffffffffffffff168152602001908152602001600020544261204290919063ffffffff16565b11610778576040517f08c379a000000000000000000000000000000000000000000000000000000000815260040161076f90612604565b60405180910390fd5b5b60008290506000600160009054906101000a900473ffffffffffffffffffffffffffffffffffffffff1673ffffffffffffffffffffffffffffffffffffffff166370a08231306040518263ffffffff1660e01b81526004016107db9190612437565b60206040518083038186803b1580156107f357600080fd5b505afa158015610807573d6000803e3d6000fd5b505050506040513d601f19601f8201168201806040525081019061082b9190612215565b905061084161083b600583612058565b83612058565b9150600082141561085457505050610a7a565b600160009054906101000a900473ffffffffffffffffffffffffffffffffffffffff1673ffffffffffffffffffffffffffffffffffffffff166379cc67903367016345785d8a00006001866108a991906127f3565b6108b391906127f3565b6040518363ffffffff1660e01b81526004016108d09291906124db565b600060405180830381600087803b1580156108ea57600080fd5b505af11580156108fe573d6000803e3d6000fd5b505050508473ffffffffffffffffffffffffffffffffffffffff1663a9059cbb33846040518363ffffffff1660e01b815260040161093d9291906124db565b602060405180830381600087803b15801561095757600080fd5b505af115801561096b573d6000803e3d6000fd5b505050506040513d601f19601f8201168201806040525081019061098f91906121c3565b5042600b60003373ffffffffffffffffffffffffffffffffffffffff1673ffffffffffffffffffffffffffffffffffffffff16815260200190815260200160002060008773ffffffffffffffffffffffffffffffffffffffff1673ffffffffffffffffffffffffffffffffffffffff168152602001908152602001600020819055508473ffffffffffffffffffffffffffffffffffffffff163373ffffffffffffffffffffffffffffffffffffffff167ff7a40077ff7a04c7e61f6f26fb13774259ddf1b6bce9ecf26a8276cdd399268384604051610a6e9190612664565b60405180910390a35050505b5050565b6000600360008473ffffffffffffffffffffffffffffffffffffffff1673ffffffffffffffffffffffffffffffffffffffff1681526020019081526020016000205490506000811415610b06576040517f08c379a0000000000000000000000000000000000000000000000000000000008152600401610afd90612564565b60405180910390fd5b600160009054906101000a900473ffffffffffffffffffffffffffffffffffffffff1673ffffffffffffffffffffffffffffffffffffffff166379cc6790336703782dace9d900006040518363ffffffff1660e01b8152600401610b6b9291906124b2565b600060405180830381600087803b158015610b8557600080fd5b505af1158015610b99573d6000803e3d6000fd5b505050508273ffffffffffffffffffffffffffffffffffffffff16637e72014a836000336040518463ffffffff1660e01b8152600401610bdb9392919061267f565b600060405180830381600087803b158015610bf557600080fd5b505af1158015610c09573d6000803e3d6000fd5b50505050505050565b6000600860003373ffffffffffffffffffffffffffffffffffffffff1673ffffffffffffffffffffffffffffffffffffffff1681526020019081526020016000205490506000811415610c655750610e12565b6000600860003373ffffffffffffffffffffffffffffffffffffffff1673ffffffffffffffffffffffffffffffffffffffff168152602001908152602001600020819055506000600960003373ffffffffffffffffffffffffffffffffffffffff1673ffffffffffffffffffffffffffffffffffffffff16815260200190815260200160002081905550610d048160075461204290919063ffffffff16565b600781905550600160009054906101000a900473ffffffffffffffffffffffffffffffffffffffff1673ffffffffffffffffffffffffffffffffffffffff1663a9059cbb33836040518363ffffffff1660e01b8152600401610d679291906124db565b602060405180830381600087803b158015610d8157600080fd5b505af1158015610d95573d6000803e3d6000fd5b505050506040513d601f19601f82011682018060405250810190610db991906121c3565b610dc257600080fd5b3373ffffffffffffffffffffffffffffffffffffffff167f0f5bb82176feb1b5e747e28471aa92156a04d9f3ab9f45f28e2d704232b93f7582604051610e089190612664565b60405180910390a2505b565b6000600460008373ffffffffffffffffffffffffffffffffffffffff1673ffffffffffffffffffffffffffffffffffffffff168152602001908152602001600020549050919050565b6000600860003373ffffffffffffffffffffffffffffffffffffffff1673ffffffffffffffffffffffffffffffffffffffff1681526020019081526020016000205490506000811415610eb057506110c5565b6000610ebc8383612058565b9050610ed1818361204290919063ffffffff16565b600860003373ffffffffffffffffffffffffffffffffffffffff1673ffffffffffffffffffffffffffffffffffffffff168152602001908152602001600020819055506000600860003373ffffffffffffffffffffffffffffffffffffffff1673ffffffffffffffffffffffffffffffffffffffff168152602001908152602001600020541415610fa15742600960003373ffffffffffffffffffffffffffffffffffffffff1673ffffffffffffffffffffffffffffffffffffffff168152602001908152602001600020819055505b610fb68360075461204290919063ffffffff16565b600781905550600160009054906101000a900473ffffffffffffffffffffffffffffffffffffffff1673ffffffffffffffffffffffffffffffffffffffff1663a9059cbb33836040518363ffffffff1660e01b81526004016110199291906124db565b602060405180830381600087803b15801561103357600080fd5b505af1158015611047573d6000803e3d6000fd5b505050506040513d601f19601f8201168201806040525081019061106b91906121c3565b61107457600080fd5b3373ffffffffffffffffffffffffffffffffffffffff167f0f5bb82176feb1b5e747e28471aa92156a04d9f3ab9f45f28e2d704232b93f75826040516110ba9190612664565b60405180910390a250505b50565b60006110d26103b7565b905060008111611117576040517f08c379a000000000000000000000000000000000000000000000000000000000815260040161110e90612524565b60405180910390fd5b600061112233611d5c565b90506000811415611134575050611351565b61113e8282612058565b905042600960003373ffffffffffffffffffffffffffffffffffffffff1673ffffffffffffffffffffffffffffffffffffffff1681526020019081526020016000208190555080600a60003373ffffffffffffffffffffffffffffffffffffffff1673ffffffffffffffffffffffffffffffffffffffff168152602001908152602001600020546111cf919061276c565b600a60003373ffffffffffffffffffffffffffffffffffffffff1673ffffffffffffffffffffffffffffffffffffffff16815260200190815260200160002081905550600160009054906101000a900473ffffffffffffffffffffffffffffffffffffffff1673ffffffffffffffffffffffffffffffffffffffff1663a9059cbb33836040518363ffffffff1660e01b815260040161126f9291906124db565b602060405180830381600087803b15801561128957600080fd5b505af115801561129d573d6000803e3d6000fd5b505050506040513d601f19601f820116820180604052508101906112c191906121c3565b611300576040517f08c379a00000000000000000000000000000000000000000000000000000000081526004016112f790612624565b60405180910390fd5b3373ffffffffffffffffffffffffffffffffffffffff167f619caafabdd75649b302ba8419e48cccf64f37f1983ac4727cfb38b57703ffc9826040516113469190612664565b60405180910390a250505b565b61135b612071565b73ffffffffffffffffffffffffffffffffffffffff16611379611988565b73ffffffffffffffffffffffffffffffffffffffff16146113cf576040517f08c379a00000000000000000000000000000000000000000000000000000000081526004016113c6906125c4565b60405180910390fd5b600073ffffffffffffffffffffffffffffffffffffffff1660008054906101000a900473ffffffffffffffffffffffffffffffffffffffff1673ffffffffffffffffffffffffffffffffffffffff167f8be0079c531659141344cd1fd0a4f28419497f9722a3daafe3b4186f6b6457e060405160405180910390a360008060006101000a81548173ffffffffffffffffffffffffffffffffffffffff021916908373ffffffffffffffffffffffffffffffffffffffff160217905550565b6000600860008373ffffffffffffffffffffffffffffffffffffffff1673ffffffffffffffffffffffffffffffffffffffff168152602001908152602001600020549050919050565b6000600360008473ffffffffffffffffffffffffffffffffffffffff1673ffffffffffffffffffffffffffffffffffffffff168152602001908152602001600020549050600081141561155e576040517f08c379a000000000000000000000000000000000000000000000000000000000815260040161155590612564565b60405180910390fd5b600554600860003373ffffffffffffffffffffffffffffffffffffffff1673ffffffffffffffffffffffffffffffffffffffff1681526020019081526020016000205410156115e2576040517f08c379a00000000000000000000000000000000000000000000000000000000081526004016115d990612504565b60405180910390fd5b6001811415611660578273ffffffffffffffffffffffffffffffffffffffff16637e72014a836001336040518463ffffffff1660e01b8152600401611629939291906126b6565b600060405180830381600087803b15801561164357600080fd5b505af1158015611657573d6000803e3d6000fd5b505050506116e5565b60028114156116de578273ffffffffffffffffffffffffffffffffffffffff16637e72014a836002336040518463ffffffff1660e01b81526004016116a7939291906126ed565b600060405180830381600087803b1580156116c157600080fd5b505af11580156116d5573d6000803e3d6000fd5b505050506116e4565b506116e7565b5b505b5050565b6000600754905090565b6000600360008473ffffffffffffffffffffffffffffffffffffffff1673ffffffffffffffffffffffffffffffffffffffff168152602001908152602001600020549050600081141561177d576040517f08c379a000000000000000000000000000000000000000000000000000000000815260040161177490612564565b60405180910390fd5b60006117876103b7565b116117c7576040517f08c379a00000000000000000000000000000000000000000000000000000000081526004016117be90612524565b60405180910390fd5b6001811415611845578273ffffffffffffffffffffffffffffffffffffffff16637e72014a836002336040518463ffffffff1660e01b815260040161180e939291906126ed565b600060405180830381600087803b15801561182857600080fd5b505af115801561183c573d6000803e3d6000fd5b505050506118ca565b60028114156118c3578273ffffffffffffffffffffffffffffffffffffffff16637e72014a836003336040518463ffffffff1660e01b815260040161188c93929190612724565b600060405180830381600087803b1580156118a657600080fd5b505af11580156118ba573d6000803e3d6000fd5b505050506118c9565b50611984565b5b600160009054906101000a900473ffffffffffffffffffffffffffffffffffffffff1673ffffffffffffffffffffffffffffffffffffffff1663a9059cbb3367016345785d8a00006040518363ffffffff1660e01b815260040161192f929190612489565b602060405180830381600087803b15801561194957600080fd5b505af115801561195d573d6000803e3d6000fd5b505050506040513d601f19601f8201168201806040525081019061198191906121c3565b50505b5050565b60008060009054906101000a900473ffffffffffffffffffffffffffffffffffffffff16905090565b6119b9612071565b73ffffffffffffffffffffffffffffffffffffffff166119d7611988565b73ffffffffffffffffffffffffffffffffffffffff1614611a2d576040517f08c379a0000000000000000000000000000000000000000000000000000000008152600401611a24906125c4565b60405180910390fd5b81600360008573ffffffffffffffffffffffffffffffffffffffff1673ffffffffffffffffffffffffffffffffffffffff1681526020019081526020016000208190555080600460008573ffffffffffffffffffffffffffffffffffffffff1673ffffffffffffffffffffffffffffffffffffffff16815260200190815260200160002081905550505050565b6000611ac533611d5c565b14611b05576040517f08c379a0000000000000000000000000000000000000000000000000000000008152600401611afc90612644565b60405180910390fd5b6000811415611b1357611d10565b600160009054906101000a900473ffffffffffffffffffffffffffffffffffffffff1673ffffffffffffffffffffffffffffffffffffffff166323b872dd3330846040518463ffffffff1660e01b8152600401611b7293929190612452565b602060405180830381600087803b158015611b8c57600080fd5b505af1158015611ba0573d6000803e3d6000fd5b505050506040513d601f19601f82011682018060405250810190611bc491906121c3565b611bcd57600080fd5b611c1f81600860003373ffffffffffffffffffffffffffffffffffffffff1673ffffffffffffffffffffffffffffffffffffffff1681526020019081526020016000205461207990919063ffffffff16565b600860003373ffffffffffffffffffffffffffffffffffffffff1673ffffffffffffffffffffffffffffffffffffffff1681526020019081526020016000208190555042600960003373ffffffffffffffffffffffffffffffffffffffff1673ffffffffffffffffffffffffffffffffffffffff16815260200190815260200160002081905550611cbb8160075461207990919063ffffffff16565b6007819055503373ffffffffffffffffffffffffffffffffffffffff167f9e71bc8eea02a63969f509818f2dafb9254532904319f9dbda79b67bd34a5f3d82604051611d079190612664565b60405180910390a25b50565b6000600360008373ffffffffffffffffffffffffffffffffffffffff1673ffffffffffffffffffffffffffffffffffffffff168152602001908152602001600020549050919050565b600080600960008473ffffffffffffffffffffffffffffffffffffffff1673ffffffffffffffffffffffffffffffffffffffff168152602001908152602001600020541415611dae5760009050611e94565b6000611e02600960008573ffffffffffffffffffffffffffffffffffffffff1673ffffffffffffffffffffffffffffffffffffffff168152602001908152602001600020544261204290919063ffffffff16565b90506000611e1b61a8c08361208f90919063ffffffff16565b90506000611e736107d0600860008873ffffffffffffffffffffffffffffffffffffffff1673ffffffffffffffffffffffffffffffffffffffff1681526020019081526020016000205461208f90919063ffffffff16565b90506000611e8a82846120a590919063ffffffff16565b9050809450505050505b919050565b611ea1612071565b73ffffffffffffffffffffffffffffffffffffffff16611ebf611988565b73ffffffffffffffffffffffffffffffffffffffff1614611f15576040517f08c379a0000000000000000000000000000000000000000000000000000000008152600401611f0c906125c4565b60405180910390fd5b600073ffffffffffffffffffffffffffffffffffffffff168173ffffffffffffffffffffffffffffffffffffffff161415611f85576040517f08c379a0000000000000000000000000000000000000000000000000000000008152600401611f7c90612544565b60405180910390fd5b8073ffffffffffffffffffffffffffffffffffffffff1660008054906101000a900473ffffffffffffffffffffffffffffffffffffffff1673ffffffffffffffffffffffffffffffffffffffff167f8be0079c531659141344cd1fd0a4f28419497f9722a3daafe3b4186f6b6457e060405160405180910390a3806000806101000a81548173ffffffffffffffffffffffffffffffffffffffff021916908373ffffffffffffffffffffffffffffffffffffffff16021790555050565b60008183612050919061284d565b905092915050565b60008183106120675781612069565b825b905092915050565b600033905090565b60008183612087919061276c565b905092915050565b6000818361209d91906127c2565b905092915050565b600081836120b391906127f3565b905092915050565b6000813590506120ca81612c86565b92915050565b6000815190506120df81612c9d565b92915050565b6000813590506120f481612cb4565b92915050565b60008151905061210981612cb4565b92915050565b60006020828403121561212157600080fd5b600061212f848285016120bb565b91505092915050565b6000806040838503121561214b57600080fd5b6000612159858286016120bb565b925050602061216a858286016120e5565b9150509250929050565b60008060006060848603121561218957600080fd5b6000612197868287016120bb565b93505060206121a8868287016120e5565b92505060406121b9868287016120e5565b9150509250925092565b6000602082840312156121d557600080fd5b60006121e3848285016120d0565b91505092915050565b6000602082840312156121fe57600080fd5b600061220c848285016120e5565b91505092915050565b60006020828403121561222757600080fd5b6000612235848285016120fa565b91505092915050565b61224781612881565b82525050565b612256816128c9565b82525050565b612265816128db565b82525050565b612274816128ed565b82525050565b612283816128ff565b82525050565b61229281612911565b82525050565b6122a181612923565b82525050565b60006122b4602c8361275b565b91506122bf82612993565b604082019050919050565b60006122d7602d8361275b565b91506122e2826129e2565b604082019050919050565b60006122fa60268361275b565b915061230582612a31565b604082019050919050565b600061231d60178361275b565b915061232882612a80565b602082019050919050565b600061234060198361275b565b915061234b82612aa9565b602082019050919050565b6000612363603c8361275b565b915061236e82612ad2565b604082019050919050565b600061238660208361275b565b915061239182612b21565b602082019050919050565b60006123a960378361275b565b91506123b482612b4a565b604082019050919050565b60006123cc60328361275b565b91506123d782612b99565b604082019050919050565b60006123ef601b8361275b565b91506123fa82612be8565b602082019050919050565b600061241260438361275b565b915061241d82612c11565b606082019050919050565b612431816128bf565b82525050565b600060208201905061244c600083018461223e565b92915050565b6000606082019050612467600083018661223e565b612474602083018561223e565b6124816040830184612428565b949350505050565b600060408201905061249e600083018561223e565b6124ab602083018461225c565b9392505050565b60006040820190506124c7600083018561223e565b6124d4602083018461227a565b9392505050565b60006040820190506124f0600083018561223e565b6124fd6020830184612428565b9392505050565b6000602082019050818103600083015261251d816122a7565b9050919050565b6000602082019050818103600083015261253d816122ca565b9050919050565b6000602082019050818103600083015261255d816122ed565b9050919050565b6000602082019050818103600083015261257d81612310565b9050919050565b6000602082019050818103600083015261259d81612333565b9050919050565b600060208201905081810360008301526125bd81612356565b9050919050565b600060208201905081810360008301526125dd81612379565b9050919050565b600060208201905081810360008301526125fd8161239c565b9050919050565b6000602082019050818103600083015261261d816123bf565b9050919050565b6000602082019050818103600083015261263d816123e2565b9050919050565b6000602082019050818103600083015261265d81612405565b9050919050565b60006020820190506126796000830184612428565b92915050565b60006060820190506126946000830186612428565b6126a1602083018561224d565b6126ae604083018461223e565b949350505050565b60006060820190506126cb6000830186612428565b6126d8602083018561226b565b6126e5604083018461223e565b949350505050565b60006060820190506127026000830186612428565b61270f6020830185612289565b61271c604083018461223e565b949350505050565b60006060820190506127396000830186612428565b6127466020830185612298565b612753604083018461223e565b949350505050565b600082825260208201905092915050565b6000612777826128bf565b9150612782836128bf565b9250827fffffffffffffffffffffffffffffffffffffffffffffffffffffffffffffffff038211156127b7576127b6612935565b5b828201905092915050565b60006127cd826128bf565b91506127d8836128bf565b9250826127e8576127e7612964565b5b828204905092915050565b60006127fe826128bf565b9150612809836128bf565b9250817fffffffffffffffffffffffffffffffffffffffffffffffffffffffffffffffff048311821515161561284257612841612935565b5b828202905092915050565b6000612858826128bf565b9150612863836128bf565b92508282101561287657612875612935565b5b828203905092915050565b600061288c8261289f565b9050919050565b60008115159050919050565b600073ffffffffffffffffffffffffffffffffffffffff82169050919050565b6000819050919050565b60006128d4826128bf565b9050919050565b60006128e6826128bf565b9050919050565b60006128f8826128bf565b9050919050565b600061290a826128bf565b9050919050565b600061291c826128bf565b9050919050565b600061292e826128bf565b9050919050565b7f4e487b7100000000000000000000000000000000000000000000000000000000600052601160045260246000fd5b7f4e487b7100000000000000000000000000000000000000000000000000000000600052601260045260246000fd5b7f475356453a205573657220686173206e6f74207374616b656420656e6f75676860008201527f20746f20646973636f756e740000000000000000000000000000000000000000602082015250565b7f475356453a20636f6e7472616374206861732072616e206f7574206f6620726560008201527f776172647320746f206769766500000000000000000000000000000000000000602082015250565b7f4f776e61626c653a206e6577206f776e657220697320746865207a65726f206160008201527f6464726573730000000000000000000000000000000000000000000000000000602082015250565b7f475356453a20556e737570706f7274656420546f6b656e000000000000000000600082015250565b7f475356453a20546f6b656e206e6f7420636c61696d61626c6500000000000000600082015250565b7f475356453a20557365722063616e6e6f7420636c61696d207468652073616d6560008201527f2067617320746f6b656e20747769636520696e20313220686f75727300000000602082015250565b7f4f776e61626c653a2063616c6c6572206973206e6f7420746865206f776e6572600082015250565b7f475356453a205573657220686173206e6f74207374616b656420656e6f75676860008201527f20746f20636c61696d2066726f6d2074686520706f6f6c000000000000000000602082015250565b7f475356453a20557365722063616e6e6f7420636c61696d2077697468696e203160008201527f3220686f757273206f66207374616b696e670000000000000000000000000000602082015250565b7f475356453a20746f6b656e207472616e73666572206661696c65640000000000600082015250565b7f475356453a205573657220686173207374616b6520726577617264732074686560008201527f79206d75737420636c61696d206265666f7265207570646174696e672073746160208201527f6b652e0000000000000000000000000000000000000000000000000000000000604082015250565b612c8f81612881565b8114612c9a57600080fd5b50565b612ca681612893565b8114612cb157600080fd5b50565b612cbd816128bf565b8114612cc857600080fd5b5056fea2646970667358221220134807403559b90d707f6ba6d3bb028620888ef5a90690c573fe523f0e1b331264736f6c63430008040033",
  "immutableReferences": {},
  "source": "// SPDX-License-Identifier: MIT\r\npragma solidity ^0.8.0;\r\n\r\nimport \"@openzeppelin/contracts/utils/math/Math.sol\";\r\nimport \"@openzeppelin/contracts/utils/math/SafeMath.sol\";\r\nimport \"@openzeppelin/contracts/token/ERC20/IERC20.sol\";\r\nimport \"@openzeppelin/contracts/access/Ownable.sol\";\r\n\r\nimport \"./IGSVEProtocolToken.sol\";\r\nimport \"./IGSVEToken.sol\";\r\n\r\n\r\ncontract GSVECore is Ownable {\r\n    using SafeMath for uint256;\r\n    \r\n    //address of our protocol utility token\r\n    address private GSVEToken;\r\n\r\n    //supported gas tokens\r\n    uint256 private totalSupportedGasTokens = 0;\r\n\r\n    //system is in place to prevent reentrancy from untrusted tokens\r\n    mapping(address => uint256) private _mintingType;\r\n    mapping(address => uint256) private _claimable;\r\n\r\n    //fee stake threshholds;\r\n    uint256 private tierOneThreshold = 25000 * (10**18);\r\n    uint256 private tierTwoThreshold = 100000 * (10**18);\r\n\r\n    uint256 private _totalStaked = 0;\r\n\r\n    //staking  \r\n    mapping(address => uint256) private userStakes;\r\n    mapping(address => uint256) private userStakeTimes;\r\n    mapping(address => uint256) private userTotalRewards;\r\n\r\n    mapping(address => mapping(address => uint256)) private userClaimTimes;\r\n\r\n    constructor(address _tokenAddress) {\r\n        GSVEToken = _tokenAddress;\r\n    }\r\n\r\n    //Staking Functions - TODO Testing and Verification\r\n    function stake(uint256 value) public {\r\n        require(calculateStakeReward(msg.sender) == 0, \"GSVE: User has stake rewards they must claim before updating stake.\");\r\n\r\n        if (value == 0){\r\n            return;\r\n        }\r\n        require(IERC20(GSVEToken).transferFrom(msg.sender, address(this), value));\r\n        userStakes[msg.sender] = userStakes[msg.sender].add(value);\r\n        userStakeTimes[msg.sender] = block.timestamp;\r\n        _totalStaked = _totalStaked.add(value);\r\n        emit Staked(msg.sender, value);\r\n    }\r\n\r\n    function unstakeAmount(uint256 value) public {\r\n        uint256 stakeSize = userStakes[msg.sender];\r\n        if (stakeSize == 0){\r\n            return;\r\n        }\r\n\r\n        uint256 stakeWithdrawn = Math.min(value, stakeSize);\r\n        userStakes[msg.sender] = stakeSize.sub(stakeWithdrawn);\r\n        \r\n        if(userStakes[msg.sender] == 0){\r\n            userStakeTimes[msg.sender] = block.timestamp;\r\n        }\r\n\r\n        _totalStaked = _totalStaked.sub(value);\r\n        require(IERC20(GSVEToken).transfer(msg.sender, stakeWithdrawn));\r\n        emit Unstaked(msg.sender, stakeWithdrawn);\r\n    }\r\n\r\n    function unstake() public {\r\n        uint256 stakeSize = userStakes[msg.sender];\r\n        if (stakeSize == 0){\r\n            return;\r\n        }\r\n        userStakes[msg.sender] = 0;\r\n        userStakeTimes[msg.sender] = 0;\r\n        _totalStaked = _totalStaked.sub(stakeSize);\r\n        require(IERC20(GSVEToken).transfer(msg.sender, stakeSize));\r\n        emit Unstaked(msg.sender, stakeSize);\r\n    }\r\n\r\n    //calculate the users current unclaimed rewards. This is 1/2000th the users stake every 12 hours.\r\n    function calculateStakeReward(address rewardedAddress) public view returns(uint256){\r\n        if(userStakeTimes[rewardedAddress] == 0){\r\n            return 0;\r\n        }\r\n\r\n        uint256 timeDifference = block.timestamp.sub(userStakeTimes[rewardedAddress]);\r\n        uint256 rewardPeriod = timeDifference.div((60*60*12));\r\n        uint256 rewardPerPeriod = userStakes[rewardedAddress].div(2000);\r\n        uint256 reward = rewardPeriod.mul(rewardPerPeriod);\r\n\r\n        return reward;\r\n    }\r\n\r\n    function collectReward() public {\r\n        uint256 remainingRewards = totalRewards();\r\n        require(remainingRewards > 0, \"GSVE: contract has ran out of rewards to give\");\r\n\r\n        uint256 reward = calculateStakeReward(msg.sender);\r\n        if(reward == 0){\r\n            return;\r\n        }\r\n\r\n        reward = Math.min(remainingRewards, reward);\r\n        userStakeTimes[msg.sender] = block.timestamp;\r\n        userTotalRewards[msg.sender] = userTotalRewards[msg.sender] + reward;\r\n        require(IERC20(GSVEToken).transfer(msg.sender, reward), \"GSVE: token transfer failed\");\r\n        emit Reward(msg.sender, reward);\r\n    }\r\n\r\n    //remove fees when the user burns 0.25 GSVE\r\n    function burnDiscountedMinting(address mintTokenAddress, uint256 tokensToMint) public {\r\n        uint256 mintType = _mintingType[mintTokenAddress];\r\n        require(mintType != 0, \"GSVE: Unsupported Token\");\r\n        IGSVEProtocolToken(GSVEToken).burnFrom(msg.sender, 25 * 10**16);\r\n        IGSVEToken(mintTokenAddress).discountedMint(tokensToMint, 0, msg.sender);\r\n    }\r\n\r\n    //discounted minting for tier one stakers\r\n    function discountedMinting(address mintTokenAddress, uint256 tokensToMint) public{\r\n        uint256 mintType = _mintingType[mintTokenAddress];\r\n        require(mintType != 0, \"GSVE: Unsupported Token\");\r\n        require(userStakes[msg.sender] >= tierOneThreshold , \"GSVE: User has not staked enough to discount\");\r\n\r\n        if(mintType == 1){\r\n            IGSVEToken(mintTokenAddress).discountedMint(tokensToMint, 1, msg.sender);\r\n        }\r\n        else if (mintType == 2){\r\n            IGSVEToken(mintTokenAddress).discountedMint(tokensToMint, 2, msg.sender);\r\n        }\r\n        else{\r\n            return;\r\n        }\r\n    }\r\n\r\n    //Reward a user 0.1 GSVE tokens for minting \r\n    function rewardedMinting(address mintTokenAddress, uint256 tokensToMint) public{\r\n        uint256 mintType = _mintingType[mintTokenAddress];\r\n        require(mintType != 0, \"GSVE: Unsupported Token\");\r\n        require(totalRewards() > 0, \"GSVE: contract has ran out of rewards to give\");\r\n        if(mintType == 1){\r\n            IGSVEToken(mintTokenAddress).discountedMint(tokensToMint, 2, msg.sender);\r\n        }\r\n        else if (mintType == 2){\r\n            IGSVEToken(mintTokenAddress).discountedMint(tokensToMint, 3, msg.sender);\r\n        }\r\n        else{\r\n            return;\r\n        }\r\n\r\n        IERC20(GSVEToken).transfer(msg.sender, 10 * 10**16);\r\n    }\r\n\r\n    //Allow a tier 2 staker to burn tokens and claim from the pool of a specific token. \r\n    //Claimed at a rate of 0.1 GSVE per token claimed.\r\n    function claimToken(address claimGasTokenAddress, uint256 tokensClaimed) public {\r\n\r\n        uint256 isClaimable = _claimable[claimGasTokenAddress];\r\n        require(isClaimable == 1, \"GSVE: Token not claimable\");\r\n        require(userStakes[msg.sender] >= tierTwoThreshold , \"GSVE: User has not staked enough to claim from the pool\");\r\n        \r\n        if(userClaimTimes[msg.sender][claimGasTokenAddress] != 0){\r\n            require(block.timestamp.sub(userClaimTimes[msg.sender][claimGasTokenAddress]) > 60 * 60 * 12, \"GSVE: User cannot claim the same gas token twice in 12 hours\");\r\n        }\r\n        else{\r\n            require(block.timestamp.sub(userStakeTimes[msg.sender]) > 60 * 60 * 12, \"GSVE: User cannot claim within 12 hours of staking\");\r\n        }\r\n\r\n        uint256 tokensGiven = tokensClaimed;\r\n\r\n        //user can withdraw up to 5 tokens from the pool\r\n        uint256 tokensAvailableToClaim = IERC20(GSVEToken).balanceOf(address(this));\r\n        tokensGiven = Math.min(Math.min(5, tokensAvailableToClaim), tokensGiven);\r\n\r\n        if(tokensGiven == 0){\r\n            return;\r\n        }\r\n\r\n        IGSVEProtocolToken(GSVEToken).burnFrom(msg.sender, tokensGiven * 1 * 10 ** 17);\r\n        IERC20(claimGasTokenAddress).transfer(msg.sender, tokensGiven);\r\n        userClaimTimes[msg.sender][claimGasTokenAddress] = block.timestamp;\r\n        emit Claimed(msg.sender, claimGasTokenAddress, tokensGiven);\r\n    }\r\n\r\n    function addGasToken(address gasToken, uint256 mintType, uint256 isClaimable) public onlyOwner{\r\n        _mintingType[gasToken] = mintType;\r\n        _claimable[gasToken] = isClaimable;\r\n    }\r\n\r\n    function claimable(address gasToken) public view returns (uint256){\r\n        return _claimable[gasToken];\r\n    }\r\n\r\n    function mintingType(address gasToken) public view returns (uint256){\r\n        return _mintingType[gasToken];\r\n    }\r\n\r\n    function totalStaked() public view returns (uint256){\r\n        return _totalStaked;\r\n    }\r\n\r\n    function userStakeSize(address user)  public view returns (uint256){\r\n        return userStakes[user]; \r\n    }\r\n\r\n    function totalRewards()  public view returns (uint256){\r\n        return IERC20(GSVEToken).balanceOf(address(this)).sub(_totalStaked); \r\n    }\r\n\r\n    function totalRewardUser(address user)  public view returns (uint256){\r\n        return userTotalRewards[user]; \r\n    }\r\n\r\n\r\n    event Claimed(address indexed _from, address indexed _token, uint _value);\r\n\r\n    event Reward(address indexed _from, uint _value);\r\n\r\n    event Staked(address indexed _from, uint _value);\r\n\r\n    event Unstaked(address indexed _from, uint _value);\r\n}\r\n",
  "sourcePath": "C:/Users/khera/Documents/GitHub/GasSwapTokens/contracts/GSVECore.sol",
  "compiler": {
    "name": "solc",
    "version": "0.8.4+commit.c7e474f2.Emscripten.clang"
  },
  "schemaVersion": "3.3.4",
  "updatedAt": "2021-05-03T08:26:53.437Z",
  "devdoc": {
    "kind": "dev",
    "methods": {
      "owner()": {
        "details": "Returns the address of the current owner."
      },
      "renounceOwnership()": {
        "details": "Leaves the contract without owner. It will not be possible to call `onlyOwner` functions anymore. Can only be called by the current owner. NOTE: Renouncing ownership will leave the contract without an owner, thereby removing any functionality that is only available to the owner."
      },
      "transferOwnership(address)": {
        "details": "Transfers ownership of the contract to a new account (`newOwner`). Can only be called by the current owner."
      }
    },
    "version": 1
  },
  "userdoc": {
    "kind": "user",
    "methods": {},
    "version": 1
  }
}