{"abi":[{"type":"constructor","inputs":[{"name":"_wchi","type":"address","internalType":"address"},{"name":"_wgst2","type":"address","internalType":"address"},{"name":"_wgst1","type":"address","internalType":"address"}],"stateMutability":"nonpayable"},{"name":"OwnershipTransferred","type":"event","inputs":[{"name":"previousOwner","type":"address","indexed":true,"internalType":"address"},{"name":"newOwner","type":"address","indexed":true,"internalType":"address"}],"anonymous":false},{"name":"UpdatedGasToken","type":"event","inputs":[{"name":"safe","type":"address","indexed":false,"internalType":"address"},{"name":"gasToken","type":"address","indexed":false,"internalType":"address"}],"anonymous":false},{"name":"owner","type":"function","inputs":[],"outputs":[{"name":"","type":"address","internalType":"address"}],"constant":true,"stateMutability":"view"},{"name":"renounceOwnership","type":"function","inputs":[],"outputs":[],"stateMutability":"nonpayable"},{"name":"transferOwnership","type":"function","inputs":[{"name":"newOwner","type":"address","internalType":"address"}],"outputs":[],"stateMutability":"nonpayable"},{"name":"getDeployedAddress","type":"function","inputs":[{"name":"creator","type":"address","internalType":"address"}],"outputs":[{"name":"","type":"address","internalType":"address"}],"constant":true,"stateMutability":"view"},{"name":"getAddressGastoken","type":"function","inputs":[{"name":"safe","type":"address","internalType":"address"}],"outputs":[{"name":"","type":"address","internalType":"address"}],"constant":true,"stateMutability":"view"},{"name":"getAddressGasTokenSaving","type":"function","inputs":[{"name":"gastoken","type":"address","internalType":"address"}],"outputs":[{"name":"","type":"uint256","internalType":"uint256"}],"constant":true,"stateMutability":"view"},{"name":"getGasTokenAndSaving","type":"function","inputs":[{"name":"safe","type":"address","internalType":"address"}],"outputs":[{"name":"","type":"address","internalType":"address"},{"name":"","type":"uint256","internalType":"uint256"}],"constant":true,"stateMutability":"view"},{"name":"setAddressGasToken","type":"function","inputs":[{"name":"safe","type":"address","internalType":"address"},{"name":"gasToken","type":"address","internalType":"address"}],"outputs":[],"stateMutability":"nonpayable"},{"name":"initSafe","type":"function","inputs":[{"name":"owner","type":"address","internalType":"address"},{"name":"safe","type":"address","internalType":"address"}],"outputs":[],"stateMutability":"nonpayable"}],"devdoc":{"kind":"dev","methods":{"owner()":{"details":"Returns the address of the current owner."},"renounceOwnership()":{"details":"Leaves the contract without owner. It will not be possible to call `onlyOwner` functions anymore. Can only be called by the current owner. NOTE: Renouncing ownership will leave the contract without an owner, thereby removing any functionality that is only available to the owner."},"initSafe(address,address)":{"details":"sets the initial gas token of a given safe proxy"},"transferOwnership(address)":{"details":"Transfers ownership of the contract to a new account (`newOwner`). Can only be called by the current owner."},"getAddressGastoken(address)":{"details":"return the gas token used by a safe"},"getDeployedAddress(address)":{"details":"return the location of a users deployed wrapper"},"getGasTokenAndSaving(address)":{"details":"return the address and savings for a given safe proxy"},"getAddressGasTokenSaving(address)":{"details":"return the savings a gas token gives"},"setAddressGasToken(address,address)":{"details":"allows the creator of a safe to change the gas token used by the safe"}},"version":1},"source":"// SPDX-License-Identifier: MIT\npragma solidity ^0.8.0;\n\nimport \"@openzeppelin/contracts/access/Ownable.sol\";\n\ncontract GSVEBeacon is Ownable{\n    \n    mapping(address => address) private _deployedAddress;\n    mapping(address => address) private _addressGasToken;\n    mapping(address => uint256) private _supportedGasTokens;\n    \n    constructor (address _wchi, address _wgst2, address _wgst1) public {\n        //chi, gst2 and gst1\n        _supportedGasTokens[0x0000000000004946c0e9F43F4Dee607b0eF1fA1c] = 30053;\n        _supportedGasTokens[0x0000000000b3F879cb30FE243b4Dfee438691c04] = 30870;\n        _supportedGasTokens[0x88d60255F917e3eb94eaE199d827DAd837fac4cB] = 20046;\n\n        //wchi, wgst2 and wgst1\n        _supportedGasTokens[_wchi] = 30053;\n        _supportedGasTokens[_wgst2] = 30870;\n        _supportedGasTokens[_wgst1] = 20046;\n    }\n    \n    /**\n    * @dev return the location of a users deployed wrapper\n    */\n    function getDeployedAddress(address creator) public view returns(address){\n        return _deployedAddress[creator];\n    }\n\n    /**\n    * @dev return the gas token used by a safe\n    */\n    function getAddressGastoken(address safe) public view returns(address){\n        return _addressGasToken[safe];\n    }\n\n    /**\n    * @dev return the savings a gas token gives\n    */\n    function getAddressGasTokenSaving(address gastoken) public view returns(uint256){\n        return _supportedGasTokens[gastoken];\n    }\n    \n    /**\n    * @dev return the address and savings for a given safe proxy\n    */\n    function getGasTokenAndSaving(address safe) public view returns(address, uint256){\n        return (getAddressGastoken(safe), getAddressGasTokenSaving(safe));\n    }\n\n    /**\n    * @dev allows the creator of a safe to change the gas token used by the safe\n    */\n    function setAddressGasToken(address safe, address gasToken) public{\n        require(_deployedAddress[msg.sender] == safe, \"GSVE: Sender is not the safe creator\");\n        if (gasToken != address(0)){\n            require(_supportedGasTokens[gasToken] > 0, \"GSVE: Invalid Gas Token\");\n        }\n        _addressGasToken[safe] = gasToken;\n        emit UpdatedGasToken(safe, gasToken);\n    }\n\n    /**\n    * @dev sets the initial gas token of a given safe proxy\n    */\n    function initSafe(address owner, address safe) public onlyOwner{\n        require(_deployedAddress[owner] == address(0), \"GSVE: address already init'd\");\n        _deployedAddress[owner] = safe;\n        _addressGasToken[safe] = address(0);\n        emit UpdatedGasToken(safe, address(0));\n    }\n\n    event UpdatedGasToken(address safe, address gasToken);\n\n}","userdoc":{"kind":"user","methods":{},"version":1},"bytecode":"0x608060405234801561001057600080fd5b5060405161083d38038061083d83398101604081905261002f9161013a565b600080546001600160a01b031916339081178255604051909182917f8be0079c531659141344cd1fd0a4f28419497f9722a3daafe3b4186f6b6457e0908290a35060036020526175657fe5c4051e32a0fe1e62f17046146baf1266cb80940927eee02b6938d4f5eb8d228190556178967fe565bee0056d4b5d56e62fc2ac917271bb4dc44665cfc17f2ddfa997fda6a60b819055614e4e7feca95c1c2ac79f1ac3e8d229889c2894ef5bd002194829bc84803350a0b34f9b8190556001600160a01b0395861660009081526040808220949094559486168552828520919091559190931682529190205561017c565b80516001600160a01b038116811461013557600080fd5b919050565b60008060006060848603121561014e578283fd5b6101578461011e565b92506101656020850161011e565b91506101736040850161011e565b90509250925092565b6106b28061018b6000396000f3fe608060405234801561001057600080fd5b50600436106100935760003560e01c80639669bd53116100665780639669bd531461013357806398a8046714610146578063a499857114610172578063f2fde38b14610185578063ff145c871461019857600080fd5b80632970973f14610098578063715018a6146100e15780637f3258ce146100eb5780638da5cb5b14610122575b600080fd5b6100c46100a63660046105f4565b6001600160a01b039081166000908152600260205260409020541690565b6040516001600160a01b0390911681526020015b60405180910390f35b6100e96101ca565b005b6101146100f93660046105f4565b6001600160a01b031660009081526003602052604090205490565b6040519081526020016100d8565b6000546001600160a01b03166100c4565b6100e9610141366004610615565b610247565b6100c46101543660046105f4565b6001600160a01b039081166000908152600160205260409020541690565b6100e9610180366004610615565b61039d565b6100e96101933660046105f4565b6104a7565b6101ab6101a63660046105f4565b610591565b604080516001600160a01b0390931683526020830191909152016100d8565b6000546001600160a01b031633146101fd5760405162461bcd60e51b81526004016101f490610647565b60405180910390fd5b600080546040516001600160a01b03909116907f8be0079c531659141344cd1fd0a4f28419497f9722a3daafe3b4186f6b6457e0908390a3600080546001600160a01b0319169055565b336000908152600160205260409020546001600160a01b038381169116146102bd5760405162461bcd60e51b8152602060048201526024808201527f475356453a2053656e646572206973206e6f742074686520736166652063726560448201526330ba37b960e11b60648201526084016101f4565b6001600160a01b03811615610331576001600160a01b0381166000908152600360205260409020546103315760405162461bcd60e51b815260206004820152601760248201527f475356453a20496e76616c69642047617320546f6b656e00000000000000000060448201526064016101f4565b6001600160a01b0382811660008181526002602090815260409182902080546001600160a01b031916948616948517905581519283528201929092527ff457100720fb97ccb67a26d8f3ce110d2c414903bb49b87f5c8bbb6f0649ac6991015b60405180910390a15050565b6000546001600160a01b031633146103c75760405162461bcd60e51b81526004016101f490610647565b6001600160a01b03828116600090815260016020526040902054161561042f5760405162461bcd60e51b815260206004820152601c60248201527f475356453a206164647265737320616c726561647920696e697427640000000060448201526064016101f4565b6001600160a01b03828116600090815260016020908152604080832080546001600160a01b031990811695871695861790915584845260028352818420805490911690558051938452908301919091527ff457100720fb97ccb67a26d8f3ce110d2c414903bb49b87f5c8bbb6f0649ac699101610391565b6000546001600160a01b031633146104d15760405162461bcd60e51b81526004016101f490610647565b6001600160a01b0381166105365760405162461bcd60e51b815260206004820152602660248201527f4f776e61626c653a206e6577206f776e657220697320746865207a65726f206160448201526564647265737360d01b60648201526084016101f4565b600080546040516001600160a01b03808516939216917f8be0079c531659141344cd1fd0a4f28419497f9722a3daafe3b4186f6b6457e091a3600080546001600160a01b0319166001600160a01b0392909216919091179055565b6000806105b6836001600160a01b039081166000908152600260205260409020541690565b6001600160a01b03841660009081526003602052604090205491509150915091565b80356001600160a01b03811681146105ef57600080fd5b919050565b600060208284031215610605578081fd5b61060e826105d8565b9392505050565b60008060408385031215610627578081fd5b610630836105d8565b915061063e602084016105d8565b90509250929050565b6020808252818101527f4f776e61626c653a2063616c6c6572206973206e6f7420746865206f776e657260408201526060019056fea26469706673582212205631e03f03e3447c5d455c8e6f410811ba362da117da1f81a3b0e5b3e619a15a64736f6c63430008040033","compiler":{"name":"solc","version":"0.8.4+commit.c7e474f2.Emscripten.clang"},"updatedAt":"2021-05-18T16:57:42.801Z","sourcePath":"/C/Users/khera/Documents/GitHub/GasSwapTokens/contracts/GSVEBeacon.sol","networkType":"ethereum","contractName":"GSVEBeacon","schemaVersion":"3.4.1","immutableReferences":{}}