{
  "contractName": "GSVESmartWrapperFactory",
  "abi": [
    {
      "inputs": [
        {
          "internalType": "address payable",
          "name": "_smartWrapperLocation",
          "type": "address"
        },
        {
          "internalType": "address",
          "name": "_GSVEToken",
          "type": "address"
        }
      ],
      "stateMutability": "nonpayable",
      "type": "constructor"
    },
    {
      "anonymous": false,
      "inputs": [
        {
          "indexed": true,
          "internalType": "address",
          "name": "previousOwner",
          "type": "address"
        },
        {
          "indexed": true,
          "internalType": "address",
          "name": "newOwner",
          "type": "address"
        }
      ],
      "name": "OwnershipTransferred",
      "type": "event"
    },
    {
      "inputs": [],
      "name": "owner",
      "outputs": [
        {
          "internalType": "address",
          "name": "",
          "type": "address"
        }
      ],
      "stateMutability": "view",
      "type": "function"
    },
    {
      "inputs": [],
      "name": "renounceOwnership",
      "outputs": [],
      "stateMutability": "nonpayable",
      "type": "function"
    },
    {
      "inputs": [],
      "name": "smartWrapperLocation",
      "outputs": [
        {
          "internalType": "address payable",
          "name": "",
          "type": "address"
        }
      ],
      "stateMutability": "view",
      "type": "function"
    },
    {
      "inputs": [
        {
          "internalType": "address",
          "name": "newOwner",
          "type": "address"
        }
      ],
      "name": "transferOwnership",
      "outputs": [],
      "stateMutability": "nonpayable",
      "type": "function"
    },
    {
      "inputs": [
        {
          "internalType": "address",
          "name": "gasToken",
          "type": "address"
        },
        {
          "internalType": "uint256",
          "name": "freeUpValue",
          "type": "uint256"
        }
      ],
      "name": "addGasToken",
      "outputs": [],
      "stateMutability": "nonpayable",
      "type": "function"
    },
    {
      "inputs": [
        {
          "internalType": "address",
          "name": "creator",
          "type": "address"
        }
      ],
      "name": "deployedWalletAddressLocation",
      "outputs": [
        {
          "internalType": "address",
          "name": "",
          "type": "address"
        }
      ],
      "stateMutability": "view",
      "type": "function"
    },
    {
      "inputs": [
        {
          "internalType": "address",
          "name": "gasToken",
          "type": "address"
        }
      ],
      "name": "compatibleGasToken",
      "outputs": [
        {
          "internalType": "uint256",
          "name": "",
          "type": "uint256"
        }
      ],
      "stateMutability": "view",
      "type": "function"
    },
    {
      "inputs": [],
      "name": "deployGSVESmartWrapper",
      "outputs": [],
      "stateMutability": "nonpayable",
      "type": "function"
    }
  ],
  "bytecode": "0x6080604052600060075534801561001557600080fd5b506040516107c83803806107c8833981016040819052610034916100a6565b600080546001600160a01b031916339081178255604051909182917f8be0079c531659141344cd1fd0a4f28419497f9722a3daafe3b4186f6b6457e0908290a350600180546001600160a01b039384166001600160a01b031991821617909155600680549290931691161790556100f7565b600080604083850312156100b8578182fd5b82516100c3816100df565b60208401519092506100d4816100df565b809150509250929050565b6001600160a01b03811681146100f457600080fd5b50565b6106c2806101066000396000f3fe608060405234801561001057600080fd5b50600436106100875760003560e01c80638da5cb5b1161005b5780638da5cb5b146101055780638e13fd7814610116578063a6cf49681461014d578063f2fde38b1461015557600080fd5b8062e356021461008c5780632e8e94ef146100a15780637067fb8b146100ea578063715018a6146100fd575b600080fd5b61009f61009a3660046105e5565b610168565b005b6100cd6100af3660046105c4565b6001600160a01b039081166000908152600460205260409020541690565b6040516001600160a01b0390911681526020015b60405180910390f35b6001546100cd906001600160a01b031681565b61009f610205565b6000546001600160a01b03166100cd565b61013f6101243660046105c4565b6001600160a01b031660009081526002602052604090205490565b6040519081526020016100e1565b61009f610279565b61009f6101633660046105c4565b610426565b6000546001600160a01b0316331461019b5760405162461bcd60e51b81526004016101929061060e565b60405180910390fd5b6001600160a01b03821660008181526002602090815260408083206001908190556007805485526003909352922080546001600160a01b03191690931790925590546101e691610643565b6007556001600160a01b03909116600090815260056020526040902055565b6000546001600160a01b0316331461022f5760405162461bcd60e51b81526004016101929061060e565b600080546040516001600160a01b03909116907f8be0079c531659141344cd1fd0a4f28419497f9722a3daafe3b4186f6b6457e0908390a3600080546001600160a01b0319169055565b600154600090610291906001600160a01b0316610510565b60065460405163784d200b60e11b81523060048201526001600160a01b03918216602482015291925082169063f09a401690604401600060405180830381600087803b1580156102e057600080fd5b505af11580156102f4573d6000803e3d6000fd5b5050505060005b60075481101561039c576000818152600360209081526040808320546001600160a01b039081168085526005909352928190205490516271ab0160e11b8152600481018390526024810191909152909184169062e3560290604401600060405180830381600087803b15801561037057600080fd5b505af1158015610384573d6000803e3d6000fd5b505050505080806103949061065b565b9150506102fb565b5060405163f2fde38b60e01b81523360048201526001600160a01b0382169063f2fde38b90602401600060405180830381600087803b1580156103de57600080fd5b505af11580156103f2573d6000803e3d6000fd5b505033600090815260046020526040902080546001600160a01b0319166001600160a01b0394909416939093179092555050565b6000546001600160a01b031633146104505760405162461bcd60e51b81526004016101929061060e565b6001600160a01b0381166104b55760405162461bcd60e51b815260206004820152602660248201527f4f776e61626c653a206e6577206f776e657220697320746865207a65726f206160448201526564647265737360d01b6064820152608401610192565b600080546040516001600160a01b03808516939216917f8be0079c531659141344cd1fd0a4f28419497f9722a3daafe3b4186f6b6457e091a3600080546001600160a01b0319166001600160a01b0392909216919091179055565b6000604051733d602d80600a3d3981f3363d3d373d3d3d363d7360601b81528260601b60148201526e5af43d82803e903d91602b57fd5bf360881b60288201526037816000f09150506001600160a01b0381166105a85760405162461bcd60e51b8152602060048201526016602482015275115490cc4c4d8dce8818dc99585d194819985a5b195960521b6044820152606401610192565b919050565b80356001600160a01b03811681146105a857600080fd5b6000602082840312156105d5578081fd5b6105de826105ad565b9392505050565b600080604083850312156105f7578081fd5b610600836105ad565b946020939093013593505050565b6020808252818101527f4f776e61626c653a2063616c6c6572206973206e6f7420746865206f776e6572604082015260600190565b6000821982111561065657610656610676565b500190565b600060001982141561066f5761066f610676565b5060010190565b634e487b7160e01b600052601160045260246000fdfea26469706673582212203939602c016ea12f914bf07b1ac8c6de6051c998782a8b49fcfbe886e4e2b79064736f6c63430008040033",
  "immutableReferences": {},
  "source": "// SPDX-License-Identifier: MIT\r\npragma solidity ^0.8.0;\r\n\r\nimport \"@openzeppelin/contracts/proxy/Clones.sol\";\r\nimport \"@openzeppelin/contracts/access/Ownable.sol\";\r\nimport \"./IGSVESmartWrapper.sol\";\r\n\r\ncontract GSVESmartWrapperFactory is Ownable{\r\n    address payable public smartWrapperLocation;\r\n    mapping(address => uint256) private _compatibleGasTokens;\r\n    mapping(uint256 => address) private _reverseTokenMap;\r\n    mapping(address => address) private _deployedWalletAddressLocation;\r\n    mapping(address => uint256) private _freeUpValue;\r\n    address private GSVEToken;\r\n    uint256 private _totalSupportedTokens = 0;\r\n\r\n  constructor (address payable _smartWrapperLocation, address _GSVEToken) public {\r\n    smartWrapperLocation = _smartWrapperLocation;\r\n    GSVEToken = _GSVEToken;\r\n  }\r\n\r\n    /**\r\n    * @dev add support for trusted gas tokens - those we wrapped\r\n    */\r\n    function addGasToken(address gasToken, uint256 freeUpValue) public onlyOwner{\r\n        _compatibleGasTokens[gasToken] = 1;\r\n        _reverseTokenMap[_totalSupportedTokens] = gasToken;\r\n        _totalSupportedTokens = _totalSupportedTokens + 1;\r\n        _freeUpValue[gasToken] = freeUpValue;\r\n    }\r\n\r\n    /**\r\n    * @dev return the location of a users deployed wrapper\r\n    */\r\n    function deployedWalletAddressLocation(address creator) public view returns(address){\r\n        return _deployedWalletAddressLocation[creator];\r\n    }\r\n\r\n    /**\r\n    * @dev function to check if a gas token is supported by the deployer\r\n    */\r\n    function compatibleGasToken(address gasToken) public view returns(uint256){\r\n        return _compatibleGasTokens[gasToken];\r\n    }\r\n\r\n    /**\r\n    * @dev deploys a gsve smart wrapper for the caller\r\n    * the ownership of the wrapper is transfered to the caller\r\n    * a note is made of where the users wrapper is deployed\r\n    * gas tokens can be burned to save on this deployment operation\r\n    * the gas tokens that the deployer supports are enabled in the wrapper before transfering ownership.\r\n    */\r\n  function deployGSVESmartWrapper() public {\r\n        address contractAddress = Clones.clone(smartWrapperLocation);\r\n        IGSVESmartWrapper(payable(contractAddress)).init(address(this), GSVEToken);\r\n\r\n        for(uint256 i = 0; i<_totalSupportedTokens; i++){\r\n            address tokenAddress = _reverseTokenMap[i];\r\n            IGSVESmartWrapper(payable(contractAddress)).addGasToken(tokenAddress, _freeUpValue[tokenAddress]);\r\n        }\r\n\r\n        Ownable(contractAddress).transferOwnership(msg.sender);\r\n        _deployedWalletAddressLocation[msg.sender] = contractAddress;\r\n    }\r\n\r\n}",
  "sourcePath": "C:/Users/khera/Documents/GitHub/GasSwapTokens/contracts/GSVESmartWrapperFactory.sol",
  "compiler": {
    "name": "solc",
    "version": "0.8.4+commit.c7e474f2.Emscripten.clang"
  },
  "schemaVersion": "3.3.4",
  "updatedAt": "2021-05-08T14:10:58.087Z",
  "devdoc": {
    "kind": "dev",
    "methods": {
      "addGasToken(address,uint256)": {
        "details": "add support for trusted gas tokens - those we wrapped"
      },
      "compatibleGasToken(address)": {
        "details": "function to check if a gas token is supported by the deployer"
      },
      "deployGSVESmartWrapper()": {
        "details": "deploys a gsve smart wrapper for the caller the ownership of the wrapper is transfered to the caller a note is made of where the users wrapper is deployed gas tokens can be burned to save on this deployment operation the gas tokens that the deployer supports are enabled in the wrapper before transfering ownership."
      },
      "deployedWalletAddressLocation(address)": {
        "details": "return the location of a users deployed wrapper"
      },
      "owner()": {
        "details": "Returns the address of the current owner."
      },
      "renounceOwnership()": {
        "details": "Leaves the contract without owner. It will not be possible to call `onlyOwner` functions anymore. Can only be called by the current owner. NOTE: Renouncing ownership will leave the contract without an owner, thereby removing any functionality that is only available to the owner."
      },
      "transferOwnership(address)": {
        "details": "Transfers ownership of the contract to a new account (`newOwner`). Can only be called by the current owner."
      }
    },
    "version": 1
  },
  "userdoc": {
    "kind": "user",
    "methods": {},
    "version": 1
  }
}