{"abi":[{"name":"OwnershipTransferred","type":"event","inputs":[{"name":"previousOwner","type":"address","indexed":true,"internalType":"address"},{"name":"newOwner","type":"address","indexed":true,"internalType":"address"}],"anonymous":false},{"name":"owner","type":"function","inputs":[],"outputs":[{"name":"","type":"address","internalType":"address"}],"constant":true,"stateMutability":"view"},{"name":"renounceOwnership","type":"function","inputs":[],"outputs":[],"stateMutability":"nonpayable"},{"name":"transferOwnership","type":"function","inputs":[{"name":"newOwner","type":"address","internalType":"address"}],"outputs":[],"stateMutability":"nonpayable"},{"name":"transferToken","type":"function","inputs":[{"name":"token","type":"address","internalType":"address"},{"name":"recipient","type":"address","internalType":"address"},{"name":"amount","type":"uint256","internalType":"uint256"}],"outputs":[],"stateMutability":"nonpayable"}],"devdoc":{"kind":"dev","details":"This smart contract is a \"vault\" it holds onto the fees that the protocol has gathered and any GSVE that is to be rewarded from protocol iteraction","methods":{"owner()":{"details":"Returns the address of the current owner."},"renounceOwnership()":{"details":"Leaves the contract without owner. It will not be possible to call `onlyOwner` functions anymore. Can only be called by the current owner. NOTE: Renouncing ownership will leave the contract without an owner, thereby removing any functionality that is only available to the owner."},"transferOwnership(address)":{"details":"Transfers ownership of the contract to a new account (`newOwner`). Can only be called by the current owner."}},"version":1},"source":"// SPDX-License-Identifier: MIT\npragma solidity ^0.8.0;\n\nimport \"@openzeppelin/contracts/token/ERC20/IERC20.sol\";\nimport \"@openzeppelin/contracts/access/Ownable.sol\";\n\n/**\n* @dev This smart contract is a \"vault\"\n* it holds onto the fees that the protocol has gathered\n* and any GSVE that is to be rewarded from protocol iteraction\n*/\ncontract GSVEVault is Ownable{\n    function transferToken(address token, address recipient, uint256 amount) public onlyOwner{\n        IERC20(token).transfer(recipient, amount);\n    }\n}\n","userdoc":{"kind":"user","methods":{},"version":1},"bytecode":"0x608060405234801561001057600080fd5b50600080546001600160a01b031916339081178255604051909182917f8be0079c531659141344cd1fd0a4f28419497f9722a3daafe3b4186f6b6457e0908290a3506103bc806100616000396000f3fe608060405234801561001057600080fd5b506004361061004c5760003560e01c8063715018a6146100515780638da5cb5b1461005b578063f2fde38b1461007a578063f5537ede1461008d575b600080fd5b6100596100a0565b005b600054604080516001600160a01b039092168252519081900360200190f35b6100596100883660046102d5565b61011d565b61005961009b3660046102f6565b610207565b6000546001600160a01b031633146100d35760405162461bcd60e51b81526004016100ca90610351565b60405180910390fd5b600080546040516001600160a01b03909116907f8be0079c531659141344cd1fd0a4f28419497f9722a3daafe3b4186f6b6457e0908390a3600080546001600160a01b0319169055565b6000546001600160a01b031633146101475760405162461bcd60e51b81526004016100ca90610351565b6001600160a01b0381166101ac5760405162461bcd60e51b815260206004820152602660248201527f4f776e61626c653a206e6577206f776e657220697320746865207a65726f206160448201526564647265737360d01b60648201526084016100ca565b600080546040516001600160a01b03808516939216917f8be0079c531659141344cd1fd0a4f28419497f9722a3daafe3b4186f6b6457e091a3600080546001600160a01b0319166001600160a01b0392909216919091179055565b6000546001600160a01b031633146102315760405162461bcd60e51b81526004016100ca90610351565b60405163a9059cbb60e01b81526001600160a01b0383811660048301526024820183905284169063a9059cbb90604401602060405180830381600087803b15801561027b57600080fd5b505af115801561028f573d6000803e3d6000fd5b505050506040513d601f19601f820116820180604052508101906102b39190610331565b50505050565b80356001600160a01b03811681146102d057600080fd5b919050565b6000602082840312156102e6578081fd5b6102ef826102b9565b9392505050565b60008060006060848603121561030a578182fd5b610313846102b9565b9250610321602085016102b9565b9150604084013590509250925092565b600060208284031215610342578081fd5b815180151581146102ef578182fd5b6020808252818101527f4f776e61626c653a2063616c6c6572206973206e6f7420746865206f776e657260408201526060019056fea264697066735822122082d82a3a07cc73e3739ed9c46428a135ea1cd74832e9a6efd5050491575cb15264736f6c63430008040033","compiler":{"name":"solc","version":"0.8.4+commit.c7e474f2.Emscripten.clang"},"updatedAt":"2021-05-18T16:57:42.747Z","sourcePath":"/C/Users/khera/Documents/GitHub/GasSwapTokens/contracts/GSVEVault.sol","networkType":"ethereum","contractName":"GSVEVault","schemaVersion":"3.4.1","immutableReferences":{}}