{
  "contractName": "GSVETransactionWrapper",
  "abi": [
    {
      "anonymous": false,
      "inputs": [
        {
          "indexed": true,
          "internalType": "address",
          "name": "previousOwner",
          "type": "address"
        },
        {
          "indexed": true,
          "internalType": "address",
          "name": "newOwner",
          "type": "address"
        }
      ],
      "name": "OwnershipTransferred",
      "type": "event"
    },
    {
      "inputs": [],
      "name": "owner",
      "outputs": [
        {
          "internalType": "address",
          "name": "",
          "type": "address"
        }
      ],
      "stateMutability": "view",
      "type": "function"
    },
    {
      "inputs": [],
      "name": "renounceOwnership",
      "outputs": [],
      "stateMutability": "nonpayable",
      "type": "function"
    },
    {
      "inputs": [
        {
          "internalType": "address",
          "name": "newOwner",
          "type": "address"
        }
      ],
      "name": "transferOwnership",
      "outputs": [],
      "stateMutability": "nonpayable",
      "type": "function"
    },
    {
      "inputs": [
        {
          "internalType": "address",
          "name": "gasToken",
          "type": "address"
        }
      ],
      "name": "addGasToken",
      "outputs": [],
      "stateMutability": "nonpayable",
      "type": "function"
    },
    {
      "inputs": [
        {
          "internalType": "address",
          "name": "gasToken",
          "type": "address"
        }
      ],
      "name": "compatibleGasToken",
      "outputs": [
        {
          "internalType": "uint256",
          "name": "",
          "type": "uint256"
        }
      ],
      "stateMutability": "view",
      "type": "function"
    },
    {
      "inputs": [
        {
          "internalType": "bytes",
          "name": "data",
          "type": "bytes"
        },
        {
          "internalType": "address",
          "name": "contractAddress",
          "type": "address"
        },
        {
          "internalType": "address",
          "name": "gasToken",
          "type": "address"
        }
      ],
      "name": "wrapTransaction",
      "outputs": [],
      "stateMutability": "payable",
      "type": "function"
    }
  ],
  "bytecode": "0x608060405234801561001057600080fd5b5060006100216100c460201b60201c565b9050806000806101000a81548173ffffffffffffffffffffffffffffffffffffffff021916908373ffffffffffffffffffffffffffffffffffffffff1602179055508073ffffffffffffffffffffffffffffffffffffffff16600073ffffffffffffffffffffffffffffffffffffffff167f8be0079c531659141344cd1fd0a4f28419497f9722a3daafe3b4186f6b6457e060405160405180910390a3506100cc565b600033905090565b6111bf806100db6000396000f3fe6080604052600436106100555760003560e01c80630f76f8301461005a578063715018a6146100835780638da5cb5b1461009a5780638e13fd78146100c5578063bc1a921c14610102578063f2fde38b1461011e575b600080fd5b34801561006657600080fd5b50610081600480360381019061007c9190610af0565b610147565b005b34801561008f57600080fd5b5061009861020a565b005b3480156100a657600080fd5b506100af610344565b6040516100bc9190610cfc565b60405180910390f35b3480156100d157600080fd5b506100ec60048036038101906100e79190610af0565b61036d565b6040516100f99190610e02565b60405180910390f35b61011c60048036038101906101179190610b19565b6103b6565b005b34801561012a57600080fd5b5061014560048036038101906101409190610af0565b610725565b005b61014f6108ce565b73ffffffffffffffffffffffffffffffffffffffff1661016d610344565b73ffffffffffffffffffffffffffffffffffffffff16146101c3576040517f08c379a00000000000000000000000000000000000000000000000000000000081526004016101ba90610dc2565b60405180910390fd5b60018060008373ffffffffffffffffffffffffffffffffffffffff1673ffffffffffffffffffffffffffffffffffffffff1681526020019081526020016000208190555050565b6102126108ce565b73ffffffffffffffffffffffffffffffffffffffff16610230610344565b73ffffffffffffffffffffffffffffffffffffffff1614610286576040517f08c379a000000000000000000000000000000000000000000000000000000000815260040161027d90610dc2565b60405180910390fd5b600073ffffffffffffffffffffffffffffffffffffffff1660008054906101000a900473ffffffffffffffffffffffffffffffffffffffff1673ffffffffffffffffffffffffffffffffffffffff167f8be0079c531659141344cd1fd0a4f28419497f9722a3daafe3b4186f6b6457e060405160405180910390a360008060006101000a81548173ffffffffffffffffffffffffffffffffffffffff021916908373ffffffffffffffffffffffffffffffffffffffff160217905550565b60008060009054906101000a900473ffffffffffffffffffffffffffffffffffffffff16905090565b6000600160008373ffffffffffffffffffffffffffffffffffffffff1673ffffffffffffffffffffffffffffffffffffffff168152602001908152602001600020549050919050565b8060018060008373ffffffffffffffffffffffffffffffffffffffff1673ffffffffffffffffffffffffffffffffffffffff1681526020019081526020016000205414610438576040517f08c379a000000000000000000000000000000000000000000000000000000000815260040161042f90610d62565b60405180910390fd5b60005a90506104456108ce565b73ffffffffffffffffffffffffffffffffffffffff16610463610344565b73ffffffffffffffffffffffffffffffffffffffff16146104b9576040517f08c379a00000000000000000000000000000000000000000000000000000000081526004016104b090610dc2565b60405180910390fd5b6104d88473ffffffffffffffffffffffffffffffffffffffff166108d6565b6104e15761063d565b60003411156105965761059086868080601f016020809104026020016040519081016040528093929190818152602001838380828437600081840152601f19601f82011690508083019250505050505050346040518060400160405280602081526020017f47533a204572726f7220666f7277617264696e67207472616e73616374696f6e8152508773ffffffffffffffffffffffffffffffffffffffff166108e9909392919063ffffffff16565b5061063c565b61063a86868080601f016020809104026020016040519081016040528093929190818152602001838380828437600081840152601f19601f820116905080830192505050505050506040518060400160405280602081526020017f47533a204572726f7220666f7277617264696e67207472616e73616374696f6e8152508673ffffffffffffffffffffffffffffffffffffffff166109fd9092919063ffffffff16565b505b5b600080369050601061064f9190610ed6565b5a8361520861065e9190610e4f565b6106689190610f30565b6106729190610e4f565b90508273ffffffffffffffffffffffffffffffffffffffff1663079d229f33615dc061374a856106a29190610e4f565b6106ac9190610ea5565b6040518363ffffffff1660e01b81526004016106c9929190610d17565b602060405180830381600087803b1580156106e357600080fd5b505af11580156106f7573d6000803e3d6000fd5b505050506040513d601f19601f8201168201806040525081019061071b9190610b85565b5050505050505050565b61072d6108ce565b73ffffffffffffffffffffffffffffffffffffffff1661074b610344565b73ffffffffffffffffffffffffffffffffffffffff16146107a1576040517f08c379a000000000000000000000000000000000000000000000000000000000815260040161079890610dc2565b60405180910390fd5b600073ffffffffffffffffffffffffffffffffffffffff168173ffffffffffffffffffffffffffffffffffffffff161415610811576040517f08c379a000000000000000000000000000000000000000000000000000000000815260040161080890610d82565b60405180910390fd5b8073ffffffffffffffffffffffffffffffffffffffff1660008054906101000a900473ffffffffffffffffffffffffffffffffffffffff1673ffffffffffffffffffffffffffffffffffffffff167f8be0079c531659141344cd1fd0a4f28419497f9722a3daafe3b4186f6b6457e060405160405180910390a3806000806101000a81548173ffffffffffffffffffffffffffffffffffffffff021916908373ffffffffffffffffffffffffffffffffffffffff16021790555050565b600033905090565b600080823b905060008111915050919050565b60608247101561092e576040517f08c379a000000000000000000000000000000000000000000000000000000000815260040161092590610da2565b60405180910390fd5b610937856108d6565b610976576040517f08c379a000000000000000000000000000000000000000000000000000000000815260040161096d90610de2565b60405180910390fd5b6000808673ffffffffffffffffffffffffffffffffffffffff16858760405161099f9190610ce5565b60006040518083038185875af1925050503d80600081146109dc576040519150601f19603f3d011682016040523d82523d6000602084013e6109e1565b606091505b50915091506109f1828286610a15565b92505050949350505050565b6060610a0c84846000856108e9565b90509392505050565b60608315610a2557829050610a75565b600083511115610a385782518084602001fd5b816040517f08c379a0000000000000000000000000000000000000000000000000000000008152600401610a6c9190610d40565b60405180910390fd5b9392505050565b600081359050610a8b8161115b565b92915050565b60008083601f840112610aa357600080fd5b8235905067ffffffffffffffff811115610abc57600080fd5b602083019150836001820283011115610ad457600080fd5b9250929050565b600081519050610aea81611172565b92915050565b600060208284031215610b0257600080fd5b6000610b1084828501610a7c565b91505092915050565b60008060008060608587031215610b2f57600080fd5b600085013567ffffffffffffffff811115610b4957600080fd5b610b5587828801610a91565b94509450506020610b6887828801610a7c565b9250506040610b7987828801610a7c565b91505092959194509250565b600060208284031215610b9757600080fd5b6000610ba584828501610adb565b91505092915050565b610bb781610f64565b82525050565b6000610bc882610e1d565b610bd28185610e33565b9350610be2818560208601610fa0565b80840191505092915050565b6000610bf982610e28565b610c038185610e3e565b9350610c13818560208601610fa0565b610c1c81611031565b840191505092915050565b6000610c34601883610e3e565b9150610c3f82611042565b602082019050919050565b6000610c57602683610e3e565b9150610c628261106b565b604082019050919050565b6000610c7a602683610e3e565b9150610c85826110ba565b604082019050919050565b6000610c9d602083610e3e565b9150610ca882611109565b602082019050919050565b6000610cc0601d83610e3e565b9150610ccb82611132565b602082019050919050565b610cdf81610f96565b82525050565b6000610cf18284610bbd565b915081905092915050565b6000602082019050610d116000830184610bae565b92915050565b6000604082019050610d2c6000830185610bae565b610d396020830184610cd6565b9392505050565b60006020820190508181036000830152610d5a8184610bee565b905092915050565b60006020820190508181036000830152610d7b81610c27565b9050919050565b60006020820190508181036000830152610d9b81610c4a565b9050919050565b60006020820190508181036000830152610dbb81610c6d565b9050919050565b60006020820190508181036000830152610ddb81610c90565b9050919050565b60006020820190508181036000830152610dfb81610cb3565b9050919050565b6000602082019050610e176000830184610cd6565b92915050565b600081519050919050565b600081519050919050565b600081905092915050565b600082825260208201905092915050565b6000610e5a82610f96565b9150610e6583610f96565b9250827fffffffffffffffffffffffffffffffffffffffffffffffffffffffffffffffff03821115610e9a57610e99610fd3565b5b828201905092915050565b6000610eb082610f96565b9150610ebb83610f96565b925082610ecb57610eca611002565b5b828204905092915050565b6000610ee182610f96565b9150610eec83610f96565b9250817fffffffffffffffffffffffffffffffffffffffffffffffffffffffffffffffff0483118215151615610f2557610f24610fd3565b5b828202905092915050565b6000610f3b82610f96565b9150610f4683610f96565b925082821015610f5957610f58610fd3565b5b828203905092915050565b6000610f6f82610f76565b9050919050565b600073ffffffffffffffffffffffffffffffffffffffff82169050919050565b6000819050919050565b60005b83811015610fbe578082015181840152602081019050610fa3565b83811115610fcd576000848401525b50505050565b7f4e487b7100000000000000000000000000000000000000000000000000000000600052601160045260246000fd5b7f4e487b7100000000000000000000000000000000000000000000000000000000600052601260045260246000fd5b6000601f19601f8301169050919050565b7f475356453a20696e636f6d70617469626c6520746f6b656e0000000000000000600082015250565b7f4f776e61626c653a206e6577206f776e657220697320746865207a65726f206160008201527f6464726573730000000000000000000000000000000000000000000000000000602082015250565b7f416464726573733a20696e73756666696369656e742062616c616e636520666f60008201527f722063616c6c0000000000000000000000000000000000000000000000000000602082015250565b7f4f776e61626c653a2063616c6c6572206973206e6f7420746865206f776e6572600082015250565b7f416464726573733a2063616c6c20746f206e6f6e2d636f6e7472616374000000600082015250565b61116481610f64565b811461116f57600080fd5b50565b61117b81610f96565b811461118657600080fd5b5056fea26469706673582212207fd75ecf3533ac09f5e8dcae459ad82791d578ef50dd880c83dd0d2743a57d2064736f6c63430008040033",
  "immutableReferences": {},
  "source": "pragma solidity ^0.8.0;\r\n\r\nimport \"@openzeppelin/contracts/utils/Address.sol\";\r\nimport \"@openzeppelin/contracts/utils/math/Math.sol\";\r\nimport \"@openzeppelin/contracts/utils/math/SafeMath.sol\";\r\nimport \"@openzeppelin/contracts/token/ERC20/IERC20.sol\";\r\nimport \"@openzeppelin/contracts/access/Ownable.sol\";\r\nimport \"./IGSVEToken.sol\";\r\n\r\ninterface IFreeFromUpTo {\r\n    function freeFromUpTo(address from, uint256 value) external returns (uint256 freed);\r\n}\r\n\r\ncontract GSVETransactionWrapper is Ownable {\r\n    using Address for address;\r\n    mapping(address => uint256) private _compatibleGasTokens;\r\n\r\n    function addGasToken(address gasToken) public onlyOwner{\r\n        _compatibleGasTokens[gasToken] = 1;\r\n    }\r\n\r\n    function compatibleGasToken(address gasToken) public view returns(uint256){\r\n        return _compatibleGasTokens[gasToken];\r\n    }\r\n\r\n    modifier discountGas(address gasToken) {\r\n        require(_compatibleGasTokens[gasToken] == 1, \"GSVE: incompatible token\");\r\n        uint256 gasStart = gasleft();\r\n        _;\r\n        uint256 gasSpent = 21000 + gasStart - gasleft() + 16 * msg.data.length;\r\n        IFreeFromUpTo(gasToken).freeFromUpTo(msg.sender,  (gasSpent + 14154) / 24000);\r\n    }\r\n    \r\n    function wrapTransaction(bytes calldata data, address contractAddress, address gasToken) public discountGas(gasToken) payable onlyOwner{\r\n        if(!contractAddress.isContract()){\r\n            return;\r\n        }\r\n\r\n        if(msg.value > 0){\r\n            contractAddress.functionCallWithValue(data, msg.value, \"GS: Error forwarding transaction\");\r\n        }\r\n        else{\r\n            contractAddress.functionCall(data, \"GS: Error forwarding transaction\");\r\n        }\r\n    }\r\n}\r\n",
  "sourcePath": "C:/Users/khera/Documents/GitHub/GasSwapTokens/contracts/GSVETransactionWrapper.sol",
  "compiler": {
    "name": "solc",
    "version": "0.8.4+commit.c7e474f2.Emscripten.clang"
  },
  "schemaVersion": "3.3.4",
  "updatedAt": "2021-04-29T07:02:27.398Z",
  "devdoc": {
    "kind": "dev",
    "methods": {
      "owner()": {
        "details": "Returns the address of the current owner."
      },
      "renounceOwnership()": {
        "details": "Leaves the contract without owner. It will not be possible to call `onlyOwner` functions anymore. Can only be called by the current owner. NOTE: Renouncing ownership will leave the contract without an owner, thereby removing any functionality that is only available to the owner."
      },
      "transferOwnership(address)": {
        "details": "Transfers ownership of the contract to a new account (`newOwner`). Can only be called by the current owner."
      }
    },
    "version": 1
  },
  "userdoc": {
    "kind": "user",
    "methods": {},
    "version": 1
  }
}