{
  "contractName": "GSVEDeployer",
  "abi": [
    {
      "anonymous": false,
      "inputs": [
        {
          "indexed": true,
          "internalType": "address",
          "name": "creator",
          "type": "address"
        },
        {
          "indexed": false,
          "internalType": "address",
          "name": "deploymentAddress",
          "type": "address"
        }
      ],
      "name": "ContractDeployed",
      "type": "event"
    },
    {
      "anonymous": false,
      "inputs": [
        {
          "indexed": true,
          "internalType": "address",
          "name": "previousOwner",
          "type": "address"
        },
        {
          "indexed": true,
          "internalType": "address",
          "name": "newOwner",
          "type": "address"
        }
      ],
      "name": "OwnershipTransferred",
      "type": "event"
    },
    {
      "inputs": [],
      "name": "owner",
      "outputs": [
        {
          "internalType": "address",
          "name": "",
          "type": "address"
        }
      ],
      "stateMutability": "view",
      "type": "function"
    },
    {
      "inputs": [],
      "name": "renounceOwnership",
      "outputs": [],
      "stateMutability": "nonpayable",
      "type": "function"
    },
    {
      "inputs": [
        {
          "internalType": "address",
          "name": "newOwner",
          "type": "address"
        }
      ],
      "name": "transferOwnership",
      "outputs": [],
      "stateMutability": "nonpayable",
      "type": "function"
    },
    {
      "inputs": [
        {
          "internalType": "address",
          "name": "gasToken",
          "type": "address"
        },
        {
          "internalType": "uint256",
          "name": "freeUpValue",
          "type": "uint256"
        }
      ],
      "name": "addGasToken",
      "outputs": [],
      "stateMutability": "nonpayable",
      "type": "function"
    },
    {
      "inputs": [
        {
          "internalType": "address",
          "name": "creator",
          "type": "address"
        }
      ],
      "name": "deployedWalletAddressLocation",
      "outputs": [
        {
          "internalType": "address",
          "name": "",
          "type": "address"
        }
      ],
      "stateMutability": "view",
      "type": "function"
    },
    {
      "inputs": [
        {
          "internalType": "address",
          "name": "gasToken",
          "type": "address"
        }
      ],
      "name": "compatibleGasToken",
      "outputs": [
        {
          "internalType": "uint256",
          "name": "",
          "type": "uint256"
        }
      ],
      "stateMutability": "view",
      "type": "function"
    },
    {
      "inputs": [
        {
          "internalType": "bytes",
          "name": "data",
          "type": "bytes"
        },
        {
          "internalType": "address",
          "name": "gasToken",
          "type": "address"
        }
      ],
      "name": "GsveDeploy",
      "outputs": [
        {
          "internalType": "address",
          "name": "contractAddress",
          "type": "address"
        }
      ],
      "stateMutability": "nonpayable",
      "type": "function"
    },
    {
      "inputs": [
        {
          "internalType": "uint256",
          "name": "salt",
          "type": "uint256"
        },
        {
          "internalType": "bytes",
          "name": "data",
          "type": "bytes"
        },
        {
          "internalType": "address",
          "name": "gasToken",
          "type": "address"
        }
      ],
      "name": "GsveDeploy2",
      "outputs": [
        {
          "internalType": "address",
          "name": "contractAddress",
          "type": "address"
        }
      ],
      "stateMutability": "nonpayable",
      "type": "function"
    },
    {
      "inputs": [
        {
          "internalType": "address",
          "name": "gasToken",
          "type": "address"
        }
      ],
      "name": "GsveWrapperDeploy",
      "outputs": [
        {
          "internalType": "address payable",
          "name": "contractAddress",
          "type": "address"
        }
      ],
      "stateMutability": "nonpayable",
      "type": "function"
    }
  ],
  "bytecode": "0x6080604052600060055534801561001557600080fd5b5060006100266100c960201b60201c565b9050806000806101000a81548173ffffffffffffffffffffffffffffffffffffffff021916908373ffffffffffffffffffffffffffffffffffffffff1602179055508073ffffffffffffffffffffffffffffffffffffffff16600073ffffffffffffffffffffffffffffffffffffffff167f8be0079c531659141344cd1fd0a4f28419497f9722a3daafe3b4186f6b6457e060405160405180910390a3506100d1565b600033905090565b61372e806100e06000396000f3fe60806040523480156200001157600080fd5b50600436106200009f5760003560e01c80638da5cb5b116200006f5780638da5cb5b146200013c5780638e13fd78146200015e5780639bfcb8c01462000194578063d1aa693d14620001ca578063f2fde38b1462000200576200009f565b8062e3560214620000a45780632e8e94ef14620000c4578063488f746314620000fa578063715018a61462000130575b600080fd5b620000c26004803603810190620000bc91906200183b565b62000220565b005b620000e26004803603810190620000dc91906200180f565b6200039a565b604051620000f1919062001a62565b60405180910390f35b6200011860048036038101906200011291906200187c565b62000403565b60405162000127919062001a62565b60405180910390f35b6200013a62000840565b005b6200014662000981565b60405162000155919062001a62565b60405180910390f35b6200017c60048036038101906200017691906200180f565b620009aa565b6040516200018b919062001b4c565b60405180910390f35b620001b26004803603810190620001ac91906200180f565b620009f3565b604051620001c1919062001a9c565b60405180910390f35b620001e86004803603810190620001e2919062001902565b6200114f565b604051620001f7919062001a62565b60405180910390f35b6200021e60048036038101906200021891906200180f565b6200158f565b005b6200022a62001742565b73ffffffffffffffffffffffffffffffffffffffff166200024a62000981565b73ffffffffffffffffffffffffffffffffffffffff1614620002a3576040517f08c379a00000000000000000000000000000000000000000000000000000000081526004016200029a9062001b2a565b60405180910390fd5b60018060008473ffffffffffffffffffffffffffffffffffffffff1673ffffffffffffffffffffffffffffffffffffffff168152602001908152602001600020819055508160026000600554815260200190815260200160002060006101000a81548173ffffffffffffffffffffffffffffffffffffffff021916908373ffffffffffffffffffffffffffffffffffffffff16021790555060016005546200034c919062001bd9565b60058190555080600460008473ffffffffffffffffffffffffffffffffffffffff1673ffffffffffffffffffffffffffffffffffffffff168152602001908152602001600020819055505050565b6000600360008373ffffffffffffffffffffffffffffffffffffffff1673ffffffffffffffffffffffffffffffffffffffff16815260200190815260200160002060009054906101000a900473ffffffffffffffffffffffffffffffffffffffff169050919050565b600081600073ffffffffffffffffffffffffffffffffffffffff168173ffffffffffffffffffffffffffffffffffffffff1614620007195760018060008373ffffffffffffffffffffffffffffffffffffffff1673ffffffffffffffffffffffffffffffffffffffff1681526020019081526020016000205414620004bf576040517f08c379a0000000000000000000000000000000000000000000000000000000008152600401620004b69062001ae6565b60405180910390fd5b60005a90508451602086016000f092508273ffffffffffffffffffffffffffffffffffffffff1663f2fde38b336040518263ffffffff1660e01b81526004016200050a919062001a62565b600060405180830381600087803b1580156200052557600080fd5b505af192505050801562000537575060015b62000592573373ffffffffffffffffffffffffffffffffffffffff167f33c981baba081f8fd2c52ac6ad1ea95b6814b4376640f55689051f65847296888460405162000584919062001a62565b60405180910390a2620005e3565b3373ffffffffffffffffffffffffffffffffffffffff167f33c981baba081f8fd2c52ac6ad1ea95b6814b4376640f55689051f658472968884604051620005da919062001a62565b60405180910390a25b6000803690506010620005f7919062001c6e565b5a8361520862000608919062001bd9565b62000614919062001ccf565b62000620919062001bd9565b90508273ffffffffffffffffffffffffffffffffffffffff1663079d229f33600460008773ffffffffffffffffffffffffffffffffffffffff1673ffffffffffffffffffffffffffffffffffffffff16815260200190815260200160002054614e20856200068f919062001bd9565b6200069b919062001c36565b6040518363ffffffff1660e01b8152600401620006ba92919062001ab9565b602060405180830381600087803b158015620006d557600080fd5b505af1158015620006ea573d6000803e3d6000fd5b505050506040513d601f19601f82011682018060405250810190620007109190620018d6565b50505062000839565b8351602085016000f091508173ffffffffffffffffffffffffffffffffffffffff1663f2fde38b336040518263ffffffff1660e01b81526004016200075f919062001a62565b600060405180830381600087803b1580156200077a57600080fd5b505af19250505080156200078c575060015b620007e7573373ffffffffffffffffffffffffffffffffffffffff167f33c981baba081f8fd2c52ac6ad1ea95b6814b4376640f55689051f658472968883604051620007d9919062001a62565b60405180910390a262000838565b3373ffffffffffffffffffffffffffffffffffffffff167f33c981baba081f8fd2c52ac6ad1ea95b6814b4376640f55689051f6584729688836040516200082f919062001a62565b60405180910390a25b5b5092915050565b6200084a62001742565b73ffffffffffffffffffffffffffffffffffffffff166200086a62000981565b73ffffffffffffffffffffffffffffffffffffffff1614620008c3576040517f08c379a0000000000000000000000000000000000000000000000000000000008152600401620008ba9062001b2a565b60405180910390fd5b600073ffffffffffffffffffffffffffffffffffffffff1660008054906101000a900473ffffffffffffffffffffffffffffffffffffffff1673ffffffffffffffffffffffffffffffffffffffff167f8be0079c531659141344cd1fd0a4f28419497f9722a3daafe3b4186f6b6457e060405160405180910390a360008060006101000a81548173ffffffffffffffffffffffffffffffffffffffff021916908373ffffffffffffffffffffffffffffffffffffffff160217905550565b60008060009054906101000a900473ffffffffffffffffffffffffffffffffffffffff16905090565b6000600160008373ffffffffffffffffffffffffffffffffffffffff1673ffffffffffffffffffffffffffffffffffffffff168152602001908152602001600020549050919050565b600081600073ffffffffffffffffffffffffffffffffffffffff168173ffffffffffffffffffffffffffffffffffffffff161462000e995760018060008373ffffffffffffffffffffffffffffffffffffffff1673ffffffffffffffffffffffffffffffffffffffff168152602001908152602001600020541462000aaf576040517f08c379a000000000000000000000000000000000000000000000000000000000815260040162000aa69062001ae6565b60405180910390fd5b60005a905060006040518060200162000ac8906200174a565b6020820181038252601f19601f82011660405250905060003360405160200162000af3919062001a45565b604051602081830303815290604052805190602001209050808251602084016000f5945060005b60055481101562000c235760006002600083815260200190815260200160002060009054906101000a900473ffffffffffffffffffffffffffffffffffffffff1690508673ffffffffffffffffffffffffffffffffffffffff1662e3560282600460008573ffffffffffffffffffffffffffffffffffffffff1673ffffffffffffffffffffffffffffffffffffffff168152602001908152602001600020546040518363ffffffff1660e01b815260040162000bd892919062001ab9565b600060405180830381600087803b15801562000bf357600080fd5b505af115801562000c08573d6000803e3d6000fd5b5050505050808062000c1a9062001ddd565b91505062000b1a565b508473ffffffffffffffffffffffffffffffffffffffff1663f2fde38b336040518263ffffffff1660e01b815260040162000c5f919062001a62565b600060405180830381600087803b15801562000c7a57600080fd5b505af115801562000c8f573d6000803e3d6000fd5b5050505084600360003373ffffffffffffffffffffffffffffffffffffffff1673ffffffffffffffffffffffffffffffffffffffff16815260200190815260200160002060006101000a81548173ffffffffffffffffffffffffffffffffffffffff021916908373ffffffffffffffffffffffffffffffffffffffff1602179055503373ffffffffffffffffffffffffffffffffffffffff167f33c981baba081f8fd2c52ac6ad1ea95b6814b4376640f55689051f65847296888660405162000d59919062001a7f565b60405180910390a25050600080369050601062000d77919062001c6e565b5a8361520862000d88919062001bd9565b62000d94919062001ccf565b62000da0919062001bd9565b90508273ffffffffffffffffffffffffffffffffffffffff1663079d229f33600460008773ffffffffffffffffffffffffffffffffffffffff1673ffffffffffffffffffffffffffffffffffffffff16815260200190815260200160002054614e208562000e0f919062001bd9565b62000e1b919062001c36565b6040518363ffffffff1660e01b815260040162000e3a92919062001ab9565b602060405180830381600087803b15801562000e5557600080fd5b505af115801562000e6a573d6000803e3d6000fd5b505050506040513d601f19601f8201168201806040525081019062000e909190620018d6565b50505062001149565b60006040518060200162000ead906200174a565b6020820181038252601f19601f82011660405250905060003360405160200162000ed8919062001a45565b604051602081830303815290604052805190602001209050808251602084016000f5935060005b600554811015620010085760006002600083815260200190815260200160002060009054906101000a900473ffffffffffffffffffffffffffffffffffffffff1690508573ffffffffffffffffffffffffffffffffffffffff1662e3560282600460008573ffffffffffffffffffffffffffffffffffffffff1673ffffffffffffffffffffffffffffffffffffffff168152602001908152602001600020546040518363ffffffff1660e01b815260040162000fbd92919062001ab9565b600060405180830381600087803b15801562000fd857600080fd5b505af115801562000fed573d6000803e3d6000fd5b5050505050808062000fff9062001ddd565b91505062000eff565b508373ffffffffffffffffffffffffffffffffffffffff1663f2fde38b336040518263ffffffff1660e01b815260040162001044919062001a62565b600060405180830381600087803b1580156200105f57600080fd5b505af115801562001074573d6000803e3d6000fd5b5050505083600360003373ffffffffffffffffffffffffffffffffffffffff1673ffffffffffffffffffffffffffffffffffffffff16815260200190815260200160002060006101000a81548173ffffffffffffffffffffffffffffffffffffffff021916908373ffffffffffffffffffffffffffffffffffffffff1602179055503373ffffffffffffffffffffffffffffffffffffffff167f33c981baba081f8fd2c52ac6ad1ea95b6814b4376640f55689051f6584729688856040516200113e919062001a7f565b60405180910390a250505b50919050565b600081600073ffffffffffffffffffffffffffffffffffffffff168173ffffffffffffffffffffffffffffffffffffffff1614620014665760018060008373ffffffffffffffffffffffffffffffffffffffff1673ffffffffffffffffffffffffffffffffffffffff16815260200190815260200160002054146200120b576040517f08c379a0000000000000000000000000000000000000000000000000000000008152600401620012029062001ae6565b60405180910390fd5b60005a9050858551602087016000f592508273ffffffffffffffffffffffffffffffffffffffff1663f2fde38b336040518263ffffffff1660e01b815260040162001257919062001a62565b600060405180830381600087803b1580156200127257600080fd5b505af192505050801562001284575060015b620012df573373ffffffffffffffffffffffffffffffffffffffff167f33c981baba081f8fd2c52ac6ad1ea95b6814b4376640f55689051f658472968884604051620012d1919062001a62565b60405180910390a262001330565b3373ffffffffffffffffffffffffffffffffffffffff167f33c981baba081f8fd2c52ac6ad1ea95b6814b4376640f55689051f65847296888460405162001327919062001a62565b60405180910390a25b600080369050601062001344919062001c6e565b5a8361520862001355919062001bd9565b62001361919062001ccf565b6200136d919062001bd9565b90508273ffffffffffffffffffffffffffffffffffffffff1663079d229f33600460008773ffffffffffffffffffffffffffffffffffffffff1673ffffffffffffffffffffffffffffffffffffffff16815260200190815260200160002054614e2085620013dc919062001bd9565b620013e8919062001c36565b6040518363ffffffff1660e01b81526004016200140792919062001ab9565b602060405180830381600087803b1580156200142257600080fd5b505af115801562001437573d6000803e3d6000fd5b505050506040513d601f19601f820116820180604052508101906200145d9190620018d6565b50505062001587565b848451602086016000f591508173ffffffffffffffffffffffffffffffffffffffff1663f2fde38b336040518263ffffffff1660e01b8152600401620014ad919062001a62565b600060405180830381600087803b158015620014c857600080fd5b505af1925050508015620014da575060015b62001535573373ffffffffffffffffffffffffffffffffffffffff167f33c981baba081f8fd2c52ac6ad1ea95b6814b4376640f55689051f65847296888360405162001527919062001a62565b60405180910390a262001586565b3373ffffffffffffffffffffffffffffffffffffffff167f33c981baba081f8fd2c52ac6ad1ea95b6814b4376640f55689051f6584729688836040516200157d919062001a62565b60405180910390a25b5b509392505050565b6200159962001742565b73ffffffffffffffffffffffffffffffffffffffff16620015b962000981565b73ffffffffffffffffffffffffffffffffffffffff161462001612576040517f08c379a0000000000000000000000000000000000000000000000000000000008152600401620016099062001b2a565b60405180910390fd5b600073ffffffffffffffffffffffffffffffffffffffff168173ffffffffffffffffffffffffffffffffffffffff16141562001685576040517f08c379a00000000000000000000000000000000000000000000000000000000081526004016200167c9062001b08565b60405180910390fd5b8073ffffffffffffffffffffffffffffffffffffffff1660008054906101000a900473ffffffffffffffffffffffffffffffffffffffff1673ffffffffffffffffffffffffffffffffffffffff167f8be0079c531659141344cd1fd0a4f28419497f9722a3daafe3b4186f6b6457e060405160405180910390a3806000806101000a81548173ffffffffffffffffffffffffffffffffffffffff021916908373ffffffffffffffffffffffffffffffffffffffff16021790555050565b600033905090565b6117258062001fd483390190565b60006200176f620017698462001b92565b62001b69565b9050828152602081018484840111156200178857600080fd5b6200179584828562001d98565b509392505050565b600081359050620017ae8162001f9f565b92915050565b600082601f830112620017c657600080fd5b8135620017d884826020860162001758565b91505092915050565b600081359050620017f28162001fb9565b92915050565b600081519050620018098162001fb9565b92915050565b6000602082840312156200182257600080fd5b600062001832848285016200179d565b91505092915050565b600080604083850312156200184f57600080fd5b60006200185f858286016200179d565b92505060206200187285828601620017e1565b9150509250929050565b600080604083850312156200189057600080fd5b600083013567ffffffffffffffff811115620018ab57600080fd5b620018b985828601620017b4565b9250506020620018cc858286016200179d565b9150509250929050565b600060208284031215620018e957600080fd5b6000620018f984828501620017f8565b91505092915050565b6000806000606084860312156200191857600080fd5b60006200192886828701620017e1565b935050602084013567ffffffffffffffff8111156200194657600080fd5b6200195486828701620017b4565b925050604062001967868287016200179d565b9150509250925092565b6200197c8162001d5c565b82525050565b6200198d8162001d1e565b82525050565b6200199e8162001d0a565b82525050565b620019b9620019b38262001d0a565b62001e2b565b82525050565b6000620019ce60188362001bc8565b9150620019db8262001efe565b602082019050919050565b6000620019f560268362001bc8565b915062001a028262001f27565b604082019050919050565b600062001a1c60208362001bc8565b915062001a298262001f76565b602082019050919050565b62001a3f8162001d52565b82525050565b600062001a538284620019a4565b60148201915081905092915050565b600060208201905062001a79600083018462001993565b92915050565b600060208201905062001a96600083018462001971565b92915050565b600060208201905062001ab3600083018462001982565b92915050565b600060408201905062001ad0600083018562001993565b62001adf602083018462001a34565b9392505050565b6000602082019050818103600083015262001b0181620019bf565b9050919050565b6000602082019050818103600083015262001b2381620019e6565b9050919050565b6000602082019050818103600083015262001b458162001a0d565b9050919050565b600060208201905062001b63600083018462001a34565b92915050565b600062001b7562001b88565b905062001b83828262001da7565b919050565b6000604051905090565b600067ffffffffffffffff82111562001bb05762001baf62001eb1565b5b62001bbb8262001ee0565b9050602081019050919050565b600082825260208201905092915050565b600062001be68262001d52565b915062001bf38362001d52565b9250827fffffffffffffffffffffffffffffffffffffffffffffffffffffffffffffffff0382111562001c2b5762001c2a62001e53565b5b828201905092915050565b600062001c438262001d52565b915062001c508362001d52565b92508262001c635762001c6262001e82565b5b828204905092915050565b600062001c7b8262001d52565b915062001c888362001d52565b9250817fffffffffffffffffffffffffffffffffffffffffffffffffffffffffffffffff048311821515161562001cc45762001cc362001e53565b5b828202905092915050565b600062001cdc8262001d52565b915062001ce98362001d52565b92508282101562001cff5762001cfe62001e53565b5b828203905092915050565b600062001d178262001d32565b9050919050565b600062001d2b8262001d32565b9050919050565b600073ffffffffffffffffffffffffffffffffffffffff82169050919050565b6000819050919050565b600062001d698262001d70565b9050919050565b600062001d7d8262001d84565b9050919050565b600062001d918262001d32565b9050919050565b82818337600083830152505050565b62001db28262001ee0565b810181811067ffffffffffffffff8211171562001dd45762001dd362001eb1565b5b80604052505050565b600062001dea8262001d52565b91507fffffffffffffffffffffffffffffffffffffffffffffffffffffffffffffffff82141562001e205762001e1f62001e53565b5b600182019050919050565b600062001e388262001e3f565b9050919050565b600062001e4c8262001ef1565b9050919050565b7f4e487b7100000000000000000000000000000000000000000000000000000000600052601160045260246000fd5b7f4e487b7100000000000000000000000000000000000000000000000000000000600052601260045260246000fd5b7f4e487b7100000000000000000000000000000000000000000000000000000000600052604160045260246000fd5b6000601f19601f8301169050919050565b60008160601b9050919050565b7f475356453a20696e636f6d70617469626c6520746f6b656e0000000000000000600082015250565b7f4f776e61626c653a206e6577206f776e657220697320746865207a65726f206160008201527f6464726573730000000000000000000000000000000000000000000000000000602082015250565b7f4f776e61626c653a2063616c6c6572206973206e6f7420746865206f776e6572600082015250565b62001faa8162001d0a565b811462001fb657600080fd5b50565b62001fc48162001d52565b811462001fd057600080fd5b5056fe608060405234801561001057600080fd5b5060006100216100c460201b60201c565b9050806000806101000a81548173ffffffffffffffffffffffffffffffffffffffff021916908373ffffffffffffffffffffffffffffffffffffffff1602179055508073ffffffffffffffffffffffffffffffffffffffff16600073ffffffffffffffffffffffffffffffffffffffff167f8be0079c531659141344cd1fd0a4f28419497f9722a3daafe3b4186f6b6457e060405160405180910390a3506100cc565b600033905090565b61164a806100db6000396000f3fe60806040526004361061007e5760003560e01c80638da5cb5b1161004e5780638da5cb5b146100fd5780638e13fd781461012857806390bb615314610165578063f2fde38b1461018e57610085565b8062e356021461008a5780635fd8c710146100b3578063715018a6146100ca5780638da02632146100e157610085565b3661008557005b600080fd5b34801561009657600080fd5b506100b160048036038101906100ac9190610ecd565b6101b7565b005b3480156100bf57600080fd5b506100c86102bf565b005b3480156100d657600080fd5b506100df6103b0565b005b6100fb60048036038101906100f69190610f32565b6104ea565b005b34801561010957600080fd5b50610112610895565b60405161011f9190611161565b60405180910390f35b34801561013457600080fd5b5061014f600480360381019061014a9190610ea4565b6108be565b60405161015c9190611267565b60405180910390f35b34801561017157600080fd5b5061018c60048036038101906101879190610ea4565b610907565b005b34801561019a57600080fd5b506101b560048036038101906101b09190610ea4565b610aaf565b005b6101bf610c58565b73ffffffffffffffffffffffffffffffffffffffff166101dd610895565b73ffffffffffffffffffffffffffffffffffffffff1614610233576040517f08c379a000000000000000000000000000000000000000000000000000000000815260040161022a90611227565b60405180910390fd5b60018060008473ffffffffffffffffffffffffffffffffffffffff1673ffffffffffffffffffffffffffffffffffffffff1681526020019081526020016000208190555080600260008473ffffffffffffffffffffffffffffffffffffffff1673ffffffffffffffffffffffffffffffffffffffff168152602001908152602001600020819055505050565b6102c7610c58565b73ffffffffffffffffffffffffffffffffffffffff166102e5610895565b73ffffffffffffffffffffffffffffffffffffffff161461033b576040517f08c379a000000000000000000000000000000000000000000000000000000000815260040161033290611227565b60405180910390fd5b610343610895565b73ffffffffffffffffffffffffffffffffffffffff16475a906040516103689061114c565b600060405180830381858888f193505050503d80600081146103a6576040519150601f19603f3d011682016040523d82523d6000602084013e6103ab565b606091505b505050565b6103b8610c58565b73ffffffffffffffffffffffffffffffffffffffff166103d6610895565b73ffffffffffffffffffffffffffffffffffffffff161461042c576040517f08c379a000000000000000000000000000000000000000000000000000000000815260040161042390611227565b60405180910390fd5b600073ffffffffffffffffffffffffffffffffffffffff1660008054906101000a900473ffffffffffffffffffffffffffffffffffffffff1673ffffffffffffffffffffffffffffffffffffffff167f8be0079c531659141344cd1fd0a4f28419497f9722a3daafe3b4186f6b6457e060405160405180910390a360008060006101000a81548173ffffffffffffffffffffffffffffffffffffffff021916908373ffffffffffffffffffffffffffffffffffffffff160217905550565b8060018060008373ffffffffffffffffffffffffffffffffffffffff1673ffffffffffffffffffffffffffffffffffffffff168152602001908152602001600020541461056c576040517f08c379a0000000000000000000000000000000000000000000000000000000008152600401610563906111c7565b60405180910390fd5b60005a9050610579610c58565b73ffffffffffffffffffffffffffffffffffffffff16610597610895565b73ffffffffffffffffffffffffffffffffffffffff16146105ed576040517f08c379a00000000000000000000000000000000000000000000000000000000081526004016105e490611227565b60405180910390fd5b61060c8573ffffffffffffffffffffffffffffffffffffffff16610c60565b61061557610771565b60008411156106ca576106c487878080601f016020809104026020016040519081016040528093929190818152602001838380828437600081840152601f19601f82011690508083019250505050505050856040518060400160405280602081526020017f47533a204572726f7220666f7277617264696e67207472616e73616374696f6e8152508873ffffffffffffffffffffffffffffffffffffffff16610c73909392919063ffffffff16565b50610770565b61076e87878080601f016020809104026020016040519081016040528093929190818152602001838380828437600081840152601f19601f820116905080830192505050505050506040518060400160405280602081526020017f47533a204572726f7220666f7277617264696e67207472616e73616374696f6e8152508773ffffffffffffffffffffffffffffffffffffffff16610d879092919063ffffffff16565b505b5b6000803690506010610783919061133b565b5a8361520861079291906112b4565b61079c9190611395565b6107a691906112b4565b90508273ffffffffffffffffffffffffffffffffffffffff16636366b936600260008673ffffffffffffffffffffffffffffffffffffffff1673ffffffffffffffffffffffffffffffffffffffff16815260200190815260200160002054614e208461081291906112b4565b61081c919061130a565b6040518263ffffffff1660e01b81526004016108389190611267565b602060405180830381600087803b15801561085257600080fd5b505af1158015610866573d6000803e3d6000fd5b505050506040513d601f19601f8201168201806040525081019061088a9190610fb2565b505050505050505050565b60008060009054906101000a900473ffffffffffffffffffffffffffffffffffffffff16905090565b6000600160008373ffffffffffffffffffffffffffffffffffffffff1673ffffffffffffffffffffffffffffffffffffffff168152602001908152602001600020549050919050565b61090f610c58565b73ffffffffffffffffffffffffffffffffffffffff1661092d610895565b73ffffffffffffffffffffffffffffffffffffffff1614610983576040517f08c379a000000000000000000000000000000000000000000000000000000000815260040161097a90611227565b60405180910390fd5b600081905060008173ffffffffffffffffffffffffffffffffffffffff166370a08231306040518263ffffffff1660e01b81526004016109c39190611161565b60206040518083038186803b1580156109db57600080fd5b505afa1580156109ef573d6000803e3d6000fd5b505050506040513d601f19601f82011682018060405250810190610a139190610fb2565b90508173ffffffffffffffffffffffffffffffffffffffff1663a9059cbb610a39610895565b836040518363ffffffff1660e01b8152600401610a5792919061117c565b602060405180830381600087803b158015610a7157600080fd5b505af1158015610a85573d6000803e3d6000fd5b505050506040513d601f19601f82011682018060405250810190610aa99190610f09565b50505050565b610ab7610c58565b73ffffffffffffffffffffffffffffffffffffffff16610ad5610895565b73ffffffffffffffffffffffffffffffffffffffff1614610b2b576040517f08c379a0000000000000000000000000000000000000000000000000000000008152600401610b2290611227565b60405180910390fd5b600073ffffffffffffffffffffffffffffffffffffffff168173ffffffffffffffffffffffffffffffffffffffff161415610b9b576040517f08c379a0000000000000000000000000000000000000000000000000000000008152600401610b92906111e7565b60405180910390fd5b8073ffffffffffffffffffffffffffffffffffffffff1660008054906101000a900473ffffffffffffffffffffffffffffffffffffffff1673ffffffffffffffffffffffffffffffffffffffff167f8be0079c531659141344cd1fd0a4f28419497f9722a3daafe3b4186f6b6457e060405160405180910390a3806000806101000a81548173ffffffffffffffffffffffffffffffffffffffff021916908373ffffffffffffffffffffffffffffffffffffffff16021790555050565b600033905090565b600080823b905060008111915050919050565b606082471015610cb8576040517f08c379a0000000000000000000000000000000000000000000000000000000008152600401610caf90611207565b60405180910390fd5b610cc185610c60565b610d00576040517f08c379a0000000000000000000000000000000000000000000000000000000008152600401610cf790611247565b60405180910390fd5b6000808673ffffffffffffffffffffffffffffffffffffffff168587604051610d299190611135565b60006040518083038185875af1925050503d8060008114610d66576040519150601f19603f3d011682016040523d82523d6000602084013e610d6b565b606091505b5091509150610d7b828286610d9f565b92505050949350505050565b6060610d968484600085610c73565b90509392505050565b60608315610daf57829050610dff565b600083511115610dc25782518084602001fd5b816040517f08c379a0000000000000000000000000000000000000000000000000000000008152600401610df691906111a5565b60405180910390fd5b9392505050565b600081359050610e15816115cf565b92915050565b600081519050610e2a816115e6565b92915050565b60008083601f840112610e4257600080fd5b8235905067ffffffffffffffff811115610e5b57600080fd5b602083019150836001820283011115610e7357600080fd5b9250929050565b600081359050610e89816115fd565b92915050565b600081519050610e9e816115fd565b92915050565b600060208284031215610eb657600080fd5b6000610ec484828501610e06565b91505092915050565b60008060408385031215610ee057600080fd5b6000610eee85828601610e06565b9250506020610eff85828601610e7a565b9150509250929050565b600060208284031215610f1b57600080fd5b6000610f2984828501610e1b565b91505092915050565b600080600080600060808688031215610f4a57600080fd5b600086013567ffffffffffffffff811115610f6457600080fd5b610f7088828901610e30565b95509550506020610f8388828901610e06565b9350506040610f9488828901610e7a565b9250506060610fa588828901610e06565b9150509295509295909350565b600060208284031215610fc457600080fd5b6000610fd284828501610e8f565b91505092915050565b610fe4816113c9565b82525050565b6000610ff582611282565b610fff8185611298565b935061100f818560208601611411565b80840191505092915050565b60006110268261128d565b61103081856112a3565b9350611040818560208601611411565b611049816114a2565b840191505092915050565b60006110616018836112a3565b915061106c826114b3565b602082019050919050565b60006110846026836112a3565b915061108f826114dc565b604082019050919050565b60006110a76026836112a3565b91506110b28261152b565b604082019050919050565b60006110ca6020836112a3565b91506110d58261157a565b602082019050919050565b60006110ed600083611298565b91506110f8826115a3565b600082019050919050565b6000611110601d836112a3565b915061111b826115a6565b602082019050919050565b61112f81611407565b82525050565b60006111418284610fea565b915081905092915050565b6000611157826110e0565b9150819050919050565b60006020820190506111766000830184610fdb565b92915050565b60006040820190506111916000830185610fdb565b61119e6020830184611126565b9392505050565b600060208201905081810360008301526111bf818461101b565b905092915050565b600060208201905081810360008301526111e081611054565b9050919050565b6000602082019050818103600083015261120081611077565b9050919050565b600060208201905081810360008301526112208161109a565b9050919050565b60006020820190508181036000830152611240816110bd565b9050919050565b6000602082019050818103600083015261126081611103565b9050919050565b600060208201905061127c6000830184611126565b92915050565b600081519050919050565b600081519050919050565b600081905092915050565b600082825260208201905092915050565b60006112bf82611407565b91506112ca83611407565b9250827fffffffffffffffffffffffffffffffffffffffffffffffffffffffffffffffff038211156112ff576112fe611444565b5b828201905092915050565b600061131582611407565b915061132083611407565b9250826113305761132f611473565b5b828204905092915050565b600061134682611407565b915061135183611407565b9250817fffffffffffffffffffffffffffffffffffffffffffffffffffffffffffffffff048311821515161561138a57611389611444565b5b828202905092915050565b60006113a082611407565b91506113ab83611407565b9250828210156113be576113bd611444565b5b828203905092915050565b60006113d4826113e7565b9050919050565b60008115159050919050565b600073ffffffffffffffffffffffffffffffffffffffff82169050919050565b6000819050919050565b60005b8381101561142f578082015181840152602081019050611414565b8381111561143e576000848401525b50505050565b7f4e487b7100000000000000000000000000000000000000000000000000000000600052601160045260246000fd5b7f4e487b7100000000000000000000000000000000000000000000000000000000600052601260045260246000fd5b6000601f19601f8301169050919050565b7f475356453a20696e636f6d70617469626c6520746f6b656e0000000000000000600082015250565b7f4f776e61626c653a206e6577206f776e657220697320746865207a65726f206160008201527f6464726573730000000000000000000000000000000000000000000000000000602082015250565b7f416464726573733a20696e73756666696369656e742062616c616e636520666f60008201527f722063616c6c0000000000000000000000000000000000000000000000000000602082015250565b7f4f776e61626c653a2063616c6c6572206973206e6f7420746865206f776e6572600082015250565b50565b7f416464726573733a2063616c6c20746f206e6f6e2d636f6e7472616374000000600082015250565b6115d8816113c9565b81146115e357600080fd5b50565b6115ef816113db565b81146115fa57600080fd5b50565b61160681611407565b811461161157600080fd5b5056fea2646970667358221220b38d2e08995c8a134824fbe05f8cf921b2794e00f4e20d0252a8ec62967af18864736f6c63430008040033a2646970667358221220b76d940b0048d730db504d816c0d4753584875072ae9f42c66d7c61f5ae9f28d64736f6c63430008040033",
  "immutableReferences": {},
  "source": "// SPDX-License-Identifier: MIT\r\npragma solidity ^0.8.0;\r\n\r\nimport \"@openzeppelin/contracts/access/Ownable.sol\";\r\nimport \"./GSVESmartWrapper.sol\";\r\n\r\n/**\r\n* @dev interface to allow the burning of gas tokens from an address\r\n*/\r\ninterface IFreeFromUpTo {\r\n    function freeFromUpTo(address from, uint256 value) external returns (uint256 freed);\r\n}\r\n\r\n/**\r\n* @dev the gsve deployer has two purposes\r\n* it deploys gsve smart wrappers, keeping track of the owners\r\n* it allows users to deploy smart contracts using create and create2\r\n*/\r\ncontract GSVEDeployer is Ownable{\r\n    mapping(address => uint256) private _compatibleGasTokens;\r\n    mapping(uint256 => address) private _reverseTokenMap;\r\n    mapping(address => address) private _deployedWalletAddressLocation;\r\n    mapping(address => uint256) private _freeUpValue;\r\n    uint256 private _totalSupportedTokens = 0;\r\n\r\n    /**\r\n    * @dev add support for trusted gas tokens - those we wrapped\r\n    */\r\n    function addGasToken(address gasToken, uint256 freeUpValue) public onlyOwner{\r\n        _compatibleGasTokens[gasToken] = 1;\r\n        _reverseTokenMap[_totalSupportedTokens] = gasToken;\r\n        _totalSupportedTokens = _totalSupportedTokens + 1;\r\n        _freeUpValue[gasToken] = freeUpValue;\r\n    }\r\n\r\n    /**\r\n    * @dev return the location of a users deployed wrapper\r\n    */\r\n    function deployedWalletAddressLocation(address creator) public view returns(address){\r\n        return _deployedWalletAddressLocation[creator];\r\n    }\r\n\r\n    /**\r\n    * @dev function to check if a gas token is supported by the deployer\r\n    */\r\n    function compatibleGasToken(address gasToken) public view returns(uint256){\r\n        return _compatibleGasTokens[gasToken];\r\n    }\r\n\r\n    /**\r\n    * @dev GSVE moddifier that burns supported gas tokens around a function that uses gas\r\n    * the function calculates the optimal number of tokens to burn, based on the token specified\r\n    */\r\n    modifier discountGas(address gasToken) {\r\n        if(gasToken != address(0)){\r\n            require(_compatibleGasTokens[gasToken] == 1, \"GSVE: incompatible token\");\r\n            uint256 gasStart = gasleft();\r\n            _;\r\n            uint256 gasSpent = 21000 + gasStart - gasleft() + 16 * msg.data.length;\r\n            IFreeFromUpTo(gasToken).freeFromUpTo(msg.sender,  (gasSpent + 20000) / _freeUpValue[gasToken]);\r\n        }\r\n        else{\r\n            _;\r\n        }\r\n    }\r\n\r\n    /**\r\n    * @dev deploys a smart contract using the create function\r\n    * if the contract is ownable, the contract ownership is passed to the message sender\r\n    * the gas token passed in as argument is burned by the moddifier\r\n    */\r\n    function GsveDeploy(bytes memory data, address gasToken) public discountGas(gasToken) returns(address contractAddress) {\r\n        assembly {\r\n            contractAddress := create(0, add(data, 32), mload(data))\r\n        }\r\n        try Ownable(contractAddress).transferOwnership(msg.sender){\r\n            emit ContractDeployed(msg.sender, contractAddress);\r\n        }\r\n        catch{\r\n            emit ContractDeployed(msg.sender, contractAddress);\r\n        }\r\n    }\r\n\r\n    /**\r\n    * @dev deploys a smart contract using the create2 function and a user provided salt\r\n    * if the contract is ownable, the contract ownership is passed to the message sender\r\n    * the gas token passed in as argument is burned by the moddifier\r\n    */\r\n    function GsveDeploy2(uint256 salt, bytes memory data, address gasToken) public discountGas(gasToken) returns(address contractAddress) {\r\n        assembly {\r\n            contractAddress := create2(0, add(data, 32), mload(data), salt)\r\n        }\r\n\r\n        try Ownable(contractAddress).transferOwnership(msg.sender){\r\n            emit ContractDeployed(msg.sender, contractAddress);\r\n        }\r\n        catch{\r\n            emit ContractDeployed(msg.sender, contractAddress);\r\n        }\r\n    }\r\n    \r\n    \r\n    /**\r\n    * @dev deploys a gsve smart wrapper for the caller\r\n    * the ownership of the wrapper is transfered to the caller\r\n    * a note is made of where the users wrapper is deployed\r\n    * gas tokens can be burned to save on this deployment operation\r\n    * the gas tokens that the deployer supports are enabled in the wrapper before transfering ownership.\r\n    */\r\n    function GsveWrapperDeploy(address gasToken)  public discountGas(gasToken) returns(address payable contractAddress) {\r\n\r\n        bytes memory bytecode = type(GSVESmartWrapper).creationCode;\r\n        bytes32 salt = keccak256(abi.encodePacked(msg.sender));\r\n\r\n        assembly {\r\n            contractAddress := create2(0, add(bytecode, 32), mload(bytecode), salt)\r\n        }\r\n\r\n        for(uint256 i = 0; i<_totalSupportedTokens; i++){\r\n            address tokenAddress = _reverseTokenMap[i];\r\n            GSVESmartWrapper(contractAddress).addGasToken(tokenAddress, _freeUpValue[tokenAddress]);\r\n        }\r\n        \r\n        Ownable(contractAddress).transferOwnership(msg.sender);\r\n        _deployedWalletAddressLocation[msg.sender] = contractAddress;\r\n        emit ContractDeployed(msg.sender, contractAddress);\r\n    }\r\n\r\n    event ContractDeployed(address indexed creator, address deploymentAddress);\r\n}",
  "sourcePath": "C:/Users/khera/Documents/GitHub/GasSwapTokens/contracts/GSVEDeployer.sol",
  "compiler": {
    "name": "solc",
    "version": "0.8.4+commit.c7e474f2.Emscripten.clang"
  },
  "schemaVersion": "3.3.4",
  "updatedAt": "2021-05-06T11:17:03.823Z",
  "devdoc": {
    "details": "the gsve deployer has two purposes it deploys gsve smart wrappers, keeping track of the owners it allows users to deploy smart contracts using create and create2",
    "kind": "dev",
    "methods": {
      "GsveDeploy(bytes,address)": {
        "details": "deploys a smart contract using the create function if the contract is ownable, the contract ownership is passed to the message sender the gas token passed in as argument is burned by the moddifier"
      },
      "GsveDeploy2(uint256,bytes,address)": {
        "details": "deploys a smart contract using the create2 function and a user provided salt if the contract is ownable, the contract ownership is passed to the message sender the gas token passed in as argument is burned by the moddifier"
      },
      "GsveWrapperDeploy(address)": {
        "details": "deploys a gsve smart wrapper for the caller the ownership of the wrapper is transfered to the caller a note is made of where the users wrapper is deployed gas tokens can be burned to save on this deployment operation the gas tokens that the deployer supports are enabled in the wrapper before transfering ownership."
      },
      "addGasToken(address,uint256)": {
        "details": "add support for trusted gas tokens - those we wrapped"
      },
      "compatibleGasToken(address)": {
        "details": "function to check if a gas token is supported by the deployer"
      },
      "deployedWalletAddressLocation(address)": {
        "details": "return the location of a users deployed wrapper"
      },
      "owner()": {
        "details": "Returns the address of the current owner."
      },
      "renounceOwnership()": {
        "details": "Leaves the contract without owner. It will not be possible to call `onlyOwner` functions anymore. Can only be called by the current owner. NOTE: Renouncing ownership will leave the contract without an owner, thereby removing any functionality that is only available to the owner."
      },
      "transferOwnership(address)": {
        "details": "Transfers ownership of the contract to a new account (`newOwner`). Can only be called by the current owner."
      }
    },
    "version": 1
  },
  "userdoc": {
    "kind": "user",
    "methods": {},
    "version": 1
  }
}