{
  "contractName": "GSVE_helper",
  "abi": [
    {
      "inputs": [],
      "name": "dummy",
      "outputs": [],
      "stateMutability": "nonpayable",
      "type": "function"
    },
    {
      "inputs": [
        {
          "internalType": "uint256",
          "name": "burn",
          "type": "uint256"
        }
      ],
      "name": "burnGas",
      "outputs": [],
      "stateMutability": "nonpayable",
      "type": "function"
    },
    {
      "inputs": [
        {
          "internalType": "uint256",
          "name": "burn",
          "type": "uint256"
        }
      ],
      "name": "burnGasAndAcceptPayment",
      "outputs": [],
      "stateMutability": "payable",
      "type": "function"
    },
    {
      "inputs": [
        {
          "internalType": "address",
          "name": "gas_token",
          "type": "address"
        },
        {
          "internalType": "uint256",
          "name": "burn",
          "type": "uint256"
        },
        {
          "internalType": "uint256",
          "name": "free",
          "type": "uint256"
        }
      ],
      "name": "burnGasAndFree",
      "outputs": [],
      "stateMutability": "nonpayable",
      "type": "function"
    },
    {
      "inputs": [
        {
          "internalType": "address",
          "name": "gas_token",
          "type": "address"
        },
        {
          "internalType": "uint256",
          "name": "burn",
          "type": "uint256"
        },
        {
          "internalType": "uint256",
          "name": "free",
          "type": "uint256"
        }
      ],
      "name": "burnGasAndFreeUpTo",
      "outputs": [],
      "stateMutability": "nonpayable",
      "type": "function"
    },
    {
      "inputs": [
        {
          "internalType": "address",
          "name": "gas_token",
          "type": "address"
        },
        {
          "internalType": "uint256",
          "name": "burn",
          "type": "uint256"
        },
        {
          "internalType": "uint256",
          "name": "free",
          "type": "uint256"
        }
      ],
      "name": "burnGasAndFreeFrom",
      "outputs": [],
      "stateMutability": "nonpayable",
      "type": "function"
    },
    {
      "inputs": [
        {
          "internalType": "address",
          "name": "gas_token",
          "type": "address"
        },
        {
          "internalType": "uint256",
          "name": "burn",
          "type": "uint256"
        },
        {
          "internalType": "uint256",
          "name": "free",
          "type": "uint256"
        }
      ],
      "name": "burnGasAndFreeFromUpTo",
      "outputs": [],
      "stateMutability": "nonpayable",
      "type": "function"
    }
  ],
  "bytecode": "0x608060405234801561001057600080fd5b506108ee806100206000396000f3fe6080604052600436106100705760003560e01c80634ad5d16f1161004e5780634ad5d16f146100de5780636318d58c14610107578063a206367914610123578063f3389f621461014c57610070565b806301e569a91461007557806316edf3e31461009e57806332e43a11146100c7575b600080fd5b34801561008157600080fd5b5061009c6004803603810190610097919061058a565b610175565b005b3480156100aa57600080fd5b506100c560048036038101906100c0919061058a565b610250565b005b3480156100d357600080fd5b506100dc61032a565b005b3480156100ea57600080fd5b50610105600480360381019061010091906105d9565b61032c565b005b610121600480360381019061011c91906105d9565b61035f565b005b34801561012f57600080fd5b5061014a6004803603810190610145919061058a565b610392565b005b34801561015857600080fd5b50610173600480360381019061016e919061058a565b61046e565b005b61017e8261032c565b60008373ffffffffffffffffffffffffffffffffffffffff1663d8ccd0f3836040518263ffffffff1660e01b81526004016101b9919061077e565b602060405180830381600087803b1580156101d357600080fd5b505af11580156101e7573d6000803e3d6000fd5b505050506040513d601f19601f8201168201806040525081019061020b9190610602565b1161024b576040517f08c379a00000000000000000000000000000000000000000000000000000000081526004016102429061075e565b60405180910390fd5b505050565b6102598261032c565b8273ffffffffffffffffffffffffffffffffffffffff16636366b936826040518263ffffffff1660e01b8152600401610292919061077e565b602060405180830381600087803b1580156102ac57600080fd5b505af11580156102c0573d6000803e3d6000fd5b505050506040513d601f19601f820116820180604052508101906102e49190610602565b8114610325576040517f08c379a000000000000000000000000000000000000000000000000000000000815260040161031c9061073e565b60405180910390fd5b505050565bfe5b7f32e43a110000000000000000000000000000000000000000000000000000000060005260008060046000803086f15050565b7f32e43a110000000000000000000000000000000000000000000000000000000060005260008060046000803086f15050565b61039b8261032c565b8273ffffffffffffffffffffffffffffffffffffffff1663079d229f32836040518363ffffffff1660e01b81526004016103d69291906106d5565b602060405180830381600087803b1580156103f057600080fd5b505af1158015610404573d6000803e3d6000fd5b505050506040513d601f19601f820116820180604052508101906104289190610602565b8114610469576040517f08c379a00000000000000000000000000000000000000000000000000000000081526004016104609061071e565b60405180910390fd5b505050565b6104778261032c565b60008373ffffffffffffffffffffffffffffffffffffffff16635f2e2b4532846040518363ffffffff1660e01b81526004016104b49291906106d5565b602060405180830381600087803b1580156104ce57600080fd5b505af11580156104e2573d6000803e3d6000fd5b505050506040513d601f19601f820116820180604052508101906105069190610602565b11610546576040517f08c379a000000000000000000000000000000000000000000000000000000000815260040161053d906106fe565b60405180910390fd5b505050565b60008135905061055a8161088a565b92915050565b60008135905061056f816108a1565b92915050565b600081519050610584816108a1565b92915050565b60008060006060848603121561059f57600080fd5b60006105ad8682870161054b565b93505060206105be86828701610560565b92505060406105cf86828701610560565b9150509250925092565b6000602082840312156105eb57600080fd5b60006105f984828501610560565b91505092915050565b60006020828403121561061457600080fd5b600061062284828501610575565b91505092915050565b610634816107aa565b82525050565b6000610647601283610799565b9150610652826107e6565b602082019050919050565b600061066a601683610799565b91506106758261080f565b602082019050919050565b600061068d601283610799565b915061069882610838565b602082019050919050565b60006106b0600e83610799565b91506106bb82610861565b602082019050919050565b6106cf816107dc565b82525050565b60006040820190506106ea600083018561062b565b6106f760208301846106c6565b9392505050565b600060208201905081810360008301526107178161063a565b9050919050565b600060208201905081810360008301526107378161065d565b9050919050565b6000602082019050818103600083015261075781610680565b9050919050565b60006020820190508181036000830152610777816106a3565b9050919050565b600060208201905061079360008301846106c6565b92915050565b600082825260208201905092915050565b60006107b5826107bc565b9050919050565b600073ffffffffffffffffffffffffffffffffffffffff82169050919050565b6000819050919050565b7f6275726e476173416e644672656546726f6d0000000000000000000000000000600082015250565b7f6275726e476173416e644672656546726f6d5570546f00000000000000000000600082015250565b7f6275726e476173416e64467265655570546f0000000000000000000000000000600082015250565b7f6275726e476173416e6446726565000000000000000000000000000000000000600082015250565b610893816107aa565b811461089e57600080fd5b50565b6108aa816107dc565b81146108b557600080fd5b5056fea26469706673582212206f456617b725c0eda175810ba5ce8898e79c063c786154e5d330490d6b728fb564736f6c63430008040033",
  "immutableReferences": {},
  "source": "// SPDX-License-Identifier: MIT\r\npragma solidity ^0.8.0;\r\n\r\nimport \"../IGasToken.sol\";\r\n\r\ncontract GSVE_helper {\r\n\r\n    function dummy() public {\r\n        assembly{\r\n            invalid()\r\n        }\r\n    }\r\n\r\n    // Burns at least burn gas by calling itself and throwing\r\n    function burnGas(uint256 burn) public {\r\n        // call self.dummy() to burn a bunch of gas\r\n        assembly {\r\n            mstore(0x0, 0x32e43a1100000000000000000000000000000000000000000000000000000000)\r\n            let ret := call(burn, address(), 0, 0x0, 0x04, 0x0, 0)\r\n        }\r\n    }\r\n\r\n    function burnGasAndAcceptPayment(uint256 burn) public payable{\r\n        // call self.dummy() to burn a bunch of gas\r\n        assembly {\r\n            mstore(0x0, 0x32e43a1100000000000000000000000000000000000000000000000000000000)\r\n            let ret := call(burn, address(), 0, 0x0, 0x04, 0x0, 0)\r\n        }\r\n    }\r\n\r\n    function burnGasAndFree(address gas_token, uint256 burn, uint256 free) public {\r\n        burnGas(burn);\r\n        require(IGasToken(gas_token).free(free) > 0, \"burnGasAndFree\");\r\n    }\r\n\r\n    function burnGasAndFreeUpTo(address gas_token, uint256 burn, uint256 free) public {\r\n        burnGas(burn);\r\n        require(free == IGasToken(gas_token).freeUpTo(free), \"burnGasAndFreeUpTo\");\r\n    }\r\n\r\n    function burnGasAndFreeFrom(address gas_token, uint256 burn, uint256 free) public {\r\n        burnGas(burn);\r\n        require(IGasToken(gas_token).freeFrom(tx.origin, free) > 0, \"burnGasAndFreeFrom\");\r\n    }\r\n\r\n    function burnGasAndFreeFromUpTo(address gas_token, uint256 burn, uint256 free) public {\r\n        burnGas(burn);\r\n        require(free == IGasToken(gas_token).freeFromUpTo(tx.origin, free), \"burnGasAndFreeFromUpTo\");\r\n    }\r\n}\r\n",
  "sourcePath": "C:/Users/khera/Documents/GitHub/GasSwapTokens/contracts/test_helpers/GSVE_helper.sol",
  "compiler": {
    "name": "solc",
    "version": "0.8.4+commit.c7e474f2.Emscripten.clang"
  },
  "schemaVersion": "3.3.4",
  "updatedAt": "2021-05-08T09:50:55.697Z",
  "devdoc": {
    "kind": "dev",
    "methods": {},
    "version": 1
  },
  "userdoc": {
    "kind": "user",
    "methods": {},
    "version": 1
  }
}