{
  "contractName": "GSVESmartWrapper",
  "abi": [
    {
      "inputs": [
        {
          "internalType": "address",
          "name": "_GSVEToken",
          "type": "address"
        }
      ],
      "stateMutability": "nonpayable",
      "type": "constructor"
    },
    {
      "anonymous": false,
      "inputs": [
        {
          "indexed": true,
          "internalType": "address",
          "name": "previousOwner",
          "type": "address"
        },
        {
          "indexed": true,
          "internalType": "address",
          "name": "newOwner",
          "type": "address"
        }
      ],
      "name": "OwnershipTransferred",
      "type": "event"
    },
    {
      "stateMutability": "payable",
      "type": "receive"
    },
    {
      "inputs": [
        {
          "internalType": "address",
          "name": "initialOwner",
          "type": "address"
        },
        {
          "internalType": "address",
          "name": "_GSVEToken",
          "type": "address"
        }
      ],
      "name": "init",
      "outputs": [],
      "stateMutability": "nonpayable",
      "type": "function"
    },
    {
      "inputs": [
        {
          "internalType": "address",
          "name": "gasToken",
          "type": "address"
        },
        {
          "internalType": "uint256",
          "name": "freeUpValue",
          "type": "uint256"
        }
      ],
      "name": "addGasToken",
      "outputs": [],
      "stateMutability": "nonpayable",
      "type": "function"
    },
    {
      "inputs": [],
      "name": "upgradeProxy",
      "outputs": [],
      "stateMutability": "nonpayable",
      "type": "function"
    },
    {
      "inputs": [
        {
          "internalType": "address",
          "name": "gasToken",
          "type": "address"
        }
      ],
      "name": "compatibleGasToken",
      "outputs": [
        {
          "internalType": "uint256",
          "name": "",
          "type": "uint256"
        }
      ],
      "stateMutability": "view",
      "type": "function"
    },
    {
      "inputs": [
        {
          "internalType": "bytes",
          "name": "data",
          "type": "bytes"
        },
        {
          "internalType": "address",
          "name": "contractAddress",
          "type": "address"
        },
        {
          "internalType": "uint256",
          "name": "value",
          "type": "uint256"
        },
        {
          "internalType": "address",
          "name": "gasToken",
          "type": "address"
        }
      ],
      "name": "wrapTransaction",
      "outputs": [],
      "stateMutability": "payable",
      "type": "function"
    },
    {
      "inputs": [],
      "name": "withdrawBalance",
      "outputs": [],
      "stateMutability": "nonpayable",
      "type": "function"
    },
    {
      "inputs": [
        {
          "internalType": "address",
          "name": "token",
          "type": "address"
        }
      ],
      "name": "withdrawTokenBalance",
      "outputs": [],
      "stateMutability": "nonpayable",
      "type": "function"
    },
    {
      "inputs": [],
      "name": "owner",
      "outputs": [
        {
          "internalType": "address",
          "name": "",
          "type": "address"
        }
      ],
      "stateMutability": "view",
      "type": "function"
    },
    {
      "inputs": [
        {
          "internalType": "address",
          "name": "newOwner",
          "type": "address"
        }
      ],
      "name": "transferOwnership",
      "outputs": [],
      "stateMutability": "nonpayable",
      "type": "function"
    }
  ],
  "bytecode": "0x608060405234801561001057600080fd5b506040516110f53803806110f583398101604081905261002f91610108565b610039338261003f565b50610136565b6003546001600160a01b03161561009c5760405162461bcd60e51b815260206004820152601e60248201527f5468697320636f6e747261637420697320616c7265616479206f776e65640000604482015260640160405180910390fd5b600380546001600160a01b0319166001600160a01b0384169081179091556040516000907f8be0079c531659141344cd1fd0a4f28419497f9722a3daafe3b4186f6b6457e0908290a3600280546001600160a01b0319166001600160a01b039290921691909117905550565b600060208284031215610119578081fd5b81516001600160a01b038116811461012f578182fd5b9392505050565b610fb0806101456000396000f3fe6080604052600436106100895760003560e01c80638da5cb5b116100595780638da5cb5b146100f45780638e13fd781461012157806390bb615314610165578063f09a401614610185578063f2fde38b146101a557600080fd5b8062e356021461009557806348347fef146100b75780635fd8c710146100cc5780638da02632146100e157600080fd5b3661009057005b600080fd5b3480156100a157600080fd5b506100b56100b0366004610d2e565b6101c5565b005b3480156100c357600080fd5b506100b5610220565b3480156100d857600080fd5b506100b561041d565b6100b56100ef366004610d77565b61049a565b34801561010057600080fd5b506003546040516001600160a01b0390911681526020015b60405180910390f35b34801561012d57600080fd5b5061015761013c366004610ce2565b6001600160a01b031660009081526020819052604090205490565b604051908152602001610118565b34801561017157600080fd5b506100b5610180366004610ce2565b61084d565b34801561019157600080fd5b506100b56101a0366004610cfc565b61099c565b3480156101b157600080fd5b506100b56101c0366004610ce2565b610a61565b6003546001600160a01b031633146101f85760405162461bcd60e51b81526004016101ef90610e75565b60405180910390fd5b6001600160a01b03909116600090815260208181526040808320600190819055909152902055565b6003546001600160a01b0316331461024a5760405162461bcd60e51b81526004016101ef90610e75565b600254600160a01b900460ff16156102a45760405162461bcd60e51b815260206004820152601f60248201527f475356453a205772617070657220416c72656164792055706772616465642e0060448201526064016101ef565b60025460405163079cc67960e41b815233600482015268056bc75e2d6310000060248201526001600160a01b03909116906379cc679090604401600060405180830381600087803b1580156102f857600080fd5b505af115801561030c573d6000803e3d6000fd5b505060017f8d38309c9023368e1305ed5c3fc2b97a610b47c13434c6d136ada23e710a317381905561a3db7f78caa7ec6cc0fad6fff0b6e22342dccf53dd8c3573f098baf280ba2afeab681a557f728090110b96eab358f4eec79cc5c0c793198895b70e9f0a83379bd865c0c98f81905561a0aa7ffad261d9500e7912ff90b597e0a4817ad7297f7900d45349570d6f4fe1809a95557388d60255f917e3eb94eae199d827dad837fac4cb6000527f158d624b64d43ed2ca6e799ba72f176638e9cde480ba53f54aa403e7fd5954458190556020525050613a987f49fb5d87e702d5932d8d8160881fe7001475852cd058d880e5670d6666052b4f556002805460ff60a01b1916600160a01b179055565b6003546001600160a01b031633146104475760405162461bcd60e51b81526004016101ef90610e75565b6003546001600160a01b0316475a6040519091906000818181858888f193505050503d8060008114610495576040519150601f19603f3d011682016040523d82523d6000602084013e505050565b505050565b806001600160a01b0381161561071e576001600160a01b0381166000908152602081905260409020546001146105125760405162461bcd60e51b815260206004820152601860248201527f475356453a20696e636f6d70617469626c6520746f6b656e000000000000000060448201526064016101ef565b60005a6003549091506001600160a01b031633146105425760405162461bcd60e51b81526004016101ef90610e75565b6001600160a01b0385163b6105565761063f565b83156105d0576105ca87878080601f01602080910402602001604051908101604052809392919081815260200183838082843760009201919091525050604080518082019091526020808252600080516020610f5b833981519152908201526001600160a01b038a16939250889150610b4c565b5061063f565b61063d87878080601f01602080910402602001604051908101604052809392919081815260200183838082843760009201919091525050604080518082019091526020808252600080516020610f5b833981519152908201526001600160a01b038a169392509050610c74565b505b600061064c366010610ee2565b5a61065984615208610eaa565b6106639190610f01565b61066d9190610eaa565b6001600160a01b03841660008181526001602052604090205491925090636366b9369061069c846136b0610eaa565b6106a69190610ec2565b6040518263ffffffff1660e01b81526004016106c491815260200190565b602060405180830381600087803b1580156106de57600080fd5b505af11580156106f2573d6000803e3d6000fd5b505050506040513d601f19601f820116820180604052508101906107169190610e0e565b505050610845565b6003546001600160a01b031633146107485760405162461bcd60e51b81526004016101ef90610e75565b6001600160a01b0384163b61075c57610845565b82156107d6576107d086868080601f01602080910402602001604051908101604052809392919081815260200183838082843760009201919091525050604080518082019091526020808252600080516020610f5b833981519152908201526001600160a01b038916939250879150610b4c565b50610845565b61084386868080601f01602080910402602001604051908101604052809392919081815260200183838082843760009201919091525050604080518082019091526020808252600080516020610f5b833981519152908201526001600160a01b0389169392509050610c74565b505b505050505050565b6003546001600160a01b031633146108775760405162461bcd60e51b81526004016101ef90610e75565b6040516370a0823160e01b815230600482015281906000906001600160a01b038316906370a082319060240160206040518083038186803b1580156108bb57600080fd5b505afa1580156108cf573d6000803e3d6000fd5b505050506040513d601f19601f820116820180604052508101906108f39190610e0e565b9050816001600160a01b031663a9059cbb6109166003546001600160a01b031690565b6040516001600160e01b031960e084901b1681526001600160a01b03909116600482015260248101849052604401602060405180830381600087803b15801561095e57600080fd5b505af1158015610972573d6000803e3d6000fd5b505050506040513d601f19601f820116820180604052508101906109969190610d57565b50505050565b6003546001600160a01b0316156109f55760405162461bcd60e51b815260206004820152601e60248201527f5468697320636f6e747261637420697320616c7265616479206f776e6564000060448201526064016101ef565b600380546001600160a01b0319166001600160a01b0384169081179091556040516000907f8be0079c531659141344cd1fd0a4f28419497f9722a3daafe3b4186f6b6457e0908290a3600280546001600160a01b0319166001600160a01b039290921691909117905550565b6003546001600160a01b03163314610a8b5760405162461bcd60e51b81526004016101ef90610e75565b6001600160a01b038116610af05760405162461bcd60e51b815260206004820152602660248201527f4f776e61626c653a206e6577206f776e657220697320746865207a65726f206160448201526564647265737360d01b60648201526084016101ef565b6003546040516001600160a01b038084169216907f8be0079c531659141344cd1fd0a4f28419497f9722a3daafe3b4186f6b6457e090600090a3600380546001600160a01b0319166001600160a01b0392909216919091179055565b606082471015610bad5760405162461bcd60e51b815260206004820152602660248201527f416464726573733a20696e73756666696369656e742062616c616e636520666f6044820152651c8818d85b1b60d21b60648201526084016101ef565b843b610bfb5760405162461bcd60e51b815260206004820152601d60248201527f416464726573733a2063616c6c20746f206e6f6e2d636f6e747261637400000060448201526064016101ef565b600080866001600160a01b03168587604051610c179190610e26565b60006040518083038185875af1925050503d8060008114610c54576040519150601f19603f3d011682016040523d82523d6000602084013e610c59565b606091505b5091509150610c69828286610c8d565b979650505050505050565b6060610c838484600085610b4c565b90505b9392505050565b60608315610c9c575081610c86565b825115610cac5782518084602001fd5b8160405162461bcd60e51b81526004016101ef9190610e42565b80356001600160a01b0381168114610cdd57600080fd5b919050565b600060208284031215610cf3578081fd5b610c8682610cc6565b60008060408385031215610d0e578081fd5b610d1783610cc6565b9150610d2560208401610cc6565b90509250929050565b60008060408385031215610d40578182fd5b610d4983610cc6565b946020939093013593505050565b600060208284031215610d68578081fd5b81518015158114610c86578182fd5b600080600080600060808688031215610d8e578081fd5b853567ffffffffffffffff80821115610da5578283fd5b818801915088601f830112610db8578283fd5b813581811115610dc6578384fd5b896020828501011115610dd7578384fd5b602092830197509550610ded9188019050610cc6565b925060408601359150610e0260608701610cc6565b90509295509295909350565b600060208284031215610e1f578081fd5b5051919050565b60008251610e38818460208701610f18565b9190910192915050565b6020815260008251806020840152610e61816040850160208701610f18565b601f01601f19169190910160400192915050565b6020808252818101527f4f776e61626c653a2063616c6c6572206973206e6f7420746865206f776e6572604082015260600190565b60008219821115610ebd57610ebd610f44565b500190565b600082610edd57634e487b7160e01b81526012600452602481fd5b500490565b6000816000190483118215151615610efc57610efc610f44565b500290565b600082821015610f1357610f13610f44565b500390565b60005b83811015610f33578181015183820152602001610f1b565b838111156109965750506000910152565b634e487b7160e01b600052601160045260246000fdfe47533a204572726f7220666f7277617264696e67207472616e73616374696f6ea26469706673582212205a537c25d3535b784961a58dea745154bc52b06adbd179d34350cd1b86a04b6464736f6c63430008040033",
  "immutableReferences": {},
  "source": "// SPDX-License-Identifier: MIT\r\npragma solidity ^0.8.0;\r\n\r\nimport \"@openzeppelin/contracts/utils/Address.sol\";\r\nimport \"@openzeppelin/contracts/token/ERC20/IERC20.sol\";\r\n\r\n/**\r\n* @dev interface to allow gas tokens to be burned from the wrapper\r\n*/\r\ninterface IFreeUpTo {\r\n    function freeUpTo(uint256 value) external returns (uint256 freed);\r\n}\r\n\r\n/**\r\n* @dev interface to allow gsve to be burned for upgrades\r\n*/\r\ninterface IGSVEToken {\r\n    function burnFrom(address account, uint256 amount) external;\r\n}\r\n\r\n\r\n/**\r\n* @dev The v1 smart wrapper is the core gas saving feature\r\n* it can interact with other smart contracts\r\n* it burns gas to save on the transaction fee\r\n* only the owner/deployer of the smart contract can interact with it\r\n* only the owner can send tokens from the address (smart contract)\r\n* only the owner can withdraw tokens of any type, and this goes directly to the owner.\r\n*/\r\ncontract GSVESmartWrapper {\r\n    using Address for address;\r\n    mapping(address => uint256) private _compatibleGasTokens;\r\n    mapping(address => uint256) private _freeUpValue;\r\n    address private GSVEToken;\r\n    bool private _upgraded;\r\n    address private _owner;\r\n\r\n    constructor (address _GSVEToken) public {\r\n        init(msg.sender, _GSVEToken);\r\n    }\r\n\r\n    /**\r\n     * @dev Initializes the contract setting the deployer as the initial owner.\r\n     * also sets the GSVE token reference\r\n     */\r\n    function init (address initialOwner, address _GSVEToken) public {\r\n        require(_owner == address(0), \"This contract is already owned\");\r\n        _owner = initialOwner;\r\n        emit OwnershipTransferred(address(0), initialOwner);\r\n        GSVEToken = _GSVEToken;\r\n    }\r\n\r\n    /**\r\n    * @dev allow the contract to recieve funds. \r\n    * This will be needed for dApps that check balances before enabling transaction creation.\r\n    */\r\n    receive() external payable{}\r\n\r\n    /**\r\n    * @dev function to enable gas tokens.\r\n    * by default the wrapped tokens are added when the wrapper is deployed\r\n    * using efficiency values based on a known token gas rebate that we store on contract.\r\n    * DANGER: adding unvetted gas tokens that aren't supported by the protocol could be bad!\r\n    */\r\n    function addGasToken(address gasToken, uint256 freeUpValue) public onlyOwner{\r\n        _compatibleGasTokens[gasToken] = 1;\r\n        _freeUpValue[gasToken] = freeUpValue;\r\n    }\r\n\r\n    /**\r\n    * @dev function to 'upgrade the proxy' by enabling unwrapped gas token support\r\n    * the user must burn 100 GSVE to upgrade the proxy.\r\n    */\r\n    function upgradeProxy() public onlyOwner{\r\n        require(_upgraded == false, \"GSVE: Wrapper Already Upgraded.\");\r\n        IGSVEToken(GSVEToken).burnFrom(msg.sender, 100*10**18);\r\n\r\n        // add CHI gas token\r\n        _compatibleGasTokens[0x0000000000004946c0e9F43F4Dee607b0eF1fA1c] = 1;\r\n        _freeUpValue[0x0000000000004946c0e9F43F4Dee607b0eF1fA1c] = 41947;\r\n\r\n        // add GST2 gas token\r\n        _compatibleGasTokens[0x0000000000b3F879cb30FE243b4Dfee438691c04] = 1;\r\n        _freeUpValue[0x0000000000b3F879cb30FE243b4Dfee438691c04] = 41130;\r\n\r\n        // add GST1 gas token\r\n        _compatibleGasTokens[0x88d60255F917e3eb94eaE199d827DAd837fac4cB] = 1;\r\n        _freeUpValue[0x88d60255F917e3eb94eaE199d827DAd837fac4cB] = 15000;\r\n\r\n        _upgraded = true;\r\n    }\r\n\r\n    /**\r\n    * @dev checks if the gas token is supported\r\n    */\r\n    function compatibleGasToken(address gasToken) public view returns(uint256){\r\n        return _compatibleGasTokens[gasToken];\r\n    }\r\n\r\n    /**\r\n    * @dev GSVE moddifier that burns supported gas tokens around a function that uses gas\r\n    * the function calculates the optimal number of tokens to burn, based on the token specified\r\n    */\r\n    modifier discountGas(address gasToken) {\r\n        if(gasToken != address(0)){\r\n            require(_compatibleGasTokens[gasToken] == 1, \"GSVE: incompatible token\");\r\n            uint256 gasStart = gasleft();\r\n            _;\r\n            uint256 gasSpent = 21000 + gasStart - gasleft() + 16 * msg.data.length;\r\n            IFreeUpTo(gasToken).freeUpTo((gasSpent + 14000) / _freeUpValue[gasToken]);\r\n        }\r\n        else {\r\n            _;\r\n        }\r\n    }\r\n    \r\n    /**\r\n    * @dev the wrapTransaction function interacts with other smart contracts on the users behalf\r\n    * this wrapper works for any smart contract\r\n    * as long as the dApp/smart contract the wrapper is interacting with has the correct approvals for balances within this wrapper\r\n    * if the function requires a payment, this is handled too and sent from the wrapper balance.\r\n    */\r\n    function wrapTransaction(bytes calldata data, address contractAddress, uint256 value, address gasToken) external discountGas(gasToken) payable onlyOwner{\r\n        if(!contractAddress.isContract()){\r\n            return;\r\n        }\r\n\r\n        if(value > 0){\r\n            contractAddress.functionCallWithValue(data, value, \"GS: Error forwarding transaction\");\r\n        }\r\n        else{\r\n            contractAddress.functionCall(data, \"GS: Error forwarding transaction\");\r\n        }\r\n    }\r\n\r\n    /**\r\n    * @dev function that the user can trigger to withdraw the entire balance of their wrapper back to themselves.\r\n    */\r\n    function withdrawBalance() public onlyOwner{\r\n        owner().call{value: address(this).balance, gas:gasleft()}(\"\");\r\n    }\r\n\r\n    /**\r\n    * @dev function that the user can trigger to withdraw an entire token balance from the wrapper to themselves\r\n    */\r\n    function withdrawTokenBalance(address token) public onlyOwner{\r\n        IERC20 tokenContract = IERC20(token);\r\n        uint256 balance = tokenContract.balanceOf(address(this));\r\n        tokenContract.transfer(owner(), balance);\r\n    }\r\n\r\n    /**\r\n     * @dev Returns the address of the current owner.\r\n     */\r\n    function owner() public view virtual returns (address) {\r\n        return _owner;\r\n    }\r\n\r\n    /**\r\n     * @dev Throws if called by any account other than the owner.\r\n     */\r\n    modifier onlyOwner() {\r\n        require(owner() == _msgSender(), \"Ownable: caller is not the owner\");\r\n        _;\r\n    }\r\n\r\n    /**\r\n     * @dev Transfers ownership of the contract to a new account (`newOwner`).\r\n     * Can only be called by the current owner.\r\n     */\r\n    function transferOwnership(address newOwner) public virtual onlyOwner {\r\n        require(newOwner != address(0), \"Ownable: new owner is the zero address\");\r\n        emit OwnershipTransferred(_owner, newOwner);\r\n        _owner = newOwner;\r\n    }\r\n\r\n    function _msgSender() internal view virtual returns (address) {\r\n        return msg.sender;\r\n    }\r\n\r\n    event OwnershipTransferred(address indexed previousOwner, address indexed newOwner);\r\n}\r\n",
  "sourcePath": "C:/Users/khera/Documents/GitHub/GasSwapTokens/contracts/GSVESmartWrapper.sol",
  "compiler": {
    "name": "solc",
    "version": "0.8.4+commit.c7e474f2.Emscripten.clang"
  },
  "schemaVersion": "3.3.4",
  "updatedAt": "2021-05-08T14:10:58.057Z",
  "devdoc": {
    "details": "The v1 smart wrapper is the core gas saving feature it can interact with other smart contracts it burns gas to save on the transaction fee only the owner/deployer of the smart contract can interact with it only the owner can send tokens from the address (smart contract) only the owner can withdraw tokens of any type, and this goes directly to the owner.",
    "kind": "dev",
    "methods": {
      "addGasToken(address,uint256)": {
        "details": "function to enable gas tokens. by default the wrapped tokens are added when the wrapper is deployed using efficiency values based on a known token gas rebate that we store on contract. DANGER: adding unvetted gas tokens that aren't supported by the protocol could be bad!"
      },
      "compatibleGasToken(address)": {
        "details": "checks if the gas token is supported"
      },
      "init(address,address)": {
        "details": "Initializes the contract setting the deployer as the initial owner. also sets the GSVE token reference"
      },
      "owner()": {
        "details": "Returns the address of the current owner."
      },
      "transferOwnership(address)": {
        "details": "Transfers ownership of the contract to a new account (`newOwner`). Can only be called by the current owner."
      },
      "upgradeProxy()": {
        "details": "function to 'upgrade the proxy' by enabling unwrapped gas token support the user must burn 100 GSVE to upgrade the proxy."
      },
      "withdrawBalance()": {
        "details": "function that the user can trigger to withdraw the entire balance of their wrapper back to themselves."
      },
      "withdrawTokenBalance(address)": {
        "details": "function that the user can trigger to withdraw an entire token balance from the wrapper to themselves"
      },
      "wrapTransaction(bytes,address,uint256,address)": {
        "details": "the wrapTransaction function interacts with other smart contracts on the users behalf this wrapper works for any smart contract as long as the dApp/smart contract the wrapper is interacting with has the correct approvals for balances within this wrapper if the function requires a payment, this is handled too and sent from the wrapper balance."
      }
    },
    "version": 1
  },
  "userdoc": {
    "kind": "user",
    "methods": {},
    "version": 1
  }
}