{"abi":[{"type":"constructor","inputs":[{"name":"_smartWrapperLocation","type":"address","internalType":"address payable"},{"name":"_GSVEToken","type":"address","internalType":"address"}],"stateMutability":"nonpayable"},{"name":"OwnershipTransferred","type":"event","inputs":[{"name":"previousOwner","type":"address","indexed":true,"internalType":"address"},{"name":"newOwner","type":"address","indexed":true,"internalType":"address"}],"anonymous":false},{"name":"owner","type":"function","inputs":[],"outputs":[{"name":"","type":"address","internalType":"address"}],"constant":true,"stateMutability":"view"},{"name":"renounceOwnership","type":"function","inputs":[],"outputs":[],"stateMutability":"nonpayable"},{"name":"smartWrapperLocation","type":"function","inputs":[],"outputs":[{"name":"","type":"address","internalType":"address payable"}],"constant":true,"stateMutability":"view"},{"name":"transferOwnership","type":"function","inputs":[{"name":"newOwner","type":"address","internalType":"address"}],"outputs":[],"stateMutability":"nonpayable"},{"name":"deployedWalletAddressLocation","type":"function","inputs":[{"name":"creator","type":"address","internalType":"address"}],"outputs":[{"name":"","type":"address","internalType":"address"}],"constant":true,"stateMutability":"view"},{"name":"deployGSVESmartWrapper","type":"function","inputs":[],"outputs":[],"stateMutability":"nonpayable"}],"devdoc":{"kind":"dev","methods":{"owner()":{"details":"Returns the address of the current owner."},"renounceOwnership()":{"details":"Leaves the contract without owner. It will not be possible to call `onlyOwner` functions anymore. Can only be called by the current owner. NOTE: Renouncing ownership will leave the contract without an owner, thereby removing any functionality that is only available to the owner."},"deployGSVESmartWrapper()":{"details":"deploys a gsve smart wrapper for the caller the ownership of the wrapper is transfered to the caller a note is made of where the users wrapper is deployed user pays gsve fee to invoke"},"transferOwnership(address)":{"details":"Transfers ownership of the contract to a new account (`newOwner`). Can only be called by the current owner."},"deployedWalletAddressLocation(address)":{"details":"return the location of a users deployed wrapper"}},"version":1},"source":"// SPDX-License-Identifier: MIT\npragma solidity ^0.8.0;\n\nimport \"@openzeppelin/contracts/proxy/Clones.sol\";\nimport \"@openzeppelin/contracts/access/Ownable.sol\";\nimport \"./IGSVESmartWrapper.sol\";\n\n/**\n* @dev interface to allow gsve to be burned for upgrades\n*/\ninterface IGSVEToken {\n    function burnFrom(address account, uint256 amount) external;\n}\n\ncontract GSVESmartWrapperFactory is Ownable{\n    address payable public smartWrapperLocation;\n    mapping(address => address) private _deployedWalletAddressLocation;\n    address private GSVEToken;\n\n  constructor (address payable _smartWrapperLocation, address _GSVEToken) public {\n    smartWrapperLocation = _smartWrapperLocation;\n    GSVEToken = _GSVEToken;\n  }\n\n    /**\n    * @dev return the location of a users deployed wrapper\n    */\n    function deployedWalletAddressLocation(address creator) public view returns(address){\n        return _deployedWalletAddressLocation[creator];\n    }\n\n    /**\n    * @dev deploys a gsve smart wrapper for the caller\n    * the ownership of the wrapper is transfered to the caller\n    * a note is made of where the users wrapper is deployed\n    * user pays gsve fee to invoke\n    */\n  function deployGSVESmartWrapper()  public {\n        IGSVEToken(GSVEToken).burnFrom(msg.sender, 10*(10**18));\n        address contractAddress = Clones.clone(smartWrapperLocation);\n        IGSVESmartWrapper(payable(contractAddress)).init(address(this));\n        Ownable(contractAddress).transferOwnership(msg.sender);\n        _deployedWalletAddressLocation[msg.sender] = contractAddress;\n    }\n}","userdoc":{"kind":"user","methods":{},"version":1},"bytecode":"0x608060405234801561001057600080fd5b5060405161062538038061062583398101604081905261002f916100a1565b600080546001600160a01b031916339081178255604051909182917f8be0079c531659141344cd1fd0a4f28419497f9722a3daafe3b4186f6b6457e0908290a350600180546001600160a01b039384166001600160a01b031991821617909155600380549290931691161790556100f2565b600080604083850312156100b3578182fd5b82516100be816100da565b60208401519092506100cf816100da565b809150509250929050565b6001600160a01b03811681146100ef57600080fd5b50565b610524806101016000396000f3fe608060405234801561001057600080fd5b50600436106100625760003560e01c80632e8e94ef146100675780637067fb8b146100af578063715018a6146100c25780638da5cb5b146100cc578063a6cf4968146100dd578063f2fde38b146100e5575b600080fd5b6100936100753660046104c0565b6001600160a01b039081166000908152600260205260409020541690565b6040516001600160a01b03909116815260200160405180910390f35b600154610093906001600160a01b031681565b6100ca6100f8565b005b6000546001600160a01b0316610093565b6100ca6101a1565b6100ca6100f33660046104c0565b610309565b6000546001600160a01b031633146101575760405162461bcd60e51b815260206004820181905260248201527f4f776e61626c653a2063616c6c6572206973206e6f7420746865206f776e657260448201526064015b60405180910390fd5b600080546040516001600160a01b03909116907f8be0079c531659141344cd1fd0a4f28419497f9722a3daafe3b4186f6b6457e0908390a3600080546001600160a01b0319169055565b60035460405163079cc67960e41b8152336004820152678ac7230489e8000060248201526001600160a01b03909116906379cc679090604401600060405180830381600087803b1580156101f457600080fd5b505af1158015610208573d6000803e3d6000fd5b50506001546000925061022491506001600160a01b0316610423565b60405163066ad14f60e21b81523060048201529091506001600160a01b038216906319ab453c90602401600060405180830381600087803b15801561026857600080fd5b505af115801561027c573d6000803e3d6000fd5b505060405163f2fde38b60e01b81523360048201526001600160a01b038416925063f2fde38b9150602401600060405180830381600087803b1580156102c157600080fd5b505af11580156102d5573d6000803e3d6000fd5b505033600090815260026020526040902080546001600160a01b0319166001600160a01b0394909416939093179092555050565b6000546001600160a01b031633146103635760405162461bcd60e51b815260206004820181905260248201527f4f776e61626c653a2063616c6c6572206973206e6f7420746865206f776e6572604482015260640161014e565b6001600160a01b0381166103c85760405162461bcd60e51b815260206004820152602660248201527f4f776e61626c653a206e6577206f776e657220697320746865207a65726f206160448201526564647265737360d01b606482015260840161014e565b600080546040516001600160a01b03808516939216917f8be0079c531659141344cd1fd0a4f28419497f9722a3daafe3b4186f6b6457e091a3600080546001600160a01b0319166001600160a01b0392909216919091179055565b6000604051733d602d80600a3d3981f3363d3d373d3d3d363d7360601b81528260601b60148201526e5af43d82803e903d91602b57fd5bf360881b60288201526037816000f09150506001600160a01b0381166104bb5760405162461bcd60e51b8152602060048201526016602482015275115490cc4c4d8dce8818dc99585d194819985a5b195960521b604482015260640161014e565b919050565b6000602082840312156104d1578081fd5b81356001600160a01b03811681146104e7578182fd5b939250505056fea2646970667358221220ddd811379eab077c3c3026a0816b33e4194bf0c6144bbe29e59043dfdef469ed64736f6c63430008040033","compiler":{"name":"solc","version":"0.8.4+commit.c7e474f2.Emscripten.clang"},"updatedAt":"2021-05-18T16:57:42.757Z","sourcePath":"/C/Users/khera/Documents/GitHub/GasSwapTokens/contracts/GSVESmartWrapperFactory.sol","networkType":"ethereum","contractName":"GSVESmartWrapperFactory","schemaVersion":"3.4.1","immutableReferences":{}}