{
  "contractName": "JetFuel",
  "abi": [
    {
      "inputs": [],
      "stateMutability": "nonpayable",
      "type": "constructor"
    },
    {
      "anonymous": false,
      "inputs": [
        {
          "indexed": true,
          "internalType": "address",
          "name": "owner",
          "type": "address"
        },
        {
          "indexed": true,
          "internalType": "address",
          "name": "spender",
          "type": "address"
        },
        {
          "indexed": false,
          "internalType": "uint256",
          "name": "value",
          "type": "uint256"
        }
      ],
      "name": "Approval",
      "type": "event"
    },
    {
      "anonymous": false,
      "inputs": [
        {
          "indexed": true,
          "internalType": "address",
          "name": "previousOwner",
          "type": "address"
        },
        {
          "indexed": true,
          "internalType": "address",
          "name": "newOwner",
          "type": "address"
        }
      ],
      "name": "OwnershipTransferred",
      "type": "event"
    },
    {
      "anonymous": false,
      "inputs": [
        {
          "indexed": true,
          "internalType": "address",
          "name": "from",
          "type": "address"
        },
        {
          "indexed": true,
          "internalType": "address",
          "name": "to",
          "type": "address"
        },
        {
          "indexed": false,
          "internalType": "uint256",
          "name": "value",
          "type": "uint256"
        }
      ],
      "name": "Transfer",
      "type": "event"
    },
    {
      "inputs": [],
      "name": "SGMintFee",
      "outputs": [
        {
          "internalType": "uint256",
          "name": "",
          "type": "uint256"
        }
      ],
      "stateMutability": "view",
      "type": "function"
    },
    {
      "inputs": [
        {
          "internalType": "address",
          "name": "owner",
          "type": "address"
        },
        {
          "internalType": "address",
          "name": "spender",
          "type": "address"
        }
      ],
      "name": "allowance",
      "outputs": [
        {
          "internalType": "uint256",
          "name": "",
          "type": "uint256"
        }
      ],
      "stateMutability": "view",
      "type": "function"
    },
    {
      "inputs": [
        {
          "internalType": "address",
          "name": "spender",
          "type": "address"
        },
        {
          "internalType": "uint256",
          "name": "amount",
          "type": "uint256"
        }
      ],
      "name": "approve",
      "outputs": [
        {
          "internalType": "bool",
          "name": "",
          "type": "bool"
        }
      ],
      "stateMutability": "nonpayable",
      "type": "function"
    },
    {
      "inputs": [
        {
          "internalType": "address",
          "name": "account",
          "type": "address"
        }
      ],
      "name": "balanceOf",
      "outputs": [
        {
          "internalType": "uint256",
          "name": "",
          "type": "uint256"
        }
      ],
      "stateMutability": "view",
      "type": "function"
    },
    {
      "inputs": [],
      "name": "decimals",
      "outputs": [
        {
          "internalType": "uint8",
          "name": "",
          "type": "uint8"
        }
      ],
      "stateMutability": "view",
      "type": "function"
    },
    {
      "inputs": [],
      "name": "feeAddress",
      "outputs": [
        {
          "internalType": "address",
          "name": "",
          "type": "address"
        }
      ],
      "stateMutability": "view",
      "type": "function"
    },
    {
      "inputs": [],
      "name": "name",
      "outputs": [
        {
          "internalType": "string",
          "name": "",
          "type": "string"
        }
      ],
      "stateMutability": "view",
      "type": "function"
    },
    {
      "inputs": [],
      "name": "owner",
      "outputs": [
        {
          "internalType": "address",
          "name": "",
          "type": "address"
        }
      ],
      "stateMutability": "view",
      "type": "function"
    },
    {
      "inputs": [],
      "name": "renounceOwnership",
      "outputs": [],
      "stateMutability": "nonpayable",
      "type": "function"
    },
    {
      "inputs": [],
      "name": "symbol",
      "outputs": [
        {
          "internalType": "string",
          "name": "",
          "type": "string"
        }
      ],
      "stateMutability": "view",
      "type": "function"
    },
    {
      "inputs": [],
      "name": "totalBurned",
      "outputs": [
        {
          "internalType": "uint256",
          "name": "",
          "type": "uint256"
        }
      ],
      "stateMutability": "view",
      "type": "function"
    },
    {
      "inputs": [],
      "name": "totalMinted",
      "outputs": [
        {
          "internalType": "uint256",
          "name": "",
          "type": "uint256"
        }
      ],
      "stateMutability": "view",
      "type": "function"
    },
    {
      "inputs": [
        {
          "internalType": "address",
          "name": "recipient",
          "type": "address"
        },
        {
          "internalType": "uint256",
          "name": "amount",
          "type": "uint256"
        }
      ],
      "name": "transfer",
      "outputs": [
        {
          "internalType": "bool",
          "name": "",
          "type": "bool"
        }
      ],
      "stateMutability": "nonpayable",
      "type": "function"
    },
    {
      "inputs": [
        {
          "internalType": "address",
          "name": "sender",
          "type": "address"
        },
        {
          "internalType": "address",
          "name": "recipient",
          "type": "address"
        },
        {
          "internalType": "uint256",
          "name": "amount",
          "type": "uint256"
        }
      ],
      "name": "transferFrom",
      "outputs": [
        {
          "internalType": "bool",
          "name": "",
          "type": "bool"
        }
      ],
      "stateMutability": "nonpayable",
      "type": "function"
    },
    {
      "inputs": [
        {
          "internalType": "address",
          "name": "newOwner",
          "type": "address"
        }
      ],
      "name": "transferOwnership",
      "outputs": [],
      "stateMutability": "nonpayable",
      "type": "function"
    },
    {
      "inputs": [],
      "name": "totalSupply",
      "outputs": [
        {
          "internalType": "uint256",
          "name": "",
          "type": "uint256"
        }
      ],
      "stateMutability": "view",
      "type": "function"
    },
    {
      "inputs": [
        {
          "internalType": "uint256",
          "name": "value",
          "type": "uint256"
        }
      ],
      "name": "mint",
      "outputs": [],
      "stateMutability": "nonpayable",
      "type": "function"
    },
    {
      "inputs": [
        {
          "internalType": "uint256",
          "name": "value",
          "type": "uint256"
        },
        {
          "internalType": "uint256",
          "name": "discountedFee",
          "type": "uint256"
        },
        {
          "internalType": "address",
          "name": "recipient",
          "type": "address"
        }
      ],
      "name": "discountedMint",
      "outputs": [],
      "stateMutability": "nonpayable",
      "type": "function"
    },
    {
      "inputs": [
        {
          "internalType": "uint256",
          "name": "value",
          "type": "uint256"
        }
      ],
      "name": "free",
      "outputs": [
        {
          "internalType": "uint256",
          "name": "",
          "type": "uint256"
        }
      ],
      "stateMutability": "nonpayable",
      "type": "function"
    },
    {
      "inputs": [
        {
          "internalType": "uint256",
          "name": "value",
          "type": "uint256"
        }
      ],
      "name": "freeUpTo",
      "outputs": [
        {
          "internalType": "uint256",
          "name": "",
          "type": "uint256"
        }
      ],
      "stateMutability": "nonpayable",
      "type": "function"
    },
    {
      "inputs": [
        {
          "internalType": "address",
          "name": "from",
          "type": "address"
        },
        {
          "internalType": "uint256",
          "name": "value",
          "type": "uint256"
        }
      ],
      "name": "freeFrom",
      "outputs": [
        {
          "internalType": "uint256",
          "name": "",
          "type": "uint256"
        }
      ],
      "stateMutability": "nonpayable",
      "type": "function"
    },
    {
      "inputs": [
        {
          "internalType": "address",
          "name": "from",
          "type": "address"
        },
        {
          "internalType": "uint256",
          "name": "value",
          "type": "uint256"
        }
      ],
      "name": "freeFromUpTo",
      "outputs": [
        {
          "internalType": "uint256",
          "name": "",
          "type": "uint256"
        }
      ],
      "stateMutability": "nonpayable",
      "type": "function"
    },
    {
      "inputs": [
        {
          "internalType": "uint256",
          "name": "newMintFee",
          "type": "uint256"
        }
      ],
      "name": "updateMintFee",
      "outputs": [],
      "stateMutability": "nonpayable",
      "type": "function"
    },
    {
      "inputs": [
        {
          "internalType": "address",
          "name": "newFeeAddress",
          "type": "address"
        }
      ],
      "name": "updateFeeAddress",
      "outputs": [],
      "stateMutability": "nonpayable",
      "type": "function"
    }
  ],
  "bytecode": "0x6080604052600260055534801561001557600080fd5b50600061002661010b60201b60201c565b905080600260006101000a81548173ffffffffffffffffffffffffffffffffffffffff021916908373ffffffffffffffffffffffffffffffffffffffff1602179055508073ffffffffffffffffffffffffffffffffffffffff16600073ffffffffffffffffffffffffffffffffffffffff167f8be0079c531659141344cd1fd0a4f28419497f9722a3daafe3b4186f6b6457e060405160405180910390a35033600660006101000a81548173ffffffffffffffffffffffffffffffffffffffff021916908373ffffffffffffffffffffffffffffffffffffffff160217905550610113565b600033905090565b611bf2806101226000396000f3fe608060405234801561001057600080fd5b50600436106101585760003560e01c80637e72014a116100c3578063a9059cbb1161007c578063a9059cbb146103cb578063bbcaac38146103fb578063d89135cd14610417578063d8ccd0f314610435578063dd62ed3e14610465578063f2fde38b1461049557610158565b80637e72014a1461031d57806384017e52146103395780638da5cb5b1461035557806395d89b4114610373578063a0712d6814610391578063a2309ff8146103ad57610158565b8063313ce56711610115578063313ce5671461024757806341275358146102655780635f2e2b45146102835780636366b936146102b357806370a08231146102e3578063715018a61461031357610158565b806306fdde031461015d578063079d229f1461017b578063095ea7b3146101ab57806318160ddd146101db5780631f5a2a15146101f957806323b872dd14610217575b600080fd5b6101656104b1565b60405161017291906117d3565b60405180910390f35b6101956004803603810190610190919061162e565b6104ea565b6040516101a29190611835565b60405180910390f35b6101c560048036038101906101c0919061162e565b610521565b6040516101d291906117b8565b60405180910390f35b6101e3610538565b6040516101f09190611835565b60405180910390f35b61020161054f565b60405161020e9190611835565b60405180910390f35b610231600480360381019061022c91906115df565b610555565b60405161023e91906117b8565b60405180910390f35b61024f610634565b60405161025c9190611850565b60405180910390f35b61026d610639565b60405161027a919061179d565b60405180910390f35b61029d6004803603810190610298919061162e565b61065f565b6040516102aa9190611835565b60405180910390f35b6102cd60048036038101906102c8919061166a565b610686565b6040516102da9190611835565b60405180910390f35b6102fd60048036038101906102f8919061157a565b6106a9565b60405161030a9190611835565b60405180910390f35b61031b6106f1565b005b61033760048036038101906103329190611693565b61082e565b005b610353600480360381019061034e919061166a565b61094d565b005b61035d6109d3565b60405161036a919061179d565b60405180910390f35b61037b6109fd565b60405161038891906117d3565b60405180910390f35b6103ab60048036038101906103a6919061166a565b610a36565b005b6103b5610ad1565b6040516103c29190611835565b60405180910390f35b6103e560048036038101906103e0919061162e565b610ad7565b6040516103f291906117b8565b60405180910390f35b6104156004803603810190610410919061157a565b610aee565b005b61041f610bae565b60405161042c9190611835565b60405180910390f35b61044f600480360381019061044a919061166a565b610bb4565b60405161045c9190611835565b60405180910390f35b61047f600480360381019061047a91906115a3565b610bda565b60405161048c9190611835565b60405180910390f35b6104af60048036038101906104aa919061157a565b610c61565b005b6040518060400160405280601b81526020017f4a6574204675656c20627920476173537761702e66696e616e6365000000000081525081565b60006105198361051461050585610500886106a9565b610e0d565b61050f8733610bda565b610e0d565b61065f565b905092915050565b600061052e338484610e26565b6001905092915050565b600060045460035461054a91906118dd565b905090565b60055481565b6000610562848484610f11565b6000600160008673ffffffffffffffffffffffffffffffffffffffff1673ffffffffffffffffffffffffffffffffffffffff16815260200190815260200160002060003373ffffffffffffffffffffffffffffffffffffffff1673ffffffffffffffffffffffffffffffffffffffff168152602001908152602001600020549050600060ff82901c141561062857610627853361062286604051806060016040528060288152602001611b1160289139866110bb9092919063ffffffff16565b610e26565b5b60019150509392505050565b600081565b600660009054906101000a900473ffffffffffffffffffffffffffffffffffffffff1681565b60008082111561067d576106738383611110565b61067c826111e5565b5b81905092915050565b60006106a261069d83610698336106a9565b610e0d565b610bb4565b9050919050565b60008060008373ffffffffffffffffffffffffffffffffffffffff1673ffffffffffffffffffffffffffffffffffffffff168152602001908152602001600020549050919050565b6106f9611270565b73ffffffffffffffffffffffffffffffffffffffff166107176109d3565b73ffffffffffffffffffffffffffffffffffffffff161461076d576040517f08c379a000000000000000000000000000000000000000000000000000000000815260040161076490611815565b60405180910390fd5b600073ffffffffffffffffffffffffffffffffffffffff16600260009054906101000a900473ffffffffffffffffffffffffffffffffffffffff1673ffffffffffffffffffffffffffffffffffffffff167f8be0079c531659141344cd1fd0a4f28419497f9722a3daafe3b4186f6b6457e060405160405180910390a36000600260006101000a81548173ffffffffffffffffffffffffffffffffffffffff021916908373ffffffffffffffffffffffffffffffffffffffff160217905550565b610836611270565b73ffffffffffffffffffffffffffffffffffffffff166108546109d3565b73ffffffffffffffffffffffffffffffffffffffff16146108aa576040517f08c379a00000000000000000000000000000000000000000000000000000000081526004016108a190611815565b60405180910390fd5b60008314156108b857610948565b60006108e783604051806060016040528060338152602001611b8a60339139866110bb9092919063ffffffff16565b90506108f284611278565b6108fc8282611326565b600083111561093257610931600660009054906101000a900473ffffffffffffffffffffffffffffffffffffffff1684611326565b5b836003546109409190611887565b600381905550505b505050565b610955611270565b73ffffffffffffffffffffffffffffffffffffffff166109736109d3565b73ffffffffffffffffffffffffffffffffffffffff16146109c9576040517f08c379a00000000000000000000000000000000000000000000000000000000081526004016109c090611815565b60405180910390fd5b8060058190555050565b6000600260009054906101000a900473ffffffffffffffffffffffffffffffffffffffff16905090565b6040518060400160405280600581526020017f6a4655454c00000000000000000000000000000000000000000000000000000081525081565b6000811415610a4457610ace565b6000610a756005546040518060600160405280602d8152602001611b5d602d9139846110bb9092919063ffffffff16565b9050610a8082611278565b610a8a3382611326565b610ab8600660009054906101000a900473ffffffffffffffffffffffffffffffffffffffff16600554611326565b81600354610ac69190611887565b600381905550505b50565b60035481565b6000610ae4338484610f11565b6001905092915050565b610af6611270565b73ffffffffffffffffffffffffffffffffffffffff16610b146109d3565b73ffffffffffffffffffffffffffffffffffffffff1614610b6a576040517f08c379a0000000000000000000000000000000000000000000000000000000008152600401610b6190611815565b60405180910390fd5b80600660006101000a81548173ffffffffffffffffffffffffffffffffffffffff021916908373ffffffffffffffffffffffffffffffffffffffff16021790555050565b60045481565b600080821115610bd257610bc83383611423565b610bd1826111e5565b5b819050919050565b6000600160008473ffffffffffffffffffffffffffffffffffffffff1673ffffffffffffffffffffffffffffffffffffffff16815260200190815260200160002060008373ffffffffffffffffffffffffffffffffffffffff1673ffffffffffffffffffffffffffffffffffffffff16815260200190815260200160002054905092915050565b610c69611270565b73ffffffffffffffffffffffffffffffffffffffff16610c876109d3565b73ffffffffffffffffffffffffffffffffffffffff1614610cdd576040517f08c379a0000000000000000000000000000000000000000000000000000000008152600401610cd490611815565b60405180910390fd5b600073ffffffffffffffffffffffffffffffffffffffff168173ffffffffffffffffffffffffffffffffffffffff161415610d4d576040517f08c379a0000000000000000000000000000000000000000000000000000000008152600401610d44906117f5565b60405180910390fd5b8073ffffffffffffffffffffffffffffffffffffffff16600260009054906101000a900473ffffffffffffffffffffffffffffffffffffffff1673ffffffffffffffffffffffffffffffffffffffff167f8be0079c531659141344cd1fd0a4f28419497f9722a3daafe3b4186f6b6457e060405160405180910390a380600260006101000a81548173ffffffffffffffffffffffffffffffffffffffff021916908373ffffffffffffffffffffffffffffffffffffffff16021790555050565b6000818310610e1c5781610e1e565b825b905092915050565b80600160008573ffffffffffffffffffffffffffffffffffffffff1673ffffffffffffffffffffffffffffffffffffffff16815260200190815260200160002060008473ffffffffffffffffffffffffffffffffffffffff1673ffffffffffffffffffffffffffffffffffffffff168152602001908152602001600020819055508173ffffffffffffffffffffffffffffffffffffffff168373ffffffffffffffffffffffffffffffffffffffff167f8c5be1e5ebec7d5bd14f71427d1e84f3dd0314c0f7b2291e5b200ac8c7c3b92583604051610f049190611835565b60405180910390a3505050565b610f7c81604051806060016040528060268152602001611aeb602691396000808773ffffffffffffffffffffffffffffffffffffffff1673ffffffffffffffffffffffffffffffffffffffff168152602001908152602001600020546110bb9092919063ffffffff16565b6000808573ffffffffffffffffffffffffffffffffffffffff1673ffffffffffffffffffffffffffffffffffffffff1681526020019081526020016000208190555061100f816000808573ffffffffffffffffffffffffffffffffffffffff1673ffffffffffffffffffffffffffffffffffffffff1681526020019081526020016000205461153a90919063ffffffff16565b6000808473ffffffffffffffffffffffffffffffffffffffff1673ffffffffffffffffffffffffffffffffffffffff168152602001908152602001600020819055508173ffffffffffffffffffffffffffffffffffffffff168373ffffffffffffffffffffffffffffffffffffffff167fddf252ad1be2c89b69c2b068fc378daa952ba7f163c4a11628f55a4df523b3ef836040516110ae9190611835565b60405180910390a3505050565b6000838311158290611103576040517f08c379a00000000000000000000000000000000000000000000000000000000081526004016110fa91906117d3565b60405180910390fd5b5082840390509392505050565b61111a8282611423565b6000600160008473ffffffffffffffffffffffffffffffffffffffff1673ffffffffffffffffffffffffffffffffffffffff16815260200190815260200160002060003373ffffffffffffffffffffffffffffffffffffffff1673ffffffffffffffffffffffffffffffffffffffff168152602001908152602001600020549050600060ff82901c14156111e0576111df83336111da85604051806060016040528060248152602001611b3960249139866110bb9092919063ffffffff16565b610e26565b5b505050565b600063deadbeef9050600081549050600060018483856112059190611887565b61120f91906118dd565b6112199190611887565b9050600082846112299190611887565b905060008290505b81811161124f5760008155808061124790611999565b915050611231565b508483038455846004546112639190611887565b6004819055505050505050565b600033905090565b600063deadbeef90506000815490506000600182846112979190611887565b6112a19190611887565b905060008483856112b29190611887565b6112bc9190611887565b9050818110156112f5577f4e487b7100000000000000000000000000000000000000000000000000000000600052600160045260246000fd5b60008290505b8181116113195760018155808061131190611999565b9150506112fb565b5084830184555050505050565b611377816000808573ffffffffffffffffffffffffffffffffffffffff1673ffffffffffffffffffffffffffffffffffffffff1681526020019081526020016000205461153a90919063ffffffff16565b6000808473ffffffffffffffffffffffffffffffffffffffff1673ffffffffffffffffffffffffffffffffffffffff168152602001908152602001600020819055508173ffffffffffffffffffffffffffffffffffffffff16600073ffffffffffffffffffffffffffffffffffffffff167fddf252ad1be2c89b69c2b068fc378daa952ba7f163c4a11628f55a4df523b3ef836040516114179190611835565b60405180910390a35050565b61148e81604051806060016040528060228152602001611ac9602291396000808673ffffffffffffffffffffffffffffffffffffffff1673ffffffffffffffffffffffffffffffffffffffff168152602001908152602001600020546110bb9092919063ffffffff16565b6000808473ffffffffffffffffffffffffffffffffffffffff1673ffffffffffffffffffffffffffffffffffffffff16815260200190815260200160002081905550600073ffffffffffffffffffffffffffffffffffffffff168273ffffffffffffffffffffffffffffffffffffffff167fddf252ad1be2c89b69c2b068fc378daa952ba7f163c4a11628f55a4df523b3ef8360405161152e9190611835565b60405180910390a35050565b600081836115489190611887565b905092915050565b60008135905061155f81611a9a565b92915050565b60008135905061157481611ab1565b92915050565b60006020828403121561158c57600080fd5b600061159a84828501611550565b91505092915050565b600080604083850312156115b657600080fd5b60006115c485828601611550565b92505060206115d585828601611550565b9150509250929050565b6000806000606084860312156115f457600080fd5b600061160286828701611550565b935050602061161386828701611550565b925050604061162486828701611565565b9150509250925092565b6000806040838503121561164157600080fd5b600061164f85828601611550565b925050602061166085828601611565565b9150509250929050565b60006020828403121561167c57600080fd5b600061168a84828501611565565b91505092915050565b6000806000606084860312156116a857600080fd5b60006116b686828701611565565b93505060206116c786828701611565565b92505060406116d886828701611550565b9150509250925092565b6116eb81611911565b82525050565b6116fa81611923565b82525050565b600061170b8261186b565b6117158185611876565b9350611725818560208601611966565b61172e81611a11565b840191505092915050565b6000611746602683611876565b915061175182611a22565b604082019050919050565b6000611769602083611876565b915061177482611a71565b602082019050919050565b6117888161194f565b82525050565b61179781611959565b82525050565b60006020820190506117b260008301846116e2565b92915050565b60006020820190506117cd60008301846116f1565b92915050565b600060208201905081810360008301526117ed8184611700565b905092915050565b6000602082019050818103600083015261180e81611739565b9050919050565b6000602082019050818103600083015261182e8161175c565b9050919050565b600060208201905061184a600083018461177f565b92915050565b6000602082019050611865600083018461178e565b92915050565b600081519050919050565b600082825260208201905092915050565b60006118928261194f565b915061189d8361194f565b9250827fffffffffffffffffffffffffffffffffffffffffffffffffffffffffffffffff038211156118d2576118d16119e2565b5b828201905092915050565b60006118e88261194f565b91506118f38361194f565b925082821015611906576119056119e2565b5b828203905092915050565b600061191c8261192f565b9050919050565b60008115159050919050565b600073ffffffffffffffffffffffffffffffffffffffff82169050919050565b6000819050919050565b600060ff82169050919050565b60005b83811015611984578082015181840152602081019050611969565b83811115611993576000848401525b50505050565b60006119a48261194f565b91507fffffffffffffffffffffffffffffffffffffffffffffffffffffffffffffffff8214156119d7576119d66119e2565b5b600182019050919050565b7f4e487b7100000000000000000000000000000000000000000000000000000000600052601160045260246000fd5b6000601f19601f8301169050919050565b7f4f776e61626c653a206e6577206f776e657220697320746865207a65726f206160008201527f6464726573730000000000000000000000000000000000000000000000000000602082015250565b7f4f776e61626c653a2063616c6c6572206973206e6f7420746865206f776e6572600082015250565b611aa381611911565b8114611aae57600080fd5b50565b611aba8161194f565b8114611ac557600080fd5b5056fe45524332303a206275726e20616d6f756e7420657863656564732062616c616e636545524332303a207472616e7366657220616d6f756e7420657863656564732062616c616e636545524332303a207472616e7366657220616d6f756e74206578636565647320616c6c6f77616e636545524332303a206275726e20616d6f756e74206578636565647320616c6c6f77616e636553473a204d696e7465642056616c7565206d757374206265206c6172676572207468616e20626173652066656553473a204d696e7465642056616c7565206d757374206265206c6172676572207468616e20646973636f756e74656420666565a2646970667358221220191b8d4bc0b1a01038506e3a1a5ba50fbe9dbf8bd4da39daaaf61f039053c89f64736f6c63430008040033",
  "immutableReferences": {},
  "source": "// SPDX-License-Identifier: MIT\r\npragma solidity ^0.8.0;\r\n\r\nimport \"@openzeppelin/contracts/utils/math/Math.sol\";\r\nimport \"@openzeppelin/contracts/utils/math/SafeMath.sol\";\r\nimport \"@openzeppelin/contracts/token/ERC20/IERC20.sol\";\r\nimport \"@openzeppelin/contracts/access/Ownable.sol\";\r\nimport './ERC20WithoutTotalSupply.sol';\r\nimport \"./IGSVEToken.sol\";\r\n\r\ncontract JetFuel is IERC20, ERC20WithoutTotalSupply, Ownable, IGSVEToken{\r\n    using SafeMath for uint256;\r\n\r\n    //SG1 uses a burn mechanic loosely based off of GST1. While using a common interface that the other SG tokens use. Also uses formal Erc20.\r\n    string constant public name = \"Jet Fuel by GasSwap.finance\";\r\n    string constant public symbol = \"jFUEL\";\r\n    uint8 constant public decimals = 0;\r\n\r\n    uint256 public totalMinted;\r\n    uint256 public totalBurned;\r\n\r\n    //Introduce a fee that is taken on mint/burn\r\n    uint256 public SGMintFee = 2;\r\n\r\n    //Add address for where fees will be added to. Eventually this can be a contract that GasSwap Holders can redeem siphoned gas from.\r\n    address public feeAddress;\r\n\r\n    // We start our storage at this location. The EVM word at this location\r\n    // contains the number of stored words. The stored words follow at\r\n    // locations (STORAGE_LOCATION_ARRAY+1), (STORAGE_LOCATION_ARRAY+2), ...\r\n    uint256 constant STORAGE_LOCATION_ARRAY = 0xDEADBEEF;\r\n\r\n    // Set the fee address as the deployer for now. Eventually this will migrate to GasSwap Bank Contract\r\n    constructor () {\r\n        feeAddress = msg.sender;\r\n    }\r\n\r\n    function totalSupply() public view override returns(uint256) {\r\n        return totalMinted - totalBurned;\r\n    }\r\n\r\n    function _storeGas(uint256 value) internal{\r\n        uint256 storage_location_array = STORAGE_LOCATION_ARRAY;  // can't use constants inside assembly\r\n\r\n        // Read supply\r\n        uint256 supply;\r\n        assembly {\r\n            supply := sload(storage_location_array)\r\n        }\r\n\r\n        // Set memory locations in interval [l, r]\r\n        uint256 l = storage_location_array + supply + 1;\r\n        uint256 r = storage_location_array + supply + value;\r\n        assert(r >= l);\r\n\r\n        for (uint256 i = l; i <= r; i++) {\r\n            assembly {\r\n                sstore(i, 1)\r\n            }\r\n        }\r\n\r\n        // Write updated supply & balance\r\n        assembly {\r\n            sstore(storage_location_array, add(supply, value))\r\n        }\r\n    }\r\n\r\n    function mint(uint256 value) public override {\r\n        if (value == 0) {\r\n            return;\r\n        }\r\n        uint256 valueAfterFee =  value.sub(SGMintFee, \"SG: Minted Value must be larger than base fee\");\r\n        _storeGas(value);\r\n        _mint(msg.sender, valueAfterFee);\r\n        _mint(feeAddress, SGMintFee);\r\n        totalMinted = totalMinted + value;\r\n    }\r\n\r\n    function discountedMint(uint256 value, uint256 discountedFee, address recipient) public override onlyOwner {\r\n        if (value == 0) {\r\n            return;\r\n        }\r\n        uint256 valueAfterFee =  value.sub(discountedFee, \"SG: Minted Value must be larger than discounted fee\");\r\n        _storeGas(value);\r\n        _mint(recipient, valueAfterFee);\r\n        if(discountedFee > 0){\r\n            _mint(feeAddress, discountedFee);\r\n        }\r\n        totalMinted = totalMinted + value;\r\n    }\r\n    \r\n    function _burnStorage(uint256 value) internal {\r\n        uint256 storage_location_array = STORAGE_LOCATION_ARRAY;  // can't use constants inside assembly\r\n        // Read supply\r\n        uint256 supply;\r\n        assembly {\r\n            supply := sload(storage_location_array)\r\n        }\r\n\r\n        // Clear memory locations in interval [l, r]\r\n        uint256 l = storage_location_array + supply - value + 1;\r\n        uint256 r = storage_location_array + supply;\r\n        for (uint256 i = l; i <= r; i++) {\r\n            assembly {\r\n                sstore(i, 0)\r\n            }\r\n        }\r\n\r\n        // Write updated supply\r\n        assembly {\r\n            sstore(storage_location_array, sub(supply, value))\r\n        }\r\n\r\n        totalBurned = totalBurned + value;\r\n    }\r\n\r\n    function free(uint256 value) public override returns (uint256)  {\r\n        if (value > 0) {\r\n            _burn(msg.sender, value);\r\n            _burnStorage(value);\r\n        }\r\n        return value;\r\n    }\r\n\r\n    function freeUpTo(uint256 value) public override returns (uint256) {\r\n        return free(Math.min(value, balanceOf(msg.sender)));\r\n    }\r\n\r\n    function freeFrom(address from, uint256 value) public override returns (uint256) {\r\n        if (value > 0) {\r\n            _burnFrom(from, value);\r\n            _burnStorage(value);\r\n        }\r\n        return value;\r\n    }\r\n\r\n    function freeFromUpTo(address from, uint256 value) public override returns (uint256) {\r\n        return freeFrom(from, Math.min(Math.min(value, balanceOf(from)), allowance(from, msg.sender)));\r\n    }\r\n\r\n    //Add function for Gas Swap that proposers can use to adjust mint fee.\r\n    function updateMintFee(uint256 newMintFee) public override onlyOwner {\r\n        SGMintFee = newMintFee;\r\n    }\r\n\r\n    //Add function that will allow eventual transfer to Gas Swap after initial setup phase\r\n    function updateFeeAddress(address newFeeAddress) public override onlyOwner {\r\n        feeAddress = newFeeAddress;\r\n    }\r\n    \r\n}\r\n",
  "sourcePath": "C:/Users/khera/Documents/GitHub/GasSwapTokens/contracts/JetFuel.sol",
  "compiler": {
    "name": "solc",
    "version": "0.8.4+commit.c7e474f2.Emscripten.clang"
  },
  "schemaVersion": "3.3.4",
  "updatedAt": "2021-05-02T13:18:48.227Z",
  "devdoc": {
    "kind": "dev",
    "methods": {
      "allowance(address,address)": {
        "details": "Returns the remaining number of tokens that `spender` will be allowed to spend on behalf of `owner` through {transferFrom}. This is zero by default. This value changes when {approve} or {transferFrom} are called."
      },
      "approve(address,uint256)": {
        "details": "Sets `amount` as the allowance of `spender` over the caller's tokens. Returns a boolean value indicating whether the operation succeeded. IMPORTANT: Beware that changing an allowance with this method brings the risk that someone may use both the old and the new allowance by unfortunate transaction ordering. One possible solution to mitigate this race condition is to first reduce the spender's allowance to 0 and set the desired value afterwards: https://github.com/ethereum/EIPs/issues/20#issuecomment-263524729 Emits an {Approval} event."
      },
      "balanceOf(address)": {
        "details": "Returns the amount of tokens owned by `account`."
      },
      "free(uint256)": {
        "details": "return number of tokens freed up."
      },
      "freeFrom(address,uint256)": {
        "details": "return number of tokens freed up."
      },
      "freeFromUpTo(address,uint256)": {
        "details": "return number of tokens freed up."
      },
      "freeUpTo(uint256)": {
        "details": "return number of tokens freed up."
      },
      "mint(uint256)": {
        "details": "mints new tokens."
      },
      "owner()": {
        "details": "Returns the address of the current owner."
      },
      "renounceOwnership()": {
        "details": "Leaves the contract without owner. It will not be possible to call `onlyOwner` functions anymore. Can only be called by the current owner. NOTE: Renouncing ownership will leave the contract without an owner, thereby removing any functionality that is only available to the owner."
      },
      "totalSupply()": {
        "details": "Returns the amount of tokens in existence."
      },
      "transfer(address,uint256)": {
        "details": "Moves `amount` tokens from the caller's account to `recipient`. Returns a boolean value indicating whether the operation succeeded. Emits a {Transfer} event."
      },
      "transferFrom(address,address,uint256)": {
        "details": "Moves `amount` tokens from `sender` to `recipient` using the allowance mechanism. `amount` is then deducted from the caller's allowance. Returns a boolean value indicating whether the operation succeeded. Emits a {Transfer} event."
      },
      "transferOwnership(address)": {
        "details": "Transfers ownership of the contract to a new account (`newOwner`). Can only be called by the current owner."
      },
      "updateFeeAddress(address)": {
        "details": "updates fee address of this contract."
      },
      "updateMintFee(uint256)": {
        "details": "updates number of minted tokens siphoned to Gas Swap holders."
      }
    },
    "version": 1
  },
  "userdoc": {
    "kind": "user",
    "methods": {},
    "version": 1
  }
}