{
  "contractName": "RocketFuel",
  "abi": [
    {
      "inputs": [],
      "stateMutability": "nonpayable",
      "type": "constructor"
    },
    {
      "anonymous": false,
      "inputs": [
        {
          "indexed": true,
          "internalType": "address",
          "name": "owner",
          "type": "address"
        },
        {
          "indexed": true,
          "internalType": "address",
          "name": "spender",
          "type": "address"
        },
        {
          "indexed": false,
          "internalType": "uint256",
          "name": "value",
          "type": "uint256"
        }
      ],
      "name": "Approval",
      "type": "event"
    },
    {
      "anonymous": false,
      "inputs": [
        {
          "indexed": true,
          "internalType": "address",
          "name": "previousOwner",
          "type": "address"
        },
        {
          "indexed": true,
          "internalType": "address",
          "name": "newOwner",
          "type": "address"
        }
      ],
      "name": "OwnershipTransferred",
      "type": "event"
    },
    {
      "anonymous": false,
      "inputs": [
        {
          "indexed": true,
          "internalType": "address",
          "name": "from",
          "type": "address"
        },
        {
          "indexed": true,
          "internalType": "address",
          "name": "to",
          "type": "address"
        },
        {
          "indexed": false,
          "internalType": "uint256",
          "name": "value",
          "type": "uint256"
        }
      ],
      "name": "Transfer",
      "type": "event"
    },
    {
      "inputs": [],
      "name": "SGMintFee",
      "outputs": [
        {
          "internalType": "uint256",
          "name": "",
          "type": "uint256"
        }
      ],
      "stateMutability": "view",
      "type": "function"
    },
    {
      "inputs": [
        {
          "internalType": "address",
          "name": "owner",
          "type": "address"
        },
        {
          "internalType": "address",
          "name": "spender",
          "type": "address"
        }
      ],
      "name": "allowance",
      "outputs": [
        {
          "internalType": "uint256",
          "name": "",
          "type": "uint256"
        }
      ],
      "stateMutability": "view",
      "type": "function"
    },
    {
      "inputs": [
        {
          "internalType": "address",
          "name": "spender",
          "type": "address"
        },
        {
          "internalType": "uint256",
          "name": "amount",
          "type": "uint256"
        }
      ],
      "name": "approve",
      "outputs": [
        {
          "internalType": "bool",
          "name": "",
          "type": "bool"
        }
      ],
      "stateMutability": "nonpayable",
      "type": "function"
    },
    {
      "inputs": [
        {
          "internalType": "address",
          "name": "account",
          "type": "address"
        }
      ],
      "name": "balanceOf",
      "outputs": [
        {
          "internalType": "uint256",
          "name": "",
          "type": "uint256"
        }
      ],
      "stateMutability": "view",
      "type": "function"
    },
    {
      "inputs": [],
      "name": "decimals",
      "outputs": [
        {
          "internalType": "uint8",
          "name": "",
          "type": "uint8"
        }
      ],
      "stateMutability": "view",
      "type": "function"
    },
    {
      "inputs": [],
      "name": "feeAddress",
      "outputs": [
        {
          "internalType": "address",
          "name": "",
          "type": "address"
        }
      ],
      "stateMutability": "view",
      "type": "function"
    },
    {
      "inputs": [],
      "name": "name",
      "outputs": [
        {
          "internalType": "string",
          "name": "",
          "type": "string"
        }
      ],
      "stateMutability": "view",
      "type": "function"
    },
    {
      "inputs": [],
      "name": "owner",
      "outputs": [
        {
          "internalType": "address",
          "name": "",
          "type": "address"
        }
      ],
      "stateMutability": "view",
      "type": "function"
    },
    {
      "inputs": [],
      "name": "renounceOwnership",
      "outputs": [],
      "stateMutability": "nonpayable",
      "type": "function"
    },
    {
      "inputs": [],
      "name": "symbol",
      "outputs": [
        {
          "internalType": "string",
          "name": "",
          "type": "string"
        }
      ],
      "stateMutability": "view",
      "type": "function"
    },
    {
      "inputs": [],
      "name": "totalBurned",
      "outputs": [
        {
          "internalType": "uint256",
          "name": "",
          "type": "uint256"
        }
      ],
      "stateMutability": "view",
      "type": "function"
    },
    {
      "inputs": [],
      "name": "totalMinted",
      "outputs": [
        {
          "internalType": "uint256",
          "name": "",
          "type": "uint256"
        }
      ],
      "stateMutability": "view",
      "type": "function"
    },
    {
      "inputs": [
        {
          "internalType": "address",
          "name": "recipient",
          "type": "address"
        },
        {
          "internalType": "uint256",
          "name": "amount",
          "type": "uint256"
        }
      ],
      "name": "transfer",
      "outputs": [
        {
          "internalType": "bool",
          "name": "",
          "type": "bool"
        }
      ],
      "stateMutability": "nonpayable",
      "type": "function"
    },
    {
      "inputs": [
        {
          "internalType": "address",
          "name": "sender",
          "type": "address"
        },
        {
          "internalType": "address",
          "name": "recipient",
          "type": "address"
        },
        {
          "internalType": "uint256",
          "name": "amount",
          "type": "uint256"
        }
      ],
      "name": "transferFrom",
      "outputs": [
        {
          "internalType": "bool",
          "name": "",
          "type": "bool"
        }
      ],
      "stateMutability": "nonpayable",
      "type": "function"
    },
    {
      "inputs": [
        {
          "internalType": "address",
          "name": "newOwner",
          "type": "address"
        }
      ],
      "name": "transferOwnership",
      "outputs": [],
      "stateMutability": "nonpayable",
      "type": "function"
    },
    {
      "inputs": [],
      "name": "totalSupply",
      "outputs": [
        {
          "internalType": "uint256",
          "name": "",
          "type": "uint256"
        }
      ],
      "stateMutability": "view",
      "type": "function"
    },
    {
      "inputs": [
        {
          "internalType": "uint256",
          "name": "value",
          "type": "uint256"
        }
      ],
      "name": "mint",
      "outputs": [],
      "stateMutability": "nonpayable",
      "type": "function"
    },
    {
      "inputs": [
        {
          "internalType": "uint256",
          "name": "value",
          "type": "uint256"
        },
        {
          "internalType": "uint256",
          "name": "discountedFee",
          "type": "uint256"
        },
        {
          "internalType": "address",
          "name": "recipient",
          "type": "address"
        }
      ],
      "name": "discountedMint",
      "outputs": [],
      "stateMutability": "nonpayable",
      "type": "function"
    },
    {
      "inputs": [
        {
          "internalType": "uint256",
          "name": "salt",
          "type": "uint256"
        }
      ],
      "name": "computeAddress2",
      "outputs": [
        {
          "internalType": "address",
          "name": "",
          "type": "address"
        }
      ],
      "stateMutability": "view",
      "type": "function"
    },
    {
      "inputs": [
        {
          "internalType": "uint256",
          "name": "value",
          "type": "uint256"
        }
      ],
      "name": "free",
      "outputs": [
        {
          "internalType": "uint256",
          "name": "",
          "type": "uint256"
        }
      ],
      "stateMutability": "nonpayable",
      "type": "function"
    },
    {
      "inputs": [
        {
          "internalType": "uint256",
          "name": "value",
          "type": "uint256"
        }
      ],
      "name": "freeUpTo",
      "outputs": [
        {
          "internalType": "uint256",
          "name": "",
          "type": "uint256"
        }
      ],
      "stateMutability": "nonpayable",
      "type": "function"
    },
    {
      "inputs": [
        {
          "internalType": "address",
          "name": "from",
          "type": "address"
        },
        {
          "internalType": "uint256",
          "name": "value",
          "type": "uint256"
        }
      ],
      "name": "freeFrom",
      "outputs": [
        {
          "internalType": "uint256",
          "name": "",
          "type": "uint256"
        }
      ],
      "stateMutability": "nonpayable",
      "type": "function"
    },
    {
      "inputs": [
        {
          "internalType": "address",
          "name": "from",
          "type": "address"
        },
        {
          "internalType": "uint256",
          "name": "value",
          "type": "uint256"
        }
      ],
      "name": "freeFromUpTo",
      "outputs": [
        {
          "internalType": "uint256",
          "name": "",
          "type": "uint256"
        }
      ],
      "stateMutability": "nonpayable",
      "type": "function"
    },
    {
      "inputs": [
        {
          "internalType": "uint256",
          "name": "newMintFee",
          "type": "uint256"
        }
      ],
      "name": "updateMintFee",
      "outputs": [],
      "stateMutability": "nonpayable",
      "type": "function"
    },
    {
      "inputs": [
        {
          "internalType": "address",
          "name": "newFeeAddress",
          "type": "address"
        }
      ],
      "name": "updateFeeAddress",
      "outputs": [],
      "stateMutability": "nonpayable",
      "type": "function"
    }
  ],
  "bytecode": "0x6080604052600260055534801561001557600080fd5b50600061002661010b60201b60201c565b905080600260006101000a81548173ffffffffffffffffffffffffffffffffffffffff021916908373ffffffffffffffffffffffffffffffffffffffff1602179055508073ffffffffffffffffffffffffffffffffffffffff16600073ffffffffffffffffffffffffffffffffffffffff167f8be0079c531659141344cd1fd0a4f28419497f9722a3daafe3b4186f6b6457e060405160405180910390a35033600660006101000a81548173ffffffffffffffffffffffffffffffffffffffff021916908373ffffffffffffffffffffffffffffffffffffffff160217905550610113565b600033905090565b611f1f806101226000396000f3fe608060405234801561001057600080fd5b50600436106101735760003560e01c80637e72014a116100de578063a9059cbb11610097578063d89135cd11610071578063d89135cd14610462578063d8ccd0f314610480578063dd62ed3e146104b0578063f2fde38b146104e057610173565b8063a9059cbb146103e6578063b0ac19a014610416578063bbcaac381461044657610173565b80637e72014a1461033857806384017e52146103545780638da5cb5b1461037057806395d89b411461038e578063a0712d68146103ac578063a2309ff8146103c857610173565b8063313ce56711610130578063313ce5671461026257806341275358146102805780635f2e2b451461029e5780636366b936146102ce57806370a08231146102fe578063715018a61461032e57610173565b806306fdde0314610178578063079d229f14610196578063095ea7b3146101c657806318160ddd146101f65780631f5a2a151461021457806323b872dd14610232575b600080fd5b6101806104fc565b60405161018d9190611aa0565b60405180910390f35b6101b060048036038101906101ab9190611819565b610535565b6040516101bd9190611b02565b60405180910390f35b6101e060048036038101906101db9190611819565b61056c565b6040516101ed9190611a85565b60405180910390f35b6101fe610583565b60405161020b9190611b02565b60405180910390f35b61021c61059a565b6040516102299190611b02565b60405180910390f35b61024c600480360381019061024791906117ca565b6105a0565b6040516102599190611a85565b60405180910390f35b61026a61067f565b6040516102779190611b1d565b60405180910390f35b610288610684565b6040516102959190611a6a565b60405180910390f35b6102b860048036038101906102b39190611819565b6106aa565b6040516102c59190611b02565b60405180910390f35b6102e860048036038101906102e39190611855565b6106d1565b6040516102f59190611b02565b60405180910390f35b61031860048036038101906103139190611765565b6106f4565b6040516103259190611b02565b60405180910390f35b61033661073c565b005b610352600480360381019061034d919061187e565b610879565b005b61036e60048036038101906103699190611855565b610984565b005b610378610a0a565b6040516103859190611a6a565b60405180910390f35b610396610a34565b6040516103a39190611aa0565b60405180910390f35b6103c660048036038101906103c19190611855565b610a6d565b005b6103d0610af4565b6040516103dd9190611b02565b60405180910390f35b61040060048036038101906103fb9190611819565b610afa565b60405161040d9190611a85565b60405180910390f35b610430600480360381019061042b9190611855565b610b11565b60405161043d9190611a6a565b60405180910390f35b610460600480360381019061045b9190611765565b610b76565b005b61046a610c36565b6040516104779190611b02565b60405180910390f35b61049a60048036038101906104959190611855565b610c3c565b6040516104a79190611b02565b60405180910390f35b6104ca60048036038101906104c5919061178e565b610c62565b6040516104d79190611b02565b60405180910390f35b6104fa60048036038101906104f59190611765565b610ce9565b005b6040518060400160405280601e81526020017f526f636b6574204675656c20627920476173537761702e66696e616e6365000081525081565b60006105648361055f6105508561054b886106f4565b610e95565b61055a8733610c62565b610e95565b6106aa565b905092915050565b6000610579338484610eae565b6001905092915050565b60006004546003546105959190611bb5565b905090565b60055481565b60006105ad848484610f99565b6000600160008673ffffffffffffffffffffffffffffffffffffffff1673ffffffffffffffffffffffffffffffffffffffff16815260200190815260200160002060003373ffffffffffffffffffffffffffffffffffffffff1673ffffffffffffffffffffffffffffffffffffffff168152602001908152602001600020549050600060ff82901c141561067357610672853361066d86604051806060016040528060288152602001611e7160289139866111439092919063ffffffff16565b610eae565b5b60019150509392505050565b600081565b600660009054906101000a900473ffffffffffffffffffffffffffffffffffffffff1681565b6000808211156106c8576106be8383611198565b6106c78261126d565b5b81905092915050565b60006106ed6106e8836106e3336106f4565b610e95565b610c3c565b9050919050565b60008060008373ffffffffffffffffffffffffffffffffffffffff1673ffffffffffffffffffffffffffffffffffffffff168152602001908152602001600020549050919050565b610744611324565b73ffffffffffffffffffffffffffffffffffffffff16610762610a0a565b73ffffffffffffffffffffffffffffffffffffffff16146107b8576040517f08c379a00000000000000000000000000000000000000000000000000000000081526004016107af90611ae2565b60405180910390fd5b600073ffffffffffffffffffffffffffffffffffffffff16600260009054906101000a900473ffffffffffffffffffffffffffffffffffffffff1673ffffffffffffffffffffffffffffffffffffffff167f8be0079c531659141344cd1fd0a4f28419497f9722a3daafe3b4186f6b6457e060405160405180910390a36000600260006101000a81548173ffffffffffffffffffffffffffffffffffffffff021916908373ffffffffffffffffffffffffffffffffffffffff160217905550565b610881611324565b73ffffffffffffffffffffffffffffffffffffffff1661089f610a0a565b73ffffffffffffffffffffffffffffffffffffffff16146108f5576040517f08c379a00000000000000000000000000000000000000000000000000000000081526004016108ec90611ae2565b60405180910390fd5b60008314156109035761097f565b6000610932836040518060600160405280602d8152602001611ebd602d9139866111439092919063ffffffff16565b905061093d8461132c565b6109478282611511565b600083111561097d5761097c600660009054906101000a900473ffffffffffffffffffffffffffffffffffffffff1684611511565b5b505b505050565b61098c611324565b73ffffffffffffffffffffffffffffffffffffffff166109aa610a0a565b73ffffffffffffffffffffffffffffffffffffffff1614610a00576040517f08c379a00000000000000000000000000000000000000000000000000000000081526004016109f790611ae2565b60405180910390fd5b8060058190555050565b6000600260009054906101000a900473ffffffffffffffffffffffffffffffffffffffff16905090565b6040518060400160405280600581526020017f724675656c00000000000000000000000000000000000000000000000000000081525081565b6000811415610a7b57610af1565b6000610aac6005546040518060600160405280602d8152602001611ebd602d9139846111439092919063ffffffff16565b9050610ab78261132c565b610ac13382611511565b610aef600660009054906101000a900473ffffffffffffffffffffffffffffffffffffffff16600554611511565b505b50565b60035481565b6000610b07338484610f99565b6001905092915050565b60008060ff60f81b30847f3c1644c68e5d6cb380c36d1bf847fdbc0c7ac28030025a2fc5e63cce23c1634860001b604051602001610b529493929190611a07565b6040516020818303038152906040528051906020012090508060601c915050919050565b610b7e611324565b73ffffffffffffffffffffffffffffffffffffffff16610b9c610a0a565b73ffffffffffffffffffffffffffffffffffffffff1614610bf2576040517f08c379a0000000000000000000000000000000000000000000000000000000008152600401610be990611ae2565b60405180910390fd5b80600660006101000a81548173ffffffffffffffffffffffffffffffffffffffff021916908373ffffffffffffffffffffffffffffffffffffffff16021790555050565b60045481565b600080821115610c5a57610c50338361160e565b610c598261126d565b5b819050919050565b6000600160008473ffffffffffffffffffffffffffffffffffffffff1673ffffffffffffffffffffffffffffffffffffffff16815260200190815260200160002060008373ffffffffffffffffffffffffffffffffffffffff1673ffffffffffffffffffffffffffffffffffffffff16815260200190815260200160002054905092915050565b610cf1611324565b73ffffffffffffffffffffffffffffffffffffffff16610d0f610a0a565b73ffffffffffffffffffffffffffffffffffffffff1614610d65576040517f08c379a0000000000000000000000000000000000000000000000000000000008152600401610d5c90611ae2565b60405180910390fd5b600073ffffffffffffffffffffffffffffffffffffffff168173ffffffffffffffffffffffffffffffffffffffff161415610dd5576040517f08c379a0000000000000000000000000000000000000000000000000000000008152600401610dcc90611ac2565b60405180910390fd5b8073ffffffffffffffffffffffffffffffffffffffff16600260009054906101000a900473ffffffffffffffffffffffffffffffffffffffff1673ffffffffffffffffffffffffffffffffffffffff167f8be0079c531659141344cd1fd0a4f28419497f9722a3daafe3b4186f6b6457e060405160405180910390a380600260006101000a81548173ffffffffffffffffffffffffffffffffffffffff021916908373ffffffffffffffffffffffffffffffffffffffff16021790555050565b6000818310610ea45781610ea6565b825b905092915050565b80600160008573ffffffffffffffffffffffffffffffffffffffff1673ffffffffffffffffffffffffffffffffffffffff16815260200190815260200160002060008473ffffffffffffffffffffffffffffffffffffffff1673ffffffffffffffffffffffffffffffffffffffff168152602001908152602001600020819055508173ffffffffffffffffffffffffffffffffffffffff168373ffffffffffffffffffffffffffffffffffffffff167f8c5be1e5ebec7d5bd14f71427d1e84f3dd0314c0f7b2291e5b200ac8c7c3b92583604051610f8c9190611b02565b60405180910390a3505050565b61100481604051806060016040528060268152602001611e4b602691396000808773ffffffffffffffffffffffffffffffffffffffff1673ffffffffffffffffffffffffffffffffffffffff168152602001908152602001600020546111439092919063ffffffff16565b6000808573ffffffffffffffffffffffffffffffffffffffff1673ffffffffffffffffffffffffffffffffffffffff16815260200190815260200160002081905550611097816000808573ffffffffffffffffffffffffffffffffffffffff1673ffffffffffffffffffffffffffffffffffffffff1681526020019081526020016000205461172590919063ffffffff16565b6000808473ffffffffffffffffffffffffffffffffffffffff1673ffffffffffffffffffffffffffffffffffffffff168152602001908152602001600020819055508173ffffffffffffffffffffffffffffffffffffffff168373ffffffffffffffffffffffffffffffffffffffff167fddf252ad1be2c89b69c2b068fc378daa952ba7f163c4a11628f55a4df523b3ef836040516111369190611b02565b60405180910390a3505050565b600083831115829061118b576040517f08c379a00000000000000000000000000000000000000000000000000000000081526004016111829190611aa0565b60405180910390fd5b5082840390509392505050565b6111a2828261160e565b6000600160008473ffffffffffffffffffffffffffffffffffffffff1673ffffffffffffffffffffffffffffffffffffffff16815260200190815260200160002060003373ffffffffffffffffffffffffffffffffffffffff1673ffffffffffffffffffffffffffffffffffffffff168152602001908152602001600020549050600060ff82901c141561126857611267833361126285604051806060016040528060248152602001611e9960249139866111439092919063ffffffff16565b610eae565b5b505050565b6000600454905060005b8281101561130d57611293818361128e9190611b5f565b610b11565b73ffffffffffffffffffffffffffffffffffffffff166040516112b590611a55565b6000604051808303816000865af19150503d80600081146112f2576040519150601f19603f3d011682016040523d82523d6000602084013e6112f7565b606091505b505050808061130590611ca7565b915050611277565b50818161131a9190611b5f565b6004819055505050565b600033905090565b600060035490507f746d4946c0e9f43f4dee607b0ef1fa1c3318585733ff6000526015600bf30000600052602082045b80156114d35760008201601e600080f55060018201601e600080f55060028201601e600080f55060038201601e600080f55060048201601e600080f55060058201601e600080f55060068201601e600080f55060078201601e600080f55060088201601e600080f55060098201601e600080f550600a8201601e600080f550600b8201601e600080f550600c8201601e600080f550600d8201601e600080f550600e8201601e600080f550600f8201601e600080f55060108201601e600080f55060118201601e600080f55060128201601e600080f55060138201601e600080f55060148201601e600080f55060158201601e600080f55060168201601e600080f55060178201601e600080f55060188201601e600080f55060198201601e600080f550601a8201601e600080f550601b8201601e600080f550601c8201601e600080f550601d8201601e600080f550601e8201601e600080f550601f8201601e600080f55060208201915060018103905061135c565b50601f82165b80156114f85781601e600080f5506001820191506001810390506114d9565b50806003546115079190611b5f565b6003819055505050565b611562816000808573ffffffffffffffffffffffffffffffffffffffff1673ffffffffffffffffffffffffffffffffffffffff1681526020019081526020016000205461172590919063ffffffff16565b6000808473ffffffffffffffffffffffffffffffffffffffff1673ffffffffffffffffffffffffffffffffffffffff168152602001908152602001600020819055508173ffffffffffffffffffffffffffffffffffffffff16600073ffffffffffffffffffffffffffffffffffffffff167fddf252ad1be2c89b69c2b068fc378daa952ba7f163c4a11628f55a4df523b3ef836040516116029190611b02565b60405180910390a35050565b61167981604051806060016040528060228152602001611e29602291396000808673ffffffffffffffffffffffffffffffffffffffff1673ffffffffffffffffffffffffffffffffffffffff168152602001908152602001600020546111439092919063ffffffff16565b6000808473ffffffffffffffffffffffffffffffffffffffff1673ffffffffffffffffffffffffffffffffffffffff16815260200190815260200160002081905550600073ffffffffffffffffffffffffffffffffffffffff168273ffffffffffffffffffffffffffffffffffffffff167fddf252ad1be2c89b69c2b068fc378daa952ba7f163c4a11628f55a4df523b3ef836040516117199190611b02565b60405180910390a35050565b600081836117339190611b5f565b905092915050565b60008135905061174a81611dfa565b92915050565b60008135905061175f81611e11565b92915050565b60006020828403121561177757600080fd5b60006117858482850161173b565b91505092915050565b600080604083850312156117a157600080fd5b60006117af8582860161173b565b92505060206117c08582860161173b565b9150509250929050565b6000806000606084860312156117df57600080fd5b60006117ed8682870161173b565b93505060206117fe8682870161173b565b925050604061180f86828701611750565b9150509250925092565b6000806040838503121561182c57600080fd5b600061183a8582860161173b565b925050602061184b85828601611750565b9150509250929050565b60006020828403121561186757600080fd5b600061187584828501611750565b91505092915050565b60008060006060848603121561189357600080fd5b60006118a186828701611750565b93505060206118b286828701611750565b92505060406118c38682870161173b565b9150509250925092565b6118d681611be9565b82525050565b6118ed6118e882611be9565b611cf0565b82525050565b6118fc81611bfb565b82525050565b61191361190e82611c07565b611d02565b82525050565b61192a61192582611c33565b611d0c565b82525050565b600061193b82611b38565b6119458185611b4e565b9350611955818560208601611c74565b61195e81611d61565b840191505092915050565b6000611976602683611b4e565b915061198182611d7f565b604082019050919050565b6000611999602083611b4e565b91506119a482611dce565b602082019050919050565b60006119bc600083611b43565b91506119c782611df7565b600082019050919050565b6119db81611c5d565b82525050565b6119f26119ed82611c5d565b611d28565b82525050565b611a0181611c67565b82525050565b6000611a138287611902565b600182019150611a2382866118dc565b601482019150611a3382856119e1565b602082019150611a438284611919565b60208201915081905095945050505050565b6000611a60826119af565b9150819050919050565b6000602082019050611a7f60008301846118cd565b92915050565b6000602082019050611a9a60008301846118f3565b92915050565b60006020820190508181036000830152611aba8184611930565b905092915050565b60006020820190508181036000830152611adb81611969565b9050919050565b60006020820190508181036000830152611afb8161198c565b9050919050565b6000602082019050611b1760008301846119d2565b92915050565b6000602082019050611b3260008301846119f8565b92915050565b600081519050919050565b600081905092915050565b600082825260208201905092915050565b6000611b6a82611c5d565b9150611b7583611c5d565b9250827fffffffffffffffffffffffffffffffffffffffffffffffffffffffffffffffff03821115611baa57611ba9611d32565b5b828201905092915050565b6000611bc082611c5d565b9150611bcb83611c5d565b925082821015611bde57611bdd611d32565b5b828203905092915050565b6000611bf482611c3d565b9050919050565b60008115159050919050565b60007fff0000000000000000000000000000000000000000000000000000000000000082169050919050565b6000819050919050565b600073ffffffffffffffffffffffffffffffffffffffff82169050919050565b6000819050919050565b600060ff82169050919050565b60005b83811015611c92578082015181840152602081019050611c77565b83811115611ca1576000848401525b50505050565b6000611cb282611c5d565b91507fffffffffffffffffffffffffffffffffffffffffffffffffffffffffffffffff821415611ce557611ce4611d32565b5b600182019050919050565b6000611cfb82611d16565b9050919050565b6000819050919050565b6000819050919050565b6000611d2182611d72565b9050919050565b6000819050919050565b7f4e487b7100000000000000000000000000000000000000000000000000000000600052601160045260246000fd5b6000601f19601f8301169050919050565b60008160601b9050919050565b7f4f776e61626c653a206e6577206f776e657220697320746865207a65726f206160008201527f6464726573730000000000000000000000000000000000000000000000000000602082015250565b7f4f776e61626c653a2063616c6c6572206973206e6f7420746865206f776e6572600082015250565b50565b611e0381611be9565b8114611e0e57600080fd5b50565b611e1a81611c5d565b8114611e2557600080fd5b5056fe45524332303a206275726e20616d6f756e7420657863656564732062616c616e636545524332303a207472616e7366657220616d6f756e7420657863656564732062616c616e636545524332303a207472616e7366657220616d6f756e74206578636565647320616c6c6f77616e636545524332303a206275726e20616d6f756e74206578636565647320616c6c6f77616e636553473a204d696e7465642056616c7565206d757374206265206c6172676572207468616e206261736520666565a2646970667358221220d58decb83591137dc53adad6ae92f4da12287b9981c04d2e8e2bfce132a7d46264736f6c63430008040033",
  "immutableReferences": {},
  "source": "// SPDX-License-Identifier: MIT\r\npragma solidity ^0.8.0;\r\n\r\nimport \"@openzeppelin/contracts/utils/math/Math.sol\";\r\nimport \"@openzeppelin/contracts/utils/math/SafeMath.sol\";\r\nimport \"@openzeppelin/contracts/token/ERC20/IERC20.sol\";\r\nimport \"@openzeppelin/contracts/access/Ownable.sol\";\r\nimport './ERC20WithoutTotalSupply.sol';\r\nimport \"./IGSVEToken.sol\";\r\n\r\ncontract RocketFuel is IERC20, ERC20WithoutTotalSupply, Ownable, IGSVEToken{\r\n    using SafeMath for uint256;\r\n\r\n    //SG2 is based on CHI token. Difference is inbuilt fee on minting.\r\n    string constant public name = \"Rocket Fuel by GasSwap.finance\";\r\n    string constant public symbol = \"rFuel\";\r\n    uint8 constant public decimals = 0;\r\n\r\n    uint256 public totalMinted;\r\n    uint256 public totalBurned;\r\n\r\n    //Introduce a fee that is taken on mint/burn\r\n    uint256 public SGMintFee = 2;\r\n\r\n    //Add address for where fees will be added to. Eventually this can be a contract that GasSwap Holders can redeem siphoned gas from.\r\n    address public feeAddress;\r\n\r\n    // Set the fee address as the deployer for now. Eventually this will migrate to GasSwap Bank Contract\r\n    constructor() {\r\n        feeAddress = msg.sender;\r\n    }\r\n\r\n    function totalSupply() public view override returns(uint256) {\r\n        return totalMinted - totalBurned;\r\n    }\r\n\r\n    function _storeGas(uint256 value) internal{\r\n        uint256 offset = totalMinted;\r\n        assembly {\r\n            //replace 0's in 4946c0e9F43F4Dee607b0eF1fA1c in address with one found with profanity.\r\n            mstore(0, 0x746d4946c0e9F43F4Dee607b0eF1fA1c3318585733ff6000526015600bf30000)\r\n\r\n            for {let i := div(value, 32)} i {i := sub(i, 1)} {\r\n                pop(create2(0, 0, 30, add(offset, 0))) pop(create2(0, 0, 30, add(offset, 1)))\r\n                pop(create2(0, 0, 30, add(offset, 2))) pop(create2(0, 0, 30, add(offset, 3)))\r\n                pop(create2(0, 0, 30, add(offset, 4))) pop(create2(0, 0, 30, add(offset, 5)))\r\n                pop(create2(0, 0, 30, add(offset, 6))) pop(create2(0, 0, 30, add(offset, 7)))\r\n                pop(create2(0, 0, 30, add(offset, 8))) pop(create2(0, 0, 30, add(offset, 9)))\r\n                pop(create2(0, 0, 30, add(offset, 10))) pop(create2(0, 0, 30, add(offset, 11)))\r\n                pop(create2(0, 0, 30, add(offset, 12))) pop(create2(0, 0, 30, add(offset, 13)))\r\n                pop(create2(0, 0, 30, add(offset, 14))) pop(create2(0, 0, 30, add(offset, 15)))\r\n                pop(create2(0, 0, 30, add(offset, 16))) pop(create2(0, 0, 30, add(offset, 17)))\r\n                pop(create2(0, 0, 30, add(offset, 18))) pop(create2(0, 0, 30, add(offset, 19)))\r\n                pop(create2(0, 0, 30, add(offset, 20))) pop(create2(0, 0, 30, add(offset, 21)))\r\n                pop(create2(0, 0, 30, add(offset, 22))) pop(create2(0, 0, 30, add(offset, 23)))\r\n                pop(create2(0, 0, 30, add(offset, 24))) pop(create2(0, 0, 30, add(offset, 25)))\r\n                pop(create2(0, 0, 30, add(offset, 26))) pop(create2(0, 0, 30, add(offset, 27)))\r\n                pop(create2(0, 0, 30, add(offset, 28))) pop(create2(0, 0, 30, add(offset, 29)))\r\n                pop(create2(0, 0, 30, add(offset, 30))) pop(create2(0, 0, 30, add(offset, 31)))\r\n                offset := add(offset, 32)\r\n            }\r\n\r\n            for {let i := and(value, 0x1F)} i {i := sub(i, 1)} {\r\n                pop(create2(0, 0, 30, offset))\r\n                offset := add(offset, 1)\r\n            }\r\n        }\r\n        totalMinted = totalMinted + offset;\r\n    }\r\n\r\n    function mint(uint256 value) public override {\r\n        if(value == 0){\r\n            return;\r\n        }\r\n        uint256 valueAfterFee =  value.sub(SGMintFee, \"SG: Minted Value must be larger than base fee\");\r\n        _storeGas(value);\r\n        _mint(msg.sender, valueAfterFee);\r\n        _mint(feeAddress, SGMintFee);\r\n        \r\n    }\r\n\r\n    function discountedMint(uint256 value, uint256 discountedFee, address recipient) public override onlyOwner {\r\n        if(value == 0){\r\n            return;\r\n        }\r\n        uint256 valueAfterFee = value.sub(discountedFee, \"SG: Minted Value must be larger than base fee\");\r\n        _storeGas(value);\r\n        _mint(recipient, valueAfterFee);\r\n        if(discountedFee > 0){ \r\n            _mint(feeAddress, discountedFee);\r\n        }\r\n    }\r\n\r\n    function computeAddress2(uint256 salt) public view returns (address) {\r\n        bytes32 _data = keccak256(\r\n            abi.encodePacked(bytes1(0xff), address(this), salt, bytes32(0x3c1644c68e5d6cb380c36d1bf847fdbc0c7ac28030025a2fc5e63cce23c16348))\r\n        );\r\n        return address(uint160(bytes20(_data)));\r\n    }\r\n\r\n    function _destroyChildren(uint256 value) internal {\r\n        uint256 _totalBurned = totalBurned;\r\n        for (uint256 i = 0; i < value; i++) {\r\n            computeAddress2(_totalBurned + i).call(\"\");\r\n        }\r\n        totalBurned = _totalBurned + value;\r\n    }\r\n\r\n    function free(uint256 value) public override returns (uint256)  {\r\n        if (value > 0) {\r\n            _burn(msg.sender, value);\r\n            _destroyChildren(value);\r\n        }\r\n        return value;\r\n    }\r\n\r\n    function freeUpTo(uint256 value) public override returns (uint256) {\r\n        return free(Math.min(value, balanceOf(msg.sender)));\r\n    }\r\n\r\n    function freeFrom(address from, uint256 value) public override returns (uint256) {\r\n        if (value > 0) {\r\n            _burnFrom(from, value);\r\n            _destroyChildren(value);\r\n        }\r\n        return value;\r\n    }\r\n\r\n    function freeFromUpTo(address from, uint256 value) public override returns (uint256) {\r\n        return freeFrom(from, Math.min(Math.min(value, balanceOf(from)), allowance(from, msg.sender)));\r\n    }\r\n\r\n    //Add function for Gas Swap that proposers can use to adjust mint fee.\r\n    function updateMintFee(uint256 newMintFee) public override onlyOwner {\r\n        SGMintFee = newMintFee;\r\n    }\r\n\r\n    //Add function that will allow eventual transfer to Gas Swap after initial setup phase\r\n    function updateFeeAddress(address newFeeAddress) public override onlyOwner {\r\n        feeAddress = newFeeAddress;\r\n    }\r\n    \r\n}\r\n",
  "sourcePath": "C:/Users/khera/Documents/GitHub/GasSwapTokens/contracts/RocketFuel.sol",
  "compiler": {
    "name": "solc",
    "version": "0.8.4+commit.c7e474f2.Emscripten.clang"
  },
  "schemaVersion": "3.3.4",
  "updatedAt": "2021-05-03T08:26:53.481Z",
  "devdoc": {
    "kind": "dev",
    "methods": {
      "allowance(address,address)": {
        "details": "Returns the remaining number of tokens that `spender` will be allowed to spend on behalf of `owner` through {transferFrom}. This is zero by default. This value changes when {approve} or {transferFrom} are called."
      },
      "approve(address,uint256)": {
        "details": "Sets `amount` as the allowance of `spender` over the caller's tokens. Returns a boolean value indicating whether the operation succeeded. IMPORTANT: Beware that changing an allowance with this method brings the risk that someone may use both the old and the new allowance by unfortunate transaction ordering. One possible solution to mitigate this race condition is to first reduce the spender's allowance to 0 and set the desired value afterwards: https://github.com/ethereum/EIPs/issues/20#issuecomment-263524729 Emits an {Approval} event."
      },
      "balanceOf(address)": {
        "details": "Returns the amount of tokens owned by `account`."
      },
      "free(uint256)": {
        "details": "return number of tokens freed up."
      },
      "freeFrom(address,uint256)": {
        "details": "return number of tokens freed up."
      },
      "freeFromUpTo(address,uint256)": {
        "details": "return number of tokens freed up."
      },
      "freeUpTo(uint256)": {
        "details": "return number of tokens freed up."
      },
      "mint(uint256)": {
        "details": "mints new tokens."
      },
      "owner()": {
        "details": "Returns the address of the current owner."
      },
      "renounceOwnership()": {
        "details": "Leaves the contract without owner. It will not be possible to call `onlyOwner` functions anymore. Can only be called by the current owner. NOTE: Renouncing ownership will leave the contract without an owner, thereby removing any functionality that is only available to the owner."
      },
      "totalSupply()": {
        "details": "Returns the amount of tokens in existence."
      },
      "transfer(address,uint256)": {
        "details": "Moves `amount` tokens from the caller's account to `recipient`. Returns a boolean value indicating whether the operation succeeded. Emits a {Transfer} event."
      },
      "transferFrom(address,address,uint256)": {
        "details": "Moves `amount` tokens from `sender` to `recipient` using the allowance mechanism. `amount` is then deducted from the caller's allowance. Returns a boolean value indicating whether the operation succeeded. Emits a {Transfer} event."
      },
      "transferOwnership(address)": {
        "details": "Transfers ownership of the contract to a new account (`newOwner`). Can only be called by the current owner."
      },
      "updateFeeAddress(address)": {
        "details": "updates fee address of this contract."
      },
      "updateMintFee(uint256)": {
        "details": "updates number of minted tokens siphoned to Gas Swap holders."
      }
    },
    "version": 1
  },
  "userdoc": {
    "kind": "user",
    "methods": {},
    "version": 1
  }
}