{
  "contractName": "SG3Token",
  "abi": [
    {
      "inputs": [],
      "stateMutability": "nonpayable",
      "type": "constructor"
    },
    {
      "anonymous": false,
      "inputs": [
        {
          "indexed": true,
          "internalType": "address",
          "name": "owner",
          "type": "address"
        },
        {
          "indexed": true,
          "internalType": "address",
          "name": "spender",
          "type": "address"
        },
        {
          "indexed": false,
          "internalType": "uint256",
          "name": "value",
          "type": "uint256"
        }
      ],
      "name": "Approval",
      "type": "event"
    },
    {
      "anonymous": false,
      "inputs": [
        {
          "indexed": true,
          "internalType": "address",
          "name": "previousOwner",
          "type": "address"
        },
        {
          "indexed": true,
          "internalType": "address",
          "name": "newOwner",
          "type": "address"
        }
      ],
      "name": "OwnershipTransferred",
      "type": "event"
    },
    {
      "anonymous": false,
      "inputs": [
        {
          "indexed": true,
          "internalType": "address",
          "name": "from",
          "type": "address"
        },
        {
          "indexed": true,
          "internalType": "address",
          "name": "to",
          "type": "address"
        },
        {
          "indexed": false,
          "internalType": "uint256",
          "name": "value",
          "type": "uint256"
        }
      ],
      "name": "Transfer",
      "type": "event"
    },
    {
      "inputs": [],
      "name": "SGBurnFee",
      "outputs": [
        {
          "internalType": "uint256",
          "name": "",
          "type": "uint256"
        }
      ],
      "stateMutability": "view",
      "type": "function",
      "constant": true
    },
    {
      "inputs": [],
      "name": "SGMintFee",
      "outputs": [
        {
          "internalType": "uint256",
          "name": "",
          "type": "uint256"
        }
      ],
      "stateMutability": "view",
      "type": "function",
      "constant": true
    },
    {
      "inputs": [
        {
          "internalType": "address",
          "name": "owner",
          "type": "address"
        },
        {
          "internalType": "address",
          "name": "spender",
          "type": "address"
        }
      ],
      "name": "allowance",
      "outputs": [
        {
          "internalType": "uint256",
          "name": "",
          "type": "uint256"
        }
      ],
      "stateMutability": "view",
      "type": "function",
      "constant": true
    },
    {
      "inputs": [
        {
          "internalType": "address",
          "name": "spender",
          "type": "address"
        },
        {
          "internalType": "uint256",
          "name": "amount",
          "type": "uint256"
        }
      ],
      "name": "approve",
      "outputs": [
        {
          "internalType": "bool",
          "name": "",
          "type": "bool"
        }
      ],
      "stateMutability": "nonpayable",
      "type": "function"
    },
    {
      "inputs": [
        {
          "internalType": "address",
          "name": "account",
          "type": "address"
        }
      ],
      "name": "balanceOf",
      "outputs": [
        {
          "internalType": "uint256",
          "name": "",
          "type": "uint256"
        }
      ],
      "stateMutability": "view",
      "type": "function",
      "constant": true
    },
    {
      "inputs": [],
      "name": "decimals",
      "outputs": [
        {
          "internalType": "uint8",
          "name": "",
          "type": "uint8"
        }
      ],
      "stateMutability": "view",
      "type": "function",
      "constant": true
    },
    {
      "inputs": [],
      "name": "feeAddress",
      "outputs": [
        {
          "internalType": "address",
          "name": "",
          "type": "address"
        }
      ],
      "stateMutability": "view",
      "type": "function",
      "constant": true
    },
    {
      "inputs": [],
      "name": "name",
      "outputs": [
        {
          "internalType": "string",
          "name": "",
          "type": "string"
        }
      ],
      "stateMutability": "view",
      "type": "function",
      "constant": true
    },
    {
      "inputs": [],
      "name": "owner",
      "outputs": [
        {
          "internalType": "address",
          "name": "",
          "type": "address"
        }
      ],
      "stateMutability": "view",
      "type": "function",
      "constant": true
    },
    {
      "inputs": [],
      "name": "renounceOwnership",
      "outputs": [],
      "stateMutability": "nonpayable",
      "type": "function"
    },
    {
      "inputs": [],
      "name": "symbol",
      "outputs": [
        {
          "internalType": "string",
          "name": "",
          "type": "string"
        }
      ],
      "stateMutability": "view",
      "type": "function",
      "constant": true
    },
    {
      "inputs": [],
      "name": "totalBurned",
      "outputs": [
        {
          "internalType": "uint256",
          "name": "",
          "type": "uint256"
        }
      ],
      "stateMutability": "view",
      "type": "function",
      "constant": true
    },
    {
      "inputs": [],
      "name": "totalMinted",
      "outputs": [
        {
          "internalType": "uint256",
          "name": "",
          "type": "uint256"
        }
      ],
      "stateMutability": "view",
      "type": "function",
      "constant": true
    },
    {
      "inputs": [
        {
          "internalType": "address",
          "name": "recipient",
          "type": "address"
        },
        {
          "internalType": "uint256",
          "name": "amount",
          "type": "uint256"
        }
      ],
      "name": "transfer",
      "outputs": [
        {
          "internalType": "bool",
          "name": "",
          "type": "bool"
        }
      ],
      "stateMutability": "nonpayable",
      "type": "function"
    },
    {
      "inputs": [
        {
          "internalType": "address",
          "name": "sender",
          "type": "address"
        },
        {
          "internalType": "address",
          "name": "recipient",
          "type": "address"
        },
        {
          "internalType": "uint256",
          "name": "amount",
          "type": "uint256"
        }
      ],
      "name": "transferFrom",
      "outputs": [
        {
          "internalType": "bool",
          "name": "",
          "type": "bool"
        }
      ],
      "stateMutability": "nonpayable",
      "type": "function"
    },
    {
      "inputs": [
        {
          "internalType": "address",
          "name": "newOwner",
          "type": "address"
        }
      ],
      "name": "transferOwnership",
      "outputs": [],
      "stateMutability": "nonpayable",
      "type": "function"
    },
    {
      "inputs": [],
      "name": "totalSupply",
      "outputs": [
        {
          "internalType": "uint256",
          "name": "",
          "type": "uint256"
        }
      ],
      "stateMutability": "view",
      "type": "function",
      "constant": true
    },
    {
      "inputs": [
        {
          "internalType": "uint256",
          "name": "value",
          "type": "uint256"
        }
      ],
      "name": "mint",
      "outputs": [],
      "stateMutability": "nonpayable",
      "type": "function"
    },
    {
      "inputs": [
        {
          "internalType": "uint256",
          "name": "salt",
          "type": "uint256"
        }
      ],
      "name": "computeAddress2",
      "outputs": [
        {
          "internalType": "address",
          "name": "",
          "type": "address"
        }
      ],
      "stateMutability": "view",
      "type": "function",
      "constant": true
    },
    {
      "inputs": [
        {
          "internalType": "uint256",
          "name": "value",
          "type": "uint256"
        }
      ],
      "name": "free",
      "outputs": [
        {
          "internalType": "uint256",
          "name": "",
          "type": "uint256"
        }
      ],
      "stateMutability": "nonpayable",
      "type": "function"
    },
    {
      "inputs": [
        {
          "internalType": "uint256",
          "name": "value",
          "type": "uint256"
        }
      ],
      "name": "freeUpTo",
      "outputs": [
        {
          "internalType": "uint256",
          "name": "",
          "type": "uint256"
        }
      ],
      "stateMutability": "nonpayable",
      "type": "function"
    },
    {
      "inputs": [
        {
          "internalType": "address",
          "name": "from",
          "type": "address"
        },
        {
          "internalType": "uint256",
          "name": "value",
          "type": "uint256"
        }
      ],
      "name": "freeFrom",
      "outputs": [
        {
          "internalType": "uint256",
          "name": "",
          "type": "uint256"
        }
      ],
      "stateMutability": "nonpayable",
      "type": "function"
    },
    {
      "inputs": [
        {
          "internalType": "address",
          "name": "from",
          "type": "address"
        },
        {
          "internalType": "uint256",
          "name": "value",
          "type": "uint256"
        }
      ],
      "name": "freeFromUpTo",
      "outputs": [
        {
          "internalType": "uint256",
          "name": "",
          "type": "uint256"
        }
      ],
      "stateMutability": "nonpayable",
      "type": "function"
    },
    {
      "inputs": [
        {
          "internalType": "uint256",
          "name": "newBurnFee",
          "type": "uint256"
        }
      ],
      "name": "updateBurnFee",
      "outputs": [],
      "stateMutability": "nonpayable",
      "type": "function"
    },
    {
      "inputs": [
        {
          "internalType": "uint256",
          "name": "newMintFee",
          "type": "uint256"
        }
      ],
      "name": "updateMintFee",
      "outputs": [],
      "stateMutability": "nonpayable",
      "type": "function"
    },
    {
      "inputs": [
        {
          "internalType": "address",
          "name": "newFeeAddress",
          "type": "address"
        }
      ],
      "name": "updateFeeAddress",
      "outputs": [],
      "stateMutability": "nonpayable",
      "type": "function"
    }
  ],
  "bytecode": "0x60806040526001600555600160065534801561001a57600080fd5b50600061002b61011060201b60201c565b905080600260006101000a81548173ffffffffffffffffffffffffffffffffffffffff021916908373ffffffffffffffffffffffffffffffffffffffff1602179055508073ffffffffffffffffffffffffffffffffffffffff16600073ffffffffffffffffffffffffffffffffffffffff167f8be0079c531659141344cd1fd0a4f28419497f9722a3daafe3b4186f6b6457e060405160405180910390a35033600760006101000a81548173ffffffffffffffffffffffffffffffffffffffff021916908373ffffffffffffffffffffffffffffffffffffffff160217905550610118565b600033905090565b611f4b806101276000396000f3fe608060405234801561001057600080fd5b506004361061018e5760003560e01c806371e36753116100de578063a9059cbb11610097578063d89135cd11610071578063d89135cd1461049b578063d8ccd0f3146104b9578063dd62ed3e146104e9578063f2fde38b146105195761018e565b8063a9059cbb1461041f578063b0ac19a01461044f578063bbcaac381461047f5761018e565b806371e367531461037157806384017e521461038d5780638da5cb5b146103a957806395d89b41146103c7578063a0712d68146103e5578063a2309ff8146104015761018e565b8063313ce5671161014b5780636366b936116101255780636366b936146102e957806367b923ba1461031957806370a0823114610337578063715018a6146103675761018e565b8063313ce5671461027d578063412753581461029b5780635f2e2b45146102b95761018e565b806306fdde0314610193578063079d229f146101b1578063095ea7b3146101e157806318160ddd146102115780631f5a2a151461022f57806323b872dd1461024d575b600080fd5b61019b610535565b6040516101a89190611aaa565b60405180910390f35b6101cb60048036038101906101c69190611872565b61056e565b6040516101d89190611b0c565b60405180910390f35b6101fb60048036038101906101f69190611872565b6105a5565b6040516102089190611a8f565b60405180910390f35b6102196105bc565b6040516102269190611b0c565b60405180910390f35b6102376105d3565b6040516102449190611b0c565b60405180910390f35b61026760048036038101906102629190611823565b6105d9565b6040516102749190611a8f565b60405180910390f35b6102856106b8565b6040516102929190611b27565b60405180910390f35b6102a36106bd565b6040516102b09190611a74565b60405180910390f35b6102d360048036038101906102ce9190611872565b6106e3565b6040516102e09190611b0c565b60405180910390f35b61030360048036038101906102fe91906118ae565b61076e565b6040516103109190611b0c565b60405180910390f35b610321610791565b60405161032e9190611b0c565b60405180910390f35b610351600480360381019061034c91906117be565b610797565b60405161035e9190611b0c565b60405180910390f35b61036f6107df565b005b61038b600480360381019061038691906118ae565b61091c565b005b6103a760048036038101906103a291906118ae565b6109a2565b005b6103b1610a28565b6040516103be9190611a74565b60405180910390f35b6103cf610a52565b6040516103dc9190611aaa565b60405180910390f35b6103ff60048036038101906103fa91906118ae565b610a8b565b005b610409610ccf565b6040516104169190611b0c565b60405180910390f35b61043960048036038101906104349190611872565b610cd5565b6040516104469190611a8f565b60405180910390f35b610469600480360381019061046491906118ae565b610cec565b6040516104769190611a74565b60405180910390f35b610499600480360381019061049491906117be565b610d51565b005b6104a3610e11565b6040516104b09190611b0c565b60405180910390f35b6104d360048036038101906104ce91906118ae565b610e17565b6040516104e09190611b0c565b60405180910390f35b61050360048036038101906104fe91906117e7565b610ea0565b6040516105109190611b0c565b60405180910390f35b610533600480360381019061052e91906117be565b610f27565b005b6040518060400160405280602081526020017f53746f7265642047617320763320627920476173537761702e66696e616e636581525081565b600061059d836105986105898561058488610797565b6110d3565b6105938733610ea0565b6110d3565b6106e3565b905092915050565b60006105b23384846110ec565b6001905092915050565b60006004546003546105ce9190611bbf565b905090565b60055481565b60006105e68484846111d7565b6000600160008673ffffffffffffffffffffffffffffffffffffffff1673ffffffffffffffffffffffffffffffffffffffff16815260200190815260200160002060003373ffffffffffffffffffffffffffffffffffffffff1673ffffffffffffffffffffffffffffffffffffffff168152602001908152602001600020549050600060ff82901c14156106ac576106ab85336106a686604051806060016040528060288152602001611e9d60289139866113819092919063ffffffff16565b6110ec565b5b60019150509392505050565b600081565b600760009054906101000a900473ffffffffffffffffffffffffffffffffffffffff1681565b600080610715600654604051806060016040528060228152602001611e3360229139856113819092919063ffffffff16565b905060008311156107645761072a84826113d6565b610733816114ab565b61076284600760009054906101000a900473ffffffffffffffffffffffffffffffffffffffff166006546105d9565b505b8291505092915050565b600061078a6107858361078033610797565b6110d3565b610e17565b9050919050565b60065481565b60008060008373ffffffffffffffffffffffffffffffffffffffff1673ffffffffffffffffffffffffffffffffffffffff168152602001908152602001600020549050919050565b6107e7611562565b73ffffffffffffffffffffffffffffffffffffffff16610805610a28565b73ffffffffffffffffffffffffffffffffffffffff161461085b576040517f08c379a000000000000000000000000000000000000000000000000000000000815260040161085290611aec565b60405180910390fd5b600073ffffffffffffffffffffffffffffffffffffffff16600260009054906101000a900473ffffffffffffffffffffffffffffffffffffffff1673ffffffffffffffffffffffffffffffffffffffff167f8be0079c531659141344cd1fd0a4f28419497f9722a3daafe3b4186f6b6457e060405160405180910390a36000600260006101000a81548173ffffffffffffffffffffffffffffffffffffffff021916908373ffffffffffffffffffffffffffffffffffffffff160217905550565b610924611562565b73ffffffffffffffffffffffffffffffffffffffff16610942610a28565b73ffffffffffffffffffffffffffffffffffffffff1614610998576040517f08c379a000000000000000000000000000000000000000000000000000000000815260040161098f90611aec565b60405180910390fd5b8060068190555050565b6109aa611562565b73ffffffffffffffffffffffffffffffffffffffff166109c8610a28565b73ffffffffffffffffffffffffffffffffffffffff1614610a1e576040517f08c379a0000000000000000000000000000000000000000000000000000000008152600401610a1590611aec565b60405180910390fd5b8060058190555050565b6000600260009054906101000a900473ffffffffffffffffffffffffffffffffffffffff16905090565b6040518060400160405280600381526020017f534733000000000000000000000000000000000000000000000000000000000081525081565b600060035490507f746d4946c0e9f43f4dee607b0ef1fa1c3318585733ff6000526015600bf30000600052602082045b8015610c325760008201601e600080f55060018201601e600080f55060028201601e600080f55060038201601e600080f55060048201601e600080f55060058201601e600080f55060068201601e600080f55060078201601e600080f55060088201601e600080f55060098201601e600080f550600a8201601e600080f550600b8201601e600080f550600c8201601e600080f550600d8201601e600080f550600e8201601e600080f550600f8201601e600080f55060108201601e600080f55060118201601e600080f55060128201601e600080f55060138201601e600080f55060148201601e600080f55060158201601e600080f55060168201601e600080f55060178201601e600080f55060188201601e600080f55060198201601e600080f550601a8201601e600080f550601b8201601e600080f550601c8201601e600080f550601d8201601e600080f550601e8201601e600080f550601f8201601e600080f550602082019150600181039050610abb565b50601f82165b8015610c575781601e600080f550600182019150600181039050610c38565b506000610c896005546040518060600160405280602d8152602001611ee9602d9139856113819092919063ffffffff16565b9050610c95338261156a565b610cc3600760009054906101000a900473ffffffffffffffffffffffffffffffffffffffff1660055461156a565b81600381905550505050565b60035481565b6000610ce23384846111d7565b6001905092915050565b60008060ff60f81b30847f3c1644c68e5d6cb380c36d1bf847fdbc0c7ac28030025a2fc5e63cce23c1634860001b604051602001610d2d9493929190611a11565b6040516020818303038152906040528051906020012090508060601c915050919050565b610d59611562565b73ffffffffffffffffffffffffffffffffffffffff16610d77610a28565b73ffffffffffffffffffffffffffffffffffffffff1614610dcd576040517f08c379a0000000000000000000000000000000000000000000000000000000008152600401610dc490611aec565b60405180910390fd5b80600760006101000a81548173ffffffffffffffffffffffffffffffffffffffff021916908373ffffffffffffffffffffffffffffffffffffffff16021790555050565b60045481565b600080610e49600654604051806060016040528060228152602001611e3360229139856113819092919063ffffffff16565b90506000831115610e9757610e5e3382611667565b610e67836114ab565b610e9633600760009054906101000a900473ffffffffffffffffffffffffffffffffffffffff166006546111d7565b5b82915050919050565b6000600160008473ffffffffffffffffffffffffffffffffffffffff1673ffffffffffffffffffffffffffffffffffffffff16815260200190815260200160002060008373ffffffffffffffffffffffffffffffffffffffff1673ffffffffffffffffffffffffffffffffffffffff16815260200190815260200160002054905092915050565b610f2f611562565b73ffffffffffffffffffffffffffffffffffffffff16610f4d610a28565b73ffffffffffffffffffffffffffffffffffffffff1614610fa3576040517f08c379a0000000000000000000000000000000000000000000000000000000008152600401610f9a90611aec565b60405180910390fd5b600073ffffffffffffffffffffffffffffffffffffffff168173ffffffffffffffffffffffffffffffffffffffff161415611013576040517f08c379a000000000000000000000000000000000000000000000000000000000815260040161100a90611acc565b60405180910390fd5b8073ffffffffffffffffffffffffffffffffffffffff16600260009054906101000a900473ffffffffffffffffffffffffffffffffffffffff1673ffffffffffffffffffffffffffffffffffffffff167f8be0079c531659141344cd1fd0a4f28419497f9722a3daafe3b4186f6b6457e060405160405180910390a380600260006101000a81548173ffffffffffffffffffffffffffffffffffffffff021916908373ffffffffffffffffffffffffffffffffffffffff16021790555050565b60008183106110e257816110e4565b825b905092915050565b80600160008573ffffffffffffffffffffffffffffffffffffffff1673ffffffffffffffffffffffffffffffffffffffff16815260200190815260200160002060008473ffffffffffffffffffffffffffffffffffffffff1673ffffffffffffffffffffffffffffffffffffffff168152602001908152602001600020819055508173ffffffffffffffffffffffffffffffffffffffff168373ffffffffffffffffffffffffffffffffffffffff167f8c5be1e5ebec7d5bd14f71427d1e84f3dd0314c0f7b2291e5b200ac8c7c3b925836040516111ca9190611b0c565b60405180910390a3505050565b61124281604051806060016040528060268152602001611e77602691396000808773ffffffffffffffffffffffffffffffffffffffff1673ffffffffffffffffffffffffffffffffffffffff168152602001908152602001600020546113819092919063ffffffff16565b6000808573ffffffffffffffffffffffffffffffffffffffff1673ffffffffffffffffffffffffffffffffffffffff168152602001908152602001600020819055506112d5816000808573ffffffffffffffffffffffffffffffffffffffff1673ffffffffffffffffffffffffffffffffffffffff1681526020019081526020016000205461177e90919063ffffffff16565b6000808473ffffffffffffffffffffffffffffffffffffffff1673ffffffffffffffffffffffffffffffffffffffff168152602001908152602001600020819055508173ffffffffffffffffffffffffffffffffffffffff168373ffffffffffffffffffffffffffffffffffffffff167fddf252ad1be2c89b69c2b068fc378daa952ba7f163c4a11628f55a4df523b3ef836040516113749190611b0c565b60405180910390a3505050565b60008383111582906113c9576040517f08c379a00000000000000000000000000000000000000000000000000000000081526004016113c09190611aaa565b60405180910390fd5b5082840390509392505050565b6113e08282611667565b6000600160008473ffffffffffffffffffffffffffffffffffffffff1673ffffffffffffffffffffffffffffffffffffffff16815260200190815260200160002060003373ffffffffffffffffffffffffffffffffffffffff1673ffffffffffffffffffffffffffffffffffffffff168152602001908152602001600020549050600060ff82901c14156114a6576114a583336114a085604051806060016040528060248152602001611ec560249139866113819092919063ffffffff16565b6110ec565b5b505050565b6000600454905060005b8281101561154b576114d181836114cc9190611b69565b610cec565b73ffffffffffffffffffffffffffffffffffffffff166040516114f390611a5f565b6000604051808303816000865af19150503d8060008114611530576040519150601f19603f3d011682016040523d82523d6000602084013e611535565b606091505b505050808061154390611cb1565b9150506114b5565b5081816115589190611b69565b6004819055505050565b600033905090565b6115bb816000808573ffffffffffffffffffffffffffffffffffffffff1673ffffffffffffffffffffffffffffffffffffffff1681526020019081526020016000205461177e90919063ffffffff16565b6000808473ffffffffffffffffffffffffffffffffffffffff1673ffffffffffffffffffffffffffffffffffffffff168152602001908152602001600020819055508173ffffffffffffffffffffffffffffffffffffffff16600073ffffffffffffffffffffffffffffffffffffffff167fddf252ad1be2c89b69c2b068fc378daa952ba7f163c4a11628f55a4df523b3ef8360405161165b9190611b0c565b60405180910390a35050565b6116d281604051806060016040528060228152602001611e55602291396000808673ffffffffffffffffffffffffffffffffffffffff1673ffffffffffffffffffffffffffffffffffffffff168152602001908152602001600020546113819092919063ffffffff16565b6000808473ffffffffffffffffffffffffffffffffffffffff1673ffffffffffffffffffffffffffffffffffffffff16815260200190815260200160002081905550600073ffffffffffffffffffffffffffffffffffffffff168273ffffffffffffffffffffffffffffffffffffffff167fddf252ad1be2c89b69c2b068fc378daa952ba7f163c4a11628f55a4df523b3ef836040516117729190611b0c565b60405180910390a35050565b6000818361178c9190611b69565b905092915050565b6000813590506117a381611e04565b92915050565b6000813590506117b881611e1b565b92915050565b6000602082840312156117d057600080fd5b60006117de84828501611794565b91505092915050565b600080604083850312156117fa57600080fd5b600061180885828601611794565b925050602061181985828601611794565b9150509250929050565b60008060006060848603121561183857600080fd5b600061184686828701611794565b935050602061185786828701611794565b9250506040611868868287016117a9565b9150509250925092565b6000806040838503121561188557600080fd5b600061189385828601611794565b92505060206118a4858286016117a9565b9150509250929050565b6000602082840312156118c057600080fd5b60006118ce848285016117a9565b91505092915050565b6118e081611bf3565b82525050565b6118f76118f282611bf3565b611cfa565b82525050565b61190681611c05565b82525050565b61191d61191882611c11565b611d0c565b82525050565b61193461192f82611c3d565b611d16565b82525050565b600061194582611b42565b61194f8185611b58565b935061195f818560208601611c7e565b61196881611d6b565b840191505092915050565b6000611980602683611b58565b915061198b82611d89565b604082019050919050565b60006119a3602083611b58565b91506119ae82611dd8565b602082019050919050565b60006119c6600083611b4d565b91506119d182611e01565b600082019050919050565b6119e581611c67565b82525050565b6119fc6119f782611c67565b611d32565b82525050565b611a0b81611c71565b82525050565b6000611a1d828761190c565b600182019150611a2d82866118e6565b601482019150611a3d82856119eb565b602082019150611a4d8284611923565b60208201915081905095945050505050565b6000611a6a826119b9565b9150819050919050565b6000602082019050611a8960008301846118d7565b92915050565b6000602082019050611aa460008301846118fd565b92915050565b60006020820190508181036000830152611ac4818461193a565b905092915050565b60006020820190508181036000830152611ae581611973565b9050919050565b60006020820190508181036000830152611b0581611996565b9050919050565b6000602082019050611b2160008301846119dc565b92915050565b6000602082019050611b3c6000830184611a02565b92915050565b600081519050919050565b600081905092915050565b600082825260208201905092915050565b6000611b7482611c67565b9150611b7f83611c67565b9250827fffffffffffffffffffffffffffffffffffffffffffffffffffffffffffffffff03821115611bb457611bb3611d3c565b5b828201905092915050565b6000611bca82611c67565b9150611bd583611c67565b925082821015611be857611be7611d3c565b5b828203905092915050565b6000611bfe82611c47565b9050919050565b60008115159050919050565b60007fff0000000000000000000000000000000000000000000000000000000000000082169050919050565b6000819050919050565b600073ffffffffffffffffffffffffffffffffffffffff82169050919050565b6000819050919050565b600060ff82169050919050565b60005b83811015611c9c578082015181840152602081019050611c81565b83811115611cab576000848401525b50505050565b6000611cbc82611c67565b91507fffffffffffffffffffffffffffffffffffffffffffffffffffffffffffffffff821415611cef57611cee611d3c565b5b600182019050919050565b6000611d0582611d20565b9050919050565b6000819050919050565b6000819050919050565b6000611d2b82611d7c565b9050919050565b6000819050919050565b7f4e487b7100000000000000000000000000000000000000000000000000000000600052601160045260246000fd5b6000601f19601f8301169050919050565b60008160601b9050919050565b7f4f776e61626c653a206e6577206f776e657220697320746865207a65726f206160008201527f6464726573730000000000000000000000000000000000000000000000000000602082015250565b7f4f776e61626c653a2063616c6c6572206973206e6f7420746865206f776e6572600082015250565b50565b611e0d81611bf3565b8114611e1857600080fd5b50565b611e2481611c67565b8114611e2f57600080fd5b5056fe53473a206275726e20616d6f756e7420646f6573206e6f7420636f7665722066656545524332303a206275726e20616d6f756e7420657863656564732062616c616e636545524332303a207472616e7366657220616d6f756e7420657863656564732062616c616e636545524332303a207472616e7366657220616d6f756e74206578636565647320616c6c6f77616e636545524332303a206275726e20616d6f756e74206578636565647320616c6c6f77616e636553473a204d696e7465642056616c7565206d757374206265206c6172676572207468616e206261736520666565a2646970667358221220715b3e429a912dc1709ea7318790949e107e6a7b9fa06eaf4b64f07656cc581464736f6c63430008030033",
  "immutableReferences": {},
  "source": "pragma solidity ^0.8.0;\r\n\r\nimport \"./Math.sol\";\r\nimport \"./SafeMath.sol\";\r\nimport \"./IERC20.sol\";\r\nimport \"./ISGToken.sol\";\r\nimport \"./Ownable.sol\";\r\nimport './ERC20WithoutTotalSupply.sol';\r\n\r\ncontract SG3Token is IERC20, ERC20WithoutTotalSupply, Ownable, ISGToken{\r\n    using SafeMath for uint256;\r\n\r\n    //SG3 is based on CHI token. Difference is inbuilt fee on minting.\r\n    string constant public name = \"Stored Gas v3 by GasSwap.finance\";\r\n    string constant public symbol = \"SG3\";\r\n    uint8 constant public decimals = 0;\r\n\r\n    uint256 public totalMinted;\r\n    uint256 public totalBurned;\r\n\r\n    //Introduce a fee that is taken on mint/burn\r\n    uint256 public SGMintFee = 1;\r\n    uint256 public SGBurnFee = 1;\r\n\r\n    //Add address for where fees will be added to. Eventually this can be a contract that GasSwap Holders can redeem siphoned gas from.\r\n    address public feeAddress;\r\n\r\n    // Set the fee address as the deployer for now. Eventually this will migrate to GasSwap Bank Contract\r\n    constructor() {\r\n        feeAddress = msg.sender;\r\n    }\r\n\r\n    function totalSupply() public view override returns(uint256) {\r\n        return totalMinted - totalBurned;\r\n    }\r\n\r\n    function mint(uint256 value) public override {\r\n        uint256 offset = totalMinted;\r\n        assembly {\r\n            mstore(0, 0x746d4946c0e9F43F4Dee607b0eF1fA1c3318585733ff6000526015600bf30000)\r\n\r\n            for {let i := div(value, 32)} i {i := sub(i, 1)} {\r\n                pop(create2(0, 0, 30, add(offset, 0))) pop(create2(0, 0, 30, add(offset, 1)))\r\n                pop(create2(0, 0, 30, add(offset, 2))) pop(create2(0, 0, 30, add(offset, 3)))\r\n                pop(create2(0, 0, 30, add(offset, 4))) pop(create2(0, 0, 30, add(offset, 5)))\r\n                pop(create2(0, 0, 30, add(offset, 6))) pop(create2(0, 0, 30, add(offset, 7)))\r\n                pop(create2(0, 0, 30, add(offset, 8))) pop(create2(0, 0, 30, add(offset, 9)))\r\n                pop(create2(0, 0, 30, add(offset, 10))) pop(create2(0, 0, 30, add(offset, 11)))\r\n                pop(create2(0, 0, 30, add(offset, 12))) pop(create2(0, 0, 30, add(offset, 13)))\r\n                pop(create2(0, 0, 30, add(offset, 14))) pop(create2(0, 0, 30, add(offset, 15)))\r\n                pop(create2(0, 0, 30, add(offset, 16))) pop(create2(0, 0, 30, add(offset, 17)))\r\n                pop(create2(0, 0, 30, add(offset, 18))) pop(create2(0, 0, 30, add(offset, 19)))\r\n                pop(create2(0, 0, 30, add(offset, 20))) pop(create2(0, 0, 30, add(offset, 21)))\r\n                pop(create2(0, 0, 30, add(offset, 22))) pop(create2(0, 0, 30, add(offset, 23)))\r\n                pop(create2(0, 0, 30, add(offset, 24))) pop(create2(0, 0, 30, add(offset, 25)))\r\n                pop(create2(0, 0, 30, add(offset, 26))) pop(create2(0, 0, 30, add(offset, 27)))\r\n                pop(create2(0, 0, 30, add(offset, 28))) pop(create2(0, 0, 30, add(offset, 29)))\r\n                pop(create2(0, 0, 30, add(offset, 30))) pop(create2(0, 0, 30, add(offset, 31)))\r\n                offset := add(offset, 32)\r\n            }\r\n\r\n            for {let i := and(value, 0x1F)} i {i := sub(i, 1)} {\r\n                pop(create2(0, 0, 30, offset))\r\n                offset := add(offset, 1)\r\n            }\r\n        }\r\n\r\n        uint256 valueAfterFee =  value.sub(SGMintFee, \"SG: Minted Value must be larger than base fee\");\r\n        _mint(msg.sender, valueAfterFee);\r\n        _mint(feeAddress, SGMintFee);\r\n        totalMinted = offset;\r\n    }\r\n\r\n    function computeAddress2(uint256 salt) public override view returns (address) {\r\n        bytes32 _data = keccak256(\r\n            abi.encodePacked(bytes1(0xff), address(this), salt, bytes32(0x3c1644c68e5d6cb380c36d1bf847fdbc0c7ac28030025a2fc5e63cce23c16348))\r\n        );\r\n        return address(uint160(bytes20(_data)));\r\n    }\r\n\r\n    function _destroyChildren(uint256 value) internal {\r\n        uint256 _totalBurned = totalBurned;\r\n        for (uint256 i = 0; i < value; i++) {\r\n            computeAddress2(_totalBurned + i).call(\"\");\r\n        }\r\n        totalBurned = _totalBurned + value;\r\n    }\r\n\r\n    function free(uint256 value) public override returns (uint256)  {\r\n        uint256 valueAfterFee =  value.sub(SGBurnFee, \"SG: burn amount does not cover fee\");\r\n        if (value > 0) {\r\n            _burn(msg.sender, valueAfterFee);\r\n            _destroyChildren(value);\r\n            _transfer(msg.sender, feeAddress, SGBurnFee);\r\n        }\r\n        return value;\r\n    }\r\n\r\n    function freeUpTo(uint256 value) public override returns (uint256) {\r\n        return free(Math.min(value, balanceOf(msg.sender)));\r\n    }\r\n\r\n    function freeFrom(address from, uint256 value) public override returns (uint256) {\r\n        uint256 valueAfterFee = value.sub(SGBurnFee, \"SG: burn amount does not cover fee\");\r\n        if (value > 0) {\r\n            _burnFrom(from, valueAfterFee);\r\n            _destroyChildren(valueAfterFee);\r\n            transferFrom(from, feeAddress, SGBurnFee);\r\n        }\r\n        return value;\r\n    }\r\n\r\n    function freeFromUpTo(address from, uint256 value) public override returns (uint256) {\r\n        return freeFrom(from, Math.min(Math.min(value, balanceOf(from)), allowance(from, msg.sender)));\r\n    }\r\n\r\n    //Add function for Gas Swap that proposers can use to adjust burn fee.\r\n    function updateBurnFee(uint256 newBurnFee) public override onlyOwner {\r\n        SGBurnFee = newBurnFee;\r\n    }\r\n\r\n    //Add function for Gas Swap that proposers can use to adjust mint fee.\r\n    function updateMintFee(uint256 newMintFee) public override onlyOwner {\r\n        SGMintFee = newMintFee;\r\n    }\r\n\r\n    //Add function that will allow eventual transfer to Gas Swap after initial setup phase\r\n    function updateFeeAddress(address newFeeAddress) public override onlyOwner {\r\n        feeAddress = newFeeAddress;\r\n    }\r\n    \r\n}\r\n",
  "sourcePath": "C:/Users/khera/Documents/GitHub/GasSwapTokens/contracts/SG3Token.sol",
  "compiler": {
    "name": "solc",
    "version": "0.8.3+commit.8d00100c.Emscripten.clang"
  },
  "schemaVersion": "3.3.4",
  "updatedAt": "2021-04-10T09:07:01.194Z",
  "networkType": "ethereum",
  "devdoc": {
    "kind": "dev",
    "methods": {
      "allowance(address,address)": {
        "details": "Returns the remaining number of tokens that `spender` will be allowed to spend on behalf of `owner` through {transferFrom}. This is zero by default. This value changes when {approve} or {transferFrom} are called."
      },
      "approve(address,uint256)": {
        "details": "Sets `amount` as the allowance of `spender` over the caller's tokens. Returns a boolean value indicating whether the operation succeeded. IMPORTANT: Beware that changing an allowance with this method brings the risk that someone may use both the old and the new allowance by unfortunate transaction ordering. One possible solution to mitigate this race condition is to first reduce the spender's allowance to 0 and set the desired value afterwards: https://github.com/ethereum/EIPs/issues/20#issuecomment-263524729 Emits an {Approval} event."
      },
      "balanceOf(address)": {
        "details": "Returns the amount of tokens owned by `account`."
      },
      "computeAddress2(uint256)": {
        "details": "Returns address of child contract to destroy."
      },
      "free(uint256)": {
        "details": "return number of tokens freed up."
      },
      "freeFrom(address,uint256)": {
        "details": "return number of tokens freed up."
      },
      "freeFromUpTo(address,uint256)": {
        "details": "return number of tokens freed up."
      },
      "freeUpTo(uint256)": {
        "details": "return number of tokens freed up."
      },
      "mint(uint256)": {
        "details": "mints new tokens."
      },
      "owner()": {
        "details": "Returns the address of the current owner."
      },
      "renounceOwnership()": {
        "details": "Leaves the contract without owner. It will not be possible to call `onlyOwner` functions anymore. Can only be called by the current owner. NOTE: Renouncing ownership will leave the contract without an owner, thereby removing any functionality that is only available to the owner."
      },
      "totalSupply()": {
        "details": "Returns the amount of tokens in existence."
      },
      "transfer(address,uint256)": {
        "details": "Moves `amount` tokens from the caller's account to `recipient`. Returns a boolean value indicating whether the operation succeeded. Emits a {Transfer} event."
      },
      "transferFrom(address,address,uint256)": {
        "details": "Moves `amount` tokens from `sender` to `recipient` using the allowance mechanism. `amount` is then deducted from the caller's allowance. Returns a boolean value indicating whether the operation succeeded. Emits a {Transfer} event."
      },
      "transferOwnership(address)": {
        "details": "Transfers ownership of the contract to a new account (`newOwner`). Can only be called by the current owner."
      },
      "updateBurnFee(uint256)": {
        "details": "updates number of burned tokens siphoned to Gas Swap holders."
      },
      "updateFeeAddress(address)": {
        "details": "updates fee address of this contract."
      },
      "updateMintFee(uint256)": {
        "details": "updates number of minted tokens siphoned to Gas Swap holders."
      }
    },
    "version": 1
  },
  "userdoc": {
    "kind": "user",
    "methods": {},
    "version": 1
  }
}