{
  "contractName": "wrappedNonGsveToken",
  "abi": [
    {
      "inputs": [
        {
          "internalType": "address",
          "name": "_tokenAddress",
          "type": "address"
        },
        {
          "internalType": "string",
          "name": "_name",
          "type": "string"
        },
        {
          "internalType": "string",
          "name": "_symbol",
          "type": "string"
        }
      ],
      "stateMutability": "nonpayable",
      "type": "constructor"
    },
    {
      "anonymous": false,
      "inputs": [
        {
          "indexed": true,
          "internalType": "address",
          "name": "owner",
          "type": "address"
        },
        {
          "indexed": true,
          "internalType": "address",
          "name": "spender",
          "type": "address"
        },
        {
          "indexed": false,
          "internalType": "uint256",
          "name": "value",
          "type": "uint256"
        }
      ],
      "name": "Approval",
      "type": "event"
    },
    {
      "anonymous": false,
      "inputs": [
        {
          "indexed": true,
          "internalType": "address",
          "name": "previousOwner",
          "type": "address"
        },
        {
          "indexed": true,
          "internalType": "address",
          "name": "newOwner",
          "type": "address"
        }
      ],
      "name": "OwnershipTransferred",
      "type": "event"
    },
    {
      "anonymous": false,
      "inputs": [
        {
          "indexed": true,
          "internalType": "address",
          "name": "from",
          "type": "address"
        },
        {
          "indexed": true,
          "internalType": "address",
          "name": "to",
          "type": "address"
        },
        {
          "indexed": false,
          "internalType": "uint256",
          "name": "value",
          "type": "uint256"
        }
      ],
      "name": "Transfer",
      "type": "event"
    },
    {
      "inputs": [],
      "name": "SGMintFee",
      "outputs": [
        {
          "internalType": "uint256",
          "name": "",
          "type": "uint256"
        }
      ],
      "stateMutability": "view",
      "type": "function"
    },
    {
      "inputs": [
        {
          "internalType": "address",
          "name": "owner",
          "type": "address"
        },
        {
          "internalType": "address",
          "name": "spender",
          "type": "address"
        }
      ],
      "name": "allowance",
      "outputs": [
        {
          "internalType": "uint256",
          "name": "",
          "type": "uint256"
        }
      ],
      "stateMutability": "view",
      "type": "function"
    },
    {
      "inputs": [
        {
          "internalType": "address",
          "name": "spender",
          "type": "address"
        },
        {
          "internalType": "uint256",
          "name": "amount",
          "type": "uint256"
        }
      ],
      "name": "approve",
      "outputs": [
        {
          "internalType": "bool",
          "name": "",
          "type": "bool"
        }
      ],
      "stateMutability": "nonpayable",
      "type": "function"
    },
    {
      "inputs": [
        {
          "internalType": "address",
          "name": "account",
          "type": "address"
        }
      ],
      "name": "balanceOf",
      "outputs": [
        {
          "internalType": "uint256",
          "name": "",
          "type": "uint256"
        }
      ],
      "stateMutability": "view",
      "type": "function"
    },
    {
      "inputs": [],
      "name": "decimals",
      "outputs": [
        {
          "internalType": "uint8",
          "name": "",
          "type": "uint8"
        }
      ],
      "stateMutability": "view",
      "type": "function"
    },
    {
      "inputs": [],
      "name": "feeAddress",
      "outputs": [
        {
          "internalType": "address",
          "name": "",
          "type": "address"
        }
      ],
      "stateMutability": "view",
      "type": "function"
    },
    {
      "inputs": [],
      "name": "name",
      "outputs": [
        {
          "internalType": "string",
          "name": "",
          "type": "string"
        }
      ],
      "stateMutability": "view",
      "type": "function"
    },
    {
      "inputs": [],
      "name": "owner",
      "outputs": [
        {
          "internalType": "address",
          "name": "",
          "type": "address"
        }
      ],
      "stateMutability": "view",
      "type": "function"
    },
    {
      "inputs": [],
      "name": "renounceOwnership",
      "outputs": [],
      "stateMutability": "nonpayable",
      "type": "function"
    },
    {
      "inputs": [],
      "name": "symbol",
      "outputs": [
        {
          "internalType": "string",
          "name": "",
          "type": "string"
        }
      ],
      "stateMutability": "view",
      "type": "function"
    },
    {
      "inputs": [],
      "name": "totalBurned",
      "outputs": [
        {
          "internalType": "uint256",
          "name": "",
          "type": "uint256"
        }
      ],
      "stateMutability": "view",
      "type": "function"
    },
    {
      "inputs": [],
      "name": "totalMinted",
      "outputs": [
        {
          "internalType": "uint256",
          "name": "",
          "type": "uint256"
        }
      ],
      "stateMutability": "view",
      "type": "function"
    },
    {
      "inputs": [
        {
          "internalType": "address",
          "name": "recipient",
          "type": "address"
        },
        {
          "internalType": "uint256",
          "name": "amount",
          "type": "uint256"
        }
      ],
      "name": "transfer",
      "outputs": [
        {
          "internalType": "bool",
          "name": "",
          "type": "bool"
        }
      ],
      "stateMutability": "nonpayable",
      "type": "function"
    },
    {
      "inputs": [
        {
          "internalType": "address",
          "name": "sender",
          "type": "address"
        },
        {
          "internalType": "address",
          "name": "recipient",
          "type": "address"
        },
        {
          "internalType": "uint256",
          "name": "amount",
          "type": "uint256"
        }
      ],
      "name": "transferFrom",
      "outputs": [
        {
          "internalType": "bool",
          "name": "",
          "type": "bool"
        }
      ],
      "stateMutability": "nonpayable",
      "type": "function"
    },
    {
      "inputs": [
        {
          "internalType": "address",
          "name": "newOwner",
          "type": "address"
        }
      ],
      "name": "transferOwnership",
      "outputs": [],
      "stateMutability": "nonpayable",
      "type": "function"
    },
    {
      "inputs": [],
      "name": "wrappedTokenAddress",
      "outputs": [
        {
          "internalType": "address",
          "name": "",
          "type": "address"
        }
      ],
      "stateMutability": "view",
      "type": "function"
    },
    {
      "inputs": [],
      "name": "totalSupply",
      "outputs": [
        {
          "internalType": "uint256",
          "name": "",
          "type": "uint256"
        }
      ],
      "stateMutability": "view",
      "type": "function"
    },
    {
      "inputs": [
        {
          "internalType": "uint256",
          "name": "value",
          "type": "uint256"
        }
      ],
      "name": "mint",
      "outputs": [],
      "stateMutability": "nonpayable",
      "type": "function"
    },
    {
      "inputs": [
        {
          "internalType": "uint256",
          "name": "value",
          "type": "uint256"
        },
        {
          "internalType": "uint256",
          "name": "discountedFee",
          "type": "uint256"
        },
        {
          "internalType": "address",
          "name": "recipient",
          "type": "address"
        }
      ],
      "name": "discountedMint",
      "outputs": [],
      "stateMutability": "nonpayable",
      "type": "function"
    },
    {
      "inputs": [
        {
          "internalType": "uint256",
          "name": "value",
          "type": "uint256"
        }
      ],
      "name": "unwrap",
      "outputs": [],
      "stateMutability": "nonpayable",
      "type": "function"
    },
    {
      "inputs": [
        {
          "internalType": "uint256",
          "name": "value",
          "type": "uint256"
        }
      ],
      "name": "free",
      "outputs": [
        {
          "internalType": "uint256",
          "name": "",
          "type": "uint256"
        }
      ],
      "stateMutability": "nonpayable",
      "type": "function"
    },
    {
      "inputs": [
        {
          "internalType": "uint256",
          "name": "value",
          "type": "uint256"
        }
      ],
      "name": "freeUpTo",
      "outputs": [
        {
          "internalType": "uint256",
          "name": "",
          "type": "uint256"
        }
      ],
      "stateMutability": "nonpayable",
      "type": "function"
    },
    {
      "inputs": [
        {
          "internalType": "address",
          "name": "from",
          "type": "address"
        },
        {
          "internalType": "uint256",
          "name": "value",
          "type": "uint256"
        }
      ],
      "name": "freeFrom",
      "outputs": [
        {
          "internalType": "uint256",
          "name": "",
          "type": "uint256"
        }
      ],
      "stateMutability": "nonpayable",
      "type": "function"
    },
    {
      "inputs": [
        {
          "internalType": "address",
          "name": "from",
          "type": "address"
        },
        {
          "internalType": "uint256",
          "name": "value",
          "type": "uint256"
        }
      ],
      "name": "freeFromUpTo",
      "outputs": [
        {
          "internalType": "uint256",
          "name": "",
          "type": "uint256"
        }
      ],
      "stateMutability": "nonpayable",
      "type": "function"
    },
    {
      "inputs": [
        {
          "internalType": "uint256",
          "name": "newMintFee",
          "type": "uint256"
        }
      ],
      "name": "updateMintFee",
      "outputs": [],
      "stateMutability": "nonpayable",
      "type": "function"
    },
    {
      "inputs": [
        {
          "internalType": "address",
          "name": "newFeeAddress",
          "type": "address"
        }
      ],
      "name": "updateFeeAddress",
      "outputs": [],
      "stateMutability": "nonpayable",
      "type": "function"
    }
  ],
  "bytecode": "0x608060405260036007553480156200001657600080fd5b50604051620025973803806200259783398181016040528101906200003c9190620002eb565b60006200004e620001aa60201b60201c565b905080600260006101000a81548173ffffffffffffffffffffffffffffffffffffffff021916908373ffffffffffffffffffffffffffffffffffffffff1602179055508073ffffffffffffffffffffffffffffffffffffffff16600073ffffffffffffffffffffffffffffffffffffffff167f8be0079c531659141344cd1fd0a4f28419497f9722a3daafe3b4186f6b6457e060405160405180910390a35033600860006101000a81548173ffffffffffffffffffffffffffffffffffffffff021916908373ffffffffffffffffffffffffffffffffffffffff16021790555082600960006101000a81548173ffffffffffffffffffffffffffffffffffffffff021916908373ffffffffffffffffffffffffffffffffffffffff160217905550816003908051906020019062000187929190620001b2565b508060049080519060200190620001a0929190620001b2565b5050505062000531565b600033905090565b828054620001c0906200043c565b90600052602060002090601f016020900481019282620001e4576000855562000230565b82601f10620001ff57805160ff191683800117855562000230565b8280016001018555821562000230579182015b828111156200022f57825182559160200191906001019062000212565b5b5090506200023f919062000243565b5090565b5b808211156200025e57600081600090555060010162000244565b5090565b60006200027962000273846200039c565b62000373565b9050828152602081018484840111156200029257600080fd5b6200029f84828562000406565b509392505050565b600081519050620002b88162000517565b92915050565b600082601f830112620002d057600080fd5b8151620002e284826020860162000262565b91505092915050565b6000806000606084860312156200030157600080fd5b60006200031186828701620002a7565b935050602084015167ffffffffffffffff8111156200032f57600080fd5b6200033d86828701620002be565b925050604084015167ffffffffffffffff8111156200035b57600080fd5b6200036986828701620002be565b9150509250925092565b60006200037f62000392565b90506200038d828262000472565b919050565b6000604051905090565b600067ffffffffffffffff821115620003ba57620003b9620004d7565b5b620003c58262000506565b9050602081019050919050565b6000620003df82620003e6565b9050919050565b600073ffffffffffffffffffffffffffffffffffffffff82169050919050565b60005b838110156200042657808201518184015260208101905062000409565b8381111562000436576000848401525b50505050565b600060028204905060018216806200045557607f821691505b602082108114156200046c576200046b620004a8565b5b50919050565b6200047d8262000506565b810181811067ffffffffffffffff821117156200049f576200049e620004d7565b5b80604052505050565b7f4e487b7100000000000000000000000000000000000000000000000000000000600052602260045260246000fd5b7f4e487b7100000000000000000000000000000000000000000000000000000000600052604160045260246000fd5b6000601f19601f8301169050919050565b6200052281620003d2565b81146200052e57600080fd5b50565b61205680620005416000396000f3fe608060405234801561001057600080fd5b506004361061018e5760003560e01c80637e72014a116100de578063a9059cbb11610097578063d8ccd0f311610071578063d8ccd0f314610489578063dd62ed3e146104b9578063de0e9a3e146104e9578063f2fde38b146105055761018e565b8063a9059cbb1461041f578063bbcaac381461044f578063d89135cd1461046b5761018e565b80637e72014a1461037157806384017e521461038d5780638da5cb5b146103a957806395d89b41146103c7578063a0712d68146103e5578063a2309ff8146104015761018e565b8063313ce5671161014b5780635f2e2b45116101255780635f2e2b45146102d75780636366b9361461030757806370a0823114610337578063715018a6146103675761018e565b8063313ce5671461027d5780633e6462081461029b57806341275358146102b95761018e565b806306fdde0314610193578063079d229f146101b1578063095ea7b3146101e157806318160ddd146102115780631f5a2a151461022f57806323b872dd1461024d575b600080fd5b61019b610521565b6040516101a89190611c3b565b60405180910390f35b6101cb60048036038101906101c691906119e4565b6105af565b6040516101d89190611c9d565b60405180910390f35b6101fb60048036038101906101f691906119e4565b6105e6565b6040516102089190611c20565b60405180910390f35b6102196105fd565b6040516102269190611c9d565b60405180910390f35b610237610614565b6040516102449190611c9d565b60405180910390f35b61026760048036038101906102629190611995565b61061a565b6040516102749190611c20565b60405180910390f35b6102856106f9565b6040516102929190611cb8565b60405180910390f35b6102a36106fe565b6040516102b09190611ba5565b60405180910390f35b6102c1610724565b6040516102ce9190611ba5565b60405180910390f35b6102f160048036038101906102ec91906119e4565b61074a565b6040516102fe9190611c9d565b60405180910390f35b610321600480360381019061031c9190611a49565b61082c565b60405161032e9190611c9d565b60405180910390f35b610351600480360381019061034c9190611930565b61084f565b60405161035e9190611c9d565b60405180910390f35b61036f610897565b005b61038b60048036038101906103869190611a9b565b6109d4565b005b6103a760048036038101906103a29190611a49565b610b8d565b005b6103b1610c13565b6040516103be9190611ba5565b60405180910390f35b6103cf610c3d565b6040516103dc9190611c3b565b60405180910390f35b6103ff60048036038101906103fa9190611a49565b610ccb565b005b610409610e00565b6040516104169190611c9d565b60405180910390f35b610439600480360381019061043491906119e4565b610e06565b6040516104469190611c20565b60405180910390f35b61046960048036038101906104649190611930565b610e1d565b005b610473610edd565b6040516104809190611c9d565b60405180910390f35b6104a3600480360381019061049e9190611a49565b610ee3565b6040516104b09190611c9d565b60405180910390f35b6104d360048036038101906104ce9190611959565b610fc2565b6040516104e09190611c9d565b60405180910390f35b61050360048036038101906104fe9190611a49565b611049565b005b61051f600480360381019061051a9190611930565b611126565b005b6003805461052e90611e01565b80601f016020809104026020016040519081016040528092919081815260200182805461055a90611e01565b80156105a75780601f1061057c576101008083540402835291602001916105a7565b820191906000526020600020905b81548152906001019060200180831161058a57829003601f168201915b505050505081565b60006105de836105d96105ca856105c58861084f565b6112d2565b6105d48733610fc2565b6112d2565b61074a565b905092915050565b60006105f33384846112eb565b6001905092915050565b600060065460055461060f9190611d45565b905090565b60075481565b60006106278484846113d6565b6000600160008673ffffffffffffffffffffffffffffffffffffffff1673ffffffffffffffffffffffffffffffffffffffff16815260200190815260200160002060003373ffffffffffffffffffffffffffffffffffffffff1673ffffffffffffffffffffffffffffffffffffffff168152602001908152602001600020549050600060ff82901c14156106ed576106ec85336106e786604051806060016040528060288152602001611fa860289139866115809092919063ffffffff16565b6112eb565b5b60019150509392505050565b600081565b600960009054906101000a900473ffffffffffffffffffffffffffffffffffffffff1681565b600860009054906101000a900473ffffffffffffffffffffffffffffffffffffffff1681565b6000808211156108235761075e83836115d5565b600960009054906101000a900473ffffffffffffffffffffffffffffffffffffffff1673ffffffffffffffffffffffffffffffffffffffff16635f2e2b4584846040518363ffffffff1660e01b81526004016107bb929190611bf7565b602060405180830381600087803b1580156107d557600080fd5b505af11580156107e9573d6000803e3d6000fd5b505050506040513d601f19601f8201168201806040525081019061080d9190611a72565b508160065461081c9190611cef565b6006819055505b81905092915050565b60006108486108438361083e3361084f565b6112d2565b610ee3565b9050919050565b60008060008373ffffffffffffffffffffffffffffffffffffffff1673ffffffffffffffffffffffffffffffffffffffff168152602001908152602001600020549050919050565b61089f6116aa565b73ffffffffffffffffffffffffffffffffffffffff166108bd610c13565b73ffffffffffffffffffffffffffffffffffffffff1614610913576040517f08c379a000000000000000000000000000000000000000000000000000000000815260040161090a90611c7d565b60405180910390fd5b600073ffffffffffffffffffffffffffffffffffffffff16600260009054906101000a900473ffffffffffffffffffffffffffffffffffffffff1673ffffffffffffffffffffffffffffffffffffffff167f8be0079c531659141344cd1fd0a4f28419497f9722a3daafe3b4186f6b6457e060405160405180910390a36000600260006101000a81548173ffffffffffffffffffffffffffffffffffffffff021916908373ffffffffffffffffffffffffffffffffffffffff160217905550565b6109dc6116aa565b73ffffffffffffffffffffffffffffffffffffffff166109fa610c13565b73ffffffffffffffffffffffffffffffffffffffff1614610a50576040517f08c379a0000000000000000000000000000000000000000000000000000000008152600401610a4790611c7d565b60405180910390fd5b600960009054906101000a900473ffffffffffffffffffffffffffffffffffffffff1673ffffffffffffffffffffffffffffffffffffffff166323b872dd3330866040518463ffffffff1660e01b8152600401610aaf93929190611bc0565b602060405180830381600087803b158015610ac957600080fd5b505af1158015610add573d6000803e3d6000fd5b505050506040513d601f19601f82011682018060405250810190610b019190611a20565b506000610b31836040518060600160405280602d8152602001611ff4602d9139866115809092919063ffffffff16565b9050610b3d82826116b2565b6000831115610b7357610b72600860009054906101000a900473ffffffffffffffffffffffffffffffffffffffff16846116b2565b5b83600554610b819190611cef565b60058190555050505050565b610b956116aa565b73ffffffffffffffffffffffffffffffffffffffff16610bb3610c13565b73ffffffffffffffffffffffffffffffffffffffff1614610c09576040517f08c379a0000000000000000000000000000000000000000000000000000000008152600401610c0090611c7d565b60405180910390fd5b8060078190555050565b6000600260009054906101000a900473ffffffffffffffffffffffffffffffffffffffff16905090565b60048054610c4a90611e01565b80601f0160208091040260200160405190810160405280929190818152602001828054610c7690611e01565b8015610cc35780601f10610c9857610100808354040283529160200191610cc3565b820191906000526020600020905b815481529060010190602001808311610ca657829003601f168201915b505050505081565b600960009054906101000a900473ffffffffffffffffffffffffffffffffffffffff1673ffffffffffffffffffffffffffffffffffffffff166323b872dd3330846040518463ffffffff1660e01b8152600401610d2a93929190611bc0565b602060405180830381600087803b158015610d4457600080fd5b505af1158015610d58573d6000803e3d6000fd5b505050506040513d601f19601f82011682018060405250810190610d7c9190611a20565b506000610dae6007546040518060600160405280602d8152602001611ff4602d9139846115809092919063ffffffff16565b9050610dba33826116b2565b610de8600860009054906101000a900473ffffffffffffffffffffffffffffffffffffffff166007546116b2565b81600554610df69190611cef565b6005819055505050565b60055481565b6000610e133384846113d6565b6001905092915050565b610e256116aa565b73ffffffffffffffffffffffffffffffffffffffff16610e43610c13565b73ffffffffffffffffffffffffffffffffffffffff1614610e99576040517f08c379a0000000000000000000000000000000000000000000000000000000008152600401610e9090611c7d565b60405180910390fd5b80600860006101000a81548173ffffffffffffffffffffffffffffffffffffffff021916908373ffffffffffffffffffffffffffffffffffffffff16021790555050565b60065481565b600080821115610fba57610ef733836117af565b600960009054906101000a900473ffffffffffffffffffffffffffffffffffffffff1673ffffffffffffffffffffffffffffffffffffffff1663d8ccd0f3836040518263ffffffff1660e01b8152600401610f529190611c9d565b602060405180830381600087803b158015610f6c57600080fd5b505af1158015610f80573d6000803e3d6000fd5b505050506040513d601f19601f82011682018060405250810190610fa49190611a72565b5081600654610fb39190611cef565b6006819055505b819050919050565b6000600160008473ffffffffffffffffffffffffffffffffffffffff1673ffffffffffffffffffffffffffffffffffffffff16815260200190815260200160002060008373ffffffffffffffffffffffffffffffffffffffff1673ffffffffffffffffffffffffffffffffffffffff16815260200190815260200160002054905092915050565b60008111156111235761105c33826115d5565b600960009054906101000a900473ffffffffffffffffffffffffffffffffffffffff1673ffffffffffffffffffffffffffffffffffffffff166323b872dd3033846040518463ffffffff1660e01b81526004016110bb93929190611bc0565b602060405180830381600087803b1580156110d557600080fd5b505af11580156110e9573d6000803e3d6000fd5b505050506040513d601f19601f8201168201806040525081019061110d9190611a20565b508060055461111c9190611cef565b6005819055505b50565b61112e6116aa565b73ffffffffffffffffffffffffffffffffffffffff1661114c610c13565b73ffffffffffffffffffffffffffffffffffffffff16146111a2576040517f08c379a000000000000000000000000000000000000000000000000000000000815260040161119990611c7d565b60405180910390fd5b600073ffffffffffffffffffffffffffffffffffffffff168173ffffffffffffffffffffffffffffffffffffffff161415611212576040517f08c379a000000000000000000000000000000000000000000000000000000000815260040161120990611c5d565b60405180910390fd5b8073ffffffffffffffffffffffffffffffffffffffff16600260009054906101000a900473ffffffffffffffffffffffffffffffffffffffff1673ffffffffffffffffffffffffffffffffffffffff167f8be0079c531659141344cd1fd0a4f28419497f9722a3daafe3b4186f6b6457e060405160405180910390a380600260006101000a81548173ffffffffffffffffffffffffffffffffffffffff021916908373ffffffffffffffffffffffffffffffffffffffff16021790555050565b60008183106112e157816112e3565b825b905092915050565b80600160008573ffffffffffffffffffffffffffffffffffffffff1673ffffffffffffffffffffffffffffffffffffffff16815260200190815260200160002060008473ffffffffffffffffffffffffffffffffffffffff1673ffffffffffffffffffffffffffffffffffffffff168152602001908152602001600020819055508173ffffffffffffffffffffffffffffffffffffffff168373ffffffffffffffffffffffffffffffffffffffff167f8c5be1e5ebec7d5bd14f71427d1e84f3dd0314c0f7b2291e5b200ac8c7c3b925836040516113c99190611c9d565b60405180910390a3505050565b61144181604051806060016040528060268152602001611f82602691396000808773ffffffffffffffffffffffffffffffffffffffff1673ffffffffffffffffffffffffffffffffffffffff168152602001908152602001600020546115809092919063ffffffff16565b6000808573ffffffffffffffffffffffffffffffffffffffff1673ffffffffffffffffffffffffffffffffffffffff168152602001908152602001600020819055506114d4816000808573ffffffffffffffffffffffffffffffffffffffff1673ffffffffffffffffffffffffffffffffffffffff168152602001908152602001600020546118c690919063ffffffff16565b6000808473ffffffffffffffffffffffffffffffffffffffff1673ffffffffffffffffffffffffffffffffffffffff168152602001908152602001600020819055508173ffffffffffffffffffffffffffffffffffffffff168373ffffffffffffffffffffffffffffffffffffffff167fddf252ad1be2c89b69c2b068fc378daa952ba7f163c4a11628f55a4df523b3ef836040516115739190611c9d565b60405180910390a3505050565b60008383111582906115c8576040517f08c379a00000000000000000000000000000000000000000000000000000000081526004016115bf9190611c3b565b60405180910390fd5b5082840390509392505050565b6115df82826117af565b6000600160008473ffffffffffffffffffffffffffffffffffffffff1673ffffffffffffffffffffffffffffffffffffffff16815260200190815260200160002060003373ffffffffffffffffffffffffffffffffffffffff1673ffffffffffffffffffffffffffffffffffffffff168152602001908152602001600020549050600060ff82901c14156116a5576116a4833361169f85604051806060016040528060248152602001611fd060249139866115809092919063ffffffff16565b6112eb565b5b505050565b600033905090565b611703816000808573ffffffffffffffffffffffffffffffffffffffff1673ffffffffffffffffffffffffffffffffffffffff168152602001908152602001600020546118c690919063ffffffff16565b6000808473ffffffffffffffffffffffffffffffffffffffff1673ffffffffffffffffffffffffffffffffffffffff168152602001908152602001600020819055508173ffffffffffffffffffffffffffffffffffffffff16600073ffffffffffffffffffffffffffffffffffffffff167fddf252ad1be2c89b69c2b068fc378daa952ba7f163c4a11628f55a4df523b3ef836040516117a39190611c9d565b60405180910390a35050565b61181a81604051806060016040528060228152602001611f60602291396000808673ffffffffffffffffffffffffffffffffffffffff1673ffffffffffffffffffffffffffffffffffffffff168152602001908152602001600020546115809092919063ffffffff16565b6000808473ffffffffffffffffffffffffffffffffffffffff1673ffffffffffffffffffffffffffffffffffffffff16815260200190815260200160002081905550600073ffffffffffffffffffffffffffffffffffffffff168273ffffffffffffffffffffffffffffffffffffffff167fddf252ad1be2c89b69c2b068fc378daa952ba7f163c4a11628f55a4df523b3ef836040516118ba9190611c9d565b60405180910390a35050565b600081836118d49190611cef565b905092915050565b6000813590506118eb81611f1a565b92915050565b60008151905061190081611f31565b92915050565b60008135905061191581611f48565b92915050565b60008151905061192a81611f48565b92915050565b60006020828403121561194257600080fd5b6000611950848285016118dc565b91505092915050565b6000806040838503121561196c57600080fd5b600061197a858286016118dc565b925050602061198b858286016118dc565b9150509250929050565b6000806000606084860312156119aa57600080fd5b60006119b8868287016118dc565b93505060206119c9868287016118dc565b92505060406119da86828701611906565b9150509250925092565b600080604083850312156119f757600080fd5b6000611a05858286016118dc565b9250506020611a1685828601611906565b9150509250929050565b600060208284031215611a3257600080fd5b6000611a40848285016118f1565b91505092915050565b600060208284031215611a5b57600080fd5b6000611a6984828501611906565b91505092915050565b600060208284031215611a8457600080fd5b6000611a928482850161191b565b91505092915050565b600080600060608486031215611ab057600080fd5b6000611abe86828701611906565b9350506020611acf86828701611906565b9250506040611ae0868287016118dc565b9150509250925092565b611af381611d79565b82525050565b611b0281611d8b565b82525050565b6000611b1382611cd3565b611b1d8185611cde565b9350611b2d818560208601611dce565b611b3681611e91565b840191505092915050565b6000611b4e602683611cde565b9150611b5982611ea2565b604082019050919050565b6000611b71602083611cde565b9150611b7c82611ef1565b602082019050919050565b611b9081611db7565b82525050565b611b9f81611dc1565b82525050565b6000602082019050611bba6000830184611aea565b92915050565b6000606082019050611bd56000830186611aea565b611be26020830185611aea565b611bef6040830184611b87565b949350505050565b6000604082019050611c0c6000830185611aea565b611c196020830184611b87565b9392505050565b6000602082019050611c356000830184611af9565b92915050565b60006020820190508181036000830152611c558184611b08565b905092915050565b60006020820190508181036000830152611c7681611b41565b9050919050565b60006020820190508181036000830152611c9681611b64565b9050919050565b6000602082019050611cb26000830184611b87565b92915050565b6000602082019050611ccd6000830184611b96565b92915050565b600081519050919050565b600082825260208201905092915050565b6000611cfa82611db7565b9150611d0583611db7565b9250827fffffffffffffffffffffffffffffffffffffffffffffffffffffffffffffffff03821115611d3a57611d39611e33565b5b828201905092915050565b6000611d5082611db7565b9150611d5b83611db7565b925082821015611d6e57611d6d611e33565b5b828203905092915050565b6000611d8482611d97565b9050919050565b60008115159050919050565b600073ffffffffffffffffffffffffffffffffffffffff82169050919050565b6000819050919050565b600060ff82169050919050565b60005b83811015611dec578082015181840152602081019050611dd1565b83811115611dfb576000848401525b50505050565b60006002820490506001821680611e1957607f821691505b60208210811415611e2d57611e2c611e62565b5b50919050565b7f4e487b7100000000000000000000000000000000000000000000000000000000600052601160045260246000fd5b7f4e487b7100000000000000000000000000000000000000000000000000000000600052602260045260246000fd5b6000601f19601f8301169050919050565b7f4f776e61626c653a206e6577206f776e657220697320746865207a65726f206160008201527f6464726573730000000000000000000000000000000000000000000000000000602082015250565b7f4f776e61626c653a2063616c6c6572206973206e6f7420746865206f776e6572600082015250565b611f2381611d79565b8114611f2e57600080fd5b50565b611f3a81611d8b565b8114611f4557600080fd5b50565b611f5181611db7565b8114611f5c57600080fd5b5056fe45524332303a206275726e20616d6f756e7420657863656564732062616c616e636545524332303a207472616e7366657220616d6f756e7420657863656564732062616c616e636545524332303a207472616e7366657220616d6f756e74206578636565647320616c6c6f77616e636545524332303a206275726e20616d6f756e74206578636565647320616c6c6f77616e636553473a204d696e7465642056616c7565206d757374206265206c6172676572207468616e206261736520666565a26469706673582212204801de681e4435080060124b449985d4e85c65824af1f295c53b0ca9bcdc17df64736f6c63430008040033",
  "immutableReferences": {},
  "source": "pragma solidity ^0.8.0;\r\n\r\nimport \"@openzeppelin/contracts/utils/math/Math.sol\";\r\nimport \"@openzeppelin/contracts/utils/math/SafeMath.sol\";\r\nimport \"@openzeppelin/contracts/token/ERC20/IERC20.sol\";\r\nimport \"@openzeppelin/contracts/access/Ownable.sol\";\r\nimport './ERC20WithoutTotalSupply.sol';\r\nimport \"./INonGSVEToken.sol\";\r\nimport \"./IGSVEToken.sol\";\r\n\r\ncontract wrappedNonGsveToken is IERC20, ERC20WithoutTotalSupply, Ownable, IGSVEToken{\r\n    using SafeMath for uint256;\r\n\r\n    //This is an erc-20 compliant wrapper for CHI. We use this to mint wChi from Chi, and pay during the process.\r\n    string public name;\r\n    string public symbol;\r\n    uint8 constant public decimals = 0;\r\n    \r\n    uint256 public totalMinted;\r\n    uint256 public totalBurned;\r\n\r\n    //Introduce a fee that is taken on mint/burn\r\n    uint256 public SGMintFee = 3;\r\n\r\n    //Add address for where fees will be added to. Eventually this can be a contract that GasSwap Holders can redeem siphoned gas from.\r\n    address public feeAddress;\r\n\r\n    address public wrappedTokenAddress;\r\n\r\n    // Set the fee address as the deployer for now. Eventually this will migrate to GasSwap Bank Contract\r\n    constructor(address _tokenAddress, string memory _name, string memory _symbol) {\r\n        feeAddress = msg.sender;\r\n        wrappedTokenAddress = _tokenAddress;\r\n        name = _name;\r\n        symbol = _symbol;\r\n\r\n    }\r\n\r\n    function totalSupply() public view override returns(uint256) {\r\n        return totalMinted - totalBurned;\r\n    }\r\n\r\n    function mint(uint256 value) public override {\r\n\r\n        IERC20(wrappedTokenAddress).transferFrom(msg.sender, address(this), value);\r\n        uint256 valueAfterFee =  value.sub(SGMintFee, \"SG: Minted Value must be larger than base fee\");\r\n        _mint(msg.sender, valueAfterFee);\r\n        _mint(feeAddress, SGMintFee);\r\n        totalMinted = totalMinted + value;\r\n    }\r\n\r\n    function discountedMint(uint256 value, uint256 discountedFee, address recipient) public override onlyOwner {\r\n        IERC20(wrappedTokenAddress).transferFrom(msg.sender, address(this), value);\r\n        uint256 valueAfterFee =  value.sub(discountedFee, \"SG: Minted Value must be larger than base fee\");\r\n        _mint(recipient, valueAfterFee);\r\n\r\n        if(discountedFee>0){\r\n            _mint(feeAddress, discountedFee);\r\n        }\r\n        \r\n        totalMinted = totalMinted + value;\r\n    }\r\n\r\n    function unwrap(uint256 value) public {\r\n        if(value > 0){\r\n            _burnFrom(msg.sender, value);\r\n            IERC20(wrappedTokenAddress).transferFrom(address(this), msg.sender, value);\r\n            totalMinted = totalMinted + value;\r\n        }\r\n    }\r\n\r\n    function free(uint256 value) public override returns (uint256)  {\r\n        if (value > 0) {\r\n            _burn(msg.sender, value);\r\n            INonGSVEToken(wrappedTokenAddress).free(value);\r\n            totalBurned = totalBurned + value;\r\n        }\r\n        return value;\r\n    }\r\n\r\n    function freeUpTo(uint256 value) public override returns (uint256) {\r\n        return free(Math.min(value, balanceOf(msg.sender)));\r\n    }\r\n\r\n    function freeFrom(address from, uint256 value) public override returns (uint256) {\r\n        if (value > 0) {\r\n            _burnFrom(from, value);\r\n            INonGSVEToken(wrappedTokenAddress).freeFrom(from, value);\r\n            totalBurned = totalBurned + value;\r\n        }\r\n        return value;\r\n    }\r\n\r\n    function freeFromUpTo(address from, uint256 value) public override returns (uint256) {\r\n        return freeFrom(from, Math.min(Math.min(value, balanceOf(from)), allowance(from, msg.sender)));\r\n    }\r\n\r\n    //Add function for Gas Swap that proposers can use to adjust mint fee.\r\n    function updateMintFee(uint256 newMintFee) public override onlyOwner {\r\n        SGMintFee = newMintFee;\r\n    }\r\n\r\n    //Add function that will allow eventual transfer to Gas Swap after initial setup phase\r\n    function updateFeeAddress(address newFeeAddress) public override onlyOwner {\r\n        feeAddress = newFeeAddress;\r\n    }\r\n    \r\n}\r\n",
  "sourcePath": "C:/Users/khera/Documents/GitHub/GasSwapTokens/contracts/wrappedNonGsveToken.sol",
  "compiler": {
    "name": "solc",
    "version": "0.8.4+commit.c7e474f2.Emscripten.clang"
  },
  "schemaVersion": "3.3.4",
  "updatedAt": "2021-04-25T16:51:59.319Z",
  "devdoc": {
    "kind": "dev",
    "methods": {
      "allowance(address,address)": {
        "details": "Returns the remaining number of tokens that `spender` will be allowed to spend on behalf of `owner` through {transferFrom}. This is zero by default. This value changes when {approve} or {transferFrom} are called."
      },
      "approve(address,uint256)": {
        "details": "Sets `amount` as the allowance of `spender` over the caller's tokens. Returns a boolean value indicating whether the operation succeeded. IMPORTANT: Beware that changing an allowance with this method brings the risk that someone may use both the old and the new allowance by unfortunate transaction ordering. One possible solution to mitigate this race condition is to first reduce the spender's allowance to 0 and set the desired value afterwards: https://github.com/ethereum/EIPs/issues/20#issuecomment-263524729 Emits an {Approval} event."
      },
      "balanceOf(address)": {
        "details": "Returns the amount of tokens owned by `account`."
      },
      "free(uint256)": {
        "details": "return number of tokens freed up."
      },
      "freeFrom(address,uint256)": {
        "details": "return number of tokens freed up."
      },
      "freeFromUpTo(address,uint256)": {
        "details": "return number of tokens freed up."
      },
      "freeUpTo(uint256)": {
        "details": "return number of tokens freed up."
      },
      "mint(uint256)": {
        "details": "mints new tokens."
      },
      "owner()": {
        "details": "Returns the address of the current owner."
      },
      "renounceOwnership()": {
        "details": "Leaves the contract without owner. It will not be possible to call `onlyOwner` functions anymore. Can only be called by the current owner. NOTE: Renouncing ownership will leave the contract without an owner, thereby removing any functionality that is only available to the owner."
      },
      "totalSupply()": {
        "details": "Returns the amount of tokens in existence."
      },
      "transfer(address,uint256)": {
        "details": "Moves `amount` tokens from the caller's account to `recipient`. Returns a boolean value indicating whether the operation succeeded. Emits a {Transfer} event."
      },
      "transferFrom(address,address,uint256)": {
        "details": "Moves `amount` tokens from `sender` to `recipient` using the allowance mechanism. `amount` is then deducted from the caller's allowance. Returns a boolean value indicating whether the operation succeeded. Emits a {Transfer} event."
      },
      "transferOwnership(address)": {
        "details": "Transfers ownership of the contract to a new account (`newOwner`). Can only be called by the current owner."
      },
      "updateFeeAddress(address)": {
        "details": "updates fee address of this contract."
      },
      "updateMintFee(uint256)": {
        "details": "updates number of minted tokens siphoned to Gas Swap holders."
      }
    },
    "version": 1
  },
  "userdoc": {
    "kind": "user",
    "methods": {},
    "version": 1
  }
}